:100000000C9423010C9440010C9440010C94400189
:100010000C9440010C9440010C9440010C9440015C
:100020000C9440010C941B160C9440010C9440015C
:100030000C9440010C94B2110C9440010C944001BA
:100040000C9440010C9440010C942A150C94F61564
:100050000C9440010C9440010C9440010C9440011C
:100060000C9440010C944001E1070F087A08E50761
:10007000F4070308E507E507E50721204F35204C85
:1000800031362061676166616561206461632B615F
:10009000646165612066613C61613C62616323610A
:1000A0002064616323616461656120664F3620646A
:1000B00063643C622D643C61643C6720643C662B55
:1000C000643C67643C61643C622D20643C64643C35
:1000D00065643C662B643C6720643C662B643C672B
:1000E000643C61644C38204D53203C622D643C627A
:1000F0002D64204D4C652D3C67652D3C67204D538C
:10010000633C61633C61204D4C20643C66643C660A
:10011000204F35204D5320622D67622D674D4C20B6
:100120003E6323653E632365204D5320616661660F
:10013000204D4C20676323676323204D5320666462
:100140006664204D4C20653C622D653C622D4F3627
:10015000204C31367261676166616561206461635C
:100160002361646165612066613C61613C62616339
:100170002361206461632361646165612066616558
:1001800061646163613C622D61636164673C622DFF
:1001900067206567646763673C622D67203C616721
:1001A0003C622D6763663C616620646663663C6200
:1001B0002D663C61663C67663C61663C622D653C31
:1001C0006765206323653C622D653C61653C67651E
:1001D000203C66653C67653C61643C66644F352045
:1001E000653E65653E65663E64663E6420622D3E02
:1001F0006323622D3E6323613E64663E6420653E58
:1002000065653E65663E64663E64653E643E6323A6
:100210003E64623E643E632362203E632361676105
:10022000656766652066204F3620646323646664D4
:1002300063233C6220632334003E6733323E3E63D7
:1002400033320000E61611241FBECFEFD8E0DEBF28
:10025000CDBF11E0A0E0B1E0E8E0FCE302C0059012
:100260000D92A439B107D9F722E0A4E9B1E001C0A9
:100270001D92AF31B207E1F70E944A040C94F71DBA
:100280000C940000CF93DF93CDB7DEB7E2970FB6A3
:10029000F894DEBF0FBECDBFDC0120E030E01AC015
:1002A000AD01420F531FCA018E5A9F4FFC011082AD
:1002B000FA0111AEEAE1F0E0EC0FFD1FE20FF31FCF
:1002C0001082E1E0F0E0EC0FFD1FE20FF31F10825F
:1002D0002F5F3F4F293131051CF35C968C915C9761
:1002E000813029F489838A8F21E030E002C020E048
:1002F00030E040E050E03BC05D968C915D9790E02F
:10030000042E02C0959587950A94E2F781704430D7
:100310005105B4F4813049F5E1E0F0E0EC0FFD1F48
:10032000E20FF31F82E0840F8083EAE1F0E0EC0F3C
:10033000FD1FE20FF31F81E080832F5F3F4F15C049
:10034000813099F4E1E0F0E0EC0FFD1FE20FF31FC4
:100350008DEF840F8083EAE1F0E0EC0FFD1FE20FE8
:10036000F31F82E080832F5F3F4F4F5F5F4F483026
:10037000510514F240E050E053C05E968C915E97B8
:1003800090E0042E02C0959587950A94E2F781705B
:1003900041155105B9F4813009F040C0E1E0F0E0C9
:1003A000EC0FFD1FE20FF31F85E0840F8083EAE16D
:1003B000F0E0EC0FFD1FE20FF31F82E080832F5F60
:1003C0003F4F2CC046305105A4F4813039F5E1E0AF
:1003D000F0E0EC0FFD1FE20FF31F4083EAE1F0E0D5
:1003E000EC0FFD1FE20FF31F83E080832F5F3F4F71
:1003F00015C0813099F4E1E0F0E0EC0FFD1FE20F51
:10040000F31F8BEF840F8083EAE1F0E0EC0FFD1F18
:10041000E20FF31F84E080832F5F3F4F4F5F5F4FFA
:10042000483051050CF4A9CF40E050E03BC05F9646
:100430008C915F9790E0042E02C0959587950A9461
:10044000E2F7817043305105B4F4813049F5E1E0C1
:10045000F0E0EC0FFD1FE20FF31F83E0840F8083B9
:10046000EAE1F0E0EC0FFD1FE20FF31F84E0808370
:100470002F5F3F4F15C0813099F4E1E0F0E0EC0FC1
:10048000FD1FE20FF31F8EEF840F8083EAE1F0E09F
:10049000EC0FFD1FE20FF31F85E080832F5F3F4FBE
:1004A0004F5F5F4F4830510514F220E030E019C033
:1004B000E1E0F0E0EC0FFD1FE20FF31F4081CD0102
:1004C000820F931FFC01EE5AFF4F4083EAE1F0E0F8
:1004D000EC0FFD1FE20FF31F4081FC0141AF2F5FC6
:1004E0003F4F2931310524F3E2960FB6F894DEBF71
:1004F0000FBECDBFDF91CF910895CF93DF9300D092
:100500001F92CDB7DEB728E029832FEF2A8325E697
:100510002B83FC016081CE0101960E94F3150F90A0
:100520000F900F90DF91CF9108951F93CF93DF939A
:10053000EC010E94A014813009F05EC08B8D8830E0
:1005400009F05CC0E881F0E03197EC0FFD1F838D6E
:10055000853609F055C0CE010E947D0288A18E3FEC
:1005600031F0FE01E559FF4F8081813049F48AE77F
:1005700090E00E94111281E0FE01E559FF4F808357
:100580008BA18A3F39F4FE01E559FF4F90819130EC
:1005900009F41082853F29F493E0FE01E559FF4FED
:1005A0009083803FA9F484E0FE01E559FF4F8083EA
:1005B00080E090E00AC0FC013996EC0FFD1F238D0E
:1005C000FE01E80FF91F25AB0196843091059CF3DD
:1005D000FE01E259FF4F80818F3FA1F43196808167
:1005E0008F3F91F4CE010E94420181E0FE01E0596B
:1005F000FF4F808311E009C010E007C010E005C084
:1006000010E003C011E001C011E080E005C0FE0170
:10061000E80FF11D81838F5F68818617C0F388E042
:100620008983FE01E459FF4F80818A83319680815E
:100630008B83319680818C83319680818D83349732
:1006400080818E83E62FF0E03197EC0FFD1F85E669
:100650008183CE0101960E94AE15113029F4688184
:10066000CE014B960E942715DF91CF911F910895DF
:10067000CF93DF93CDB7DEB760970FB6F894DEBFA8
:100680000FBECDBFAC0188E0E8E2F1E0DE011196DB
:1006900001900D928A95E1F788E0E0E3F1E0DE0158
:1006A000199601900D928A95E1F720E030E019C08B
:1006B000E1E0F0E0EC0FFD1FE20FF31F9081DA01A3
:1006C000A20FB31FFD01EE5AFF4F9083E9E0F0E067
:1006D000EC0FFD1FE20FF31F9081D9969C932F5FC3
:1006E0003F4F2830310524F360960FB6F894DEBFF3
:1006F0000FBECDBFDF91CF910895CF93DF93EC0173
:100700008AE1888360E875E280E090E00E947E15CF
:100710006881CE014B960E942715FE01EF58FF4FCE
:1007200085E992E09183808336971082319687E342
:100730008083319684E18083319684E08083319692
:1007400085E08083CE010E943803DF91CF91089528
:10075000CF92DF92EF92FF920E94F80EBC0180E0F0
:1007600090E00E942C0D6B017C019B01AC010E946A
:10077000BA0D9B01AC01C701B6010E94BA0D2CE075
:1007800039EB4DE250E30E94BA0DFF90EF90DF90FD
:10079000CF900895EF92FF920F931F93CF937C0118
:1007A0008B01C42F0E941D1360E080E00E94A413FF
:1007B00085E591E00E942C13B701FF0C880B990B83
:1007C0000E9481138AE591E00E942C1361E080E091
:1007D0000E94A4138CE591E00E942C13B801110F24
:1007E000880B990B0E9481138AE591E00E942C13DB
:1007F000C230A9F028F4CC2341F0C13059F01DC01B
:10080000C33091F0C430A9F018C081E691E00E9495
:100810002C1313C083E691E00E942C130EC085E6D2
:1008200091E00E942C1309C087E691E00E942C13EE
:1008300004C089E691E00E942C13CF911F910F9183
:10084000FF90EF90089503C083E50E942E050E945B
:1008500073068230C9F7089503C083E50E942E0510
:100860000E9473068130C9F70895CF93DF93EC019E
:100870000E942304BE0180E00E94BB0ABE0182E404
:100880000E94CD080E942C048CE40E942E05DF916A
:10089000CF910895CF93DF93CDB7DEB7C357D1097A
:1008A0000FB6F894DEBF0FBECDBF89E392E00E9481
:1008B0001112CE0101960E947D03CE0101960E9485
:1008C000B804E496EEADFFADE497CE01019609952C
:1008D0008FEFE0968FAFE097E1968FAFE19760E002
:1008E00080E00E94A413AD966FADAD9770E080E0FC
:1008F00090E00E948113AD968FADAD97823091F15B
:10090000833099F18111DDCFE0966FADE09770E013
:1009100080E090E00E948113E1966FADE19770E076
:1009200080E090E00E948113E2968FADE2978130E3
:1009300041F6E2961FAEE29789E392E00E9411121F
:10094000E0961FAEE097E1961FAEE197CE010196CB
:100950000E9435048FEFE0968FAFE097E1968FAF5E
:10096000E197AFCF0E94C207ACCF0E947B07A9CF0F
:10097000CF93DF93909309028093080280ED97E074
:100980000E94E2160DC00E941D1360E080E00E94EC
:10099000A4130E94F80EBC0180E090E00E94811335
:1009A00080E10E949D14882371F380E10E948914E4
:1009B00088EE93E00E946316C0E0D0E019C0CE013B
:1009C0004497889738F068ED7FEF88E290E00E94C6
:1009D0005A1406C068E270E088ED9FEF0E945A1436
:1009E00081E00E949F1684E190E00E9463162196A8
:1009F000C035D10520F360E070E080E090E00E9417
:100A00005A1480E10E949D148823D9F380E10E944A
:100A100089140E941D13DF91CF91089562E370E065
:100A200082E390E00E945A1488EC90E00E946316E2
:100A300060E070E080E090E00E945A14089560E069
:100A400070E080E090E00E945A1480E10E949D14C2
:100A50008823D9F380E10E94891408958F929F9290
:100A6000AF92BF92CF92DF92EF92FF920F931F93BC
:100A7000CF93DF93C82F8091080290910902FC0167
:100A8000EF58FF4F0190F081E02D099561E081E181
:100A900092E00E94AC168C0161E081E192E00E943C
:100AA000A516E0910802F0910902E559FF4F8081F7
:100AB000813039F460E070E080E090E00E945A14E8
:100AC00005C1CC3439F56CE370E084EC9FEF0E94F3
:100AD0005A1405C061E081E192E00E94A516809160
:100AE00015029091160280399140A0F705C061E08F
:100AF00081E192E00E94A516809115029091160264
:100B000081399140A0F360E070E080E090E00E94C5
:100B10005A14DCC0C23539F564EC7FEF8CE390E009
:100B20000E945A1405C061E081E192E00E94A5167E
:100B3000809115029091160280399140A0F705C06E
:100B400061E081E192E00E94A516809115029091EA
:100B5000160281399140A0F360E070E080E090E0FF
:100B60000E945A14B3C0C33509F066C0C801805D45
:100B7000974020910D0230910E02EC01C21BD30B65
:100B800060910F0270911002FC01E60FF71FF093C5
:100B90001002E0930F0290930E0280930D026AE020
:100BA00070E00E94121C6B01BF01FF0F880B990BB4
:100BB00020E43CE940E050E00E94481C0D2C000C71
:100BC000EE08FF08C20ED31EE41EF51EBE01DD0FA7
:100BD000880B990B0E942E0D20E030E040E05FE38F
:100BE0000E94BA0D4B015C01C701B6010E942E0D97
:100BF000A50194010E94180C0E94F60CCB016734E9
:100C0000710514F086E490E08A3B2FEF920714F40C
:100C10008AEB9FEF99233CF466E470E08A5B9F4F78
:100C20000E945A1453C066E470E0681B790B86E496
:100C300090E00E945A144AC0C23409F56EEC7FEF6E
:100C40008EEC9FEF0E945A14809117029091180227
:100C50008039914030F069EC7FEF8EEC9FEF0E947D
:100C60005A1480911302909114028039914070F1CE
:100C70006EEC7FEF89EC9FEF0E945A1427C0C435B9
:100C8000A1F46CE370E084EC9FEF0E945A1405C05D
:100C900061E081E192E00E94A51680911502909199
:100CA000160281399140A0F311C0C03579F40AC011
:100CB000BE01CE010E945A1484E090E00E946316A7
:100CC000239702C0C2E3D0E0DD2394F7DF91CF91F8
:100CD0001F910F91FF90EF90DF90CF90BF90AF905A
:100CE0009F908F900895CF93DF9361E081E192E030
:100CF0000E94A5162091110230911202203941E084
:100D0000340738F180911302909114028039914098
:100D100000F18091190290911A0281399140C8F432
:100D20000E940E0561E081E192E00E94A51680918B
:100D30001502909116028039914008F0CAC0809146
:100D40001702909118028039914008F4C4C086E0DF
:100D5000CFC08091170290911802803941E094072A
:100D600018F14091190250911A0240395140E0F0B7
:100D700021393140C8F40E940E0561E081E192E022
:100D80000E94A5168091150290911602803991401B
:100D900008F0A3C080911302909114028039914011
:100DA00008F49DC085E0A4C0209113023091140284
:100DB000203941E0340708F47DC0803961E09607AE
:100DC00008F478C00E940E0561E081E192E00E9483
:100DD000A51680911102909112028039914008F479
:100DE00060C080911302909114028039914008F400
:100DF00058C080911702909118028039914008F4F0
:100E000050C08091190290911A028039914008F4E3
:100E100048C00E941D1331C060E080E00E94A4130E
:100E2000C1E1D2E06A817B8180E090E00E94811381
:100E300061E080E00E94A4136E817F8180E090E0F9
:100E40000E94811360E085E00E94A413688179818B
:100E500080E090E00E94811361E085E00E94A4138D
:100E60006885798580E090E00E94811361E0CE0181
:100E70000E94A51683E50E942E0580911102909193
:100E800012028039914040F68091190290911A0225
:100E90008039914008F60E941F050E941D1382E0D0
:100EA00027C0809115029091160280399140C8F0B8
:100EB00088E01EC04091150250911602493C510530
:100EC00090F4293C310588F4893C910580F080E05C
:100ED0000FC086E00DC083E00BC085E009C084E050
:100EE00007C087E005C080E003C080E001C081E06A
:100EF000DF91CF910895CF93DF93E0910802F091B5
:100F0000090285A9813049F460E070E080E090E05A
:100F10000E945A14C1E0D0E002C0C0E0D0E0E091ED
:100F20000802F091090286A9813041F488279927A7
:100F30008C1B9D0BBC010E945A142197E091080262
:100F4000F091090287A9813049F4CE01DD230CF428
:100F50000196BE01959587950E945A14E09108026A
:100F6000F091090280AD813051F4BE01DD2314F40B
:100F70006F5F7F4F75956795CE010E945A14DF9180
:100F8000CF910895E0910802F0910902E559FF4FD1
:100F900080818130B9F308950F931F93CF93DF932E
:100FA00000D0CDB7DEB70E9473068093010290E0B7
:100FB0008930910508F041C0FC01EC5CFF4F0C94B6
:100FC000671C83E50E942E0538C08CE40E942E0524
:100FD0008CE4898341E050E0BE016F5F7F4F84E184
:100FE00091E00E94E71D29C082E50E942E0582E55E
:100FF000898341E050E0BE016F5F7F4F84E191E063
:101000000E94E71D1AC083E5898341E050E0BE01DC
:101010006F5F7F4F84E191E00E94E71D0EC084E581
:101020000E942E0584E5898341E050E0BE016F5F98
:101030007F4F84E191E00E94E71D0E941D1360E054
:1010400080E00E94A41300E010E008C0F801EC5E0C
:10105000FE4F80810E94AD120F5F1F4FE4E1F1E06F
:1010600001900020E9F73197E451F140E017F107D2
:1010700068F7DF01AE5EBE4F8C91843509F093CFE7
:10108000DF01AF5EBE4F8C91ED5EFE4F90818C34E0
:1010900029F49C3419F483E58A831BC0833529F431
:1010A0009C3419F482E58A8314C0823529F49C3477
:1010B00019F484E58A830DC08C3429F4923519F42F
:1010C00084E58A8306C08C3421F4933511F482E5DB
:1010D0008A83E4E1F1E001900020E9F7349710827F
:1010E00041E050E0BE016E5F7F4F84E191E00E94DD
:1010F000E71D59CF80E50E942E0580E090E00F901B
:101100000F90DF91CF911F910F910895EF92FF9271
:101110001F93CF93DF93182FC0E0D0E02AC083E560
:101120000E942E050E9473068823C9F3143539F4F2
:10113000FE01EC5EFE4F80810E942E0519C0123424
:10114000B9F4E4E1F1E001900020E9F73197E451CE
:10115000F140EE19FF09ED5EFE4F80818C3419F0ED
:10116000823519F003C082E501C08CE40E942E058F
:101170002196E4E1F1E001900020E9F73197E45194
:10118000F1407E01CE17DF0768F280E090E0DF914A
:10119000CF911F91FF90EF9008951F93CF93DF930E
:1011A00000D0CDB7DEB7182F7A8369830E94A803D9
:1011B0000E94F60C41E080E090E00E94CA0380911A
:1011C00014018F3561F484E1E4E1F1E0DF011D9267
:1011D0008A95E9F7CE0101960E94CC0705C0698186
:1011E0007A81812F0E94860880E090E00F900F9016
:1011F000DF91CF911F910895FC012081FB01308187
:10120000FC013083FB01208308958F929F92AF925F
:10121000BF92CF92DF92EF92FF920F931F93CF93E3
:10122000DF938C015B016A01E12CF12C28C0F801ED
:10123000EC0FFD1F90814E018FEF881A980AD8019C
:10124000A80DB91D8C91891760F4BD01CF010E94D2
:10125000FC08B501680D791DC5018C0F9D1F0E940A
:10126000FC08219602C0C0E0D0E0C6018E199F099B
:101270000197C817D907DCF28FEFE81AF80AC60100
:101280000197E816F9067CF3DF91CF911F910F913A
:10129000FF90EF90DF90CF90BF90AF909F908F9096
:1012A0000895CF92DF92EF92FF920F931F93CF9307
:1012B000DF936C017A0183E50E942E0500E010E0C7
:1012C000C1E0D0E022C00E947306813049F020F0D6
:1012D00083508630D0F404C083E50E942E0515C0EB
:1012E0000F5F1F4F83E50E942E050C151D0529F485
:1012F00080E50E942E05C0E0D0E0F701EF58FF4FD7
:101300000190F081E02DC70109952097E1F6DF916A
:10131000CF911F910F91FF90EF90DF90CF900895A4
:10132000CF930E947306C82F8FE090E00E9463164F
:1013300003C00E947306C82FC111FBCF8EE40E9428
:101340002E05CF910895EF92FF920F931F93CF93A5
:10135000C82F8B01EE24E394F12CA6C0F801848100
:101360008E3459F018F4853469F198C0833509F446
:101370004EC0873509F46FC091C0C53449F482E589
:101380000E942E050E94900985E4F801848386C09E
:10139000C73549F48CE40E942E050E94900987E528
:1013A000F80184837BC0C33509F078C08CE40E94C7
:1013B0002E058CE40E942E050E94900983E5F80119
:1013C00084836CC0C33549F482E50E942E050E94D7
:1013D000900983E5F801848361C0C73549F48CE442
:1013E0000E942E050E94900987E5F801848356C06B
:1013F000C33509F053C08CE40E942E058CE40E9492
:101400002E050E94900983E5F801848347C0C73503
:1014100049F482E50E942E050E94900987E5F801B3
:1014200084833CC0C53449F48CE40E942E050E949C
:10143000900985E4F801848331C0CE3479F58CE4D9
:101440000E942E058CE40E942E050E9490098EE4D5
:10145000F801848323C0CE3449F482E50E942E052E
:101460000E9490098EE4F801848318C0C33549F4C2
:101470008CE40E942E050E94900983E5F801848384
:101480000DC0C53459F48CE40E942E058CE40E94F2
:101490002E050E94900985E4F8018483F801848177
:1014A000C81302C0E12CF12CF1E0EF16F10409F4AD
:1014B00055CFCF911F910F91FF90EF900895EF922C
:1014C000FF920F931F93CF93DF93FB012081318114
:1014D00028173907D9F07A01EB018C012817390751
:1014E00054F487E50E94A309888199819801281BFB
:1014F000390BC90107C085E40E94A309888199813D
:10150000801B910BA701BE010E945109DF91CF9171
:101510001F910F91FF90EF900895EF92FF920F931C
:101520001F93CF93DF93FB01228133812817390763
:10153000D9F07A01EB018C012817390754F48EE4B5
:101540000E94A3098A819B819801281B390BC9013C
:1015500007C083E50E94A3098A819B81801B910BB0
:10156000A701BE010E945109DF91CF911F910F91F8
:10157000FF90EF9008952F923F924F925F926F925B
:101580007F928F929F92AF92BF92CF92DF92EF9213
:10159000FF920F931F93CF93DF93CDB7DEB7E797FB
:1015A0000FB6F894DEBF0FBECDBFF82E8B0187E5D6
:1015B0008D831A82198281E090E09C838B8380E086
:1015C00090E0C12CD12C0CC0F801E80FF91FEE5AA5
:1015D000FF4F2081222319F02FEFC21AD20A019661
:1015E000893191058CF380E090E018C0D801A80FF4
:1015F000B91FFD01EE5AFF4F2081E6E0F0E0EC0F4D
:10160000FD1FE80FF91F2083D9962C91EFE1F0E040
:10161000EC0FFD1FE80FF91F208301968C159D0527
:101620002CF30E941D13A601BE01615E7F4FCE0107
:1016300006960E940509FF2009F485C09BC0B101F0
:10164000032C000C880B990B0E942E0D2B013C01E2
:10165000B6010D2C000C880B990B0E942E0D4B012E
:101660005C010F2EF6E0EF2EF12CF02DEC0EFD1E9E
:10167000E20CF31CF7018081A801BE016F5F7F4F70
:1016800090E00E945F0AF701808190E09A8389834D
:101690000F2EFFE1EF2EF12CF02DEC0EFD1EE20CD3
:1016A000F31CF7018081A801BE016F5F7F4F90E0BE
:1016B0000E948D0AF701808190E09C838B8388EEE5
:1016C00093E00E9463160E94A8037801FCE6EF0EE7
:1016D000F11C0E94FD0CF701608320E030E040E83F
:1016E0005FE3C301B2010E94180CA50194010E949E
:1016F000840C20E030E048EC52E40E94BA0D4B012B
:101700005C017801FDE6EF0EF11C0E94FD0CF70173
:10171000608334960190F081E02DC80109950E9404
:10172000A8030E94F60C2B013C01C501B4010E94E4
:10173000F60CDC01CB0142E0B2010E94CA03FFEFCC
:101740002F1A3F0A02C0212C312C2C143D040CF41A
:1017500076CFA801BE016F5F7F4F81E090E00E94CD
:101760008D0AA801BE016F5F7F4F81E090E00E946B
:101770005F0A44C08091020290910302892B29F5EF
:10178000A801BE016F5F7F4F81E090E00E94510988
:1017900082E50E942E05A801BE016F5F7F4F83E0A6
:1017A00090E00E94510982E50E942E05A801BE0129
:1017B0006F5F7F4F81E090E00E94510981E090E0EF
:1017C000909303028093020219C084E50E942E05C3
:1017D000A801BE016F5F7F4F81E090E00E94510938
:1017E0008CE40E942E05A801BE016F5F7F4F83E04D
:1017F00090E00E9451098CE40E942E05E7960FB6F6
:10180000F894DEBF0FBECDBFDF91CF911F910F9136
:10181000FF90EF90DF90CF90BF90AF909F908F9010
:101820007F906F905F904F903F902F900895505809
:10183000BB27AA270E942F0C0C94800D0E94720DCA
:1018400038F00E94790D20F039F49F3F19F426F406
:101850000C946F0D0EF4E095E7FB0C94690DE92FE5
:101860000E94910D58F3BA17620773078407950712
:1018700020F079F4A6F50C94B30D0EF4E0950B2E40
:10188000BA2FA02D0B01B90190010C01CA01A001D2
:101890001124FF27591B99F0593F50F4503E68F12D
:1018A0001A16F040A22F232F342F4427585FF3CF6E
:1018B000469537952795A795F0405395C9F77EF43F
:1018C0001F16BA0B620B730B840BBAF09150A1F088
:1018D000FF0FBB1F661F771F881FC2F70EC0BA0F0E
:1018E000621F731F841F48F4879577956795B79596
:1018F000F7959E3F08F0B0CF9395880F08F0992791
:10190000EE0F9795879508950E94980C0C94800D82
:101910000E94790D58F00E94720D40F029F45F3F4B
:1019200029F00C94690D51110C94B40D0C946F0DA9
:101930000E94910D68F39923B1F3552391F3951B00
:10194000550BBB27AA2762177307840738F09F5FE0
:101950005F4F220F331F441FAA1FA9F335D00E2E4D
:101960003AF0E0E832D091505040E695001CCAF7BA
:101970002BD0FE2F29D0660F771F881FBB1F26177D
:1019800037074807AB07B0E809F0BB0B802DBF0154
:10199000FF2793585F4F3AF09E3F510578F00C9423
:1019A000690D0C94B40D5F3FE4F3983ED4F3869533
:1019B00077956795B795F7959F5FC9F7880F911D44
:1019C0009695879597F90895E1E0660F771F881F30
:1019D000BB1F621773078407BA0720F0621B730BE3
:1019E000840BBA0BEE1F88F7E09508950E94FD0C5A
:1019F0006894B1110C94B40D08950E94990D88F06B
:101A00009F5798F0B92F9927B751B0F0E1F0660FC2
:101A1000771F881F991F1AF0BA95C9F714C0B13003
:101A200091F00E94B30DB1E008950C94B30D672FAF
:101A3000782F8827B85F39F0B93FCCF38695779532
:101A40006795B395D9F73EF490958095709561951B
:101A50007F4F8F4F9F4F0895E89409C097FB3EF446
:101A600090958095709561957F4F8F4F9F4F9923EB
:101A7000A9F0F92F96E9BB279395F6958795779569
:101A80006795B795F111F8CFFAF4BB0F11F460FF29
:101A90001BC06F5F7F4F8F4F9F4F16C0882311F081
:101AA00096E911C0772321F09EE8872F762F05C095
:101AB000662371F096E8862F70E060E02AF09A9530
:101AC000660F771F881FDAF7880F9695879597F925
:101AD000089597F99F6780E870E060E008959FEFB0
:101AE00080EC089500240A941616170618060906B5
:101AF000089500240A941216130614060506089584
:101B0000092E0394000C11F4882352F0BB0F40F40B
:101B1000BF2B11F460FF04C06F5F7F4F8F4F9F4F4B
:101B2000089557FD9058440F551F59F05F3F71F0CD
:101B30004795880F97FB991F61F09F3F79F0879534
:101B40000895121613061406551FF2CF4695F1DFBD
:101B500008C0161617061806991FF1CF869571054D
:101B6000610508940895E894BB2766277727CB0181
:101B700097F908950E94CD0D0C94800D0E94720D6E
:101B800038F00E94790D20F0952311F00C94690D26
:101B90000C946F0D11240C94B40D0E94910D70F3F0
:101BA000959FC1F3950F50E0551F629FF001729F02
:101BB000BB27F00DB11D639FAA27F00DB11DAA1F11
:101BC000649F6627B00DA11D661F829F2227B00D5E
:101BD000A11D621F739FB00DA11D621F839FA00DE9
:101BE000611D221F749F3327A00D611D231F849F39
:101BF000600D211D822F762F6A2F11249F57504090
:101C00009AF0F1F088234AF0EE0FFF1FBB1F661F0A
:101C1000771F881F91505040A9F79E3F510580F0D3
:101C20000C94690D0C94B40D5F3FE4F3983ED4F32B
:101C3000869577956795B795F795E7959F5FC1F777
:101C4000FE2B880F911D9695879597F90895ECE7DF
:101C5000F0E080818F7D80830895811103C00E9410
:101C6000270E089580917C00806280937C00089507
:101C700080917C0085FB882780F908950E94380EAA
:101C8000882321F08091790090E008958091780078
:101C90009091790008958032A0F497E890937A00AB
:101CA00090917C00662311F0906C02C09F77906445
:101CB000907E982B90937C0080917A008064809332
:101CC0007A000895A0E0B0E0E8E6FEE00C94991CEC
:101CD000EB0160E00E944B0E80917A0086FDFCCF04
:101CE0008E01C12CD12C760180917A008064809382
:101CF0007A0080917A0086FDFCCF0E943E0EC80ECD
:101D0000D91EE11CF11C015011090115110561F7E3
:101D1000CE0196958795C034D10538F48C0D9D1D64
:101D2000BE010E94FE1BCB010EC0A7019601280F29
:101D3000391F411D511DCA01B9019E0140E050E00B
:101D40000E94261CC901CDB7DEB7E8E00C94B51C93
:101D5000CF92DF92EF92FF92A0910001B09101012A
:101D60009C010E946D1C6B017C010E94380E88232F
:101D700059F0C701B60161587F4F8F4F9F4F2FEF2A
:101D800030E040E050E00AC0C701B60161507E4F2C
:101D90008F4F9F4F2FEF33E040E050E00E94261C12
:101DA000C901FF90EF90DF90CF9008950E94620EDE
:101DB0000E94A80E08951F93CF93DF930E94380EC0
:101DC000182F0E94270E6AE070E086E00E94D60E6F
:101DD000EC01812F0E942D0ECE01880F991F8C0FD0
:101DE0009D1F019696958795DF91CF911F9108953C
:101DF0000E94DB0E089590919901E0919401F09179
:101E00009501992311F0849101C080812FEB280F57
:101E10002A3110F4805E0895803249F49F012F5FCB
:101E20003F4F3093950120939401EF2B31F70895A4
:101E30001F93CF93DF930E94FB0EC0E0D0E01AE027
:101E400090ED980F9A30B8F49E01129FE001139F15
:101E5000D00D1124C80FD11D87FDDA95E097809130
:101E6000940190919501019690939501809394012E
:101E70000E94FB0EE5CFCE01DF91CF911F91089517
:101E800010926F0083E28093800081E18093810053
:101E90001092820080E197E29093890080938800FD
:101EA00010928B0010928A00229A789408958F9253
:101EB0009F92AF92BF92DF92EF92FF920F931F9388
:101EC000CF93DF935C018B01D42E80919601811119
:101ED00005C081E0809396010E94400F10920B0193
:101EE000B7FE05C0E894B7F82AE0F22E02C0FF243E
:101EF000F394E09081002E2D287FE22E48ECF49E92
:101F0000C00111248A159B05E0F4E50151E1A516F5
:101F100057E2B50610F0C0E1D7E2BE0176956795AD
:101F200080E090E06058794687469F4F4E01A12C93
:101F3000B12CA50194010E94261C59018E2D8160AF
:101F400024C0C8E2FC9EC02D1124D0E0CA15DB05D8
:101F500008F4E501BE01769567959E0140E050E0EA
:101F60008AE0F81207C080E090E0605E734481442C
:101F70009F4F06C080E090E060537D4E8C4E9F4F97
:101F80000E94261C59018E2D8260882E2AE0F212B2
:101F900007C0CE0105966AE070E00E94FE1BEB01CF
:101FA000C83E43E0D40759F09801DE010E946D1C41
:101FB00028EE33E040E050E00E94481C8901109276
:101FC0006F0080928100B0928900A09288002091D9
:101FD0008800309189004D2D403108F04FE080E1BC
:101FE00090E0841B9109A90102C0569547958A95F6
:101FF000E2F750938B0040938A0010939C0100936A
:102000009B0186B38FEF86BB81E080936F00DF91E9
:10201000CF911F910F91FF90EF90DF90BF90AF9005
:102020009F908F900895CF93DF93EB018F3F11F036
:10203000411105C040E0BE0188EE93E043C081310C
:1020400030F050EF580F503618F05FE501C050E007
:10205000852F6CE00E94F21B682F74EF76039001CD
:102060001124250F311D2C30310540F4F901EE0FFC
:10207000FF1FE85CFE4F2081318102C020E030E08C
:10208000873081F0082E02C0220F331F0A94E2F736
:10209000823028F0C90105966AE070E00CC0C901E1
:1020A00090580CC0C90136E0880F991F3A95E1F7A6
:1020B000029665E070E00E94FE1BCB01403108F003
:1020C0004FE0BE010E94570FDF91CF910895A2E02B
:1020D000B0E0EDE6F0E10C94911C90900A01809143
:1020E0009801882321F060919701611117C077242E
:1020F0007394B0ECAB2EBDE5BB2E1AE0612E04E06C
:10210000802E80EDC82E87E0D82E94E0E92EF12CA9
:1021100004EF11E02FE0422E512C15C070E040E09A
:1021200088EE93E00E94570F1092970117C18636F0
:10213000D4F5813609F4A9C07CF58C3309F460C06C
:102140008E3381F493940E94FB0E20919401309180
:1021500095012F5F3F4F3093950120939401853671
:1021600031F752C0813209F08BC080920A01D092BF
:102170000901C0920801F0920701E0920601109354
:102180000501009304015092030140920201109254
:102190009801A4E09A2ED7CF8336A1F10CF478C031
:1021A00010E082E077C08D36C1F194F4873691F16A
:1021B00074F18C3609F064C00E94180FBC01909332
:1021C000070180930601809108019091090151C097
:1021D0008237C9F14CF48F3609F052C00E94180FB3
:1021E000982E80930A01AFCF843781F1863709F0AA
:1021F00047C00E94180F9093030180930201A3CF60
:102200009A94A1CF10E020C010E084E043C010E019
:1022100085E040C010E087E03DC00E94FB0E8C3698
:1022200019F41092980104C07092980110929701CD
:1022300020919401309195012F5F3F4F309395018C
:102240002093940180CF11E080E024C00E94180FF9
:10225000BC01C5010E94FE1B669EC001679E900DD9
:1022600011249093090180930801609106017091F7
:1022700007010E94FE1B709305016093040163CF68
:10228000109295011092940169C010E089E002C09B
:1022900010E08BE0082F9CE0999E000D11240E9415
:1022A000FB0E982F977F933261F420919401309127
:1022B00095012F5F3F4F30939501209394010F5F5D
:1022C000EECF8D3271F420919401309195012F5F02
:1022D0003F4F309395012093940101500E94FB0ED3
:1022E000F0CF60910401709105018153883050F462
:1022F000E0900801F09009010E94180FBC01C7018D
:102300000E94FE1B7B01F694E79469837A830E9406
:10231000FB0E69817A818E3269F4209194013091AB
:1023200095012F5F3F4F30939501209394016E0DDF
:102330007F1DE9CF80919801882339F09B01369564
:10234000279520939701621B710940910201112387
:1023500011F08FEF01C0802F0E9413102296E0E150
:102360000C94AD1C1F920F920FB60F9211242F9355
:102370003F934F935F936F937F938F939F93AF930D
:10238000BF93EF93FF9380919B0190919C019C01DF
:102390002150310930939C0120939B01892B11F529
:1023A00010926F00789480918100887F8160809383
:1023B000810080E197E290938900809388001092D9
:1023C0008B0010928A0081E080930B018091940130
:1023D00090919501892B31F080919A01811102C071
:1023E0000E946710FF91EF91BF91AF919F918F91E4
:1023F0007F916F915F914F913F912F910F900FBE01
:102400000F901F90189510926F00909395018093F4
:10241000940181E080939901109297010E946710C6
:1024200008950E940312089581E090E06F9364E0A4
:102430006A95F1F76F910197C9F708950F931F936C
:10244000CF93DF931AB157985A98289AC0E0D0E0FA
:102450000E9414125C9A0E94141209B15C980E94A6
:1024600014125C9A0E9414125C98249607FF10C004
:10247000AE0160E070E080919D0190919E01A0917D
:102480009F01B091A001481759076A077B0700F325
:102490001AB9DF91CF911F910F91089595B1282F0F
:1024A000217030E0220F331F482F467068E0469FAE
:1024B000A0011124242B9D7C292B25B99BB1887068
:1024C0008295807F9F77892B8BB95C9A0E9414122A
:1024D0005C980E9414120895A0E0B0E0E2E7F2E1F7
:1024E0000C949A1CC82FD62EE42E809104028111E0
:1024F00005C081E0809304020E94B5120E941E1262
:1025000014B1D5B1FAB00BB12898DD2011F05A9A68
:1025100001C05A9894B1926394B9579A81E0E81631
:1025200029F08C2F82958F700E944E128C2F8F7005
:102530000E944E12FAB80BB914B9D5B9CDB7DEB7AF
:10254000E7E00C94B61C42E060E00E946C12089533
:1025500042E061E00E946C1208950E94A812089562
:1025600041E060E00E946C12089580E197E2A0E0F3
:10257000B0E080939D0190939E01A0939F01B09342
:10258000A001529A209A549A8EE190E00E9463161C
:1025900083E00E94B01286E090E00E94631683E020
:1025A0000E94B01282E090E00E94631683E00E94D5
:1025B000B01282E090E00E94631682E00E94B012A6
:1025C00082E090E00E94631688E20E94A31288E0F5
:1025D0000E94A31281E00E94A31286E00E94A3122F
:1025E0008CE00E94A312089581E00E94A3128091C2
:1025F000A3019091A401892BF9F060E0A0E2262FBD
:1026000030E070910C0180910D0190E00197789F6E
:10261000A001799F500D1124241735074CF4E09147
:10262000A301F091A401E20FF31FA0836F5FE7CF36
:102630001092A1011092A20108950E94F41208952F
:10264000CF93DF93EC018991882319F00E94A8129F
:10265000FACFDF91CF9108950E9420130895AAE048
:10266000B0E0E5E3F3E10C94991C1AE05AE0C52EC2
:10267000D12CE12CF12C062FA70196010E94261CDB
:10268000CA01B9011150E1E0F0E0EC0FFD1FE10FCC
:10269000F11D005D2AE0629F00191124008361157D
:1026A00071058105910539F71A3058F4E1E0F0E041
:1026B000EC0FFD1FE10FF11D80810E94A8121F5F2A
:1026C000F3CF2A96E8E00C94B51CCF92DF92EF92FC
:1026D000FF926B017C0197FF0BC0F094E094D094C3
:1026E000C094C11CD11CE11CF11C8DE20E94A812F7
:1026F000C701B6010E942F13FF90EF90DF90CF909B
:1027000008950E9465130895A5E0B0E0EAE8F3E1BA
:102710000C949E1C182F80E8898380EC8A8384E9BE
:102720008B8384ED8C83FE01E60FF11D8181810F87
:102730006D830E94A3121093A1016D816093A20189
:102740002596E3E00C94BA1C0E9484130895883007
:1027500058F491E001C0990F8A95EAF7892FAAE20F
:10276000B0E0EBE2F0E021C08E3060F498EF980F1B
:1027700081E001C0880F9A95EAF7A4E2B0E0E5E2B3
:10278000F0E013C0853160F492EF980F81E001C052
:10279000880F9A95EAF7A7E2B0E0E8E2F0E005C01A
:1027A00080E0A0E0B0E0E0E0F0E06F3F19F490815D
:1027B000982709C0662319F09081982B04C02081C6
:1027C000982F9095922390839C91982B9C93089599
:1027D00083EF8093B00084BD82E08093B10085BD1B
:1027E0001092B4001092B30018BC17BC60E086E0F1
:1027F0000E94A71360E085E00E94A71360E08BE0D1
:102800000E94A71360E083E00E94A71308958091BF
:102810000502811105C081E0809305020E94E81342
:102820000895CF93DF93EC010E940714D7FF05C0F2
:10283000D195C195D10981E001C080E0CF3FD1059C
:1028400019F014F0CFEFD0E0882319F018BCC7BD01
:1028500002C0C8BD17BCDF91CF910895CF93DF931D
:10286000EC010E940714D7FF05C0D195C195D1098D
:1028700081E001C080E0CF3FD10519F014F0CFEF27
:10288000D0E0882329F01092B400C093B30004C0B4
:10289000C093B4001092B300DF91CF910895CF930D
:1028A000DF93EB010E941114CE010E942E14DF91E0
:1028B000CF9108950E944F14089584B18D7C84B9FE
:1028C00085B1826385B985E090E06F9364E06A9595
:1028D000F1F76F910197C9F7089580910602811170
:1028E00005C081E0809306020E945D140895CF9395
:1028F000C82F0E946D1483B18C23E9F38AE090E025
:102900000E94631683B18C23B1F383B18C23CF91E2
:1029100008950E9477140895A1E0B0E0E2E9F4E19F
:102920000C949F1C89830E946D1493B190958981AA
:1029300089232196E2E00C94BB1C0E948C1408951C
:102940002091A70181E09091A901291380E00895C9
:10295000282F30E09AE0899FF0011124EB55FE4FBB
:1029600080859185009721F052814481541780F031
:102970008AE0829FF001839FF00D1124EB55FE4FFA
:102980009281848198130EC0858181110AC00895B7
:102990004281DC01A40FB11D6C9382818F5F828321
:1029A000E7CF12820895CF93DF939091C1009F7774
:1029B0009093C100C82FD0E09AE0899FF0011124C4
:1029C000EB55FE4F20853185232B41F022819481E8
:1029D000291720F49091C00097FD11C08AE08C9FC8
:1029E000F0018D9FF00D1124EB55FE4F8081811178
:1029F0000BC08091C10080688093C10005C06091C8
:102A0000C6000E94A814EACFDF91CF91089590915B
:102A1000C1009F779093C1009AE0899FF001112433
:102A2000EB55FE4F71876087128244832583808136
:102A3000811105C08091C10080688093C100089514
:102A4000462F20E0BC0180E00E94071508950E94F7
:102A5000201508951F920F920FB60F9211242F93F5
:102A60003F934F935F936F937F938F939F93AF9316
:102A7000BF93EF93FF936091C60080E00E94A8147B
:102A8000FF91EF91BF91AF919F918F917F916F9146
:102A90005F914F913F912F910F900FBE0F901F901C
:102AA00018959AE0899FF0011124EB55FE4F86811D
:102AB0009781892B59F091818381981738F480810F
:102AC000811104C08091C100806203C08091C10067
:102AD0008F7D8093C10008959AE0899FF0011124B1
:102AE000EB55FE4F9081911102C098E901C098E129
:102AF0009093C1000E94511578940895CF92DF926F
:102B0000EF92FF926B017C0180E00E946C15A8EFB0
:102B1000BFEFA70196010E948A1C735D8E4C9E4FE9
:102B2000E4E0220F331F441F551FEA95D1F70E949E
:102B3000261C3093C5002093C400FF90EF90DF90D7
:102B4000CF9008959093AC018093AB011092A601B1
:102B50006093A80180E00E94511508950E94A2157B
:102B600008959AE0899FF0011124EB55FE4F2681CC
:102B700037812115310541F041819381491720F4B6
:102B80009091C00095FD03C00E9451150895918158
:102B9000D901A90FB11D9C919093C60091819F5FAF
:102BA0009183F2CFE1ECF0E080818F7D808380E043
:102BB0000E94B11580E00E94D31408959093AC0157
:102BC0008093AB011092A6016093A80180E00E945F
:102BD00051159091A6018091A801981719F00E94B3
:102BE000D215F7CF08950E94DE1508951F920F9217
:102BF0000FB60F9211242F933F934F935F936F93D0
:102C00007F938F939F93AF93BF93EF93FF9380E056
:102C10000E94B115FF91EF91BF91AF919F918F915C
:102C20007F916F915F914F913F912F910F900FBEC8
:102C30000F901F9018952F928F939F932FB680918E
:102C4000B6019091B70101968093B6019093B701B8
:102C500090E08091B801891F8093B8019091B001F4
:102C60009C5F9093B0018091AF0180519742C0F07A
:102C70009093B0018093AF018091B1019091B20126
:102C800001968093B1019093B20190E08091B301DD
:102C9000891F8093B3018091B401891F8093B4018F
:102CA0002FBE9F918F912F90189528EE33E00197BA
:102CB00048F0F9016F9364E06A95F1F76F913197ED
:102CC000C9F7F5CF08950E9455160895E0E7F0E0A2
:102CD00080818E7F8083A0EBB0E08C9183608C93A9
:102CE000A1EBB0E08C91807F8C938C9182608C936F
:102CF000B89A8081816080837894089580910702DA
:102D0000811105C081E0809307020E946616089534
:102D10000E947E16E0E7F0E080818E7F8083109233
:102D2000B1011092B2011092B3011092B40110924D
:102D3000B0011092AF018081816080830895682F77
:102D400089EB91E00E948E1A0895462FBC0189EB11
:102D500091E00E94B21A0895462F20E0BC0189EB51
:102D600091E00E945F1B08950F93CF93DF9300D0F3
:102D700000D01F92CDB7DEB79C0185E0E0E5F1E021
:102D8000DE01119601900D928A95E1F7662311F00C
:102D90000FEF01C003E145E0BE016F5F7F4F89EB9C
:102DA00091E00E94861789EB91E00E945D170E94D6
:102DB00088160F900F900F900F900F90DF91CF918A
:102DC0000F91089560E00E94B416089589EB91E098
:102DD0000E94D41B08956F9364E06A95F1F76F9198
:102DE0000197C9F70895FC011182108213821282A3
:102DF000158214821682683068F489E290E091832B
:102E000080838BE290E0938382838AE290E09583D3
:102E100084831FC06E3070F483E290E091838083DE
:102E200085E290E09383828384E290E095838483BB
:102E300068500FC0653198F486E290E091838083FA
:102E400088E290E09383828387E290E09583848395
:102E50006E5081E001C0880F6A95EAF78683089575
:102E6000A7E0B0E0E6E3F7E10C949D1C8C01FC01C7
:102E700011821082138212821582148217821682A6
:102E8000613118F080E1808702C0FC016087F801A1
:102E9000208B642FCE0101960E94F3168F81F801DA
:102EA00081878B819C81938782878D819E81958785
:102EB00084872796E4E00C94B91CFC01A485B585B1
:102EC000109779F08C919185892B8C93A285B3858D
:102ED0009C918185809589238C9388EC90E00E9459
:102EE000EB160895FC01A485B585109771F08C91BF
:102EF0009185892B8C93A285B3858C919185892BA3
:102F00008C9388EC90E00E94EB160895A7E0B0E067
:102F1000ECE8F7E10C94921C7C014B01642F390121
:102F2000402F20E00E94301787010F5B1F4FF801F0
:102F300010826701F2E4CF0ED11CF6011082570116
:102F4000F3E4AF0EB11CF5011082F70177866686B7
:102F5000512CF7018085581650F5652C712CF40121
:102F6000E60DF71D6081CE0101960E94F3162F81B8
:102F7000F701E60DF71D218B89819A81F301EE0F90
:102F8000FF1FEE0DFF1D92A381A38332910511F463
:102F9000F80108C08632910511F4F60103C0899743
:102FA00021F4F5018081822B80835394D2CF279620
:102FB000EFE00C94AE1CA0E0B0E0E1EEF7E10C9481
:102FC000941CEC015B016C0181E4C80ED11CF6017C
:102FD00080807E01F2E4EF0EF11CF70170808E011B
:102FE0000D5B1F4FF801908080E09885891748F4A9
:102FF000F501E80FF11DE80FF11D118210828F5FBE
:10300000F4CF84B1F6019081892B84B987B1F7019F
:103010009081892B87B98AB1F8019081892B8AB96F
:1030200085B1F6019081892B85B988B1F70190812E
:10303000892B88B98BB1F8019081892B8BB98AE0F3
:1030400090E00E94EB1694B1F6018081809589236F
:1030500084B997B1F70180818095892387B99AB1A6
:10306000F8018081809589238AB995B1F601808124
:103070008095892385B998B1F7018081809589234E
:1030800088B99BB1F8018081809589238BB9E09044
:10309000B000D090B1008091B00083608093B00008
:1030A00082E08093B1004091B20080E090E02E85F4
:1030B0003F858217930720F5C090B2002C2D241B6A
:1030C000820F911D03B1081132C0F6B0F7102FC066
:1030D00029B129112CC010C0212F30E0A901440FC3
:1030E000551FF501E40FF51F60817181672B21F1F8
:1030F0001F5F2885121780F37F2C802E4C2DD7CF91
:10310000E092B000D092B10020E08885281730F519
:10311000F501E20FF11DE20FF11D80819181892BF4
:1031200021F48E859F85918380832F5FEECF03B13D
:10313000F6B099B010E0DDCFDE01A40FB51F919677
:103140000D90BC91A02D4C91DE01A20FB31F5196A2
:103150002C91422369F691838083CACFCDB7DEB725
:10316000EDE00C94B01CEF92FF920F931F93CF935E
:10317000DF93FC019B01F0907C0000917A0047B145
:1031800018B180917A0086FDFCCF80E09085891788
:1031900048F4D901A80FB11DA80FB11D1D921C92B2
:1031A0008F5FF4CF97B182A18095892387B998B1B9
:1031B00082A18095892388B987E880937A00E12CE1
:1031C00081A1E81610F0E12C29C050E08085581745
:1031D00018F5A52FB0E0EF01CA0FDB1F89898064C5
:1031E00080937C0080917A00806480937A00809143
:1031F0007A0086FDFCCF6091780070917900AA0F6B
:10320000BB1FA20FB31F8D919C911197860F971F23
:103210008D939C935F5FDACFE394D2CF8085E816DD
:10322000A0F4E901CE0DD11DCE0DD11D61A170E03C
:10323000CB0195958795A881B9818A0F9B1F0E9424
:10324000FE1B79836883E394E9CFF0927C000093BE
:103250007A0018B947B9CDB7DEB7E6E00C94B71CD1
:10326000A0E2B0E0E6E3F9E10C949A1C8C017B014A
:10327000D42E8FEF840F823018F4C8010E94721789
:10328000D80150968C91B701811110C0C8010E94DD
:10329000DB17C8010E945D17B2E0DB123AC0BE0125
:1032A0006F5F7F4FC8010E94DB170FC0C8010E94EB
:1032B000B318C8010E945D17E2E0DE122AC0BE0109
:1032C0006F5F7F4FC8010E94B31840E0F80180850E
:1032D0004817F8F4842F90E0880F991FF701E80F42
:1032E000F91F21E030E02C0F3D1F820F931FD80102
:1032F0001E962D913C911F97DC018D919C91281B6E
:10330000390B80819181820F931F918380834F5F5E
:10331000DDCFA096E7E00C94B61C2F923F925F920F
:103320006F927F928F929F92AF92BF92CF92DF92D5
:10333000EF92FF920F931F93CF93DF93CDB7DEB73A
:10334000C056D1090FB6F894DEBF0FBECDBF8C01B9
:103350004B015A01522EDA018D919C91892B31F04B
:10336000F40180819181892BF1F424C0D801189651
:103370008C9190E0880F991F0E94C61CF5019183E3
:103380008083009709F4B1C0FC0120E030E0D8014F
:1033900018968C9190E02817390714F71192119222
:1033A0002F5F3F4FF4CFE12CF12C6E01B1E2CB0E39
:1033B000D11C21C0F801808590E0880F991F0E94E0
:1033C000C61CD4018D939C93009709F48EC0FC0118
:1033D00020E030E0D80118968C9190E0281739074A
:1033E00014F7D8011E968D919C911F97819391930C
:1033F0002F5F3F4FEFCF452DBE016F5B7F4FC80161
:103400000E943019F8016084712CFE01EF5BFF4FC0
:10341000C6019E012F5F3F4F190120E030E02615C5
:1034200037054CF5E114F10489F0DC016D917C91D4
:10343000408151816417750748F0D1016D917C91ED
:10344000408151814617570748F00DC04081518196
:10345000DC014D935C93E114F10479F740815181D3
:10346000D1014D935C932F5F3F4FB2E02B0E311C87
:1034700032960296D4CFEFEFEE1AFE0AFAE0EF167C
:10348000F10409F0B8CF9E012F5F3F4F790136015B
:1034900080E090E0F801208530E0821793072CF55A
:1034A000D7012D913D917D01B3016C197D09D501A5
:1034B000ED91FC91E60FF71F4081518142175307B0
:1034C00010F431832083F301219131913F01D40124
:1034D000ED91FC91E60FF71F4081518124173507CC
:1034E00010F4318320830196D5CFC05ADF4F0FB639
:1034F000F894DEBF0FBECDBFDF91CF911F910F912A
:10350000FF90EF90DF90CF90BF90AF909F908F9003
:103510007F906F905F903F902F9008951F93CF936F
:10352000DF93EC01162F8FEF860F823018F06623A1
:1035300059F014C021E0AE014E5F5F4FBE01CE01D5
:103540000E948D19123051F4AE014A5F5F4FBE01E7
:103550006C5F7F4F20E0CE010E948D19DF91CF91EB
:103560001F910895A0E0B0E0E8EBFAE10C94981CFC
:10357000EC018B01B42E842F8D7F51F48C819D81C1
:10358000892B09F497C08E819F81892B09F492C001
:103590008FEF8B0D823050F488819981892B09F44B
:1035A00089C08A819B81892B09F484C04B2DB80185
:1035B000CE010E943019780100E010E0C12CD12C1E
:1035C000888590E0C816D9060CF074C081E0B81266
:1035D0000AC0EA81FB81E00FF11F0190F081E02D2C
:1035E000A881B9810DC08C819D812E813F81B11050
:1035F0000CC0F901E00FF11F0190F081E02DDC011A
:10360000A00FB11F8D919C9128C0FC01E00FF11F0C
:1036100040815181E881F981E00FF11F8081918122
:10362000EE85FF854817590710F4CF0104C08E0FAF
:103630009F1F841B950BD901A00FB11F2D913C91A9
:10364000AA81BB81A00FB11F4D915C912417350752
:1036500020F0E40FF51FE21BF30BE81BF90BA9F0B8
:10366000D7012D913C9140E050E0281B390B4109D6
:103670005109A8EEB3E00E947C1C9F0140E050E09D
:103680000E94481C37FD0AC002C020E030E0293EFD
:10369000B3E03B072CF028EE33E002C020E030E03E
:1036A000F701219331937F01FFEFCF1ADF0A0E5FFD
:1036B0001F4F86CFCDB7DEB7E9E00C94B41CA0E075
:1036C000B0E0E5E6FBE10C948F1CEC018B01822E4F
:1036D0000E94B21A2884E801412C512C320100E0EA
:1036E00010E0C12CD12C7601312C912C58EEA52E56
:1036F00053E0B52E921421F1E991F991882021F03F
:10370000C5018E1B9F0BFC01E93CF10524F4E3335A
:10371000F10574F002C033243394DF01A301920158
:103720000E94871CC60ED71EE81EF91E0E0F1F1F13
:10373000939498EE490E93E0591E611C711CDACFE8
:1037400031101EC0492D50E04150510924EF31E0A5
:10375000429FC001439F900D529F900D11242091D4
:10376000FD013091FE0128173907B4F088EE93E08F
:10377000489F9001499F300D589F300D11240EC075
:10378000980140E050E0C701B6010E94261C30932A
:10379000FE012093FD0102C020E030E0C901CDB759
:1037A000DEB7E2E10C94AB1CCF93DF93EC018A818E
:1037B0009B81009711F00E945E1D8E819F81009772
:1037C00011F00E945E1D88819981009711F00E947E
:1037D0005E1D8C819D81009711F00E945E1DDF911E
:1037E000CF910895991B79E004C0991F961708F0AE
:1037F000961B881F7A95C9F780950895AA1BBB1B55
:1038000051E107C0AA1FBB1FA617B70710F0A61BE0
:10381000B70B881F991F5A95A9F780959095BC0101
:10382000CD01089597FB072E16F4009407D077FD7D
:1038300009D00E94FE1B07FC05D03EF490958195AF
:103840009F4F0895709561957F4F0895A1E21A2EBC
:10385000AA1BBB1BFD010DC0AA1FBB1FEE1FFF1F34
:10386000A217B307E407F50720F0A21BB30BE40B84
:10387000F50B661F771F881F991F1A9469F76095CB
:103880007095809590959B01AC01BD01CF01089585
:10389000052E97FB1EF400940E945F1C57FD07D075
:1038A0000E94261C07FC03D04EF40C945F1C50951C
:1038B0004095309521953F4F4F4F5F4F089590951C
:1038C0008095709561957F4F8F4F9F4F0895EE0FB4
:1038D000FF1F0590F491E02D0994A29FB001B39FC2
:1038E000C001A39F700D811D1124911DB29F700D09
:1038F000811D1124911D08950E946D1CA59F900D9E
:10390000B49F900DA49F800D911D11240895B7FFC1
:103910000C947C1C0E947C1C821B930B08952F929C
:103920003F924F925F926F927F928F929F92AF924F
:10393000BF92CF92DF92EF92FF920F931F93CF939C
:10394000DF93CDB7DEB7CA1BDB0B0FB6F894DEBF33
:103950000FBECDBF09942A88398848885F846E8459
:103960007D848C849B84AA84B984C884DF80EE80A3
:10397000FD800C811B81AA81B981CE0FD11D0FB6AC
:10398000F894DEBF0FBECDBFED0108950F931F93D6
:10399000CF93DF938230910510F482E090E0E091C4
:1039A0001D02F0911E0220E030E0A0E0B0E0309770
:1039B00019F1408151810281138148175907C8F0DC
:1039C0008417950769F4109731F012960C931297AB
:1039D00013961C9327C000931D0210931E0222C051
:1039E0002115310519F04217530718F49A01BD014A
:1039F000EF01DF01F801DBCF21153105F9F0281BBC
:103A0000390B2430310580F48A819B816115710561
:103A100021F0FB019383828304C090931E02809364
:103A20001D02FE01329644C0FE01E20FF31F819396
:103A3000919322503109398328833AC020911B0287
:103A400030911C02232B41F420911001309111017F
:103A500030931C0220931B0220910E0130910F0124
:103A60002115310541F42DB73EB740911201509117
:103A70001301241B350BE0911B02F0911C02E2178D
:103A8000F307A0F42E1B3F0B2817390778F0AC0181
:103A90004E5F5F4F2417350748F04E0F5F1F50935E
:103AA0001C0240931B028193919302C0E0E0F0E07E
:103AB000CF01DF91CF911F910F910895CF93DF93A5
:103AC000009709F481C0FC01329713821282A09101
:103AD0001D02B0911E02109781F420813181820F66
:103AE000931F20911B0230911C022817390751F5B2
:103AF000F0931C02E0931B0267C0ED0120E030E070
:103B0000CE17DF0740F44A815B819E0141155105C4
:103B1000F1F0EA01F5CFD383C28340815181840F54
:103B2000951FC817D90759F488819981840F951F6B
:103B30000296918380838A819B819383828321155E
:103B4000310529F4F0931E02E0931D023DC0E90106
:103B5000FB83EA8349915991C40FD51FEC17FD07E8
:103B600061F480819181840F951F0296E901998308
:103B70008883828193819B838A83E0E0F0E01296C0
:103B80008D919C911397009719F0FD01DC01F7CFFF
:103B90008D919C9111979D012E5F3F4F820F931F36
:103BA00020911B0230911C022817390769F43097C5
:103BB00029F410921E0210921D0202C0138212827A
:103BC000B0931C02A0931B02DF91CF910895FB01DB
:103BD000DC010D900020E9F711974150504028F08A
:103BE000019000200D92C9F708951C92089511E0EC
:103BF000C2E2D1E004C0FE010E94671C2196C332DC
:083C0000D107C9F7F894FFCFCA
:103C080088130F00F4010400D00704010802000023
:103C18001F0220005F0000000000000000000000FC
:103C28000000000000000000020504020106010572
:103C380000010305020401029C01B501CF01EA015C
:103C480007022602470269028E02B502DE020A0353
:103C58000E0F1011124A6F623A0025004261743A41
:103C6800004D0050004F0043004800536C697070CD
:103C78006564210053544F50504544004F424A4513
:103C88004354004C4F572D42415400436F6E2D460C
:043C980061696C00F2
:00000001FF
