:100000000C9428010C9445010C9445010C94450175
:100010000C9445010C9445010C9445010C94450148
:100020000C9445010C9430150C9445010C94450139
:100030000C9445010C94C7100C9445010C94450197
:100040000C9445010C9445010C943F140C940B1531
:100050000C9445010C9445010C9445010C94450108
:100060000C9445010C94450160078E07F90764075D
:100070007307820764076407640721204F35204C0B
:1000800031362061676166616561206461632B615F
:10009000646165612066613C61613C62616323610A
:1000A0002064616323616461656120664F3620646A
:1000B00063643C622D643C61643C6720643C662B55
:1000C000643C67643C61643C622D20643C64643C35
:1000D00065643C662B643C6720643C662B643C672B
:1000E000643C61644C38204D53203C622D643C627A
:1000F0002D64204D4C652D3C67652D3C67204D538C
:10010000633C61633C61204D4C20643C66643C660A
:10011000204F35204D5320622D67622D674D4C20B6
:100120003E6323653E632365204D5320616661660F
:10013000204D4C20676323676323204D5320666462
:100140006664204D4C20653C622D653C622D4F3627
:10015000204C31367261676166616561206461635C
:100160002361646165612066613C61613C62616339
:100170002361206461632361646165612066616558
:1001800061646163613C622D61636164673C622DFF
:1001900067206567646763673C622D67203C616721
:1001A0003C622D6763663C616620646663663C6200
:1001B0002D663C61663C67663C61663C622D653C31
:1001C0006765206323653C622D653C61653C67651E
:1001D000203C66653C67653C61643C66644F352045
:1001E000653E65653E65663E64663E6420622D3E02
:1001F0006323622D3E6323613E64663E6420653E58
:1002000065653E65663E64663E64653E643E6323A6
:100210003E64623E643E632362203E632361676105
:10022000656766652066204F3620646323646664D4
:1002300063233C6220632334003E6733323E3E63D7
:100240003332003E6733323E3E6333320000FB15EB
:1002500011241FBECFEFD8E0DEBFCDBF11E0A0E07C
:10026000B1E0E2E3FAE302C005900D92A439B107D0
:10027000D9F722E0A4E9B1E001C01D92AB31B20789
:10028000E1F70E9434040C940C1D0C940000CF93F1
:10029000DF93CDB7DEB7E4970FB6F894DEBF0FBE9D
:1002A000CDBFFC01248D213029F419821B8E41E041
:1002B00050E002C040E050E060E070E038C0FC0177
:1002C000258D30E0062E02C0359527950A94E2F779
:1002D000217065307105A4F4213039F5E1E0F0E0DA
:1002E000EC0FFD1FE40FF51F260F2083EBE1F0E07C
:1002F000EC0FFD1FE40FF51F10824F5F5F4F15C01D
:10030000213099F4E1E0F0E0EC0FFD1FE40FF51F60
:100310002BEF260F2083EBE1F0E0EC0FFD1FE40F45
:10032000F51F21E020834F5F5F4F6F5F7F4F683085
:1003300071052CF260E070E054C0FC01268D30E0C5
:10034000062E02C0359527950A94E2F721706115B3
:100350007105B9F4213009F042C0E1E0F0E0EC0FA2
:10036000FD1FE40FF51F24E0260F2083EBE1F0E0F2
:10037000EC0FFD1FE40FF51F21E020834F5F5F4F5F
:100380002EC066307105B4F4213049F5E1E0F0E0AB
:10039000EC0FFD1FE40FF51F2FEF260F2083EBE17D
:1003A000F0E0EC0FFD1FE40FF51F22E020834F5F0C
:1003B0005F4F15C0213099F4E1E0F0E0EC0FFD1F34
:1003C000E40FF51F2AEF260F2083EBE1F0E0EC0F9E
:1003D000FD1FE40FF51F23E020834F5F5F4F6F5F2A
:1003E0007F4F683071050CF4A8CF60E070E03AC030
:1003F000FC01278D30E0062E02C0359527950A9422
:10040000E2F7217063307105B4F4213049F5E1E081
:10041000F0E0EC0FFD1FE40FF51F22E0260F208314
:10042000EBE1F0E0EC0FFD1FE40FF51F23E020836C
:100430004F5F5F4F15C0213099F4E1E0F0E0EC0F21
:10044000FD1FE40FF51F2DEF260F2083EBE1F0E0F9
:10045000EC0FFD1FE40FF51F24E020834F5F5F4F7B
:100460006F5F7F4F683071051CF220E030E019C0EB
:10047000E1E0F0E0EC0FFD1FE20FF31F6081DC0113
:10048000A20FB31FFD01EE5AFF4F6083EBE1F0E0D6
:10049000EC0FFD1FE20FF31F6081D9966C932F5F65
:1004A0003F4F4217530724F7E4960FB6F894DEBF88
:1004B0000FBECDBFDF91CF910895CF93DF9300D0D2
:1004C0001F92CDB7DEB728E029832FEF2A8325E6D8
:1004D0002B83FC016081CE0101960E9408150F90CC
:1004E0000F900F90DF91CF9108951F93CF93DF93DB
:1004F000EC010E94B513813009F062C08B8D883009
:1005000009F060C0E881F0E03197EC0FFD1F838DAA
:10051000853609F059C0CE010E945D0288A18E3F48
:1005200031F0FE01E559FF4F8081813049F48AE7BF
:1005300090E00E94261181E0FE01E559FF4F808383
:100540008BA18A3F39F4FE01E559FF4F908191302C
:1005500009F41082853F29F493E0FE01E559FF4F2D
:100560009083803FA9F484E0FE01E559FF4F80832A
:1005700080E090E00AC0FC013996EC0FFD1F238D4E
:10058000FE01E80FF91F25AB0196843091059CF31D
:10059000FE01E259FF4F80818F3FC1F43196808187
:1005A0008F3FB1F4CE010E94470181E0FE01E05986
:1005B000FF4F808389E392E00E94261111E009C079
:1005C00010E007C010E005C010E003C011E001C05A
:1005D00011E080E005C0FE01E80FF11D81838F5F0F
:1005E00068818617C0F388E08983FE01E459FF4FD4
:1005F00080818A83319680818B83319680818C8340
:10060000319680818D83349780818E83E62FF0E050
:100610003197EC0FFD1F85E68183CE0101960E9484
:10062000C314113029F46881CE014B960E943C140A
:10063000DF91CF911F910895CF93DF93CDB7DEB7B0
:1006400060970FB6F894DEBF0FBECDBFAC0188E057
:10065000E8E2F1E0DE01119601900D928A95E1F752
:1006600088E0E0E3F1E0DE01199601900D928A95B1
:10067000E1F720E030E019C0E1E0F0E0EC0FFD1F11
:10068000E20FF31F9081DA01A20FB31FFD01EE5AB2
:10069000FF4F9083E9E0F0E0EC0FFD1FE20FF31F46
:1006A0009081D9969C932F5F3F4F2830310524F3DA
:1006B00060960FB6F894DEBF0FBECDBFDF91CF912D
:1006C0000895CF93DF93EC018AE1888360E875E2B7
:1006D00080E090E00E9493146881CE014B960E94C6
:1006E0003C14FE01EF58FF4F85E792E09183808331
:1006F00036971082319687E38083319684E1808338
:10070000319684E08083319685E080833196108233
:10071000CE010E941C03DF91CF910895CF92DF920A
:10072000EF92FF920E940D0EBC0180E090E00E94CB
:10073000410C6B017C019B01AC010E94CF0C9B0121
:10074000AC01C701B6010E94CF0C2CE039EB4DE2A1
:1007500050E30E94CF0CFF90EF90DF90CF90089570
:10076000EF92FF920F931F93CF937C018B01C42FC5
:100770000E94321260E080E00E94B91285E591E0AB
:100780000E944112B701FF0C880B990B0E94961230
:100790008AE591E00E94411261E080E00E94B91276
:1007A0008CE591E00E944112B801110F880B990B62
:1007B0000E9496128AE591E00E944112C230A9F08F
:1007C00028F4CC2341F0C13059F01DC0C33091F062
:1007D000C430A9F018C081E691E00E94411213C014
:1007E00083E691E00E9441120EC085E691E00E94EE
:1007F000411209C087E691E00E94411204C089E6D7
:1008000091E00E944112CF911F910F91FF90EF90C4
:10081000089503C083E50E9418050E9436068230C1
:10082000C9F7089503C083E50E9418050E943606A3
:100830008130C9F70895CF93DF93EC010E9409043A
:10084000BE0184E50E944C08BE0180E00E946C0A53
:10085000BE0182E40E944C080E9412048CE40E94B3
:100860001805DF91CF910895CF93DF93CDB7DEB711
:10087000C357D1090FB6F894DEBF0FBECDBF83E4D6
:1008800092E00E942611CE0101960E946103CE01E2
:1008900001960E94A204E496EEADFFADE497CE016E
:1008A000019609958FEFE0968FAFE097E1968FAFB5
:1008B000E19760E080E00E94B912AD966FADAD9710
:1008C00070E080E090E00E949612AD968FADAD97FB
:1008D000823091F1833099F18111DDCFE0966FADD7
:1008E000E09770E080E090E00E949612E1966FAD94
:1008F000E19770E080E090E00E949612E2968FAD62
:10090000E297813041F6E2961FAEE29783E492E0EF
:100910000E942611E0961FAEE097E1961FAEE19788
:10092000CE0101960E941B048FEFE0968FAFE097F7
:10093000E1968FAFE197AFCF0E944107ACCF0E9405
:10094000FA06A9CFCF93DF93909309028093080210
:1009500080ED97E00E94F7150DC00E94321260E012
:1009600080E00E94B9120E940D0EBC0180E090E070
:100970000E94961280E10E94B213882371F380E1F5
:100980000E949E1388EE93E00E947815C0E0D0E0AC
:1009900019C0CE014497889738F068ED7FEF88E260
:1009A00090E00E946F1306C068E270E088ED9FEF50
:1009B0000E946F1381E00E94B41584E190E00E94D0
:1009C00078152196C035D10520F360E070E080E015
:1009D00090E00E946F1380E10E94B2138823D9F344
:1009E00080E10E949E130E943212DF91CF91089500
:1009F00062E370E082E390E00E946F1388EC90E085
:100A00000E94781560E070E080E090E00E946F1333
:100A1000089560E070E080E090E00E946F1380E154
:100A20000E94B2138823D9F380E10E949E13089597
:100A3000CF92DF92EF92FF920F931F93CF93DF93AA
:100A4000C82F8091080290910902FC01EF58FF4FD6
:100A50000190F081E02D099561E08DE092E00E9427
:100A6000C1158C0161E08DE092E00E94BA15E09121
:100A70000802F0910902E559FF4F8081813039F475
:100A800060E070E080E090E00E946F13E6C0CC343C
:100A900039F56CE370E084EC9FEF0E946F1305C0A2
:100AA00061E08DE092E00E94BA1580911102909170
:100AB000120280399140A0F705C061E08DE092E01C
:100AC0000E94BA15809111029091120281399140D1
:100AD000A0F360E070E080E090E00E946F13BDC082
:100AE000C23539F564EC7FEF8CE390E00E946F1320
:100AF00005C061E08DE092E00E94BA15809111027C
:100B00009091120280399140A0F705C061E08DE01C
:100B100092E00E94BA1580911102909112028139DF
:100B20009140A0F360E070E080E090E00E946F13DD
:100B300094C0C33509F047C0005D1740C80164E6A2
:100B400070E00E94271BEB01C8016CE271E00E947B
:100B5000271BC60FD71FB801110F880B990B0E94D6
:100B6000430C2DEC3CEC4CEC5DE30E94CF0C6B0194
:100B70007C01BE01DD0F880B990B0E94430CA7017D
:100B800096010E949F0B0E940B0CCB0167347105EC
:100B900014F086E490E08A3B2FEF920714F48AEB7E
:100BA0009FEF99233CF466E470E08A5B9F4F0E94BC
:100BB0006F1353C066E470E0681B790B86E490E025
:100BC0000E946F134AC0C23409F56EEC7FEF8EECC1
:100BD0009FEF0E946F13809113029091140280394D
:100BE000914030F069EC7FEF8EEC9FEF0E946F1325
:100BF00080910F02909110028039914070F16EEC5B
:100C00007FEF89EC9FEF0E946F1327C0C435A1F4DA
:100C10006CE370E084EC9FEF0E946F1305C061E00D
:100C20008DE092E00E94BA1580911102909112021B
:100C300081399140A0F311C0C03579F40AC0BE01DA
:100C4000CE010E946F1385E090E00E9478152297F4
:100C500002C0C2E3D0E0DD2394F7DF91CF911F9172
:100C60000F91FF90EF90DF90CF90089561E08DE0BD
:100C700092E00E94BA1540910D0250910E02403947
:100C800021E0520738F180910F02909110028039D3
:100C9000914000F1809115029091160281399140A6
:100CA000C8F40E94F80461E08DE092E00E94BA1559
:100CB00080911102909112028039914008F08CC00D
:100CC00080911302909114028039914008F486C0FB
:100CD00086E008958091130290911402803961E0BA
:100CE000960720F1209115023091160220393140EB
:100CF000E8F0413921E05207C8F40E94F80461E0AD
:100D00008DE092E00E94BA1580911102909112023A
:100D10008039914008F064C080910F0290911002D8
:100D20008039914008F45EC085E0089520910F025B
:100D300030911002203961E03607A8F0803961E077
:100D4000960788F00E94F80461E08DE092E00E942E
:100D5000BA1580911102909112028039914008F4E5
:100D600043C088E008956091110270911202693CBD
:100D7000710530F4293C310518F4893C9105B0F136
:100D80002139314018F08139914090F58091150258
:100D9000909116028039914068F44039514050F4E6
:100DA00080E0089561E08DE092E00E94BA1583E54D
:100DB0000E94180580911502909116028039914089
:100DC00088F780910D0290910E028039914050F782
:100DD0000E94090582E0089586E0089583E0089561
:100DE00085E0089584E0089587E0089581E00895FE
:100DF00080E00895CF93DF93E0910802F09109021B
:100E000085A9813049F460E070E080E090E00E94C4
:100E10006F13C1E0D0E002C0C0E0D0E0E091080272
:100E2000F091090286A9813041F4882799278C1B0B
:100E30009D0BBC010E946F132197E0910802F09175
:100E4000090287A9813049F4CE01DD230CF4019613
:100E5000BE01959587950E946F13E0910802F0916D
:100E6000090280AD813051F4BE01DD2314F46F5FBF
:100E70007F4F75956795CE010E946F13DF91CF91DB
:100E80000895E0910802F0910902E559FF4F808131
:100E90008130B9F308950F931F93CF93DF9300D060
:100EA000CDB7DEB70E9436068093010290E089300C
:100EB000910508F041C0FC01EC5CFF4F0C947C1BD9
:100EC00083E50E94180538C08CE40E9418058CE464
:100ED000898341E050E0BE016F5F7F4F84E191E084
:100EE0000E94FC1C29C082E50E94180582E58983C6
:100EF00041E050E0BE016F5F7F4F84E191E00E94CE
:100F0000FC1C1AC083E5898341E050E0BE016F5F9D
:100F10007F4F84E191E00E94FC1C0EC084E50E949A
:100F2000180584E5898341E050E0BE016F5F7F4F83
:100F300084E191E00E94FC1C0E94321260E080E09B
:100F40000E94B91200E010E008C0F801EC5EFE4F0C
:100F500080810E94C2110F5F1F4FE4E1F1E0019018
:100F60000020E9F73197E451F140E017F10768F705
:100F7000DF01AE5EBE4F8C91843509F093CFDF0167
:100F8000AF5EBE4F8C91ED5EFE4F90818C3429F4A4
:100F90009C3419F483E58A831BC0833529F49C347F
:100FA00019F482E58A8314C0823529F49C3419F43B
:100FB00084E58A830DC08C3429F4923519F484E5D4
:100FC0008A8306C08C3421F4933511F482E58A8338
:100FD000E4E1F1E001900020E9F73497108241E06C
:100FE00050E0BE016E5F7F4F84E191E00E94FC1CE7
:100FF00059CF80E50E94180580E090E00F900F9097
:10100000DF91CF911F910F910895EF92FF921F935F
:10101000CF93DF93182FC0E0D0E02AC083E50E9471
:1010200018050E9436068823C9F3143539F4FE01E9
:10103000EC5EFE4F80810E94180519C01234B9F48D
:10104000E4E1F1E001900020E9F73197E451F1404B
:10105000EE19FF09ED5EFE4F80818C3419F0823568
:1010600019F003C082E501C08CE40E9418052196A6
:10107000E4E1F1E001900020E9F73197E451F1401B
:101080007E01CE17DF0768F280E090E0DF91CF911C
:101090001F91FF90EF9008951F93CF93DF9300D09F
:1010A000CDB7DEB7182F7A8369830E948E030E9422
:1010B0000B0C41E080E090E00E94B00380911401AD
:1010C0008F3561F484E1E4E1F1E0DF011D928A955E
:1010D000E9F7CE0101960E944B0705C069817A812C
:1010E000812F0E94050880E090E00F900F90DF9123
:1010F000CF911F910895FC012081FB013081FC01FB
:101100003083FB01208308958F929F92AF92BF920C
:10111000CF92DF92EF92FF920F931F93CF93DF93C3
:101120008C015B016A01E12CF12C28C0F801EC0F65
:10113000FD1F90814E018FEF881A980AD801A80DE3
:10114000B91D8C91891760F4BD01CF010E947B0805
:10115000B501680D791DC5018C0F9D1F0E947B088C
:10116000219602C0C0E0D0E0C6018E199F09019708
:10117000C817D907DCF28FEFE81AF80AC601019701
:10118000E816F9067CF3DF91CF911F910F91FF9044
:10119000EF90DF90CF90BF90AF909F908F90089589
:1011A000AF92BF92CF92DF92EF92FF920F931F9375
:1011B000CF93DF935C016B017A0183E50E941805F0
:1011C00000E010E0C1E0D0E05AC00E943606813055
:1011D00051F028F08350863008F051C004C083E5F8
:1011E0000E9418054CC00F5F1F4FF60184818E349A
:1011F000F1F018F4853481F02FC0833519F187356B
:1012000059F5F60180819181019691838083F701E0
:10121000E259FF4F808320C0F601808191810197C0
:1012200091838083F701E259FF4F808315C0F60157
:1012300082819381019693838283F701E159FF4F65
:1012400080830AC0F6018281938101979383828310
:10125000F701E159FF4F808383E50E9418050A15C5
:101260001B0529F480E50E941805C0E0D0E0F701D5
:10127000EF58FF4F0190F081E02DC70109952097AD
:1012800009F0A3CFDF91CF911F910F91FF90EF90C5
:10129000DF90CF90BF90AF900895CF930E94360615
:1012A000C82F8FE090E00E94781503C00E94360698
:1012B000C82FC111FBCF8EE40E941805CF9108956D
:1012C000EF92FF920F931F93CF93C82F8B01EE24C1
:1012D000E394F12C9AC0F80184818E3459F018F40B
:1012E000853451F18CC0833509F448C0873509F441
:1012F00066C085C0C53449F482E50E9418050E9485
:101300004D0985E4F80184837AC0C73549F48CE43B
:101310000E9418050E944D0987E5F80184836FC07B
:10132000C33509F06CC084E50E9418050E944D0980
:1013300083E5F801848363C0C33549F482E50E94E4
:1013400018050E944D0983E5F801848358C0C7350C
:1013500049F48CE40E9418050E944D0987E5F801C4
:1013600084834DC0C33509F04AC084E50E94180546
:101370000E944D0983E5F801848341C0C73549F4D3
:1013800082E50E9418050E944D0987E5F8018483D3
:1013900036C0C53449F48CE40E9418050E944D09FA
:1013A00085E4F80184832BC0CE3449F584E50E949E
:1013B00018050E944D098EE4F801848320C0CE34C4
:1013C00049F482E50E9418050E944D098EE4F80157
:1013D000848315C0C33549F48CE40E9418050E942B
:1013E0004D0983E5F80184830AC0C53441F484E5DE
:1013F0000E9418050E944D0985E4F8018483F801D4
:101400008481C81302C0E12CF12CF1E0EF16F10445
:1014100009F461CFCF911F910F91FF90EF90089544
:10142000EF92FF920F931F93CF93DF93FB012081E5
:10143000318128173907D9F07A01EB018C0128177F
:10144000390754F487E50E946009888199819801E1
:10145000281B390BC90107C085E40E9460098881F7
:101460009981801B910BA701BE010E94D008DF91DA
:10147000CF911F910F91FF90EF900895EF92FF92FF
:101480000F931F93CF93DF93FB01228133812817A2
:101490003907D9F07A01EB018C012817390754F488
:1014A0008EE40E9460098A819B819801281B390B78
:1014B000C90107C083E50E9460098A819B81801B66
:1014C000910BA701BE010E94D008DF91CF911F911F
:1014D0000F91FF90EF9008958F929F92AF92BF92DD
:1014E000CF92DF92EF92FF920F931F93CF93DF93F0
:1014F000CDB7DEB7E7970FB6F894DEBF0FBECDBF0E
:10150000F82E8B0187E58D838FEF9FEF9A83898378
:101510001C821B8280E090E018C0D801A80FB91F80
:10152000FD01EE5AFF4F2081E6E0F0E0EC0FFD1FD9
:10153000E80FF91F2083D9962C91EFE1F0E0EC0F32
:10154000FD1FE80FF91F20830196181619062CF7C6
:101550000E94321260E080E00E94B9126F8170E058
:1015600080E090E00E94961261E080E00E94B91253
:1015700068A170E080E090E00E94961241E050E0A7
:10158000BE01615E7F4FCE0106960E948408FF2057
:1015900009F466C07CC0B7010F2C000C880B990BB6
:1015A0000E94430C4B015C010F2EF6E0CF2ED12C94
:1015B000F02DCC0EDD1ECE0CDF1CF6018081A801C3
:1015C000BE016F5F7F4F90E00E94100AF60180819C
:1015D00090E09A8389830F2EFFE1CF2ED12CF02D3E
:1015E000CC0EDD1ECE0CDF1CF6018081A801BE01F1
:1015F0006F5F7F4F90E00E943E0AF601808190E08D
:101600009C838B8388EE93E00E9478150E948E0362
:101610006801FCE6CF0ED11C0E94120CF60160831B
:1016200020E030E040E85FE3C501B4010E949F0B79
:1016300020E030E048EC52E40E94CF0C6801FDE667
:10164000CF0ED11C0E94120CF601608334960190DB
:10165000F081E02DC8010995FFEFEF1AFF0A02C0E3
:10166000E12CF12C1E141F040CF095CFA801BE0133
:101670006F5F7F4F80E090E00E943E0AA801BE01AC
:101680006F5F7F4F80E090E00E94100A44C080911D
:10169000020290910302892B29F5A801BE016F5F18
:1016A0007F4F81E090E00E94D00882E50E941805FB
:1016B000A801BE016F5F7F4F83E090E00E94D008D9
:1016C00082E50E941805A801BE016F5F7F4F81E08F
:1016D00090E00E94D00881E090E090930302809314
:1016E000020219C084E50E941805A801BE016F5FBF
:1016F0007F4F81E090E00E94D0088CE40E941805A2
:10170000A801BE016F5F7F4F83E090E00E94D00888
:101710008CE40E941805E7960FB6F894DEBF0FBE62
:10172000CDBFDF91CF911F910F91FF90EF90DF9090
:10173000CF90BF90AF909F908F9008955058BB2747
:10174000AA270E94B60B0C94950C0E94870C38F0C7
:101750000E948E0C20F039F49F3F19F426F40C946B
:10176000840C0EF4E095E7FB0C947E0CE92F0E94AC
:10177000A60C58F3BA17620773078407950720F081
:1017800079F4A6F50C94C80C0EF4E0950B2EBA2F44
:10179000A02D0B01B90190010C01CA01A001112477
:1017A000FF27591B99F0593F50F4503E68F11A1623
:1017B000F040A22F232F342F4427585FF3CF4695B4
:1017C00037952795A795F0405395C9F77EF41F16D6
:1017D000BA0B620B730B840BBAF09150A1F0FF0FA0
:1017E000BB1F661F771F881FC2F70EC0BA0F621F8C
:1017F000731F841F48F4879577956795B795F7957C
:101800009E3F08F0B0CF9395880F08F09927EE0F10
:101810009795879508950E94120C6894B1110C94C5
:10182000C90C08950E94AE0C88F09F5798F0B92F0C
:101830009927B751B0F0E1F0660F771F881F991F05
:101840001AF0BA95C9F714C0B13091F00E94C80CD3
:10185000B1E008950C94C80C672F782F8827B85FE3
:1018600039F0B93FCCF3869577956795B395D9F75D
:101870003EF490958095709561957F4F8F4F9F4F67
:101880000895E89409C097FB3EF490958095709573
:1018900061957F4F8F4F9F4F9923A9F0F92F96E9BC
:1018A000BB279395F695879577956795B795F11131
:1018B000F8CFFAF4BB0F11F460FF1BC06F5F7F4FCE
:1018C0008F4F9F4F16C0882311F096E911C07723E0
:1018D00021F09EE8872F762F05C0662371F096E8E9
:1018E000862F70E060E02AF09A95660F771F881FB8
:1018F000DAF7880F9695879597F9089597F99F6776
:1019000080E870E060E008959FEF80EC0895002487
:101910000A941616170618060906089500240A9454
:1019200012161306140605060895092E0394000CDA
:1019300011F4882352F0BB0F40F4BF2B11F460FF69
:1019400004C06F5F7F4F8F4F9F4F089557FD905892
:10195000440F551F59F05F3F71F04795880F97FB73
:10196000991F61F09F3F79F087950895121613062D
:101970001406551FF2CF4695F1DF08C0161617065C
:101980001806991FF1CF8695710561050894089591
:10199000E894BB2766277727CB0197F908950E9423
:1019A000E20C0C94950C0E94870C38F00E948E0C6F
:1019B00020F0952311F00C947E0C0C94840C1124CF
:1019C0000C94C90C0E94A60C70F3959FC1F3950F5F
:1019D00050E0551F629FF001729FBB27F00DB11DB3
:1019E000639FAA27F00DB11DAA1F649F6627B00D43
:1019F000A11D661F829F2227B00DA11D621F739F2C
:101A0000B00DA11D621F839FA00D611D221F749F39
:101A10003327A00D611D231F849F600D211D822F80
:101A2000762F6A2F11249F5750409AF0F1F08823A7
:101A30004AF0EE0FFF1FBB1F661F771F881F9150D4
:101A40005040A9F79E3F510580F00C947E0C0C94F9
:101A5000C90C5F3FE4F3983ED4F38695779567957C
:101A6000B795F795E7959F5FC1F7FE2B880F911DFE
:101A70009695879597F90895ECE7F0E080818F7D42
:101A800080830895811103C00E943C0D08958091C8
:101A90007C00806280937C00089580917C0085FBAF
:101AA000882780F908950E944D0D882321F08091A8
:101AB000790090E0089580917800909179000895E0
:101AC0008032A0F497E890937A0090917C0066238E
:101AD00011F0906C02C09F779064907E982B909349
:101AE0007C0080917A00806480937A000895A0E061
:101AF000B0E0EDE7FDE00C94AE1BEB0160E00E946E
:101B0000600D80917A0086FDFCCF8E01C12CD12C16
:101B1000760180917A00806480937A0080917A00C7
:101B200086FDFCCF0E94530DC80ED91EE11CF11C8E
:101B3000015011090115110561F7CE0196958795A0
:101B4000C034D10538F48C0D9D1DBE010E94131BBD
:101B5000CB010EC0A7019601280F391F411D511D51
:101B6000CA01B9019E0140E050E00E943B1BC9013F
:101B7000CDB7DEB7E8E00C94CA1BCF92DF92EF92AC
:101B8000FF92A0910001B09101019C010E94821B73
:101B90006B017C010E944D0D882359F0C701B601ED
:101BA00061587F4F8F4F9F4F2FEF30E040E050E064
:101BB0000AC0C701B60161507E4F8F4F9F4F2FEF74
:101BC00033E040E050E00E943B1BC901FF90EF90E2
:101BD000DF90CF9008950E94770D0E94BD0D08956B
:101BE0001F93CF93DF930E944D0D182F0E943C0D41
:101BF0006AE070E086E00E94EB0DEC01812F0E940C
:101C0000420DCE01880F991F8C0F9D1F019696954E
:101C10008795DF91CF911F9108950E94F00D08954F
:101C200090919901E0919401F0919501992311F01F
:101C3000849101C080812FEB280F2A3110F4805E3F
:101C40000895803249F49F012F5F3F4F30939501F3
:101C500020939401EF2B31F708951F93CF93DF93D7
:101C60000E94100EC0E0D0E01AE090ED980F9A307C
:101C7000B8F49E01129FE001139FD00D1124C80FEC
:101C8000D11D87FDDA95E09780919401909195019F
:101C9000019690939501809394010E94100EE5CFD8
:101CA000CE01DF91CF911F91089510926F0083E2D2
:101CB0008093800081E1809381001092820080E116
:101CC00097E2909389008093880010928B00109285
:101CD0008A00229A789408958F929F92AF92BF9231
:101CE000DF92EF92FF920F931F93CF93DF935C01EC
:101CF0008B01D42E80919601811105C081E08093E3
:101D000096010E94550E10920B01B7FE05C0E89493
:101D1000B7F82AE0F22E02C0FF24F394E09081008D
:101D20002E2D287FE22E48ECF49EC00111248A1546
:101D30009B05E0F4E50151E1A51657E2B50610F068
:101D4000C0E1D7E2BE017695679580E090E06058EB
:101D5000794687469F4F4E01A12CB12CA5019401D5
:101D60000E943B1B59018E2D816024C0C8E2FC9E5D
:101D7000C02D1124D0E0CA15DB0508F4E501BE0131
:101D8000769567959E0140E050E08AE0F81207C022
:101D900080E090E0605E734481449F4F06C080E025
:101DA00090E060537D4E8C4E9F4F0E943B1B59012B
:101DB0008E2D8260882E2AE0F21207C0CE01059691
:101DC0006AE070E00E94131BEB01C83E43E0D407B9
:101DD00059F09801DE010E94821B28EE33E040E0BA
:101DE00050E00E945D1B890110926F00809281007B
:101DF000B0928900A09288002091880030918900DB
:101E00004D2D403108F04FE080E190E0841B9109B6
:101E1000A90102C0569547958A95E2F750938B0029
:101E200040938A0010939C0100939B0186B38FEF2F
:101E300086BB81E080936F00DF91CF911F910F915E
:101E4000FF90EF90DF90BF90AF909F908F9008959C
:101E5000CF93DF93EB018F3F11F0411105C040E0BC
:101E6000BE0188EE93E043C0813130F050EF580F4F
:101E7000503618F05FE501C050E0852F6CE00E94FD
:101E8000071B682F74EF760390011124250F311D75
:101E90002C30310540F4F901EE0FFF1FE85CFE4FD6
:101EA0002081318102C020E030E0873081F0082EAF
:101EB00002C0220F331F0A94E2F7823028F0C901D2
:101EC00005966AE070E00CC0C90190580CC0C901C9
:101ED00036E0880F991F3A95E1F7029665E070E0C9
:101EE0000E94131BCB01403108F04FE0BE010E945D
:101EF0006C0EDF91CF910895A2E0B0E0E2E8FFE040
:101F00000C94A61B90900A0180919801882321F0DF
:101F100060919701611117C077247394B0ECAB2ED8
:101F2000BDE5BB2E1AE0612E04E0802E80EDC82EA8
:101F300087E0D82E94E0E92EF12C04EF11E02FE099
:101F4000422E512C15C070E040E088EE93E00E94D4
:101F50006C0E1092970117C18636D4F5813609F4BC
:101F6000A9C07CF58C3309F460C08E3381F493945E
:101F70000E94100E20919401309195012F5F3F4FE8
:101F80003093950120939401853631F752C0813208
:101F900009F08BC080920A01D0920901C092080119
:101FA000F0920701E09206011093050100930401ED
:101FB000509203014092020110929801A4E09A2EDF
:101FC000D7CF8336A1F10CF478C010E082E077C05F
:101FD0008D36C1F194F4873691F174F18C3609F0A5
:101FE00064C00E942D0EBC019093070180930601EE
:101FF000809108019091090151C08237C9F14CF4D8
:102000008F3609F052C00E942D0E982E80930A013F
:10201000AFCF843781F1863709F047C00E942D0E7B
:102020009093030180930201A3CF9A94A1CF10E073
:1020300020C010E084E043C010E085E040C010E024
:1020400087E03DC00E94100E8C3619F41092980162
:1020500004C07092980110929701209194013091E0
:1020600095012F5F3F4F309395012093940180CFCE
:1020700011E080E024C00E942D0EBC01C5010E9429
:10208000131B669EC001679E900D11249093090159
:102090008093080160910601709107010E94131B53
:1020A000709305016093040163CF10929501109223
:1020B000940169C010E089E002C010E08BE0082FB5
:1020C0009CE0999E000D11240E94100E982F977F7E
:1020D000933261F420919401309195012F5F3F4F2D
:1020E00030939501209394010F5FEECF8D3271F400
:1020F00020919401309195012F5F3F4F30939501CE
:102100002093940101500E94100EF0CF60910401C1
:10211000709105018153883050F4E0900801F090EF
:1021200009010E942D0EBC01C7010E94131B7B01F7
:10213000F694E79469837A830E94100E69817A810C
:102140008E3269F420919401309195012F5F3F4FB9
:1021500030939501209394016E0D7F1DE9CF8091FE
:102160009801882339F09B01369527952093970194
:10217000621B710940910201112311F08FEF01C020
:10218000802F0E94280F2296E0E10C94C21B1F9220
:102190000F920FB60F9211242F933F934F935F939B
:1021A0006F937F938F939F93AF93BF93EF93FF931F
:1021B00080919B0190919C019C01215031093093A9
:1021C0009C0120939B01892B11F510926F0078944C
:1021D00080918100887F81608093810080E197E217
:1021E000909389008093880010928B0010928A004F
:1021F00081E080930B018091940190919501892B4E
:1022000031F080919A01811102C00E947C0FFF91F0
:10221000EF91BF91AF919F918F917F916F915F915E
:102220004F913F912F910F900FBE0F901F901895D7
:1022300010926F00909395018093940181E08093B8
:102240009901109297010E947C0F08950E94181125
:10225000089581E090E06F9364E06A95F1F76F91E3
:102260000197C9F708950F931F93CF93DF931AB186
:1022700057985A98289AC0E0D0E00E9429115C9A99
:102280000E94291109B15C980E9429115C9A0E9450
:1022900029115C98249607FF10C0AE0160E070E041
:1022A00080919D0190919E01A0919F01B091A0010C
:1022B000481759076A077B0700F31AB9DF91CF91D6
:1022C0001F910F91089595B1282F217030E0220FB2
:1022D000331F482F467068E0469FA0011124242B2D
:1022E0009D7C292B25B99BB188708295807F9F7733
:1022F000892B8BB95C9A0E9429115C980E94291144
:102300000895A0E0B0E0E7E8F1E10C94AF1BC82F1E
:10231000D62EE42E80910402811105C081E08093C5
:1023200004020E94CA110E94331114B1D5B1FAB04F
:102330000BB12898DD2011F05A9A01C05A9894B137
:10234000926394B9579A81E0E81629F08C2F829510
:102350008F700E9463118C2F8F700E946311FAB8E6
:102360000BB914B9D5B9CDB7DEB7E7E00C94CB1BE8
:1023700042E060E00E948111089542E061E00E9425
:10238000811108950E94BD11089541E060E00E940E
:102390008111089580E197E2A0E0B0E080939D0173
:1023A00090939E01A0939F01B093A001529A209A0E
:1023B000549A8EE190E00E94781583E00E94C51146
:1023C00086E090E00E94781583E00E94C51182E0CB
:1023D00090E00E94781583E00E94C51182E090E0B1
:1023E0000E94781582E00E94C51182E090E00E9470
:1023F000781588E20E94B81188E00E94B81181E047
:102400000E94B81186E00E94B8118CE00E94B811B9
:10241000089581E00E94B8118091A3019091A401D8
:10242000892BF9F060E0A0E2262F30E070910C01DA
:1024300080910D0190E00197789FA001799F500D48
:102440001124241735074CF4E091A301F091A40165
:10245000E20FF31FA0836F5FE7CF1092A1011092EC
:10246000A20108950E9409120895CF93DF93EC0111
:102470008991882319F00E94BD11FACFDF91CF9185
:1024800008950E9435120895AAE0B0E0EAE4F2E16E
:102490000C94AE1B1AE05AE0C52ED12CE12CF12C85
:1024A000062FA70196010E943B1BCA01B9011150DA
:1024B000E1E0F0E0EC0FFD1FE10FF11D005D2AE00F
:1024C000629F001911240083611571058105910532
:1024D00039F71A3058F4E1E0F0E0EC0FFD1FE10F9E
:1024E000F11D80810E94BD111F5FF3CF2A96E8E0A5
:1024F0000C94CA1BCF92DF92EF92FF926B017C018A
:1025000097FF0BC0F094E094D094C094C11CD11CF0
:10251000E11CF11C8DE20E94BD11C701B6010E94B1
:102520004412FF90EF90DF90CF9008950E947A12AE
:102530000895A5E0B0E0EFE9F2E10C94B31B182F89
:1025400080E8898380EC8A8384E98B8384ED8C83A3
:10255000FE01E60FF11D8181810F6D830E94B8118C
:102560001093A1016D816093A2012596E3E00C9484
:10257000CF1B0E9499120895883058F491E001C051
:10258000990F8A95EAF7892FAAE2B0E0EBE2F0E032
:1025900021C08E3060F498EF980F81E001C0880F61
:1025A0009A95EAF7A4E2B0E0E5E2F0E013C08531E5
:1025B00060F492EF980F81E001C0880F9A95EAF7D6
:1025C000A7E2B0E0E8E2F0E005C080E0A0E0B0E023
:1025D000E0E0F0E06F3F19F49081982709C066238E
:1025E00019F09081982B04C02081982F9095922308
:1025F00090839C91982B9C93089583EF8093B000D7
:1026000084BD82E08093B10085BD1092B400109229
:10261000B30018BC17BC60E086E00E94BC1260E00A
:1026200085E00E94BC1260E08BE00E94BC1260E07A
:1026300083E00E94BC12089580910502811105C0BB
:1026400081E0809305020E94FD120895CF93DF93ED
:10265000EC010E941C13D7FF05C0D195C195D1098B
:1026600081E001C080E0CF3FD10519F014F0CFEF39
:10267000D0E0882319F018BCC7BD02C0C8BD17BC84
:10268000DF91CF910895CF93DF93EC010E941C134B
:10269000D7FF05C0D195C195D10981E001C080E087
:1026A000CF3FD10519F014F0CFEFD0E0882329F007
:1026B0001092B400C093B30004C0C093B400109251
:1026C000B300DF91CF910895CF93DF93EB010E9488
:1026D0002613CE010E944313DF91CF9108950E94EB
:1026E0006413089584B18D7C84B985B1826385B902
:1026F00085E090E06F9364E06A95F1F76F91019740
:10270000C9F7089580910602811105C081E0809388
:1027100006020E9472130895CF93C82F0E9482135D
:1027200083B18C23E9F38AE090E00E94781583B1AD
:102730008C23B1F383B18C23CF9108950E948C1325
:102740000895A1E0B0E0E7EAF3E10C94B41B8983BB
:102750000E94821393B19095898189232196E2E0AA
:102760000C94D01B0E94A11308952091A70181E031
:102770009091A901291380E00895282F30E09AE074
:10278000899FF0011124EB55FE4F808591850097BC
:1027900021F052814481541780F08AE0829FF00139
:1027A000839FF00D1124EB55FE4F92818481981385
:1027B0000EC0858181110AC008954281DC01A40FF9
:1027C000B11D6C9382818F5F8283E7CF128208955F
:1027D000CF93DF939091C1009F779093C100C82F52
:1027E000D0E09AE0899FF0011124EB55FE4F20853F
:1027F0003185232B41F022819481291720F4909177
:10280000C00097FD11C08AE08C9FF0018D9FF00DF4
:102810001124EB55FE4F808181110BC08091C100C6
:1028200080688093C10005C06091C6000E94BD13FE
:10283000EACFDF91CF9108959091C1009F77909357
:10284000C1009AE0899FF0011124EB55FE4F71877A
:1028500060871282448325838081811105C0809125
:10286000C10080688093C1000895462F20E0BC011C
:1028700080E00E941C1408950E94351408951F9250
:102880000F920FB60F9211242F933F934F935F93A4
:102890006F937F938F939F93AF93BF93EF93FF9328
:1028A0006091C60080E00E94BD13FF91EF91BF913F
:1028B000AF919F918F917F916F915F914F913F91D8
:1028C0002F910F900FBE0F901F9018959AE0899F3F
:1028D000F0011124EB55FE4F86819781892B59F029
:1028E00091818381981738F48081811104C080918F
:1028F000C100806203C08091C1008F7D8093C100C0
:1029000008959AE0899FF0011124EB55FE4F9081C4
:10291000911102C098E901C098E19093C1000E9412
:10292000661478940895CF92DF92EF92FF926B0134
:102930007C0180E00E948114A8EFBFEFA7019601FF
:102940000E949F1B735D8E4C9E4FE4E0220F331F4D
:10295000441F551FEA95D1F70E943B1B3093C500D9
:102960002093C400FF90EF90DF90CF900895909354
:10297000AC018093AB011092A6016093A80180E0A6
:102980000E94661408950E94B71408959AE0899FE2
:10299000F0011124EB55FE4F2681378121153105B9
:1029A00041F041819381491720F49091C00095FD39
:1029B00003C00E94661408959181D901A90FB11D29
:1029C0009C919093C60091819F5F9183F2CFE1EC3F
:1029D000F0E080818F7D808380E00E94C61480E0DB
:1029E0000E94E81308959093AC018093AB0110927C
:1029F000A6016093A80180E00E9466149091A60150
:102A00008091A801981719F00E94E714F7CF089554
:102A10000E94F31408951F920F920FB60F92112483
:102A20002F933F934F935F936F937F938F939F93D6
:102A3000AF93BF93EF93FF9380E00E94C614FF9182
:102A4000EF91BF91AF919F918F917F916F915F9126
:102A50004F913F912F910F900FBE0F901F9018959F
:102A60002F928F939F932FB68091B6019091B701CB
:102A700001968093B6019093B70190E08091B801E0
:102A8000891F8093B8019091B0019C5F9093B00131
:102A90008091AF0180519742C0F09093B001809334
:102AA000AF018091B1019091B20101968093B10183
:102AB0009093B20190E08091B301891F8093B3019C
:102AC0008091B401891F8093B4012FBE9F918F9193
:102AD0002F90189528EE33E0019748F0F9016F9395
:102AE00064E06A95F1F76F913197C9F7F5CF0895D2
:102AF0000E946A150895E0E7F0E080818E7F808370
:102B0000A0EBB0E08C9183608C93A1EBB0E08C9152
:102B1000807F8C938C9182608C93B89A8081816045
:102B200080837894089580910702811105C081E027
:102B3000809307020E947B1508950E949315E0E799
:102B4000F0E080818E7F80831092B1011092B201FB
:102B50001092B3011092B4011092B0011092AF0123
:102B60008081816080830895682F89EB91E00E94C5
:102B7000A3190895462FBC0189EB91E00E94C71963
:102B80000895462F20E0BC0189EB91E00E94741A61
:102B900008950F93CF93DF9300D000D01F92CDB74D
:102BA000DEB79C0185E0E0E5F1E0DE0111960190E1
:102BB0000D928A95E1F7662311F00FEF01C003E152
:102BC00045E0BE016F5F7F4F89EB91E00E949B164D
:102BD00089EB91E00E9472160E949D150F900F9054
:102BE0000F900F900F90DF91CF910F91089560E0BB
:102BF0000E94C915089589EB91E00E94E91A089591
:102C00006F9364E06A95F1F76F910197C9F70895A2
:102C1000FC011182108213821282158214821682A4
:102C2000683068F489E290E0918380838BE290E0E1
:102C3000938382838AE290E0958384831FC06E3001
:102C400070F483E290E09183808385E290E0938347
:102C5000828384E290E09583848368500FC065315D
:102C600098F486E290E09183808388E290E09383F9
:102C7000828387E290E0958384836E5081E001C077
:102C8000880F6A95EAF786830895A7E0B0E0EBE441
:102C9000F6E10C94B21B8C01FC01118210821382AC
:102CA00012821582148217821682613118F080E137
:102CB000808702C0FC016087F801208B642FCE0161
:102CC00001960E9408168F81F80181878B819C8173
:102CD000938782878D819E81958784872796E4E0FC
:102CE0000C94CE1BFC01A485B585109779F08C91CE
:102CF0009185892B8C93A285B3859C918185809544
:102D000089238C9388EC90E00E9400160895FC01C2
:102D1000A485B585109771F08C919185892B8C9342
:102D2000A285B3858C919185892B8C9388EC90E05A
:102D30000E9400160895A7E0B0E0E1EAF6E10C94E5
:102D4000A71B7C014B01642F3901402F20E00E941A
:102D5000451687010F5B1F4FF80110826701F2E4EF
:102D6000CF0ED11CF60110825701F3E4AF0EB11C57
:102D7000F5011082F70177866686512CF701808570
:102D8000581650F5652C712CF401E60DF71D608185
:102D9000CE0101960E9408162F81F701E60DF71D5E
:102DA000218B89819A81F301EE0FFF1FEE0DFF1D2C
:102DB00092A381A38332910511F4F80108C08632F1
:102DC000910511F4F60103C0899721F4F501808182
:102DD000822B80835394D2CF2796EFE00C94C31BB1
:102DE000A0E0B0E0E6EFF6E10C94A91BEC015B017A
:102DF0006C0181E4C80ED11CF60180807E01F2E4F2
:102E0000EF0EF11CF70170808E010D5B1F4FF80172
:102E1000908080E09885891748F4F501E80FF11D4E
:102E2000E80FF11D118210828F5FF4CF84B1F6019B
:102E30009081892B84B987B1F7019081892B87B95B
:102E40008AB1F8019081892B8AB985B1F601908108
:102E5000892B85B988B1F7019081892B88B98BB10D
:102E6000F8019081892B8BB98AE090E00E940016CE
:102E700094B1F60180818095892384B997B1F701D7
:102E800080818095892387B99AB1F80180818095E6
:102E900089238AB995B1F60180818095892385B906
:102EA00098B1F70180818095892388B99BB1F80199
:102EB0008081809589238BB9E090B000D090B100DB
:102EC0008091B00083608093B00082E08093B10075
:102ED0004091B20080E090E02E853F8582179307F5
:102EE00020F5C090B2002C2D241B820F911D03B140
:102EF000081132C0F6B0F7102FC029B129112CC02B
:102F000010C0212F30E0A901440F551FF501E40F37
:102F1000F51F60817181672B21F11F5F28851217D2
:102F200080F37F2C802E4C2DD7CFE092B000D09232
:102F3000B10020E08885281730F5F501E20FF11D7A
:102F4000E20FF11D80819181892B21F48E859F856F
:102F5000918380832F5FEECF03B1F6B099B010E07C
:102F6000DDCFDE01A40FB51F91960D90BC91A02D71
:102F70004C91DE01A20FB31F51962C91422369F6AA
:102F800091838083CACFCDB7DEB7EDE00C94C51B2B
:102F9000EF92FF920F931F93CF93DF93FC019B015E
:102FA000F0907C0000917A0047B118B180917A00CE
:102FB00086FDFCCF80E09085891748F4D901A80FE1
:102FC000B11DA80FB11D1D921C928F5FF4CF97B158
:102FD00082A18095892387B998B182A180958923A0
:102FE00088B987E880937A00E12C81A1E81610F077
:102FF000E12C29C050E08085581718F5A52FB0E0C6
:10300000EF01CA0FDB1F8989806480937C00809167
:103010007A00806480937A0080917A0086FDFCCFEC
:103020006091780070917900AA0FBB1FA20FB31FA7
:103030008D919C911197860F971F8D939C935F5F45
:10304000DACFE394D2CF8085E816A0F4E901CE0D63
:10305000D11DCE0DD11D61A170E0CB019595879555
:10306000A881B9818A0F9B1F0E94131B79836883F3
:10307000E394E9CFF0927C0000937A0018B947B945
:10308000CDB7DEB7E6E00C94CC1BA0E2B0E0EBE4F9
:10309000F8E10C94AF1B8C017B01D42E8FEF840FD1
:1030A000823018F4C8010E948716D80150968C917E
:1030B000B701811110C0C8010E94F016C8010E941A
:1030C0007216B2E0DB123AC0BE016F5F7F4FC801DB
:1030D0000E94F0160FC0C8010E94C817C8010E94C4
:1030E0007216E2E0DE122AC0BE016F5F7F4FC80198
:1030F0000E94C81740E0F80180854817F8F4842F33
:1031000090E0880F991FF701E80FF91F21E030E0E8
:103110002C0F3D1F820F931FD8011E962D913C91BD
:103120001F97DC018D919C91281B390B8081918127
:10313000820F931F918380834F5FDDCFA096E7E0DE
:103140000C94CB1B2F923F925F926F927F928F9243
:103150009F92AF92BF92CF92DF92EF92FF920F9326
:103160001F93CF93DF93CDB7DEB7C056D1090FB60B
:10317000F894DEBF0FBECDBF8C014B015A01522E19
:10318000DA018D919C91892B31F0F401808191813C
:10319000892BF1F424C0D80118968C9190E0880F07
:1031A000991F0E94DB1BF50191838083009709F42E
:1031B000B1C0FC0120E030E0D80118968C9190E07D
:1031C0002817390714F7119211922F5F3F4FF4CF50
:1031D000E12CF12C6E01B1E2CB0ED11C21C0F80123
:1031E000808590E0880F991F0E94DB1BD4018D938E
:1031F0009C93009709F48EC0FC0120E030E0D801D8
:1032000018968C9190E02817390714F7D8011E966C
:103210008D919C911F97819391932F5F3F4FEFCF9B
:10322000452DBE016F5B7F4FC8010E944518F80114
:103230006084712CFE01EF5BFF4FC6019E012F5F82
:103240003F4F190120E030E0261537054CF5E11419
:10325000F10489F0DC016D917C914081518164170A
:10326000750748F0D1016D917C91408151814617DD
:10327000570748F00DC040815181DC014D935C93AC
:10328000E114F10479F740815181D1014D935C93B0
:103290002F5F3F4FB2E02B0E311C32960296D4CFF7
:1032A000EFEFEE1AFE0AFAE0EF16F10409F0B8CFDC
:1032B0009E012F5F3F4F7901360180E090E0F801D9
:1032C000208530E0821793072CF5D7012D913D9191
:1032D0007D01B3016C197D09D501ED91FC91E60FDB
:1032E000F71F408151814217530710F43183208327
:1032F000F301219131913F01D401ED91FC91E60F51
:10330000F71F408151812417350710F43183208342
:103310000196D5CFC05ADF4F0FB6F894DEBF0FBE6F
:10332000CDBFDF91CF911F910F91FF90EF90DF9074
:10333000CF90BF90AF909F908F907F906F905F9055
:103340003F902F9008951F93CF93DF93EC01162F9A
:103350008FEF860F823018F0662359F014C021E0F9
:10336000AE014E5F5F4FBE01CE010E94A218123027
:1033700051F4AE014A5F5F4FBE016C5F7F4F20E0AA
:10338000CE010E94A218DF91CF911F910895A0E075
:10339000B0E0EDECF9E10C94AD1BEC018B01B42E27
:1033A000842F8D7F51F48C819D81892B09F497C0E6
:1033B0008E819F81892B09F492C08FEF8B0D823013
:1033C00050F488819981892B09F489C08A819B8175
:1033D000892B09F484C04B2DB801CE010E944518F9
:1033E000780100E010E0C12CD12C888590E0C8164F
:1033F000D9060CF074C081E0B8120AC0EA81FB81E2
:10340000E00FF11F0190F081E02DA881B9810DC07E
:103410008C819D812E813F81B1100CC0F901E00F9C
:10342000F11F0190F081E02DDC01A00FB11F8D9103
:103430009C9128C0FC01E00FF11F40815181E8817F
:10344000F981E00FF11F80819181EE85FF8548179A
:10345000590710F4CF0104C08E0F9F1F841B950BDA
:10346000D901A00FB11F2D913C91AA81BB81A00F62
:10347000B11F4D915C912417350720F0E40FF51F23
:10348000E21BF30BE81BF90BA9F0D7012D913C913E
:1034900040E050E0281B390B41095109A8EEB3E088
:1034A0000E94911B9F0140E050E00E945D1B37FD90
:1034B0000AC002C020E030E0293EB3E03B072CF018
:1034C00028EE33E002C020E030E0F7012193319391
:1034D0007F01FFEFCF1ADF0A0E5F1F4F86CFCDB7F8
:1034E000DEB7E9E00C94C91BA0E0B0E0EAE7FAE13E
:1034F0000C94A41BEC018B01822E0E94C719288416
:10350000E801412C512C320100E010E0C12CD12CFB
:103510007601312C912C58EEA52E53E0B52E921445
:1035200021F1E991F991882021F0C5018E1B9F0BB3
:10353000FC01E93CF10524F4E333F10574F002C029
:1035400033243394DF01A30192010E949C1BC60E19
:10355000D71EE81EF91E0E0F1F1F939498EE490EFA
:1035600093E0591E611C711CDACF31101EC0492D29
:1035700050E04150510924EF31E0429FC001439F88
:10358000900D529F900D11242091FD013091FE016C
:1035900028173907B4F088EE93E0489F9001499FBF
:1035A000300D589F300D11240EC0980140E050E0BE
:1035B000C701B6010E943B1B3093FE012093FD0121
:1035C00002C020E030E0C901CDB7DEB7E2E10C94E3
:1035D000C01BCF93DF93EC018A819B81009711F090
:1035E0000E94731C8E819F81009711F00E94731CB2
:1035F00088819981009711F00E94731C8C819D81B4
:10360000009711F00E94731CDF91CF910895991BD0
:1036100079E004C0991F961708F0961B881F7A95C9
:10362000C9F780950895AA1BBB1B51E107C0AA1FCB
:10363000BB1FA617B70710F0A61BB70B881F991F53
:103640005A95A9F780959095BC01CD01089597FBF7
:10365000072E16F4009407D077FD09D00E94131BA3
:1036600007FC05D03EF4909581959F4F0895709585
:1036700061957F4F0895A1E21A2EAA1BBB1BFD0185
:103680000DC0AA1FBB1FEE1FFF1FA217B307E40741
:10369000F50720F0A21BB30BE40BF50B661F771F99
:1036A000881F991F1A9469F7609570958095909579
:1036B0009B01AC01BD01CF010895052E97FB1EF4BF
:1036C00000940E94741B57FD07D00E943B1B07FC0F
:1036D00003D04EF40C94741B509540953095219571
:1036E0003F4F4F4F5F4F089590958095709561952E
:1036F0007F4F8F4F9F4F0895EE0FFF1F0590F4915E
:10370000E02D0994A29FB001B39FC001A39F700D4B
:10371000811D1124911DB29F700D811D1124911DD9
:1037200008950E94821BA59F900DB49F900DA49FA9
:10373000800D911D11240895B7FF0C94911B0E94D8
:10374000911B821B930B08952F923F924F925F9291
:103750006F927F928F929F92AF92BF92CF92DF92A1
:10376000EF92FF920F931F93CF93DF93CDB7DEB706
:10377000CA1BDB0B0FB6F894DEBF0FBECDBF09949A
:103780002A88398848885F846E847D848C849B84F1
:10379000AA84B984C884DF80EE80FD800C811B81FF
:1037A000AA81B981CE0FD11D0FB6F894DEBF0FBE2E
:1037B000CDBFED0108950F931F93CF93DF93823018
:1037C000910510F482E090E0E0911902F0911A0264
:1037D00020E030E0A0E0B0E0309719F14081518165
:1037E0000281138148175907C8F08417950769F4B7
:1037F000109731F012960C93129713961C9327C0D2
:103800000093190210931A0222C02115310519F0F4
:103810004217530718F49A01BD01EF01DF01F801C7
:10382000DBCF21153105F9F0281B390B2430310588
:1038300080F48A819B816115710521F0FB019383DE
:10384000828304C090931A0280931902FE0132967B
:1038500044C0FE01E20FF31F81939193225031097E
:10386000398328833AC02091170230911802232B04
:1038700041F42091100130911101309318022093EE
:10388000170220910E0130910F012115310541F4ED
:103890002DB73EB74091120150911301241B350BF7
:1038A000E0911702F0911802E217F307A0F42E1B23
:1038B0003F0B2817390778F0AC014E5F5F4F241794
:1038C000350748F04E0F5F1F5093180240931702C0
:1038D0008193919302C0E0E0F0E0CF01DF91CF91BE
:1038E0001F910F910895CF93DF93009709F481C042
:1038F000FC01329713821282A0911902B0911A0230
:10390000109781F420813181820F931F209117023B
:10391000309118022817390751F5F0931802E093F7
:10392000170267C0ED0120E030E0CE17DF0740F45A
:103930004A815B819E0141155105F1F0EA01F5CF05
:10394000D383C28340815181840F951FC817D90743
:1039500059F488819981840F951F02969183808301
:103960008A819B81938382832115310529F4F09309
:103970001A02E09319023DC0E901FB83EA834991F1
:103980005991C40FD51FEC17FD0761F48081918117
:10399000840F951F0296E901998388838281938120
:1039A0009B838A83E0E0F0E012968D919C911397BF
:1039B000009719F0FD01DC01F7CF8D919C911197D3
:1039C0009D012E5F3F4F820F931F20911702309170
:1039D00018022817390769F4309729F410921A024F
:1039E0001092190202C013821282B0931802A0939F
:1039F0001702DF91CF910895FB01DC010D900020AB
:103A0000E9F711974150504028F0019000200D92A5
:103A1000C9F708951C92089511E0C7E2D1E004C0EF
:103A2000FE010E947C1B2196C832D107C9F7F89489
:023A3000FFCFC6
:103A320088130F00F4010400D007040108020000FB
:103A42001B0220005F0000000000000000000000D8
:103A5200000000000000000002050402010601054A
:103A620000010305020401029C01B501CF01EA0134
:103A720007022602470269028E02B502DE020A032B
:103A82000E0F1011124A6F623A0025004261743A19
:103A9200004D0050004F0043004800536C697070A5
:103AA2006564210053544F50504544004F424A45EB
:103AB2004354004C4F572D42415400436F6E2D46E4
:043AC20061696C00CA
:00000001FF
