:100000000C944B000C9468000C9468000C946800ED
:100010000C9468000C9468000C9468000C946800C0
:100020000C9468000C941C170C9468000C946800E5
:100030000C9468000C94B6120C9468000C94680040
:100040000C9468000C9468000C942B160C94F71612
:100050000C9468000C9468000C9468000C94680080
:100060000C9468000C946800E808EC086D09070916
:100070001609FB080709070907093E6733323E3EA8
:10008000633332003E673332003E6733323E3E63B5
:1000900033320000FD1711241FBECFEFD8E0DEBFC2
:1000A000CDBF11E0A0E0B1E0E6E3FEE302C00590C1
:1000B0000D92AC38B107D9F722E0ACE8B1E001C04D
:1000C0001D92AF31B207E1F70E941E040C940E1F7F
:1000D0000C940000CF93DF93CDB7DEB7E2970FB655
:1000E000F894DEBF0FBECDBFDC0120E030E01AC0C7
:1000F000AD01420F531FCA018E5A9F4FFC0110825F
:10010000FA0111AEEAE1F0E0EC0FFD1FE20FF31F80
:100110001082E1E0F0E0EC0FFD1FE20FF31F108210
:100120002F5F3F4F293131051CF35C968C915C9712
:10013000813029F489838A8F21E030E002C020E0F9
:1001400030E040E050E03BC05D968C915D9790E0E0
:10015000042E02C0959587950A94E2F78170443089
:100160005105B4F4813049F5E1E0F0E0EC0FFD1FFA
:10017000E20FF31F82E0840F8083EAE1F0E0EC0FEE
:10018000FD1FE20FF31F81E080832F5F3F4F15C0FB
:10019000813099F4E1E0F0E0EC0FFD1FE20FF31F76
:1001A0008DEF840F8083EAE1F0E0EC0FFD1FE20F9A
:1001B000F31F82E080832F5F3F4F4F5F5F4F4830D8
:1001C000510514F240E050E053C05E968C915E976A
:1001D00090E0042E02C0959587950A94E2F781700D
:1001E00041155105B9F4813009F040C0E1E0F0E07B
:1001F000EC0FFD1FE20FF31F85E0840F8083EAE11F
:10020000F0E0EC0FFD1FE20FF31F82E080832F5F11
:100210003F4F2CC046305105A4F4813039F5E1E060
:10022000F0E0EC0FFD1FE20FF31F4083EAE1F0E086
:10023000EC0FFD1FE20FF31F83E080832F5F3F4F22
:1002400015C0813099F4E1E0F0E0EC0FFD1FE20F02
:10025000F31F8BEF840F8083EAE1F0E0EC0FFD1FCA
:10026000E20FF31F84E080832F5F3F4F4F5F5F4FAC
:10027000483051050CF4A9CF40E050E03BC05F96F8
:100280008C915F9790E0042E02C0959587950A9413
:10029000E2F7817043305105B4F4813049F5E1E073
:1002A000F0E0EC0FFD1FE20FF31F83E0840F80836B
:1002B000EAE1F0E0EC0FFD1FE20FF31F84E0808322
:1002C0002F5F3F4F15C0813099F4E1E0F0E0EC0F73
:1002D000FD1FE20FF31F8EEF840F8083EAE1F0E051
:1002E000EC0FFD1FE20FF31F85E080832F5F3F4F70
:1002F0004F5F5F4F4830510514F220E030E019C0E5
:10030000E1E0F0E0EC0FFD1FE20FF31F4081CD01B3
:10031000820F931FFC01EE5AFF4F4083EAE1F0E0A9
:10032000EC0FFD1FE20FF31F4081FC0141AF2F5F77
:100330003F4F2931310524F3E2960FB6F894DEBF22
:100340000FBECDBFDF91CF910895CF93DF9300D043
:100350001F92CDB7DEB788E089838FEF8A8385E669
:100360008B8364E0CE0101960E94F4160F900F90EB
:100370000F90DF91CF910895CF92DF92EF92FF928D
:100380001F93CF93DF93EC010E94A115813009F0F8
:100390005EC08B8D883009F05CC0E881F0E0319759
:1003A000EC0FFD1F838D853609F055C0CE010E94EC
:1003B000A50188A18E3F19F08BA18E3F29F481E021
:1003C000FE01E559FF4F80838BA18A3F29F494E019
:1003D000FE01E559FF4F9083853F29F492E0FE012D
:1003E000E559FF4F9083863E39F49FEFFE01E259B5
:1003F000FF4F908331969083803FA9F483E0FE0104
:10040000E559FF4F808380E090E00AC0FC013996F7
:10041000EC0FFD1F238DFE01E80FF91F25AB0196A0
:10042000843091059CF3FE01E259FF4F80818F3F9C
:10043000A1F4319680818F3F91F4CE010E946A0031
:1004400081E0FE01E059FF4F808311E009C010E018
:1004500007C010E005C010E003C011E001C011E0CA
:10046000C090F901D090FA01E090FB01F090FC01FE
:100470008EEEC80E82E0D81EE11CF11C0E949C1773
:100480006C157D058E059F05C8F10E949C17609331
:10049000F9017093FA018093FB019093FC0180E0D5
:1004A00005C0FE01E80FF11D81838F5F688186170B
:1004B000C0F388E08983FE01E459FF4F80818A837D
:1004C000319680818B83319680818C8331968081B7
:1004D0008D83349780818E83E62FF0E03197EC0F87
:1004E000FD1F85E68183CE0101960E94AF16113073
:1004F00029F46881CE014B960E942816DF91CF9196
:100500001F91FF90EF90DF90CF900895CF93DF93EE
:10051000CDB7DEB760970FB6F894DEBF0FBECDBF84
:10052000AC0188E0E8E2F1E0DE01119601900D9265
:100530008A95E1F788E0E0E3F1E0DE0119960190A9
:100540000D928A95E1F720E030E019C0E1E0F0E09B
:10055000EC0FFD1FE20FF31F9081DA01A20FB31F12
:10056000FD01EE5AFF4F9083E9E0F0E0EC0FFD1F34
:10057000E20FF31F9081D9969C932F5F3F4F283055
:10058000310524F360960FB6F894DEBF0FBECDBFE1
:10059000DF91CF9108950F931F93CF93DF93EC01D9
:1005A0008AE1888360E875E280E090E00E947F162F
:1005B0006881CE014B960E942816FE01EF58FF4F2E
:1005C0008CEB91E091838083369710820E94FF022A
:1005D0008E0104591F4F0E94F40DF801608331967B
:1005E0001082319684E08083319685E08083CE014D
:1005F0000E948602DF91CF911F910F910895CF92B3
:10060000DF92EF92FF920E94FC0FBC0180E090E02D
:100610000E94230E6B017C019B01AC010E94B10E74
:100620009B01AC01C701B6010E94B10E2CE039EB71
:100630004DE250E30E94B10EFF90EF90DF90CF901B
:100640000895EF92FF920F931F93CF937C018B013C
:10065000C42F0E941E1460E080E00E94A51485E56E
:1006600091E00E942D14B701FF0C880B990B0E949A
:1006700082148AE591E00E942D1461E080E00E94DE
:10068000A5148CE591E00E942D14B801110F880B80
:10069000990B0E9482148AE591E00E942D14C230C9
:1006A000A9F028F4CC2341F0C13059F01DC0C3306B
:1006B00091F0C430A9F018C081E691E00E942D1499
:1006C00013C083E691E00E942D140EC085E691E0F0
:1006D0000E942D1409C087E691E00E942D1404C0E9
:1006E00089E691E00E942D14CF911F910F91FF9008
:1006F000EF9008951F93CF93DF93182FEB010E9483
:100700001E1460E080E00E94A5148CE591E00E9438
:100710002D14BE01DD0F880B990B0E9482148AE50F
:1007200091E00E942D1461E080E00E94A514113038
:1007300059F028F0123069F0133081F013C08BE6C5
:1007400091E00E942D140EC084E791E00E942D14C8
:1007500009C08CE791E00E942D1404C083E891E069
:100760000E942D14DF91CF911F91089503C083E55E
:100770000E94F3050E94F1048230C9F7089503C076
:1007800083E50E94F3050E94F1048130C9F70895C2
:100790000F931F93CF93DF938C010E94B603B80190
:1007A00084E50E94CD090E94FF020E94ED0D43E006
:1007B00080E090E00E942103B80181E00E94A00B3C
:1007C000C0E0D0E009C08AE790E00E94151384EFF2
:1007D00091E00E9464172196CA30D105A4F3B801B4
:1007E00081E00E94A00B0E94B603B80182E40E943F
:1007F000CD090E94BF038CE40E94F305DF91CF91E5
:100800001F910F910895CF93DF93EC010E94B603DF
:10081000BE0184E50E94CD09BE0180E00E94A00BCC
:100820000E94B603BE0182E40E94CD090E94BF036C
:100830008CE40E94F305DF91CF910895CF93DF936D
:10084000CDB7DEB7C357D1090FB6F894DEBF0FBEE0
:10085000CDBF8AE790E00E941513CE0101960E9459
:10086000CB02CE0101960E948A040E94FF020E94E0
:10087000ED0D44E080E090E00E942103E496EEADAF
:10088000FFADE497CE01019609958FEFE0968FAF0B
:10089000E097E1968FAFE197AD968FADAD9782303F
:1008A00041F128F0833041F1843049F1DECFE29606
:1008B0008FADE2978130C1F4E2961FAEE2978AE7EE
:1008C00090E00E941513E0961FAEE097E1961FAEF0
:1008D000E197CE0101960E9403048FEFE0968FAF5F
:1008E000E097E1968FAFE19784E690E00E9464176D
:1008F000BCCF0E948A08B9CF0E945107B6CFCE0163
:1009000001960E94C803AD961FAEAD97E2961FAE4A
:10091000E297ABCFCF93DF939093090280930802C5
:1009200080ED97E00E94F9170DC00E941E1460E050
:1009300080E00E94A5140E94FC0FBC0180E090E0C2
:100940000E94821480E10E949E15882371F380E149
:100950000E948A1588EE93E00E946417C0E0D0E000
:1009600019C0CE014497889738F068ED7FEF88E290
:1009700090E00E945B1506C068E270E088ED9FEF92
:100980000E945B1581E00E94B61784E190E00E940E
:1009900064172196C035D10520F360E070E080E057
:1009A00090E00E945B1580E10E949E158823D9F398
:1009B00080E10E948A150E941E14DF91CF91089554
:1009C00062E370E082E390E00E945B1588EC90E0C7
:1009D0000E94641760E070E080E090E00E945B1588
:1009E000089561E081E192E00E94BC1780911302BA
:1009F00090911402803921E0920708F46CC0209194
:100A00001702309118022039314008F464C00E9466
:100A1000E00461E081E192E00E94BC178091110244
:100A20009091120281399140B8F180911302909116
:100A300014028139914080F180911702909118023F
:100A40008139914048F18091190290911A028139BF
:100A5000914010F16BE470E08BE490E00E945B1534
:100A600005C061E081E192E00E94BC178091110213
:100A70009091120281399140A0F7809119029091D2
:100A80001A028139914068F70E94E00488EE93E0F1
:100A90000E94641782E008958091150290911602D9
:100AA000813921E0920708F084C02091130230912F
:100AB00014022139314008F07EC020911702309194
:100AC00018022139314008F078C0883C910508F0BF
:100AD00076C087E0089520911102309112022D32E4
:100AE000E1E03E0720F18D3241E0940700F14091B2
:100AF000190250911A02483C5105C8F40E94E004C2
:100B000061E081E192E00E94BC1780911502909112
:100B100016028139914008F054C0809117029091DB
:100B200018028139914008F44EC086E00895409142
:100B30001702509118024D3261E0560708F160919A
:100B4000190270911A026D327140D0F0283C3105C3
:100B5000B8F40E94E00461E081E192E00E94BC17D9
:100B600080911502909116028139914070F5809123
:100B70001302909114028139914048F185E0089563
:100B80002C32314030F58C32914028F5809115029D
:100B9000909116028C32914000F54C325140F8F49D
:100BA0008091190290911A028C329140D0F481E028
:100BB000089588E0089588E0089588E0089580E029
:100BC000089586E0089583E0089585E0089584E01F
:100BD000089580E0089580E0089580E0089580E021
:100BE000089580E008958F929F92AF92BF92CF9226
:100BF000DF92EF92FF921F93CF93DF93182F809194
:100C0000080290910902FC01EF58FF4F0190F0811A
:100C1000E02D099561E081E192E00E94C317EC01AB
:100C200061E081E192E00E94BC170DC060E070E0DD
:100C300080E090E00E945B150E94FF020E94ED0D93
:100C400082E00E947A0387E00E94630F883C91054E
:100C500068F7E0910802F0910902E559FF4F8081A1
:100C6000813071F460E070E080E090E00E945B15FC
:100C70000E94FF020E94ED0D81E00E947A0305C1EF
:100C80001C3439F56CE370E084EC9FEF0E945B1537
:100C900005C061E081E192E00E94BC1780911502DD
:100CA00090911602893C9105A0F705C061E081E1B1
:100CB00092E00E94BC178091150290911602803933
:100CC0009140A0F360E070E080E090E00E945B154E
:100CD000DCC0123539F564EC7FEF8CE390E00E94C4
:100CE0005B1505C061E081E192E00E94BC17809134
:100CF000150290911602893C9105A0F705C061E0AC
:100D000081E192E00E94BC17809115029091160239
:100D100080399140A0F360E070E080E090E00E94B4
:100D20005B15B3C0133509F066C0CE01805D9740F6
:100D300020910D0230910E02EC01C21BD30B609189
:100D40000F0270911002FC01E60FF71FF0931002E2
:100D5000E0930F0290930E0280930D026AE070E020
:100D60000E94291D6B01BF01FF0F880B990B20E426
:100D70003CE940E050E00E945F1D0D2C000CEE08A5
:100D8000FF08C20ED31EE41EF51EBE01DD0F880B48
:100D9000990B0E94250E20E030E040E05FE30E94C6
:100DA000B10E4B015C01C701B6010E94250EA501E1
:100DB00094010E940F0D0E94ED0DCB016734710567
:100DC00014F086E490E08A3B2FEF920714F48AEB4C
:100DD0009FEF99233CF466E470E08A5B9F4F0E948A
:100DE0005B1553C066E470E0681B790B86E490E005
:100DF0000E945B154AC0123409F56EEC7FEF8EEC51
:100E00009FEF0E945B158091170290911802803924
:100E1000914030F069EC7FEF8EEC9FEF0E945B1504
:100E200080911302909114028039914070F16EEC20
:100E30007FEF89EC9FEF0E945B1527C01435A1F46A
:100E40006CE370E084EC9FEF0E945B1505C061E0ED
:100E500081E192E00E94BC178091150290911602E8
:100E6000893C9105A0F311C0103579F40AC0BE0188
:100E7000CE010E945B1584E090E00E9464172397E6
:100E800002C0C2E3D0E0DD2394F7DF91CF911F9140
:100E9000FF90EF90DF90CF90BF90AF909F908F909A
:100EA00008950E94FF020E94ED0D40E080E090E076
:100EB0000E9421038091080290910902FC01EF58E1
:100EC000FF4F0190F081E02D0995E0910802F0912B
:100ED000090285A98130E1F58091FF01909100021E
:100EE000BC010E945B154091FD015091FE019A01E9
:100EF000ADECBCEC0E94841D929582958F70892781
:100F00009F70892764E1689F9001699F300D1124CB
:100F10004217530749F48091FF01909100020A960D
:100F2000909300028093FF018091FF019091000255
:100F30008536910534F084E690E09093000280932A
:100F4000FF014F5F5F4F5093FE014093FD01BAC018
:100F500081113DC097A991113AC08091FF019091F4
:100F60000002BC010E945B154091FD015091FE0101
:100F70009A01ADECBCEC0E94841D929582958F7015
:100F800089279F70892764E1689F9001699F300DD0
:100F900011244217530749F48091FF0190910002F8
:100FA0000A97909300028093FF018091FF01909136
:100FB00000021816190624F0109200021092FF0188
:100FC0004F5F5F4F5093FE014093FD017BC097A997
:100FD0009130E1F58091FF0190910002BC010E94E7
:100FE0005B154091FD015091FE019A01ADECBCEC06
:100FF0000E94841D929582958F7089279F70892702
:1010000064E1689F9001699F300D112442175307D6
:1010100049F48091FF01909100020A979093000299
:101020008093FF018091FF01909100028C399F4FC6
:1010300034F48CE99FEF909300028093FF014F5F9F
:101040005F4F5093FE014093FD013CC08130D1F5CC
:10105000911138C08091FF0190910002BC010E9463
:101060005B154091FD015091FE019A01ADECBCEC85
:101070000E94841D929582958F7089279F70892781
:1010800064E1689F9001699F300D11244217530756
:1010900049F48091FF01909100020A96909300021A
:1010A0008093FF018091FF0190910002992324F029
:1010B000109200021092FF014F5F5F4F5093FE01AC
:1010C0004093FD01E0910802F091090286A9813068
:1010D00061F46091FF0170910002CB0177230CF461
:1010E0000196959587950E945B15E0910802F09115
:1010F000090280AD813069F48091FF019091000276
:10110000BC01992314F46F5F7F4F759567950E941A
:101110005B150895CF93DF930E94FF020E94ED0DAF
:1011200080E00E947A03C0E0D0E00CC066277727F9
:101130006C1B7D0BCE010E945B1582E090E00E944B
:1011400064172196CF3FD10589F384F3C0E0D0E046
:1011500010C02196CE0160E177E20E94291D892B03
:1011600041F4F901EF58FF4F0190F081E02DC901E2
:1011700009952091080230910902F901E559FF4FC4
:101180008081823031F360E070E080E090E00E9486
:101190005B15DF91CF910895CF93DF9300D0CDB74A
:1011A000DEB70E94FF020E94ED0D41E080E090E07A
:1011B0000E9421030E94F1048093010290E0893093
:1011C000910508F041C0FC01EC5CFF4F0C947E1DC2
:1011D00083E50E94F30538C084E50E94F30584E5A9
:1011E000898341E050E0BE016F5F7F4F84E191E071
:1011F0000E94FE1E29C083E5898341E050E0BE01C4
:101200006F5F7F4F84E191E00E94FE1E1DC08CE461
:101210000E94F3058CE4898341E050E0BE016F5FDA
:101220007F4F84E191E00E94FE1E0EC082E50E9485
:10123000F30582E5898341E050E0BE016F5F7F4F97
:1012400084E191E00E94FE1EE4E1F1E001900020C3
:10125000E9F73197E451F140DF01AE5EBE4F8C916A
:10126000843509F09ECFDF01AF5EBE4F8C91ED5EFD
:10127000FE4F90818C3429F49C3419F483E58A83E1
:101280001BC0833529F49C3419F482E58A8314C089
:10129000823529F49C3419F484E58A830DC08C349A
:1012A00029F4923519F484E58A8306C08C3421F43C
:1012B000933511F482E58A83E4E1F1E001900020A6
:1012C000E9F73497108241E050E0BE016E5F7F4F36
:1012D00084E191E00E94FE1E64CF80E50E94F30548
:1012E00080E090E00F900F90DF91CF910895EF9202
:1012F000FF921F93CF93DF93182FC0E0D0E038C048
:101300000E94FF020E94ED0D41E080E090E00E940B
:10131000210303C083E50E94F3050E94F1048823A2
:10132000C9F384E890E00E941513143539F4FE01E6
:10133000EC5EFE4F80810E94F30519C01234B9F4AF
:10134000E4E1F1E001900020E9F73197E451F14048
:10135000EE19FF09ED5EFE4F80818C3419F0823565
:1013600019F003C082E501C08CE40E94F3052196C8
:10137000E4E1F1E001900020E9F73197E451F14018
:101380007E01CE17DF0708F4BBCF80E090E0DF914D
:10139000CF911F91FF90EF900895909114019F3588
:1013A00059F484E1E4E1F1E0DF011D928A95E9F767
:1013B000CB010E94CC0802C00E94770980E090E037
:1013C0000895FC012081FB013081FC013083FB0189
:1013D000208308958F929F92AF92BF92CF92DF9217
:1013E000EF92FF920F931F93CF93DF938C015B01DA
:1013F0006A01E12CF12C28C0F801EC0FFD1F90814F
:101400004E018FEF881A980AD801A80DB91D8C914A
:10141000891760F4BD01CF010E94E109B501680D93
:10142000791DC5018C0F9D1F0E94E109219602C004
:10143000C0E0D0E0C6018E199F090197C817D907EF
:10144000DCF28FEFE81AF80AC6010197E816F906F0
:101450007CF3DF91CF911F910F91FF90EF90DF9080
:10146000CF90BF90AF909F908F900895CF92DF92D2
:10147000EF92FF920F931F93CF93DF936C017A014A
:1014800083E50E94F30500E010E0C1E0D0E022C057
:101490000E94F104813049F020F083508630D0F46E
:1014A00004C083E50E94F30515C00F5F1F4F83E55D
:1014B0000E94F3050C151D0529F480E50E94F30533
:1014C000C0E0D0E0F701EF58FF4F0190F081E02D30
:1014D000C70109952097E1F6DF91CF911F910F91F8
:1014E000FF90EF90DF90CF900895CF930E94F1048A
:1014F000C82F8FE090E00E94641703C00E94F1049F
:10150000C82FC111FBCF8EE40E94F305CF9108953F
:10151000EF92FF920F931F93CF93C82F8B01EE246E
:10152000E394F12CA6C0F80184818E3459F018F4AC
:10153000853469F198C0833509F44EC0873509F4C4
:101540006FC091C0C53449F482E50E94F3050E9442
:10155000750A85E4F801848386C0C73549F48CE4B4
:101560000E94F3050E94750A87E5F80184837BC019
:10157000C33509F078C08CE40E94F3058CE40E9426
:10158000F3050E94750A83E5F80184836CC0C335B6
:1015900049F482E50E94F3050E94750A83E5F8018B
:1015A000848361C0C73549F48CE40E94F3050E942E
:1015B000750A87E5F801848356C0C33509F053C026
:1015C0008CE40E94F3058CE40E94F3050E94750AE6
:1015D00083E5F801848347C0C73549F482E50E945A
:1015E000F3050E94750A87E5F80184833CC0C53481
:1015F00049F48CE40E94F3050E94750A85E4F80121
:10160000848331C0CE3479F58CE40E94F3058CE4F8
:101610000E94F3050E94750A8EE4F801848323C0BA
:10162000CE3449F482E50E94F3050E94750A8EE4E7
:10163000F801848318C0C33549F48CE40E94F30593
:101640000E94750A83E5F80184830DC0C53459F4FE
:101650008CE40E94F3058CE40E94F3050E94750A55
:1016600085E4F8018483F8018481C81302C0E12C69
:10167000F12CF1E0EF16F10409F455CFCF911F9151
:101680000F91FF90EF900895EF92FF920F931F93A9
:10169000CF93DF93FB012081318128173907D9F0DF
:1016A0007A01EB018C012817390754F487E50E9471
:1016B000880A888199819801281B390BC90107C0C4
:1016C00085E40E94880A88819981801B910BA7017B
:1016D000BE010E94360ADF91CF911F910F91FF90BA
:1016E000EF900895EF92FF920F931F93CF93DF93A4
:1016F000FB012281338128173907D9F07A01EB01E8
:101700008C012817390754F48EE40E94880A8A81D4
:101710009B819801281B390BC90107C083E50E94F2
:10172000880A8A819B81801B910BA701BE010E94C0
:10173000360ADF91CF911F910F91FF90EF9008959E
:101740002F923F924F925F926F927F928F929F92D1
:10175000AF92BF92CF92DF92EF92FF920F931F93BF
:10176000CF93DF93CDB7DEB7E7970FB6F894DEBF20
:101770000FBECDBFF82E8B0187E58D831A821982AB
:1017800081E090E09C838B83FB01E259FF4F108244
:101790003196808380E090E0C12CD12C0CC0F80100
:1017A000E80FF91FEE5AFF4F2081222319F02FEF87
:1017B000C21AD20A0196893191058CF380E090E03B
:1017C00018C0D801A80FB91FFD01EE5AFF4F2081A4
:1017D000E6E0F0E0EC0FFD1FE80FF91F2083D9963B
:1017E0002C91EFE1F0E0EC0FFD1FE80FF91F2083D3
:1017F00001968C159D052CF3A601BE01615E7F4FFD
:10180000CE0106960E94EA09FF2009F493C0A9C000
:10181000B101032C000C880B990B0E94250E2B01A3
:101820003C01B6010D2C000C880B990B0E94250E73
:101830004B015C010F2EF6E0EF2EF12CF02DEC0E9B
:10184000FD1EE20CF31CF7018081A801BE016F5F51
:101850007F4F90E00E94440BF7018081282F30E0F9
:101860003A832983F801E259FF4F80830F2EFFE16D
:10187000EF2EF12CF02DEC0EFD1EE20CF31CF70107
:101880008081A801BE016F5F7F4F90E00E94720BC4
:10189000F7018081282F30E03C832B83F801E15948
:1018A000FF4F808389E890E00E94151388EE93E053
:1018B0000E9464170E94FF027801FCE6EF0EF11C03
:1018C0000E94F40DF701608320E030E040E85FE320
:1018D000C301B2010E940F0DA50194010E947B0D6E
:1018E00020E030E048EC52E40E94B10E4B015C0174
:1018F0007801FDE6EF0EF11C0E94F40DF701608304
:1019000034960190F081E02DC80109950E94FF02F4
:101910000E94ED0D2B013C01C501B4010E94ED0DAB
:10192000DC01CB0142E0B2010E942103FFEF2F1A3C
:101930003F0A02C0212C312C2C143D040CF468CF3A
:10194000A801BE016F5F7F4F81E090E00E94720BA3
:10195000A801BE016F5F7F4F81E090E00E94440BC1
:1019600044C08091020290910302892B29F5A801BD
:10197000BE016F5F7F4F81E090E00E94360A82E5F2
:101980000E94F305A801BE016F5F7F4F84E090E0E5
:101990000E94360A82E50E94F305A801BE016F5F2E
:1019A0007F4F81E090E00E94360A81E090E09093C2
:1019B00003028093020219C084E50E94F305A80186
:1019C000BE016F5F7F4F81E090E00E94360A8CE499
:1019D0000E94F305A801BE016F5F7F4F84E090E095
:1019E0000E94360A8CE40E94F305E7960FB6F8943D
:1019F000DEBF0FBECDBFDF91CF911F910F91FF9042
:101A0000EF90DF90CF90BF90AF909F908F907F909E
:101A10006F905F904F903F902F9008955058BB2744
:101A2000AA270E94260D0C94770E0E94690E38F0AA
:101A30000E94700E20F039F49F3F19F426F40C94A4
:101A4000660E0EF4E095E7FB0C94600EE92F0E9401
:101A5000880E58F3BA17620773078407950720F0BA
:101A600079F4A6F50C94AA0E0EF4E0950B2EBA2F7D
:101A7000A02D0B01B90190010C01CA01A001112494
:101A8000FF27591B99F0593F50F4503E68F11A1640
:101A9000F040A22F232F342F4427585FF3CF4695D1
:101AA00037952795A795F0405395C9F77EF41F16F3
:101AB000BA0B620B730B840BBAF09150A1F0FF0FBD
:101AC000BB1F661F771F881FC2F70EC0BA0F621FA9
:101AD000731F841F48F4879577956795B795F79599
:101AE0009E3F08F0B0CF9395880F08F09927EE0F2E
:101AF0009795879508950E948F0D0C94770E0E94FC
:101B0000700E58F00E94690E40F029F45F3F29F0F2
:101B10000C94600E51110C94AB0E0C94660E0E9446
:101B2000880E68F39923B1F3552391F3951B550B58
:101B3000BB27AA2762177307840738F09F5F5F4FA0
:101B4000220F331F441FAA1FA9F335D00E2E3AF0DF
:101B5000E0E832D091505040E695001CCAF72BD0F7
:101B6000FE2F29D0660F771F881FBB1F2617370748
:101B70004807AB07B0E809F0BB0B802DBF01FF277A
:101B800093585F4F3AF09E3F510578F00C94600EE9
:101B90000C94AB0E5F3FE4F3983ED4F386957795B3
:101BA0006795B795F7959F5FC9F7880F911D969533
:101BB000879597F90895E1E0660F771F881FBB1F8F
:101BC000621773078407BA0720F0621B730B840B3C
:101BD000BA0BEE1F88F7E09508950E94F40D689403
:101BE000B1110C94AB0E08950E94900E88F09F578F
:101BF00098F0B92F9927B751B0F0E1F0660F771F31
:101C0000881F991F1AF0BA95C9F714C0B13091F026
:101C10000E94AA0EB1E008950C94AA0E672F782FA7
:101C20008827B85F39F0B93FCCF3869577956795EB
:101C3000B395D9F73EF490958095709561957F4F57
:101C40008F4F9F4F0895E89409C097FB3EF49095FD
:101C50008095709561957F4F8F4F9F4F9923A9F085
:101C6000F92F96E9BB279395F69587957795679514
:101C7000B795F111F8CFFAF4BB0F11F460FF1BC058
:101C80006F5F7F4F8F4F9F4F16C0882311F096E9EB
:101C900011C0772321F09EE8872F762F05C0662399
:101CA00071F096E8862F70E060E02AF09A95660F52
:101CB000771F881FDAF7880F9695879597F908950B
:101CC00097F99F6780E870E060E008959FEF80ECEF
:101CD000089500240A941616170618060906089592
:101CE00000240A9412161306140605060895092EF8
:101CF0000394000C11F4882352F0BB0F40F4BF2B67
:101D000011F460FF04C06F5F7F4F8F4F9F4F0895A6
:101D100057FD9058440F551F59F05F3F71F047959C
:101D2000880F97FB991F61F09F3F79F08795089581
:101D3000121613061406551FF2CF4695F1DF08C0A0
:101D4000161617061806991FF1CF869571056105BD
:101D500008940895E894BB2766277727CB0197F965
:101D600008950E94C40E0C94770E0E94690E38F0FC
:101D70000E94700E20F0952311F00C94600E0C94CC
:101D8000660E11240C94AB0E0E94880E70F3959F82
:101D9000C1F3950F50E0551F629FF001729FBB2762
:101DA000F00DB11D639FAA27F00DB11DAA1F649FFE
:101DB0006627B00DA11D661F829F2227B00DA11DB1
:101DC000621F739FB00DA11D621F839FA00D611D37
:101DD000221F749F3327A00D611D231F849F600D58
:101DE000211D822F762F6A2F11249F5750409AF081
:101DF000F1F088234AF0EE0FFF1FBB1F661F771F0D
:101E0000881F91505040A9F79E3F510580F00C94D7
:101E1000600E0C94AB0E5F3FE4F3983ED4F38695CE
:101E200077956795B795F795E7959F5FC1F7FE2B77
:101E3000880F911D9695879597F90895ECE7F0E046
:101E400080818F7D80830895811103C00E941E0FC1
:101E5000089580917C00806280937C000895809139
:101E60007C0085FB882780F908950E942F0F882326
:101E700021F08091790090E0089580917800909110
:101E8000790008958032A0F497E890937A009091B9
:101E90007C00662311F0906C02C09F779064907E66
:101EA000982B90937C0080917A00806480937A00D4
:101EB000089560E00E94420F80917A0086FDFCCF79
:101EC0000E94350F08950E94590F0895A0E0B0E0D8
:101ED000ECE6FFE00C94B01DEB0160E00E94420FC5
:101EE00080917A0086FDFCCF8E01C12CD12C760129
:101EF00080917A00806480937A0080917A0086FDD8
:101F0000FCCF0E94350FC80ED91EE11CF11C0150F8
:101F100011090115110561F7CE0196958795C03419
:101F2000D10538F48C0D9D1DBE010E94151DCB01FD
:101F30000EC0A7019601280F391F411D511DCA016E
:101F4000B9019E0140E050E00E943D1DC901CDB79E
:101F5000DEB7E8E00C94CC1DCF92DF92EF92FF92B7
:101F6000A0910001B09101019C010E94841D6B01B0
:101F70007C010E942F0F882359F0C701B6016158D8
:101F80007F4F8F4F9F4F2FEF30E040E050E00AC06F
:101F9000C701B60161507E4F8F4F9F4F2FEF33E047
:101FA00040E050E00E943D1DC901FF90EF90DF909E
:101FB000CF9008950E94660F0E94AC0F08951F9362
:101FC000CF93DF930E942F0F182F0E941E0F6AE0FD
:101FD00070E086E00E94DA0FEC01812F0E94240F4E
:101FE000CE01880F991F8C0F9D1F0196969587959E
:101FF000DF91CF911F9108950E94DF0F0895909176
:102000009101E0918C01F0918D01992311F084915F
:1020100001C080812FEB280F2A3110F4805E0895D3
:10202000803249F49F012F5F3F4F30938D01209301
:102030008C01EF2B31F708951F93CF93DF930E940C
:10204000FF0FC0E0D0E01AE090ED980F9A30B8F49E
:102050009E01129FE001139FD00D1124C80FD11DC6
:1020600087FDDA95E09780918C0190918D01019622
:1020700090938D0180938C010E94FF0FE5CFCE01DC
:10208000DF91CF911F91089510926F0083E28093AA
:10209000800081E1809381001092820080E197E2CC
:1020A000909389008093880010928B0010928A0090
:1020B000229A789408958F929F92AF92BF92DF9266
:1020C000EF92FF920F931F93CF93DF935C018B01ED
:1020D000D42E80918E01811105C081E080938E0104
:1020E0000E94441010920B01B7FE05C0E894B7F8A7
:1020F0002AE0F22E02C0FF24F394E09081002E2DFE
:10210000287FE22E48ECF49EC00111248A159B051D
:10211000E0F4E50151E1A51657E2B50610F0C0E183
:10212000D7E2BE017695679580E090E060587946E9
:1021300087469F4F4E01A12CB12CA50194010E940E
:102140003D1D59018E2D816024C0C8E2FC9EC02D2A
:102150001124D0E0CA15DB0508F4E501BE0176952F
:1021600067959E0140E050E08AE0F81207C080E0E9
:1021700090E0605E734481449F4F06C080E090E031
:1021800060537D4E8C4E9F4F0E943D1D59018E2DF8
:102190008260882E2AE0F21207C0CE0105966AE01E
:1021A00070E00E94151DEB01C83E43E0D40759F0D2
:1021B0009801DE010E94841D28EE33E040E050E0EB
:1021C0000E945F1D890110926F0080928100B09281
:1021D0008900A092880020918800309189004D2DBF
:1021E000403108F04FE080E190E0841B9109A901A3
:1021F00002C0569547958A95E2F750938B0040931D
:102200008A00109394010093930186B38FEF86BBED
:1022100081E080936F00DF91CF911F910F91FF902C
:10222000EF90DF90BF90AF909F908F900895CF93E5
:10223000DF93EB018F3F11F0411105C040E0BE017B
:1022400088EE93E043C0813130F050EF580F5036A4
:1022500018F05FE501C050E0852F6CE00E94091D79
:10226000682F74EF760390011124250F311D2C3057
:10227000310540F4F901EE0FFF1FE85CFE4F2081AD
:10228000318102C020E030E0873081F0082E02C0AA
:10229000220F331F0A94E2F7823028F0C901059615
:1022A0006AE070E00CC0C90190580CC0C90136E06A
:1022B000880F991F3A95E1F7029665E070E00E9459
:1022C000151DCB01403108F04FE0BE010E945B10AC
:1022D000DF91CF910895A2E0B0E0E1E7F1E10C9445
:1022E000A81D90900A0180919001882321F06091AF
:1022F0008F01611117C077247394B0ECAB2EBDE54C
:10230000BB2E1AE0612E04E0802E80EDC82E87E0FF
:10231000D82E94E0E92EF12C04EF11E02FE0422EAC
:10232000512C15C070E040E088EE93E00E945B10F5
:1023300010928F0117C18636D4F5813609F4A9C0F1
:102340007CF58C3309F460C08E3381F493940E9441
:10235000FF0F20918C0130918D012F5F3F4F309303
:102360008D0120938C01853631F752C0813209F0FE
:102370008BC080920A01D0920901C0920801F092AC
:102380000701E092060110930501009304015092A9
:1023900003014092020110929001A4E09A2ED7CF3F
:1023A0008336A1F10CF478C010E082E077C08D365E
:1023B000C1F194F4873691F174F18C3609F064C060
:1023C0000E941C10BC01909307018093060180912C
:1023D00008019091090151C08237C9F14CF48F3640
:1023E00009F052C00E941C10982E80930A01AFCFB2
:1023F000843781F1863709F047C00E941C10909302
:10240000030180930201A3CF9A94A1CF10E020C0D2
:1024100010E084E043C010E085E040C010E087E0B9
:102420003DC00E94FF0F8C3619F41092900104C039
:102430007092900110928F0120918C0130918D014A
:102440002F5F3F4F30938D0120938C0180CF11E09F
:1024500080E024C00E941C10BC01C5010E94151D13
:10246000669EC001679E900D112490930901809390
:10247000080160910601709107010E94151D70937B
:1024800005016093040163CF10928D0110928C01BD
:1024900069C010E089E002C010E08BE0082F9CE0EA
:1024A000999E000D11240E94FF0F982F977F933261
:1024B00061F420918C0130918D012F5F3F4F30935B
:1024C0008D0120938C010F5FEECF8D3271F420913E
:1024D0008C0130918D012F5F3F4F30938D01209300
:1024E0008C0101500E94FF0FF0CF609104017091A8
:1024F00005018153883050F4E0900801F090090103
:102500000E941C10BC01C7010E94151D7B01F6949E
:10251000E79469837A830E94FF0F69817A818E3202
:1025200069F420918C0130918D012F5F3F4F3093E2
:102530008D0120938C016E0D7F1DE9CF809190015C
:10254000882339F09B013695279520938F01621BD4
:10255000710940910201112311F08FEF01C0802F0A
:102560000E9417112296E0E10C94C41D1F920F9255
:102570000FB60F9211242F933F934F935F936F9356
:102580007F938F939F93AF93BF93EF93FF9380912C
:102590009301909194019C01215031093093940151
:1025A00020939301892B11F510926F0078948091FC
:1025B0008100887F81608093810080E197E2909321
:1025C00089008093880010928B0010928A0081E02D
:1025D00080930B0180918C0190918D01892B31F0BA
:1025E00080919201811102C00E946B11FF91EF91C5
:1025F000BF91AF919F918F917F916F915F914F911B
:102600003F912F910F900FBE0F901F901895109231
:102610006F0090938D0180938C0181E080939101F4
:1026200010928F010E946B1108950E940713089564
:1026300081E090E06F9364E06A95F1F76F91019704
:10264000C9F708950F931F93CF93DF931AB157984B
:102650005A98289AC0E0D0E00E9418135C9A0E9411
:10266000181309B15C980E9418135C9A0E94181301
:102670005C98249607FF10C0AE0160E070E0809186
:10268000950190919601A0919701B09198014817FA
:1026900059076A077B0700F31AB9DF91CF911F91A1
:1026A0000F91089595B1282F217030E0220F331F2C
:1026B000482F467068E0469FA0011124242B9D7C82
:1026C000292B25B99BB188708295807F9F77892BB4
:1026D0008BB95C9A0E9418135C980E941813089595
:1026E000A0E0B0E0E6E7F3E10C94B11DC82FD62ED0
:1026F000E42E80910402811105C081E080930402E0
:102700000E94B6130E94221314B1D5B1FAB00BB1D6
:102710002898DD2011F05A9A01C05A9894B192631A
:1027200094B9579A81E0E81629F08C2F82958F7022
:102730000E9452138C2F8F700E945213FAB80BB95B
:1027400014B9D5B9CDB7DEB7E7E00C94CD1D42E0A2
:1027500060E00E947013089542E061E00E947013EF
:10276000089541E060E00E947013089580E197E2CF
:10277000A0E0B0E08093950190939601A09397011B
:10278000B0939801529A209A549A8EE190E00E9458
:10279000641783E00E94B11386E090E00E94641702
:1027A00083E00E94B11382E090E00E94641783E00E
:1027B0000E94B11382E090E00E94641782E00E94C0
:1027C000B11382E090E00E94641788E20E94A71390
:1027D00088E00E94A71381E00E94A71386E00E9470
:1027E000A7138CE00E94A713089581E00E94A7130D
:1027F00080919B0190919C01892BF9F060E0A0E20F
:10280000262F30E070910C0180910D0190E001972E
:10281000789FA001799F500D1124241735074CF49F
:10282000E0919B01F0919C01E20FF31FA0836F5F89
:10283000E7CF1092990110929A0108950E94F51322
:102840000895CF93DF93EC018991882319F00E94BA
:10285000AC13FACFDF91CF9108950E94211408950F
:10286000AAE0B0E0E6E3F4E10C94B01D1AE05AE00F
:10287000C52ED12CE12CF12C062FA70196010E9428
:102880003D1DCA01B9011150E1E0F0E0EC0FFD1F60
:10289000E10FF11D005D2AE0629F00191124008301
:1028A000611571058105910539F71A3058F4E1E099
:1028B000F0E0EC0FFD1FE10FF11D80810E94AC13D1
:1028C0001F5FF3CF2A96E8E00C94CC1DCF92DF92E5
:1028D000EF92FF926B017C0197FF0BC0F094E094A4
:1028E000D094C094C11CD11CE11CF11C8DE20E944B
:1028F000AC13C701B6010E943014FF90EF90DF9037
:10290000CF9008950E9466140895A5E0B0E0EBE82A
:10291000F4E10C94B51D182F80E8898380EC8A833C
:1029200084E98B8384ED8C83FE01E60FF11D8181A8
:10293000810F6D830E94A713109399016D8160939D
:102940009A012596E3E00C94D11D0E948514089508
:10295000883058F491E001C0990F8A95EAF7892FE1
:10296000AAE2B0E0EBE2F0E021C08E3060F498EF34
:10297000980F81E001C0880F9A95EAF7A4E2B0E0D1
:10298000E5E2F0E013C0853160F492EF980F81E04A
:1029900001C0880F9A95EAF7A7E2B0E0E8E2F0E01C
:1029A00005C080E0A0E0B0E0E0E0F0E06F3F19F4A7
:1029B0009081982709C0662319F09081982B04C054
:1029C0002081982F9095922390839C91982B9C9393
:1029D000089583EF8093B00084BD82E08093B100BE
:1029E00085BD1092B4001092B30018BC17BC60E013
:1029F00086E00E94A81460E085E00E94A81460E0D0
:102A00008BE00E94A81460E083E00E94A81408955F
:102A100080910502811105C081E0809305020E942A
:102A2000E9140895CF93DF93EC010E940815D7FFB6
:102A300005C0D195C195D10981E001C080E0CF3FAB
:102A4000D10519F014F0CFEFD0E0882319F018BCAD
:102A5000C7BD02C0C8BD17BCDF91CF910895CF9309
:102A6000DF93EC010E940815D7FF05C0D195C195F1
:102A7000D10981E001C080E0CF3FD10519F014F009
:102A8000CFEFD0E0882329F01092B400C093B300B8
:102A900004C0C093B4001092B300DF91CF910895A9
:102AA000CF93DF93EB010E941215CE010E942F15E8
:102AB000DF91CF9108950E945015089584B18D7CC7
:102AC00084B985B1826385B985E090E06F9364E055
:102AD0006A95F1F76F910197C9F708958091060201
:102AE000811105C081E0809306020E945E15089561
:102AF000CF93C82F0E946E1583B18C23E9F38AE02F
:102B000090E00E94641783B18C23B1F383B18C23CE
:102B1000CF9108950E9478150895A1E0B0E0E3E90F
:102B2000F5E10C94B61D89830E946E1593B19095C2
:102B3000898189232196E2E00C94D21D0E948D1593
:102B4000089520919F0181E09091A101291380E0D7
:102B50000895282F30E09AE0899FF0011124E35670
:102B6000FE4F80859185009721F052814481541752
:102B700080F08AE0829FF001839FF00D1124E356DC
:102B8000FE4F9281848198130EC0858181110AC005
:102B900008954281DC01A40FB11D6C9382818F5F87
:102BA0008283E7CF12820895CF93DF939091C10083
:102BB0009F779093C100C82FD0E09AE0899FF001E1
:102BC0001124E356FE4F20853185232B41F02281CD
:102BD0009481291720F49091C00097FD11C08AE0DC
:102BE0008C9FF0018D9FF00D1124E356FE4F8081E4
:102BF00081110BC08091C10080688093C10005C025
:102C00006091C6000E94A915EACFDF91CF91089587
:102C10009091C1009F779093C1009AE0899FF00145
:102C20001124E356FE4F7187608712824483258307
:102C30008081811105C08091C10080688093C100AE
:102C40000895462F20E0BC0180E00E9408160895F8
:102C50000E94211608951F920F920FB60F92112411
:102C60002F933F934F935F936F937F938F939F9394
:102C7000AF93BF93EF93FF936091C60080E00E94F3
:102C8000A915FF91EF91BF91AF919F918F917F9186
:102C90006F915F914F913F912F910F900FBE0F90C9
:102CA0001F9018959AE0899FF0011124E356FE4F7A
:102CB00086819781892B59F091818381981738F407
:102CC0008081811104C08091C100806203C0809125
:102CD000C1008F7D8093C10008959AE0899FF00123
:102CE0001124E356FE4F9081911102C098E901C072
:102CF00098E19093C1000E94521678940895CF9263
:102D0000DF92EF92FF926B017C0180E00E946D16D2
:102D1000A8EFBFEFA70196010E94A11D735D8E4C25
:102D20009E4FE4E0220F331F441F551FEA95D1F751
:102D30000E943D1D3093C5002093C400FF90EF908A
:102D4000DF90CF9008959093A4018093A3011092F7
:102D50009E016093A00180E00E94521608950E9497
:102D6000A31608959AE0899FF0011124E356FE4FBF
:102D7000268137812115310541F041819381491721
:102D800020F49091C00095FD03C00E945216089552
:102D90009181D901A90FB11D9C919093C600918199
:102DA0009F5F9183F2CFE1ECF0E080818F7D8083A3
:102DB00080E00E94B21680E00E94D415089590939E
:102DC000A4018093A30110929E016093A00180E072
:102DD0000E94521690919E018091A001981719F0BF
:102DE0000E94D316F7CF08950E94DF1608951F9210
:102DF0000F920FB60F9211242F933F934F935F932F
:102E00006F937F938F939F93AF93BF93EF93FF93B2
:102E100080E00E94B216FF91EF91BF91AF919F9118
:102E20008F917F916F915F914F913F912F910F9073
:102E30000FBE0F901F9018952F928F939F932FB6D0
:102E40008091AE019091AF0101968093AE01909375
:102E5000AF0190E08091B001891F8093B001909103
:102E6000A8019C5F9093A8018091A701805197428F
:102E7000C0F09093A8018093A7018091A90190913F
:102E8000AA0101968093A9019093AA0190E08091F4
:102E9000AB01891F8093AB018091AC01891F8093A6
:102EA000AC012FBE9F918F912F90189528EE33E0A3
:102EB000019748F0F9016F9364E06A95F1F76F911B
:102EC0003197C9F7F5CF08950E9456170895E0E7A6
:102ED000F0E080818E7F8083A0EBB0E08C918360F6
:102EE0008C93A1EBB0E08C91807F8C938C9182606D
:102EF0008C93B89A808181608083789408958091C2
:102F00000702811105C081E0809307020E946717C4
:102F100008950E947F17E0E7F0E080818E7F808334
:102F20006091A9017091AA018091AB019091AC01CF
:102F300020812160208308950E94891708950E94AE
:102F40007F17E0E7F0E080818E7F80831092A901F7
:102F50001092AA011092AB011092AC011092A8013C
:102F60001092A7018081816080830895682F81EB92
:102F700091E00E94A51B0895462FBC0181EB91E0D2
:102F80000E94C91B0895462F20E0BC0181EB91E00F
:102F90000E94761C08950F93CF93DF9300D000D04A
:102FA0001F92CDB7DEB79C0185E0E0E5F1E0DE01E0
:102FB000119601900D928A95E1F7662311F00FEFBB
:102FC00001C003E145E0BE016F5F7F4F81EB91E0FF
:102FD0000E949D1881EB91E00E9474180E949F1737
:102FE0000F900F900F900F900F90DF91CF910F9156
:102FF000089560E00E94CB17089581EB91E00E9454
:10300000EB1C08956F9364E06A95F1F76F91019757
:10301000C9F70895FC011182108213821282158271
:1030200014821682683068F489E290E0918380838C
:103030008BE290E0938382838AE290E0958384839D
:103040001FC06E3070F483E290E09183808385E24C
:1030500090E09383828384E290E095838483685038
:103060000FC0653198F486E290E09183808388E216
:1030700090E09383828387E290E0958384836E500F
:1030800081E001C0880F6A95EAF786830895A7E07A
:10309000B0E0EDE4F8E10C94B41D8C01FC01118268
:1030A0001082138212821582148217821682613175
:1030B00018F080E1808702C0FC016087F801208B56
:1030C000642FCE0101960E940A188F81F801818732
:1030D0008B819C81938782878D819E819587848750
:1030E0002796E4E00C94D01DFC01A485B5851097CB
:1030F00079F08C919185892B8C93A285B3859C91D5
:103100008185809589238C9388EC90E00E94021839
:103110000895FC01A485B585109771F08C91918577
:10312000892B8C93A285B3858C919185892B8C9367
:1031300088EC90E00E9402180895A7E0B0E0E3EA6E
:10314000F8E10C94A91D7C014B01642F3901402F3B
:1031500020E00E94471887010F5B1F4FF801108283
:103160006701F2E4CF0ED11CF60110825701F3E49F
:10317000AF0EB11CF5011082F70177866686512CDF
:10318000F7018085581650F5652C712CF401E60D79
:10319000F71D6081CE0101960E940A182F81F70168
:1031A000E60DF71D218B89819A81F301EE0FFF1F38
:1031B000EE0DFF1D92A381A38332910511F4F80156
:1031C00008C08632910511F4F60103C0899721F4F5
:1031D000F5018081822B80835394D2CF2796EFE034
:1031E0000C94C51DA0E0B0E0E8EFF8E10C94AB1D35
:1031F000EC015B016C0181E4C80ED11CF6018080FA
:103200007E01F2E4EF0EF11CF70170808E010D5B80
:103210001F4FF801908080E09885891748F4F501E8
:10322000E80FF11DE80FF11D118210828F5FF4CFBE
:1032300084B1F6019081892B84B987B1F70190811F
:10324000892B87B98AB1F8019081892B8AB985B118
:10325000F6019081892B85B988B1F7019081892B7E
:1032600088B98BB1F8019081892B8BB98AE090E005
:103270000E94021894B1F60180818095892384B957
:1032800097B1F70180818095892387B99AB1F801B8
:103290008081809589238AB995B1F60180818095D6
:1032A000892385B998B1F70180818095892388B9F0
:1032B0009BB1F8018081809589238BB9E090B000A3
:1032C000D090B1008091B00083608093B00082E024
:1032D0008093B1004091B20080E090E02E853F8560
:1032E0008217930720F5C090B2002C2D241B820F6B
:1032F000911D03B1081132C0F6B0F7102FC029B1EB
:1033000029112CC010C0212F30E0A901440F551FF6
:10331000F501E40FF51F60817181672B21F11F5FBB
:103320002885121780F37F2C802E4C2DD7CFE0926A
:10333000B000D092B10020E08885281730F5F50163
:10334000E20FF11DE20FF11D80819181892B21F4A3
:103350008E859F85918380832F5FEECF03B1F6B07A
:1033600099B010E0DDCFDE01A40FB51F91960D904E
:10337000BC91A02D4C91DE01A20FB31F51962C9150
:10338000422369F691838083CACFCDB7DEB7EDE0E3
:103390000C94C71DEF92FF920F931F93CF93DF936F
:1033A000FC019B01F0907C0000917A0047B118B1BC
:1033B00080917A0086FDFCCF80E09085891748F4E3
:1033C000D901A80FB11DA80FB11D1D921C928F5FCE
:1033D000F4CF97B182A18095892387B998B182A152
:1033E0008095892388B987E880937A00E12C81A1B0
:1033F000E81610F0E12C29C050E08085581718F528
:10340000A52FB0E0EF01CA0FDB1F8989806480938C
:103410007C0080917A00806480937A0080917A00A9
:1034200086FDFCCF6091780070917900AA0FBB1FD8
:10343000A20FB31F8D919C911197860F971F8D93AB
:103440009C935F5FDACFE394D2CF8085E816A0F437
:10345000E901CE0DD11DCE0DD11D61A170E0CB01D2
:1034600095958795A881B9818A0F9B1F0E94151D8C
:1034700079836883E394E9CFF0927C0000937A002B
:1034800018B947B9CDB7DEB7E6E00C94CE1DA0E27F
:10349000B0E0EDE4FAE10C94B11D8C017B01D42E77
:1034A0008FEF840F823018F4C8010E948918D80168
:1034B00050968C91B701811110C0C8010E94F2187A
:1034C000C8010E947418B2E0DB123AC0BE016F5FFF
:1034D0007F4FC8010E94F2180FC0C8010E94CA198C
:1034E000C8010E947418E2E0DE122AC0BE016F5FBC
:1034F0007F4FC8010E94CA1940E0F8018085481733
:10350000F8F4842F90E0880F991FF701E80FF91F56
:1035100021E030E02C0F3D1F820F931FD8011E9633
:103520002D913C911F97DC018D919C91281B390BAB
:1035300080819181820F931F918380834F5FDDCFC4
:10354000A096E7E00C94CD1D2F923F925F926F9270
:103550007F928F929F92AF92BF92CF92DF92EF9223
:10356000FF920F931F93CF93DF93CDB7DEB7C05673
:10357000D1090FB6F894DEBF0FBECDBF8C014B0151
:103580005A01522EDA018D919C91892B31F0F40170
:1035900080819181892BF1F424C0D80118968C91F7
:1035A00090E0880F991F0E94DD1DF50191838083B3
:1035B000009709F4B1C0FC0120E030E0D801189672
:1035C0008C9190E02817390714F7119211922F5F10
:1035D0003F4FF4CFE12CF12C6E01B1E2CB0ED11CA8
:1035E00021C0F801808590E0880F991F0E94DD1DA1
:1035F000D4018D939C93009709F48EC0FC0120E0C8
:1036000030E0D80118968C9190E02817390714F70C
:10361000D8011E968D919C911F97819391932F5F56
:103620003F4FEFCF452DBE016F5B7F4FC8010E941A
:10363000471AF8016084712CFE01EF5BFF4FC60151
:103640009E012F5F3F4F190120E030E0261537051E
:103650004CF5E114F10489F0DC016D917C9140811D
:1036600051816417750748F0D1016D917C914081BB
:1036700051814617570748F00DC040815181DC0148
:103680004D935C93E114F10479F740815181D101AC
:103690004D935C932F5F3F4FB2E02B0E311C32965F
:1036A0000296D4CFEFEFEE1AFE0AFAE0EF16F1041D
:1036B00009F0B8CF9E012F5F3F4F7901360180E0BE
:1036C00090E0F801208530E0821793072CF5D701B0
:1036D0002D913D917D01B3016C197D09D501ED91CD
:1036E000FC91E60FF71F408151814217530710F4F8
:1036F00031832083F301219131913F01D401ED9178
:10370000FC91E60FF71F408151812417350710F413
:10371000318320830196D5CFC05ADF4F0FB6F8947E
:10372000DEBF0FBECDBFDF91CF911F910F91FF90F4
:10373000EF90DF90CF90BF90AF909F908F907F9051
:103740006F905F903F902F9008951F93CF93DF93DA
:10375000EC01162F8FEF860F823018F0662359F098
:1037600014C021E0AE014E5F5F4FBE01CE010E944A
:10377000A41A123051F4AE014A5F5F4FBE016C5F74
:103780007F4F20E0CE010E94A41ADF91CF911F91BC
:103790000895A0E0B0E0EFECFBE10C94AF1DEC016C
:1037A0008B01B42E842F8D7F51F48C819D81892BC8
:1037B00009F497C08E819F81892B09F492C08FEF05
:1037C0008B0D823050F488819981892B09F489C04E
:1037D0008A819B81892B09F484C04B2DB801CE01CD
:1037E0000E94471A780100E010E0C12CD12C888596
:1037F00090E0C816D9060CF074C081E0B8120AC077
:10380000EA81FB81E00FF11F0190F081E02DA8819A
:10381000B9810DC08C819D812E813F81B1100CC07A
:10382000F901E00FF11F0190F081E02DDC01A00F04
:10383000B11F8D919C9128C0FC01E00FF11F4081C8
:103840005181E881F981E00FF11F80819181EE853E
:10385000FF854817590710F4CF0104C08E0F9F1F32
:10386000841B950BD901A00FB11F2D913C91AA810A
:10387000BB81A00FB11F4D915C912417350720F03B
:10388000E40FF51FE21BF30BE81BF90BA9F0D701BE
:103890002D913C9140E050E0281B390B4109510922
:1038A000A8EEB3E00E94931D9F0140E050E00E940B
:1038B0005F1D37FD0AC002C020E030E0293EB3E0C2
:1038C0003B072CF028EE33E002C020E030E0F701A7
:1038D000219331937F01FFEFCF1ADF0A0E5F1F4F55
:1038E00086CFCDB7DEB7E9E00C94CB1DA0E0B0E009
:1038F000ECE7FCE10C94A61DEC018B01822E0E94EA
:10390000C91B2884E801412C512C320100E010E051
:10391000C12CD12C7601312C912C58EEA52E53E0E0
:10392000B52E921421F1E991F991882021F0C50179
:103930008E1B9F0BFC01E93CF10524F4E333F105F8
:1039400074F002C033243394DF01A30192010E947A
:103950009E1DC60ED71EE81EF91E0E0F1F1F939444
:1039600098EE490E93E0591E611C711CDACF31109C
:103970001EC0492D50E04150510924EF31E0429FD3
:10398000C001439F900D529F900D11242091F5018D
:103990003091F60128173907B4F088EE93E0489F7C
:1039A0009001499F300D589F300D11240EC0980191
:1039B00040E050E0C701B6010E943D1D3093F60182
:1039C0002093F50102C020E030E0C901CDB7DEB799
:1039D000E2E10C94C21DCF93DF93EC018A819B81BD
:1039E000009711F00E94751E8E819F81009711F043
:1039F0000E94751E88819981009711F00E94751EA2
:103A00008C819D81009711F00E94751EDF91CF91EE
:103A10000895991B79E004C0991F961708F0961B2A
:103A2000881F7A95C9F780950895AA1BBB1B51E1A1
:103A300007C0AA1FBB1FA617B70710F0A61BB70B1E
:103A4000881F991F5A95A9F780959095BC01CD01C3
:103A5000089597FB072E16F4009407D077FD09D040
:103A60000E94151D07FC05D03EF4909581959F4F4F
:103A70000895709561957F4F0895A1E21A2EAA1BB3
:103A8000BB1BFD010DC0AA1FBB1FEE1FFF1FA2170E
:103A9000B307E407F50720F0A21BB30BE40BF50B0B
:103AA000661F771F881F991F1A9469F76095709594
:103AB000809590959B01AC01BD01CF010895052E25
:103AC00097FB1EF400940E94761D57FD07D00E94BC
:103AD0003D1D07FC03D04EF40C94761D5095409587
:103AE000309521953F4F4F4F5F4F089590958095AA
:103AF000709561957F4F8F4F9F4F0895EE0FFF1F79
:103B00000590F491E02D0994A29FB001B39FC001EC
:103B1000A39F700D811D1124911DB29F700D811DF9
:103B20001124911D08950E94841DA59F900DB49F9E
:103B3000900DA49F800D911D11240895B7FF0C9442
:103B4000931D0E94931D821B930B08952F923F9209
:103B50004F925F926F927F928F929F92AF92BF929D
:103B6000CF92DF92EF92FF920F931F93CF93DF9349
:103B7000CDB7DEB7CA1BDB0B0FB6F894DEBF0FBEA6
:103B8000CDBF09942A88398848885F846E847D84F3
:103B90008C849B84AA84B984C884DF80EE80FD80F5
:103BA0000C811B81AA81B981CE0FD11D0FB6F8946B
:103BB000DEBF0FBECDBFED0108950F931F93CF93CE
:103BC000DF938230910510F482E090E0E0911D02D5
:103BD000F0911E0220E030E0A0E0B0E0309719F153
:103BE000408151810281138148175907C8F0841719
:103BF000950769F4109731F012960C93129713966B
:103C00001C9327C000931D0210931E0222C0211591
:103C1000310519F04217530718F49A01BD01EF015D
:103C2000DF01F801DBCF21153105F9F0281B390B35
:103C30002430310580F48A819B816115710521F062
:103C4000FB019383828304C090931E0280931D0224
:103C5000FE01329644C0FE01E20FF31F819391935F
:103C600022503109398328833AC020911B023091B8
:103C70001C02232B41F4209110013091110130934B
:103C80001C0220931B0220910E0130910F0121157F
:103C9000310541F42DB73EB7409112015091130107
:103CA000241B350BE0911B02F0911C02E217F30775
:103CB000A0F42E1B3F0B2817390778F0AC014E5F9C
:103CC0005F4F2417350748F04E0F5F1F50931C02BB
:103CD00040931B028193919302C0E0E0F0E0CF019A
:103CE000DF91CF911F910F910895CF93DF930097AC
:103CF00009F481C0FC01329713821282A0911D0247
:103D0000B0911E02109781F420813181820F931FA0
:103D100020911B0230911C022817390751F5F093AE
:103D20001C02E0931B0267C0ED0120E030E0CE17DB
:103D3000DF0740F44A815B819E0141155105F1F096
:103D4000EA01F5CFD383C28340815181840F951F4F
:103D5000C817D90759F488819981840F951F029655
:103D6000918380838A819B8193838283211531058E
:103D700029F4F0931E02E0931D023DC0E901FB838C
:103D8000EA8349915991C40FD51FEC17FD0761F4DF
:103D900080819181840F951F0296E9019983888320
:103DA000828193819B838A83E0E0F0E012968D917B
:103DB0009C911397009719F0FD01DC01F7CF8D91CD
:103DC0009C9111979D012E5F3F4F820F931F209171
:103DD0001B0230911C022817390769F4309729F427
:103DE00010921E0210921D0202C013821282B09322
:103DF0001C02A0931B02DF91CF910895FB01DC010F
:103E00000D900020E9F711974150504028F00190A3
:103E100000200D92C9F708951C92089510E0CAE49D
:103E2000D0E004C0FE010E947E1D2196CB34D10754
:063E3000C9F7F894FFCF72
:103E360088130F00F4010400D007040108020000F3
:103E46001F0220005F0000000000000000000000CC
:103E56000000000000000000020504020106010542
:103E660000010305020401029C01B501CF01EA012C
:103E760007022602470269028E02B502DE020A0323
:103E86000E0F1011124A6F623A0025004261743A11
:103E9600004D0050004F0043004800536C6970709D
:103EA6006564210053544F50504544004F424A45E3
:0C3EB6004354004C4F572D424154000073
:00000001FF
