:100000000C943E000C945B000C945B000C945B0021
:100010000C945B000C945B000C945B000C945B00F4
:100020000C945B000C94C40A0C945B000C945B0071
:100030000C945B000C945B000C945B000C945B00D4
:100040000C945B000C945B000C945B000C945B00C4
:100050000C945B000C945B000C945B000C945B00B4
:100060000C945B000C945B000E0312037003E80217
:10007000F6020403E802E802E802880B11241FBE1E
:10008000CFEFD8E0DEBFCDBF11E0A0E0B1E0E4E308
:10009000F5E202C005900D92AA33B107D9F721E02D
:1000A000AAE3B1E001C01D92AB3AB207E1F70E94AA
:1000B000BE000C948D120C9400000E94380862E37C
:1000C00070E00E94A810CB010895EF92FF920F9369
:1000D0001F93CF937C018B01C42F0E94410960E0E4
:1000E00080E00E94C80983E291E00E945009B701B4
:1000F000FF0C880B990B0E94A50989E291E00E94F0
:10010000500961E080E00E94C8098BE291E00E9402
:100110005009B801110F880B990B0E94A50989E2BB
:1001200091E00E945009C230A9F028F4CC2341F09C
:10013000C13059F01DC0C33091F0C430A9F018C0CF
:1001400080E391E00E94500913C082E391E00E9495
:1001500050090EC084E391E00E94500909C086E373
:1001600091E00E94500904C088E391E00E94500988
:10017000CF911F910F91FF90EF900895CF93DF9350
:10018000CDB7DEB764970FB6F894DEBF0FBECDBF14
:100190000E94410980ED97E00E94840B0E94E300D9
:1001A000CE0101960E94D802CE0101960E9450090C
:1001B00080E090E064960FB6F894DEBF0FBECDBF2E
:1001C000DF91CF910895CF93DF9380ED97E00E9468
:1001D000840B80E10E94C10A8823D9F380E10E9448
:1001E000AD0A88EE93E00E940C0BC0E0D0E019C08D
:1001F000CE014497889738F068ED7FEF88E290E071
:100200000E947E0A06C068E270E088ED9FEF0E94BF
:100210007E0A81E00E94480B84E190E00E940C0B72
:100220002196C035D10520F360E070E080E090E0D9
:100230000E947E0A80E10E94C10A8823D9F380E1EE
:100240000E94AD0A0E944109DF91CF91089562E3B7
:1002500070E082E390E00E947E0A88EC90E00E94C9
:100260000C0B60E070E080E090E00E947E0A089550
:10027000CF93DF93C82F61E08CE991E00E944E0B91
:10028000CE3439F460E070E080E090E00E947E0AB5
:10029000C3C0CC3409F562E370E08EEC9FEF0E949E
:1002A0007E0A05C061E08CE991E00E944E0B8091CE
:1002B000A0019091A101843F9140A0F705C061E0A9
:1002C0008CE991E00E944E0B8091A0019091A101D8
:1002D000853F9140A0F3A0C0C23509F56EEC7FEFD9
:1002E00082E390E00E947E0A05C061E08CE991E023
:1002F0000E944E0B8091A0019091A101843F9140FA
:10030000A0F705C061E08CE991E00E944E0B80915E
:10031000A0019091A101853F9140A0F37DC0C3351C
:1003200089F562E370E082E390E00E947E0A8091AA
:10033000A2019091A301843F914068F08091A401B3
:100340009091A5018D32914030F46EE170E082E32E
:1003500090E00E947E0A80919E0190919F01843FCF
:10036000914008F459C080919C0190919D018D327B
:10037000914008F051C062E370E08EE190E00E948D
:100380007E0A4AC0C23409F56EEC7FEF8EEC9FEF17
:100390000E947E0A8091A2019091A3018039914030
:1003A00030F069EC7FEF8EEC9FEF0E947E0A809127
:1003B0009E0190919F018039914070F16EEC7FEF2A
:1003C00089EC9FEF0E947E0A27C0C435A1F46BE43C
:1003D00070E085EB9FEF0E947E0A05C061E08CE92A
:1003E00091E00E944E0B8091A0019091A101843F69
:1003F0009140A0F711C0C03579F40AC0BE01CE010A
:100400000E947E0A85E090E00E940C0B229702C0B9
:10041000C2E3D0E0DD2394F7DF91CF91089561E04E
:100420008CE991E00E944E0B80919E0190919F017A
:10043000843F21E09207C0F02091A2013091A301F6
:10044000243F314088F00E94270161E08CE991E06F
:100450000E944E0B8091A0019091A101843F914098
:1004600008F490C088E00895843F21E0920700F1ED
:1004700020919C0130919D01243F3140C8F00E94A1
:10048000270161E08CE991E00E944E0B8091A00170
:100490009091A101843F914008F076C08091A20123
:1004A0009091A301843F914008F470C086E00895C4
:1004B0004091A2015091A301443F61E0560700F131
:1004C0002091A4013091A501243F3140C8F00E9441
:1004D000270161E08CE991E00E944E0B8091A00120
:1004E0009091A101843F914008F052C080919E01FB
:1004F00090919F01843F914008F44CC085E008959D
:100500002091A0013091A101293C310508F444C09B
:10051000243F61E0360708F482CF243F61E03607CC
:10052000E8F1453F5140E0F54091A4015091A5010B
:10053000443F5140B8F140919C0150919D01443F8E
:10054000514090F1853F914088F5243F314050F46F
:1005500080E0089561E08CE991E00E944E0B83E514
:100560000E9438018091A4019091A50180399140A9
:1005700088F780919C0190919D018039914050F7BE
:1005800082E0089587E0089586E0089583E0089565
:1005900085E0089584E0089581E0089580E008955D
:1005A00080E0089580E0089580E0089580E0089557
:1005B000CF93DF93EC010E940F028093940190E0AF
:1005C00089309105E0F5FC01EC5CFF4F0C94FD10C7
:1005D0008CE40E9438018CE48093A60141E050E055
:1005E00066EA71E0CE010E947D1229C082E50E9478
:1005F000380182E58093A60141E050E066EA71E0AF
:10060000CE010E947D121BC083E58093A60141E0CC
:1006100050E066EA71E0CE010E947D1283E50E94FF
:1006200038010DC084E50E94380184E58093A6015D
:1006300041E050E066EA71E0CE010E947D12FE01C9
:1006400032978081843509F0B6CFFE0101900020F9
:10065000E9F73197EC1BFD0B3397EC0FFD1F108270
:10066000FE01339780818C3441F4329690819C3422
:1006700021F483E58093A6012BC0833549F4FE0164
:10068000319790819C3421F482E58093A60120C0AB
:10069000823549F4FE01319790819C3421F484E540
:1006A0008093A60115C08C3449F4FE0131979081E6
:1006B000923521F484E58093A6010AC08C3441F47C
:1006C000FE0131978081833519F482E58093A6017C
:1006D00041E050E066EA71E0CE010E947D126BCFEE
:1006E0000E941F0580E0DF91CF910895FC012081D9
:1006F0003181FB0140815181FC0151834083FB0129
:100700003183208308956F927F928F929F92AF9250
:10071000BF92CF92DF92EF92FF920F931F93CF93EE
:10072000DF936C013B014A01A12CB12C30C07E014A
:10073000EE0CFF1CF601EE0DFF1D208131818E01B4
:100740000F5F1F4F000F111FD601A00FB11F8D911A
:100750009C9111978217930764F4BD01CF010E9409
:100760007603B301600F711FC3018E0D9F1D0E94A0
:100770007603219602C0C0E0D0E0C4018A199B092B
:100780000197C817D9079CF28FEFA81AB80AC401BD
:100790000197A816B9067CF3DF91CF911F910F91B5
:1007A000FF90EF90DF90CF90BF90AF909F908F9091
:1007B0007F906F900895EF92FF920F931F93CF93C6
:1007C000DF937C0183E50E94380100E010E0C1E086
:1007D000D0E01AC00E940F029927009721F00397DA
:1007E000069728F011C083E50E9438010DC00F5F05
:1007F0001F4F83E50E9438010E151F0529F48EE472
:100800000E943801C0E0D0E0209721F7DF91CF911E
:100810001F910F91FF90EF900895CF938FE090E09C
:100820000E940C0B03C00E940F02C82FC111FBCF06
:100830008EE40E943801CF910895EF92FF920F93BA
:100840001F93CF93C82F8B01EE24E394F12C9AC011
:10085000F80184818E3459F018F4853451F18CC03C
:10086000833509F448C0873509F466C085C0C534AE
:1008700049F482E50E9438010E940D0485E4F801E4
:1008800084837AC0C73549F48CE40E9438010E9401
:100890000D0487E5F80184836FC0C33509F06CC08F
:1008A00084E50E9438010E940D0483E5F8018483E9
:1008B00063C0C33549F482E50E9438010E940D04EB
:1008C00083E5F801848358C0C73549F48CE40E945D
:1008D00038010E940D0487E5F80184834DC0C335BB
:1008E00009F04AC084E50E9438010E940D0483E5A6
:1008F000F801848341C0C73549F482E50E9438017C
:100900000E940D0487E5F801848336C0C53449F49C
:100910008CE40E9438010E940D0485E4F801848370
:100920002BC0CE3449F584E50E9438010E940D04A5
:100930008EE4F801848320C0CE3449F482E50E941D
:1009400038010E940D048EE4F801848315C0C3357C
:1009500049F48CE40E9438010E940D0483E5F801FB
:1009600084830AC0C53441F484E50E9438010E94A2
:100970000D0485E4F8018483F8018481C81302C062
:10098000E12CF12CF1E0EF16F10409F461CFCF91E5
:100990001F910F91FF90EF9008950F931F93CF93A6
:1009A000DF93FB012081318128173907D1F08B01BA
:1009B000EC01281739075CF487E50E941D04F80153
:1009C000808191819E01281B390BC90108C085E4F3
:1009D0000E941D04F801808191818C1B9D0B0E9457
:1009E000DB03DF91CF911F910F9108950F931F9318
:1009F000CF93DF93FB012281338128173907D1F090
:100A00008B01EC01281739075CF48EE40E941D0469
:100A1000F801828193819E01281B390BC90108C00E
:100A200083E50E941D04F801828193818C1B9D0B3C
:100A30000E94DB03DF91CF911F910F9108958F9258
:100A40009F92AF92BF92EF92FF920F931F93CF931B
:100A5000DF93CDB7DEB769970FB6F894DEBF0FBE50
:100A6000CDBF87E58D838FEF9FEF9A8389831C82AB
:100A70001B828AE0EAE0F1E0DE01169601900D9219
:100A80008A95E1F78AE0E4E1F1E0DE015096019019
:100A90000D928A95E1F745E050E0BE01605F7F4F1F
:100AA000CE0106960E948303E12CF12C49C0B701C8
:100AB0000F2C000C880B990B0E946E064B015C01F9
:100AC0008701000F111F81E090E08C0F9D1F080F20
:100AD000191FBC01F801858196810E94CD04F8019F
:100AE000858196819A838983BE016F5F7F4F878559
:100AF00090890E94F604F801878590899C838B83F6
:100B000088EE93E00E940C0B0E945D008C0120E0B7
:100B100030E040EA50E4C501B4010E94C40520E081
:100B200030E048EC52E40E94FA060E943606DC01EE
:100B3000CB0142E0B8010E946500FFEFEF1AFF0A07
:100B400085E0E816F1040CF4B2CFBE016F5F7F4F71
:100B500080E090E00E94F604BE016F5F7F4F80E06E
:100B600090E00E94CD0469960FB6F894DEBF0FBEE8
:100B7000CDBFDF91CF911F910F91FF90EF90BF906C
:100B8000AF909F908F9008950E94D8050C94C00656
:100B90000E94B90658F00E94B20640F029F45F3F67
:100BA00029F00C94A90651110C94F4060C94AF068C
:100BB0000E94D10668F39923B1F3552391F3951B55
:100BC000550BBB27AA2762177307840738F09F5F6E
:100BD0005F4F220F331F441FAA1FA9F335D00E2EDB
:100BE0003AF0E0E832D091505040E695001CCAF748
:100BF0002BD0FE2F29D0660F771F881FBB1F26170B
:100C000037074807AB07B0E809F0BB0B802DBF01E1
:100C1000FF2793585F4F3AF09E3F510578F00C94B0
:100C2000A9060C94F4065F3FE4F3983ED4F386954E
:100C300077956795B795F7959F5FC9F7880F911DD1
:100C40009695879597F90895E1E0660F771F881FBD
:100C5000BB1F621773078407BA0720F0621B730B70
:100C6000840BBA0BEE1F88F7E09508950E943D06AD
:100C70006894B1110C94F40608950E94D90688F086
:100C80009F5798F0B92F9927B751B0F0E1F0660F50
:100C9000771F881F991F1AF0BA95C9F714C0B13091
:100CA00091F00E94F306B1E008950C94F306672FCB
:100CB000782F8827B85F39F0B93FCCF386957795C0
:100CC0006795B395D9F73EF49095809570956195A9
:100CD0007F4F8F4F9F4F0895E89409C097FB3EF4D4
:100CE00090958095709561957F4F8F4F9F4F992379
:100CF000A9F0F92F96E9BB279395F69587957795F7
:100D00006795B795F111F8CFFAF4BB0F11F460FFB6
:100D10001BC06F5F7F4F8F4F9F4F16C0882311F00E
:100D200096E911C0772321F09EE8872F762F05C022
:100D3000662371F096E8862F70E060E02AF09A95BD
:100D4000660F771F881FDAF7880F9695879597F9B2
:100D5000089597F99F6780E870E060E008959FEF3D
:100D600080EC089500240A94161617061806090642
:100D7000089500240A941216130614060506089511
:100D8000092E0394000C11F4882352F0BB0F40F499
:100D9000BF2B11F460FF04C06F5F7F4F8F4F9F4FD9
:100DA000089557FD9058440F551F59F05F3F71F05B
:100DB0004795880F97FB991F61F09F3F79F08795C2
:100DC0000895121613061406551FF2CF4695F1DF4B
:100DD00008C0161617061806991FF1CF86957105DB
:100DE000610508940895E894BB2766277727CB010F
:100DF00097F908950E940D070C94C0060E94B20650
:100E000038F00E94B90620F0952311F00C94A90641
:100E10000C94AF0611240C94F4060E94D10670F3D2
:100E2000959FC1F3950F50E0551F629FF001729F8F
:100E3000BB27F00DB11D639FAA27F00DB11DAA1F9E
:100E4000649F6627B00DA11D661F829F2227B00DEB
:100E5000A11D621F739FB00DA11D621F839FA00D76
:100E6000611D221F749F3327A00D611D231F849FC6
:100E7000600D211D822F762F6A2F11249F5750401D
:100E80009AF0F1F088234AF0EE0FFF1FBB1F661F98
:100E9000771F881F91505040A9F79E3F510580F061
:100EA0000C94A9060C94F4065F3FE4F3983ED4F347
:100EB000869577956795B795F795E7959F5FC1F705
:100EC000FE2B880F911D9695879597F90895ECE76D
:100ED000F0E080818F7D80830895811103C00E949E
:100EE0006707089580917C00806280937C0008955C
:100EF00080917C0085FB882780F908950E947807FF
:100F0000882321F08091790090E008958091780005
:100F10009091790008958032A0F497E890937A0038
:100F200090917C00662311F0906C02C09F779064D2
:100F3000907E982B90937C0080917A0080648093BF
:100F40007A000895A0E0B0E0E8EAF7E00C942F11F1
:100F5000EB0160E00E948B0780917A0086FDFCCF58
:100F60008E01C12CD12C760180917A00806480930F
:100F70007A0080917A0086FDFCCF0E947E07C80E21
:100F8000D91EE11CF11C015011090115110561F771
:100F9000CE0196958795C034D10538F48C0D9D1DF2
:100FA000BE010E949410CB010EC0A7019601280F2C
:100FB000391F411D511DCA01B9019E0140E050E099
:100FC0000E94BC10C901CDB7DEB7E8E00C944B110C
:100FD000CF92DF92EF92FF92A0910001B0910101B8
:100FE0009C010E9403116B017C010E9478078823F9
:100FF00059F0C701B60161587F4F8F4F9F4F2FEFB8
:1010000030E040E050E00AC0C701B60161507E4FB9
:101010008F4F9F4F2FEF33E040E050E00E94BC1015
:10102000C901FF90EF90DF90CF9008950E94A20732
:101030000E94E80708951F93CF93DF930E947807DB
:10104000182F0E9467076AE070E086E00E94160889
:10105000EC01812F0E946D07CE01880F991F8C0F24
:101060009D1F019696958795DF91CF911F910895C9
:101070000E941B08089581E090E06F9364E06A95F8
:10108000F1F76F910197C9F708950F931F93CF93CD
:10109000DF931AB157985A98289AC0E0D0E00E947E
:1010A0003B085C9A0E943B0809B15C980E943B088F
:1010B0005C9A0E943B085C98249607FF10C0AE0122
:1010C00060E070E080913A0190913B01A0913C0179
:1010D000B0913D01481759076A077B0700F31AB919
:1010E000DF91CF911F910F91089595B1282F217015
:1010F00030E0220F331F482F467068E0469FA00162
:101100001124242B9D7C292B25B99BB188708295B5
:10111000807F9F77892B8BB95C9A0E943B085C98F3
:101120000E943B080895A0E0B0E0E9E9F8E00C94E3
:101130003011C82FD62EE42E80919501811105C063
:1011400081E0809395010E94D9080E94450814B15E
:10115000D5B1FAB00BB12898DD2011F05A9A01C030
:101160005A9894B1926394B9579A81E0E81629F09D
:101170008C2F82958F700E9475088C2F8F700E9423
:101180007508FAB80BB914B9D5B9CDB7DEB7E7E031
:101190000C944C1142E060E00E949308089542E0F4
:1011A00061E00E949308089541E060E00E94930886
:1011B000089580E197E2A0E0B0E080933A01909337
:1011C0003B01A0933C01B0933D01529A209A549A5E
:1011D0008EE190E00E940C0B83E00E94D40886E030
:1011E00090E00E940C0B83E00E94D40882E090E023
:1011F0000E940C0B83E00E94D40882E090E00E94E1
:101200000C0B82E00E94D40882E090E00E940C0B5C
:1012100088E20E94CA0888E00E94CA0881E00E9411
:10122000CA0886E00E94CA088CE00E94CA08089595
:1012300081E00E94CA088091400190914101892B70
:10124000F9F060E0A0E2262F30E070910201809179
:10125000030190E00197789FA001799F500D112420
:10126000241735074CF4E0914001F0914101E20F61
:10127000F31FA0836F5FE7CF10923E0110923F01F2
:1012800008950E9418090895CF93DF93EC01899186
:10129000882319F00E94CF08FACFDF91CF910895EB
:1012A0000E9444090895AAE0B0E0E9E5F9E00C9451
:1012B0002F111AE05AE0C52ED12CE12CF12C062F6B
:1012C000A70196010E94BC10CA01B9011150E1E0CA
:1012D000F0E0EC0FFD1FE10FF11D005D2AE0629FC1
:1012E000001911240083611571058105910539F7F5
:1012F0001A3058F4E1E0F0E0EC0FFD1FE10FF11DB2
:1013000080810E94CF081F5FF3CF2A96E8E00C94FB
:101310004B11CF92DF92EF92FF926B017C0197FF0E
:101320000BC0F094E094D094C094C11CD11CE11C7B
:10133000F11C8DE20E94CF08C701B6010E9453093B
:10134000FF90EF90DF90CF9008950E948909089553
:10135000A5E0B0E0EEEAF9E00C943411182F80E833
:10136000898380EC8A8384E98B8384ED8C83FE01FE
:10137000E60FF11D8181810F6D830E94CA081093D1
:101380003E016D8160933F012596E3E00C9450117E
:101390000E94A8090895883058F491E001C0990F7F
:1013A0008A95EAF7892FAAE2B0E0EBE2F0E021C0EB
:1013B0008E3060F498EF980F81E001C0880F9A9505
:1013C000EAF7A4E2B0E0E5E2F0E013C0853160F4B2
:1013D00092EF980F81E001C0880F9A95EAF7A7E293
:1013E000B0E0E8E2F0E005C080E0A0E0B0E0E0E0DE
:1013F000F0E06F3F19F49081982709C0662319F037
:101400009081982B04C02081982F909592239083EF
:101410009C91982B9C93089583EF8093B00084BD9A
:1014200082E08093B10085BD1092B4001092B300A9
:1014300018BC17BC60E086E00E94CB0960E085E044
:101440000E94CB0960E08BE00E94CB0960E083E062
:101450000E94CB09089580919601811105C081E019
:10146000809396010E940C0A0895CF93DF93EC01BC
:101470000E942B0AD7FF05C0D195C195D10981E003
:1014800001C080E0CF3FD10519F014F0CFEFD0E0DC
:10149000882319F018BCC7BD02C0C8BD17BCDF91B6
:1014A000CF910895CF93DF93EC010E942B0AD7FFD1
:1014B00005C0D195C195D10981E001C080E0CF3F41
:1014C000D10519F014F0CFEFD0E0882329F0109265
:1014D000B400C093B30004C0C093B4001092B30032
:1014E000DF91CF910895CF93DF93EB010E94350AEE
:1014F000CE010E94520ADF91CF9108950E94730A93
:10150000089584B18D7C84B985B1826385B985E005
:1015100090E06F9364E06A95F1F76F910197C9F7D6
:10152000089580919701811105C081E08093970112
:101530000E94810A0895CF93C82F0E94910A83B117
:101540008C23E9F38AE090E00E940C0B83B18C239A
:10155000B1F383B18C23CF9108950E949B0A089523
:10156000A1E0B0E0E6EBFAE00C94351189830E942B
:10157000910A93B19095898189232196E2E00C9498
:1015800051110E94B00A08952F928F939F932FB606
:101590008091490190914A0101968093490190936D
:1015A0004A0190E080914B01891F80934B019091FB
:1015B00043019C5F90934301809142018051974287
:1015C000C0F0909343018093420180914401909137
:1015D00045010196809344019093450190E08091EC
:1015E0004601891F8093460180914701891F80939E
:1015F00047012FBE9F918F912F90189528EE33E0D1
:10160000019748F0F9016F9364E06A95F1F76F91E3
:101610003197C9F7F5CF08950E94FE0A0895E0E7D3
:10162000F0E080818E7F8083A0EBB0E08C918360BE
:101630008C93A1EBB0E08C91807F8C938C91826035
:101640008C93B89A8081816080837894089580918A
:101650009801811105C081E0809398010E940F0BD1
:1016600008950E94270BE0E7F0E080818E7F808361
:1016700010924401109245011092460110924701C8
:10168000109243011092420180818160808308950D
:10169000682F8CE491E00E94300F0895462F20E0DF
:1016A000BC018CE491E00E94011008950F93CF9348
:1016B000DF9300D000D01F92CDB7DEB79C0185E04C
:1016C000EEE1F1E0DE01119601900D928A95E1F7CD
:1016D000662311F00FEF01C003E145E0BE016F5F2B
:1016E0007F4F8CE491E00E94280C8CE491E00E94F2
:1016F000FF0B0E94310B0F900F900F900F900F90E7
:10170000DF91CF910F91089560E00E94560B0895EC
:101710008CE491E00E94761008956F9364E06A95DE
:10172000F1F76F910197C9F70895FC0111821082BA
:1017300013821282158214821682683068F489E25C
:1017400090E0918380838BE290E0938382838AE2AE
:1017500090E0958384831FC06E3070F483E290E044
:101760009183808385E290E09383828384E290E09A
:101770009583848368500FC0653198F486E290E0C9
:101780009183808388E290E09383828387E290E074
:10179000958384836E5081E001C0880F6A95EAF7D3
:1017A00086830895A7E0B0E0E8EDFBE00C943311E8
:1017B0008C01FC0111821082138212821582148224
:1017C00017821682613118F080E1808702C0FC0127
:1017D0006087F801208B642FCE0101960E94950B43
:1017E0008F81F80181878B819C81938782878D818E
:1017F0009E81958784872796E4E00C944F11FC0125
:10180000A485B585109779F08C919185892B8C935F
:10181000A285B3859C918185809589238C9388ECE2
:1018200090E00E948D0B0895FC01A485B58510976A
:1018300071F08C919185892B8C93A285B3858C91C5
:101840009185892B8C9388EC90E00E948D0B0895F4
:10185000A7E0B0E0EEE2FCE00C9428117C014B0123
:10186000642F3901402F20E00E94D20B87010F5BCB
:101870001F4FF80110826701F2E4CF0ED11CF60170
:1018800010825701F3E4AF0EB11CF5011082F7018D
:1018900077866686512CF7018085581650F5652CA1
:1018A000712CF401E60DF71D6081CE0101960E94B6
:1018B000950B2F81F701E60DF71D218B89819A8108
:1018C000F301EE0FFF1FEE0DFF1D92A381A38332E4
:1018D000910511F4F80108C08632910511F4F60162
:1018E00003C0899721F4F5018081822B8083539472
:1018F000D2CF2796EFE00C944411A0E0B0E0E3E8EB
:10190000FCE00C942A11EC015B016C0181E4C80E2F
:10191000D11CF60180807E01F2E4EF0EF11CF7018C
:1019200070808E010D5B1F4FF801908080E09885DC
:10193000891748F4F501E80FF11DE80FF11D118238
:1019400010828F5FF4CF84B1F6019081892B84B926
:1019500087B1F7019081892B87B98AB1F80190810D
:10196000892B8AB985B1F6019081892B85B988B117
:10197000F7019081892B88B98BB1F8019081892B6F
:101980008BB98AE090E00E948D0B94B1F6018081C2
:101990008095892384B997B1F70180818095892347
:1019A00087B99AB1F8018081809589238AB995B168
:1019B000F60180818095892385B998B1F7018081EE
:1019C0008095892388B99BB1F8018081809589230E
:1019D0008BB9E090B000D090B1008091B0008360EE
:1019E0008093B00082E08093B1004091B20080E02B
:1019F00090E02E853F858217930720F5C090B200B6
:101A00002C2D241B820F911D03B1081132C0F6B09A
:101A1000F7102FC029B129112CC010C0212F30E0A0
:101A2000A901440F551FF501E40FF51F6081718175
:101A3000672B21F11F5F2885121780F37F2C802EE2
:101A40004C2DD7CFE092B000D092B10020E0888535
:101A5000281730F5F501E20FF11DE20FF11D80812D
:101A60009181892B21F48E859F85918380832F5FBF
:101A7000EECF03B1F6B099B010E0DDCFDE01A40FD8
:101A8000B51F91960D90BC91A02D4C91DE01A20F37
:101A9000B31F51962C91422369F691838083CACF5C
:101AA000CDB7DEB7EDE00C944611EF92FF920F93A5
:101AB0001F93CF93DF93FC019B01F0907C0000917A
:101AC0007A0047B118B180917A0086FDFCCF80E0A2
:101AD0009085891748F4D901A80FB11DA80FB11D31
:101AE0001D921C928F5FF4CF97B182A180958923BC
:101AF00087B998B182A18095892388B987E88093B6
:101B00007A00E12C81A1E81610F0E12C29C050E008
:101B10008085581718F5A52FB0E0EF01CA0FDB1F1D
:101B20008989806480937C0080917A0080648093AE
:101B30007A0080917A0086FDFCCF609178007091E8
:101B40007900AA0FBB1FA20FB31F8D919C91119713
:101B5000860F971F8D939C935F5FDACFE394D2CF6C
:101B60008085E816A0F4E901CE0DD11DCE0DD11D62
:101B700061A170E0CB0195958795A881B9818A0F05
:101B80009B1F0E94941079836883E394E9CFF092BD
:101B90007C0000937A0018B947B9CDB7DEB7E6E00C
:101BA0000C944D11A0E2B0E0E8EDFDE00C94301192
:101BB0008C017B01D42E8FEF840F823018F4C80182
:101BC0000E94140CD80150968C91B701811110C05D
:101BD000C8010E947D0CC8010E94FF0BB2E0DB121D
:101BE0003AC0BE016F5F7F4FC8010E947D0C0FC0DD
:101BF000C8010E94550DC8010E94FF0BE2E0DE12F1
:101C00002AC0BE016F5F7F4FC8010E94550D40E0A2
:101C1000F80180854817F8F4842F90E0880F991F09
:101C2000F701E80FF91F21E030E02C0F3D1F820F74
:101C3000931FD8011E962D913C911F97DC018D9129
:101C40009C91281B390B80819181820F931F918376
:101C500080834F5FDDCFA096E7E00C944C112F926C
:101C60003F925F926F927F928F929F92AF92BF92BC
:101C7000CF92DF92EF92FF920F931F93CF93DF9358
:101C8000CDB7DEB7C056D1090FB6F894DEBF0FBE90
:101C9000CDBF8C014B015A01522EDA018D919C91DE
:101CA000892B31F0F40180819181892BF1F424C0DA
:101CB000D80118968C9190E0880F991F0E945C11B2
:101CC000F50191838083009709F4B1C0FC0120E005
:101CD00030E0D80118968C9190E02817390714F756
:101CE000119211922F5F3F4FF4CFE12CF12C6E0136
:101CF000B1E2CB0ED11C21C0F801808590E0880FA5
:101D0000991F0E945C11D4018D939C93009709F454
:101D10008EC0FC0120E030E0D80118968C9190E054
:101D20002817390714F7D8011E968D919C911F979B
:101D3000819391932F5F3F4FEFCF452DBE016F5B96
:101D40007F4FC8010E94D20DF8016084712CFE0102
:101D5000EF5BFF4FC6019E012F5F3F4F190120E04F
:101D600030E0261537054CF5E114F10489F0DC016B
:101D70006D917C91408151816417750748F0D101C4
:101D80006D917C91408151814617570748F00DC0F5
:101D900040815181DC014D935C93E114F10479F7AA
:101DA00040815181D1014D935C932F5F3F4FB2E051
:101DB0002B0E311C32960296D4CFEFEFEE1AFE0AAC
:101DC000FAE0EF16F10409F0B8CF9E012F5F3F4F04
:101DD0007901360180E090E0F801208530E082173B
:101DE00093072CF5D7012D913D917D01B3016C191D
:101DF0007D09D501ED91FC91E60FF71F40815181DE
:101E00004217530710F431832083F301219131915C
:101E10003F01D401ED91FC91E60FF71F4081518104
:101E20002417350710F4318320830196D5CFC05A8B
:101E3000DF4F0FB6F894DEBF0FBECDBFDF91CF915D
:101E40001F910F91FF90EF90DF90CF90BF90AF90D8
:101E50009F908F907F906F905F903F902F9008950C
:101E60001F93CF93DF93EC01162F8FEF860F8230F5
:101E700018F0662359F014C021E0AE014E5F5F4FA9
:101E8000BE01CE010E942F0E123051F4AE014A5F06
:101E90005F4FBE016C5F7F4F20E0CE010E942F0E8E
:101EA000DF91CF911F910895A0E0B0E0EAE5FFE057
:101EB0000C942E11EC018B01B42E842F8D7F51F4E4
:101EC0008C819D81892B09F497C08E819F81892BFC
:101ED00009F492C08FEF8B0D823050F48881998184
:101EE000892B09F489C08A819B81892B09F484C0DC
:101EF0004B2DB801CE010E94D20D780100E010E018
:101F0000C12CD12C888590E0C816D9060CF074C07D
:101F100081E0B8120AC0EA81FB81E00FF11F019055
:101F2000F081E02DA881B9810DC08C819D812E8129
:101F30003F81B1100CC0F901E00FF11F0190F08159
:101F4000E02DDC01A00FB11F8D919C9128C0FC01F8
:101F5000E00FF11F40815181E881F981E00FF11F0D
:101F600080819181EE85FF854817590710F4CF01D4
:101F700004C08E0F9F1F841B950BD901A00FB11FAA
:101F80002D913C91AA81BB81A00FB11F4D915C9115
:101F90002417350720F0E40FF51FE21BF30BE81BB5
:101FA000F90BA9F0D7012D913C9140E050E0281B9E
:101FB000390B41095109A8EEB3E00E9412119F01AB
:101FC00040E050E00E94DE1037FD0AC002C020E071
:101FD00030E0293EB3E03B072CF028EE33E002C0AE
:101FE00020E030E0F701219331937F01FFEFCF1A1A
:101FF000DF0A0E5F1F4F86CFCDB7DEB7E9E00C9446
:102000004A11A0E0B0E0E7E0F0E10C942511EC010A
:102010008B01822E0E94540F2884E801412C512C00
:10202000320100E010E0C12CD12C7601312C912C32
:1020300058EEA52E53E0B52E921421F1E991F991B5
:10204000882021F0C5018E1B9F0BFC01E93CF105A6
:1020500024F4E333F10574F002C033243394DF0138
:10206000A30192010E941D11C60ED71EE81EF91E83
:102070000E0F1F1F939498EE490E93E0591E611C9A
:10208000711CDACF31101EC0492D50E0415051096A
:1020900024EF31E0429FC001439F900D529F900D6D
:1020A0001124209190013091910128173907B4F043
:1020B00088EE93E0489F9001499F300D589F300D66
:1020C00011240EC0980140E050E0C701B6010E9403
:1020D000BC10309391012093900102C020E030E0C9
:1020E000C901CDB7DEB7E2E10C944111CF93DF9384
:1020F000EC018A819B81009711F00E94F4118E817E
:102100009F81009711F00E94F411888199810097B6
:1021100011F00E94F4118C819D81009711F00E94B2
:10212000F411DF91CF910895AA1BBB1B51E107C0A9
:10213000AA1FBB1FA617B70710F0A61BB70B881F57
:10214000991F5A95A9F780959095BC01CD010895E6
:1021500097FB072E16F4009407D077FD09D00E9454
:10216000941007FC05D03EF4909581959F4F0895FB
:10217000709561957F4F0895A1E21A2EAA1BBB1B93
:10218000FD010DC0AA1FBB1FEE1FFF1FA217B30743
:10219000E407F50720F0A21BB30BE40BF50B661F59
:1021A000771F881F991F1A9469F76095709580951D
:1021B00090959B01AC01BD01CF010895052E97FBC1
:1021C0001EF400940E94F51057FD07D00E94BC1029
:1021D00007FC03D04EF40C94F510509540953095C3
:1021E00021953F4F4F4F5F4F089590958095709583
:1021F00061957F4F8F4F9F4F0895EE0FFF1F059002
:10220000F491E02D0994A29FB001B39FC001A39F58
:10221000700D811D1124911DB29F700D811D11241F
:10222000911D08950E940311A59F900DB49F900DDC
:10223000A49F800D911D11240895B7FF0C941211D5
:102240000E941211821B930B08952F923F924F927E
:102250005F926F927F928F929F92AF92BF92CF9236
:10226000DF92EF92FF920F931F93CF93DF93CDB73F
:10227000DEB7CA1BDB0B0FB6F894DEBF0FBECDBFB7
:1022800009942A88398848885F846E847D848C8488
:102290009B84AA84B984C884DF80EE80FD800C8191
:1022A0001B81AA81B981CE0FD11D0FB6F894DEBF74
:1022B0000FBECDBFED0108950F931F93CF93DF9312
:1022C0008230910510F482E090E0E091A901F09154
:1022D000AA0120E030E0A0E0B0E0309719F14081A1
:1022E00051810281138148175907C8F08417950757
:1022F00069F4109731F012960C93129713961C9371
:1023000027C00093A9011093AA0122C0211531050D
:1023100019F04217530718F49A01BD01EF01DF01CC
:10232000F801DBCF21153105F9F0281B390B2430DA
:10233000310580F48A819B816115710521F0FB01D3
:102340009383828304C09093AA018093A901FE0124
:10235000329644C0FE01E20FF31F81939193225005
:102360003109398328833AC02091A7013091A8010F
:10237000232B41F420910601309107013093A801ED
:102380002093A70120910401309105012115310509
:1023900041F42DB73EB74091080150910901241B2B
:1023A000350BE091A701F091A801E217F307A0F423
:1023B0002E1B3F0B2817390778F0AC014E5F5F4F9B
:1023C0002417350748F04E0F5F1F5093A801409324
:1023D000A7018193919302C0E0E0F0E0CF01DF918B
:1023E000CF911F910F910895CF93DF93009709F438
:1023F00081C0FC01329713821282A091A901B09191
:10240000AA01109781F420813181820F931F2091BE
:10241000A7013091A8012817390751F5F093A801B9
:10242000E093A70167C0ED0120E030E0CE17DF07A1
:1024300040F44A815B819E0141155105F1F0EA01AA
:10244000F5CFD383C28340815181840F951FC81774
:10245000D90759F488819981840F951F0296918339
:1024600080838A819B81938382832115310529F49E
:10247000F093AA01E093A9013DC0E901FB83EA833F
:1024800049915991C40FD51FEC17FD0761F4808164
:102490009181840F951F0296E90199838883828137
:1024A00093819B838A83E0E0F0E012968D919C916A
:1024B0001397009719F0FD01DC01F7CF8D919C91E6
:1024C00011979D012E5F3F4F820F931F2091A7010F
:1024D0003091A8012817390769F4309729F4109230
:1024E000AA011092A90102C013821282B093A8011E
:1024F000A093A701DF91CF910895FB01DC010D901E
:102500000020E9F711974150504028F00190002039
:102510000D92C9F708951C92089510E0CDE3D0E024
:1025200004C0FE010E94FD102196CE33D107C9F7E9
:04253000F894FFCF4D
:10253400881308020000AB01200000000300010022
:1025440002000400010002000300030004000E0F57
:102554001011125461736B3A0025004261743A0001
:0A2564004D0050004F0043004800F6
:00000001FF
