S01100003370695F61707031312E7372656305
S11300000C9445000C9462000C9462000C94620001
S11300100C9462000C9462000C9462000C946200D4
S11300200C9462000C94EA060C9462000C94620036
S11300300C9462000C9462000C9462000C946200B4
S11300400C9462000C9462000C9462000C946200A4
S11300500C9462000C9462000C9462000C94620094
S11300600C9462000C946200A600B6007100860035
S11300709600A600860086008600000000000000AE
S1130080001F1F1F1F1F1F1FAE0711241FBECFEF0E
S1130090D8E0DEBFCDBF11E0A0E0B1E0E8E3FDE1D0
S11300A002C005900D92A833B107D9F721E0A8E367
S11300B0B1E001C01D92A83AB207E1F70E94C60060
S11300C00C948F0E0C9400000E949A02809392016B
S11300D0E82FF0E0E930F105B8F7EC5CFF4F0C9441
S11300E00F0D0E94670560E080E00E94EE0589E143
S11300F091E00E94760560E070E080E090E00E946C
S1130100A40688EE93E00E943207DECF0E946705C2
S113011060E080E00E94EE0582E291E00E947605B4
S11301208CE40E94D7010E946705CECF0E94670528
S113013060E080E00E94EE0584E291E00E94760592
S113014082E50E94D7010E946705BECF0E94670521
S113015060E080E00E94EE0586E291E00E94760570
S113016083E50E94D7010E946705AECF0E94670510
S113017060E080E00E94EE0588E291E00E9476054E
S113018084E50E94D7010E9467059ECF80ED97E029
S11301900E94AA070E9437010E94640060E08AE777
S11301A090E00E94F40461E08BE790E00E94F40484
S11301B062E08CE790E00E94F40463E08DE790E055
S11301C00E94F40464E08EE790E00E94F40465E089
S11301D08FE790E00E94F40466E080E890E00E94DB
S11301E0F4040E9467050895EF92FF921F93CF9342
S11301F0DF93CDB7DEB72A970FB6F894DEBF0FBEF4
S1130200CDBF7C0110E025C08AE0EAE0F1E0DE0128
S1130210119601900D928A95E1F7E12FF0E0EE0F2F
S1130220FF1FEE0DFF1D20813181A7E4B4E10E9480
S1130230150D969587959695879596958795E1E002
S1130240F0E0EC0FFD1FE80FF91F80810E94F70416
S11302501F5F1530C8F22A960FB6F894DEBF0FBEA2
S1130260CDBFDF91CF911F91FF90EF9008950F9331
S11302701F93CF93DF93CDB7DEB72A970FB6F894C9
S1130280DEBF0FBECDBF80ED97E00E94AA070E949B
S1130290CE001BC00E9434048C010E946705B80183
S11302A0110F880B990B0E94CB058CE291E00E9400
S11302B0760561E080E00E94EE058FE291E00E9405
S11302C0760584E690E00E94320780E10E94E7060A
S11302D0882301F380E10E94D30688EE93E00E9414
S11302E0320700E010E01AC0C8014497889738F03C
S11302F068ED7FEF88E290E00E94A40606C068E201
S113030070E088ED9FEF0E94A40681E00E946E07D2
S113031084E190E00E9432070F5F1F4F0035110502
S113032018F360E070E080E090E00E94A40619C039
S113033061E0CE0101960E9474078C010E9467055A
S1130340B80180E090E00E94CB0561E080E00E946B
S1130350EE05CE0101960E94F40084E690E00E942E
S1130360320780E10E94E706882311F380E10E94AE
S1130370D3060E9467052A960FB6F894DEBF0FBE17
S1130380CDBFDF91CF911F910F91089562E370E08B
S113039082E390E00E94A40686E990E00E9432077E
S11303A060E070E080E090E00E94A4060895CF939E
S11303B0C82F61E08AE991E00E947407CE3439F4D1
S11303C060E070E080E090E00E94A406B1C0CC340C
S11303D009F562E370E08EEC9FEF0E94A40605C06D
S11303E061E08AE991E00E94740780919E019091F6
S11303F09F01843F9140A0F705C061E08AE991E044
S11304000E94740780919E0190919F01853F9140C5
S1130410A0F38EC0C23509F56EEC7FEF82E390E065
S11304200E94A40605C061E08AE991E00E94740775
S113043080919E0190919F01843F9140A0F705C057
S113044061E08AE991E00E94740780919E01909195
S11304509F01853F9140A0F36BC0C33589F562E3EA
S113046070E082E390E00E94A4068091A001909144
S1130470A1018039914068F08091A2019091A3017B
S11304808139914030F468E270E084E690E00E94A3
S1130490A40680919C0190919D018039914008F4BB
S11304A047C080919A0190919B018139914008F055
S11304B03FC064E670E088E290E00E94A40638C081
S11304C0C23409F56EEC7FEF8EEC9FEF0E94A40618
S11304D08091A0019091A1018039914030F069ECA4
S11304E07FEF8EEC9FEF0E94A40680919C01909177
S11304F09D0180399140E0F06EEC7FEF89EC9FEF35
S11305000E94A40615C0C43599F46BE470E085EB31
S11305109FEF0E94A40605C061E08AE991E00E9471
S1130520740780919E0190919F01843F9140A0F7B0
S1130530CF91089561E08AE991E00E947407809167
S11305409C0190919D01843F21E09207C0F020918D
S1130550A0013091A101243F314088F00E94C601DE
S113056061E08AE991E00E94740780919E01909174
S11305709F01843F914008F490C088E00895843F2F
S113058021E0920700F120919A0130919B01243FD0
S11305903140C8F00E94C60161E08AE991E00E94FE
S11305A0740780919E0190919F01843F914008F0CF
S11305B076C08091A0019091A101843F914008F4FC
S11305C070C086E008954091A0015091A101443F7C
S11305D061E0560700F12091A2013091A301243F6C
S11305E03140C8F00E94C60161E08AE991E00E94AE
S11305F0740780919E0190919F01843F914008F07F
S113060052C080919C0190919D01843F914008F4D7
S11306104CC085E0089520919E0130919F01293CB2
S1130620310508F444C0243F61E0360708F482CF62
S1130630243F61E03607E8F1453F5140E0F5409141
S1130640A2015091A301443F5140B8F140919A0155
S113065050919B01443F514090F1853F914088F572
S1130660243F314050F480E0089561E08AE991E04C
S11306700E94740783E50E94D7018091A2019091A2
S1130680A3018039914088F780919A0190919B0150
S11306908039914050F782E0089587E0089586E01C
S11306A0089583E0089585E0089584E0089581E045
S11306B0089580E0089580E0089580E0089580E042
S11306C0089580E00895ECE7F0E080818F7D8083D9
S11306D00895811103C00E946303089580917C00F2
S11306E0806280937C00089580917C0085FB88273C
S11306F080F908950E947403882321F08091790081
S113070090E0089580917800909179000895803266
S1130710A0F497E890937A0090917C00662311F0FE
S1130720906C02C09F779064907E982B90937C008D
S113073080917A00806480937A000895A0E0B0E00C
S1130740E4EAF3E00C94410DEB0160E00E948703BE
S113075080917A0086FDFCCF8E01C12CD12C7601CC
S113076080917A00806480937A0080917A0086FD7B
S1130770FCCF0E947A03C80ED91EE11CF11C015063
S113078011090115110561F7CE0196958795C034BD
S1130790D10538F48C0D9D1DBE010E94BA0CCB010D
S11307A00EC0A7019601280F391F411D511DCA0112
S11307B0B9019E0140E050E00E94CE0CC901CDB7C2
S11307C0DEB7E8E00C945D0DCF92DF92EF92FF92DA
S11307D0A0910001B09101019C010E94150D6B01D3
S11307E07C010E947403882359F0C701B601615843
S11307F07F4F8F4F9F4F2FEF30E040E050E00AC013
S1130800C701B60161507E4F8F4F9F4F2FEF33E0EA
S113081040E050E00E94CE0CC901FF90EF90DF90C1
S1130820CF9008950E949E030E94E40308951F93AD
S1130830CF93DF930E947403182F0E9463036AE02E
S113084070E086E00E941204EC01812F0E9469038B
S1130850CE01880F991F8C0F9D1F01969695879541
S1130860DF91CF911F9108950E941704089581E0AC
S113087090E06F9364E06A95F1F76F910197C9F77F
S113088008950F931F93CF93DF931AB157985A98F3
S1130890289AC0E0D0E00E9437045C9A0E94370492
S11308A009B15C980E9437045C9A0E9437045C98F2
S11308B0249607FF10C0AE0160E070E0809138011B
S11308C090913901A0913A01B0913B014817590721
S11308D06A077B0700F31AB9DF91CF911F910F913B
S11308E0089595B1282F217030E0220F331F482F2F
S11308F0467068E0469FA0011124242B9D7C292B7F
S113090025B99BB188708295807F9F77892B8BB99D
S11309105C9A0E9437045C980E9437040895A0E012
S1130920B0E0E5E9F4E00C94420DC82FD62EE42E95
S113093080919301811105C081E0809393010E940D
S1130940FF040E94410414B1D5B1FAB00BB1289848
S1130950DD2011F05A9A01C05A9894B1926394B967
S1130960579A81E0E81629F08C2F82958F700E94A7
S113097071048C2F8F700E947104FAB80BB914B9EA
S1130980D5B9CDB7DEB7E7E00C945E0D42E060E088
S11309900E948F04089542E061E00E948F0408954C
S11309A0A1E0B0E0E6EDF4E00C94430D8C01660F99
S11309B0660F660FE12CF12C8E2D860F80646983FF
S11309C00E94C604F801EE0DFF1D84910E94CB0421
S11309D08FEFE81AF80A6981E8E0EE16F10461F78E
S11309E02196E6E00C945F0D0E94D00408950E94C5
S11309F0CB04089541E060E00E948F04089580E1F3
S1130A0097E2A0E0B0E08093380190933901A0937D
S1130A103A01B0933B01529A209A549A8EE190E0A5
S1130A200E94320783E00E94FA0486E090E00E946C
S1130A30320783E00E94FA0482E090E00E943207C9
S1130A4083E00E94FA0482E090E00E94320782E090
S1130A500E94FA0482E090E00E94320788E20E9439
S1130A60C60488E00E94C60481E00E94C60486E0B1
S1130A700E94C6048CE00E94C604089581E00E948E
S1130A80C60480913E0190913F01892BF9F060E00A
S1130A90A0E2262F30E0709102018091030190E0E2
S1130AA00197789FA001799F500D112424173507D1
S1130AB04CF4E0913E01F0913F01E20FF31FA0835B
S1130AC06F5FE7CF10923C0110923D0108950E94A0
S1130AD03E050895CF93DF93EC018991882319F0A3
S1130AE00E94CB04FACFDF91CF9108950E946A054A
S1130AF00895AAE0B0E0EFE7F5E00C94410D1AE0A8
S1130B005AE0C52ED12CE12CF12C062FA701960119
S1130B100E94CE0CCA01B9011150E1E0F0E0EC0FE3
S1130B20FD1FE10FF11D005D2AE0629F00191124F1
S1130B300083611571058105910539F71A3058F460
S1130B40E1E0F0E0EC0FFD1FE10FF11D80810E9458
S1130B50CB041F5FF3CF2A96E8E00C945D0DCF928F
S1130B60DF92EF92FF926B017C0197FF0BC0F09430
S1130B70E094D094C094C11CD11CE11CF11C8DE202
S1130B800E94CB04C701B6010E947905FF90EF9043
S1130B90DF90CF9008950E94AF050895A5E0B0E0DE
S1130BA0E4EDF5E00C94460D182F80E8898380EC81
S1130BB08A8384E98B8384ED8C83FE01E60FF11D27
S1130BC08181810F6D830E94C60410933C016D8165
S1130BD060933D012596E3E00C94620D0E94CE05DE
S1130BE00895883058F491E001C0990F8A95EAF786
S1130BF0892FAAE2B0E0EBE2F0E021C08E3060F48D
S1130C0098EF980F81E001C0880F9A95EAF7A4E263
S1130C10B0E0E5E2F0E013C0853160F492EF980FA4
S1130C2081E001C0880F9A95EAF7A7E2B0E0E8E214
S1130C30F0E005C080E0A0E0B0E0E0E0F0E06F3F6D
S1130C4019F49081982709C0662319F09081982B94
S1130C5004C02081982F9095922390839C91982B87
S1130C609C93089583EF8093B00084BD82E08093C9
S1130C70B10085BD1092B4001092B30018BC17BC2B
S1130C8060E086E00E94F10560E085E00E94F105E5
S1130C9060E08BE00E94F10560E083E00E94F105D2
S1130CA0089580919401811105C081E0809394019D
S1130CB00E9432060895CF93DF93EC010E945106FF
S1130CC0D7FF05C0D195C195D10981E001C080E06D
S1130CD0CF3FD10519F014F0CFEFD0E0882319F0FD
S1130CE018BCC7BD02C0C8BD17BCDF91CF91089521
S1130CF0CF93DF93EC010E945106D7FF05C0D19535
S1130D00C195D10981E001C080E0CF3FD10519F040
S1130D1014F0CFEFD0E0882329F01092B400C093F0
S1130D20B30004C0C093B4001092B300DF91CF911C
S1130D300895CF93DF93EB010E945B06CE010E94DE
S1130D407806DF91CF9108950E949906089584B1A1
S1130D508D7C84B985B1826385B985E090E06F9319
S1130D6064E06A95F1F76F910197C9F7089580914E
S1130D709501811105C081E0809395010E94A70629
S1130D800895CF93C82F0E94B70683B18C23E9F34B
S1130D908AE090E00E94320783B18C23B1F383B1DF
S1130DA08C23CF9108950E94C1060895A1E0B0E07C
S1130DB0ECEDF6E00C94470D89830E94B70693B1DD
S1130DC09095898189232196E2E00C94630D0E9419
S1130DD0D60608952F928F939F932FB68091470143
S1130DE0909148010196809347019093480190E0C7
S1130DF080914901891F80934901909141019C5F31
S1130E00909341018091400180519742C0F09093AA
S1130E1041018093400180914201909143010196E8
S1130E20809342019093430190E080914401891F93
S1130E308093440180914501891F809345012FBE11
S1130E409F918F912F90189528EE33E0019748F0E9
S1130E50F9016F9364E06A95F1F76F913197C9F7DF
S1130E60F5CF08950E9424070895E0E7F0E080811B
S1130E708E7F8083A0EBB0E08C9183608C93A1EB98
S1130E80B0E08C91807F8C938C9182608C93B89A23
S1130E908081816080837894089580919601811186
S1130EA005C081E0809396010E94350708950E9451
S1130EB04D07E0E7F0E080818E7F8083109242014D
S1130EC01092430110924401109245011092410185
S1130ED0109240018081816080830895682F8AE4A4
S1130EE091E00E94560B0895462F20E0BC018AE44D
S1130EF091E00E94270C08950F93CF93DF9300D0C5
S1130F0000D01F92CDB7DEB79C0185E0E4E1F1E0AB
S1130F10DE01119601900D928A95E1F7662311F096
S1130F200FEF01C003E145E0BE016F5F7F4F8AE42C
S1130F3091E00E944E088AE491E00E9425080E94F4
S1130F4057070F900F900F900F900F90DF91CF9154
S1130F500F91089560E00E947C0708958AE491E06F
S1130F600E949C0C08956F9364E06A95F1F76F9169
S1130F700197C9F70895FC0111821082138212822D
S1130F80158214821682683068F489E290E09183B5
S1130F9080838BE290E0938382838AE290E095835E
S1130FA084831FC06E3070F483E290E09183808369
S1130FB085E290E09383828384E290E09583848346
S1130FC068500FC0653198F486E290E09183808385
S1130FD088E290E09383828387E290E09583848320
S1130FE06E5081E001C0880F6A95EAF78683089500
S1130FF0A7E0B0E0EEEFF7E00C94450D8C01FC01A6
S11310001182108213821282158214821782168230
S1131010613118F080E1808702C0FC016087F8012B
S1131020208B642FCE0101960E94BB078F81F801AB
S113103081878B819C81938782878D819E8195870F
S113104084872796E4E00C94610DFC01A485B585A2
S1131050109779F08C919185892B8C93A285B38517
S11310609C918185809589238C9388EC90E00E94E3
S1131070B3070895FC01A485B585109771F08C9190
S11310809185892B8C93A285B3858C919185892B2D
S11310908C9388EC90E00E94B3070895A7E0B0E039
S11310A0E4E5F8E00C943A0D7C014B01642F39011E
S11310B0402F20E00E94F80787010F5B1F4FF801C3
S11310C010826701F2E4CF0ED11CF60110825701A1
S11310D0F3E4AF0EB11CF5011082F7017786668642
S11310E0512CF7018085581650F5652C712CF401AC
S11310F0E60DF71D6081CE0101960E94BB072F818A
S1131100F701E60DF71D218B89819A81F301EE0F1A
S1131110FF1FEE0DFF1D92A381A38332910511F4ED
S1131120F80108C08632910511F4F60103C08997CD
S113113021F4F5018081822B80835394D2CF2796AA
S1131140EFE00C94560DA0E0B0E0E9EAF8E00C946E
S11311503C0DEC015B016C0181E4C80ED11CF6016D
S113116080807E01F2E4EF0EF11CF70170808E01A5
S11311700D5B1F4FF801908080E09885891748F433
S1131180F501E80FF11DE80FF11D118210828F5F48
S1131190F4CF84B1F6019081892B84B987B1F7012A
S11311A09081892B87B98AB1F8019081892B8AB9FA
S11311B085B1F6019081892B85B988B1F7019081B9
S11311C0892B88B98BB1F8019081892B8BB98AE07E
S11311D090E00E94B30794B1F60180818095892341
S11311E084B997B1F70180818095892387B99AB131
S11311F0F8018081809589238AB995B1F6018081AF
S11312008095892385B998B1F701808180958923D8
S113121088B99BB1F8018081809589238BB9E090CE
S1131220B000D090B1008091B00083608093B00092
S113123082E08093B1004091B20080E090E02E857E
S11312403F858217930720F5C090B2002C2D241BF4
S1131250820F911D03B1081132C0F6B0F7102FC0F0
S113126029B129112CC010C0212F30E0A901440F4D
S1131270551FF501E40FF51F60817181672B21F182
S11312801F5F2885121780F37F2C802E4C2DD7CF1B
S1131290E092B000D092B10020E08885281730F5A4
S11312A0F501E20FF11DE20FF11D80819181892B7F
S11312B021F48E859F85918380832F5FEECF03B1C8
S11312C0F6B099B010E0DDCFDE01A40FB51F919602
S11312D00D90BC91A02D4C91DE01A20FB31F51962D
S11312E02C91422369F691838083CACFCDB7DEB7B0
S11312F0EDE00C94580DEF92FF920F931F93CF9350
S1131300DF93FC019B01F0907C0000917A0047B1CF
S113131018B180917A0086FDFCCF80E09085891712
S113132048F4D901A80FB11DA80FB11D1D921C923C
S11313308F5FF4CF97B182A18095892387B998B143
S113134082A18095892388B987E880937A00E12C6B
S113135081A1E81610F0E12C29C050E080855817CF
S113136018F5A52FB0E0EF01CA0FDB1F898980644F
S113137080937C0080917A00806480937A008091CD
S11313807A0086FDFCCF6091780070917900AA0FF5
S1131390BB1FA20FB31F8D919C911197860F971FAE
S11313A08D939C935F5FDACFE394D2CF8085E81668
S11313B0A0F4E901CE0DD11DCE0DD11D61A170E0C7
S11313C0CB0195958795A881B9818A0F9B1F0E94AF
S11313D0BA0C79836883E394E9CFF0927C0000939C
S11313E07A0018B947B9CDB7DEB7E6E00C945F0DC3
S11313F0A0E2B0E0EEEFF9E00C94420D8C017B0129
S1131400D42E8FEF840F823018F4C8010E943A085A
S1131410D80150968C91B701811110C0C8010E9467
S1131420A308C8010E942508B2E0DB123AC0BE013D
S11314306F5F7F4FC8010E94A3080FC0C8010E94BC
S11314407B09C8010E942508E2E0DE122AC0BE0121
S11314506F5F7F4FC8010E947B0940E0F8018085DF
S11314604817F8F4842F90E0880F991FF701E80FCC
S1131470F91F21E030E02C0F3D1F820F931FD8018C
S11314801E962D913C911F97DC018D919C91281BF8
S1131490390B80819181820F931F918380834F5FE9
S11314A0DDCFA096E7E00C945E0D2F923F925F9201
S11314B06F927F928F929F92AF92BF92CF92DF9260
S11314C0EF92FF920F931F93CF93DF93CDB7DEB7C5
S11314D0C056D1090FB6F894DEBF0FBECDBF8C0144
S11314E04B015A01522EDA018D919C91892B31F0D6
S11314F0F40180819181892BF1F424C0D8011896DC
S11315008C9190E0880F991F0E946E0DF5019183D4
S11315108083009709F4B1C0FC0120E030E0D801D9
S113152018968C9190E02817390714F711921192AC
S11315302F5F3F4FF4CFE12CF12C6E01B1E2CB0EC3
S1131540D11C21C0F801808590E0880F991F0E946A
S11315506E0DD4018D939C93009709F48EC0FC0109
S113156020E030E0D80118968C9190E028173907D4
S113157014F7D8011E968D919C911F978193919396
S11315802F5F3F4FEFCF452DBE016F5B7F4FC801EB
S11315900E94F809F8016084712CFE01EF5BFF4F93
S11315A0C6019E012F5F3F4F190120E030E0261550
S11315B037054CF5E114F10489F0DC016D917C915F
S11315C0408151816417750748F0D1016D917C9178
S11315D0408151814617570748F00DC04081518121
S11315E0DC014D935C93E114F10479F7408151815E
S11315F0D1014D935C932F5F3F4FB2E02B0E311C12
S113160032960296D4CFEFEFEE1AFE0AFAE0EF1606
S1131610F10409F0B8CF9E012F5F3F4F79013601E5
S113162080E090E0F801208530E0821793072CF5E4
S1131630D7012D913D917D01B3016C197D09D5012F
S1131640ED91FC91E60FF71F40815181421753073A
S113165010F431832083F301219131913F01D401AE
S1131660ED91FC91E60FF71F408151812417350756
S113167010F4318320830196D5CFC05ADF4F0FB6C3
S1131680F894DEBF0FBECDBFDF91CF911F910F91B4
S1131690FF90EF90DF90CF90BF90AF909F908F908E
S11316A07F906F905F903F902F9008951F93CF93FA
S11316B0DF93EC01162F8FEF860F823018F066232C
S11316C059F014C021E0AE014E5F5F4FBE01CE0160
S11316D00E94550A123051F4AE014A5F5F4FBE01B9
S11316E06C5F7F4F20E0CE010E94550ADF91CF91BD
S11316F01F910895A0E0B0E0E0E8FBE00C94400DF9
S1131700EC018B01B42E842F8D7F51F48C819D814B
S1131710892B09F497C08E819F81892B09F492C08B
S11317208FEF8B0D823050F488819981892B09F4D5
S113173089C08A819B81892B09F484C04B2DB8010F
S1131740CE010E94F809780100E010E0C12CD12CF0
S1131750888590E0C816D9060CF074C081E0B812F0
S11317600AC0EA81FB81E00FF11F0190F081E02DB6
S1131770A881B9810DC08C819D812E813F81B110DA
S11317800CC0F901E00FF11F0190F081E02DDC01A4
S1131790A00FB11F8D919C9128C0FC01E00FF11F97
S11317A040815181E881F981E00FF11F80819181AD
S11317B0EE85FF854817590710F4CF0104C08E0F3A
S11317C09F1F841B950BD901A00FB11F2D913C9134
S11317D0AA81BB81A00FB11F4D915C9124173507DD
S11317E020F0E40FF51FE21BF30BE81BF90BA9F043
S11317F0D7012D913C9140E050E0281B390B410961
S11318005109A8EEB3E00E94240D9F0140E050E08E
S11318100E94F00C37FD0AC002C020E030E0293EEF
S1131820B3E03B072CF028EE33E002C020E030E0C8
S1131830F701219331937F01FFEFCF1ADF0A0E5F87
S11318401F4F86CFCDB7DEB7E9E00C945C0DA0E066
S1131850B0E0EDE2FCE00C94370DEC018B01822E3C
S11318600E947A0B2884E801412C512C320100E0BB
S113187010E0C12CD12C7601312C912C58EEA52EE0
S113188053E0B52E921421F1E991F991882021F0C9
S1131890C5018E1B9F0BFC01E93CF10524F4E333E5
S11318A0F10574F002C033243394DF01A3019201E3
S11318B00E942F0DC60ED71EE81EF91E0E0F1F1F05
S11318C0939498EE490E93E0591E611C711CDACF73
S11318D031101EC0492D50E04150510924EF31E030
S11318E0429FC001439F900D529F900D112420915F
S11318F08E0130918F0128173907B4F088EE93E0F8
S1131900489F9001499F300D589F300D11240EC0FF
S1131910980140E050E0C701B6010E94CE0C30931C
S11319208F0120938E0102C020E030E0C901CDB7C1
S1131930DEB7E2E10C94530DCF93DF93EC018A817F
S11319409B81009711F00E94060E8E819F81009763
S113195011F00E94060E88819981009711F00E946F
S1131960060E8C819D81009711F00E94060EDF9176
S1131970CF910895AA1BBB1B51E107C0AA1FBB1F2F
S1131980A617B70710F0A61BB70B881F991F5A9507
S1131990A9F780959095BC01CD010895A1E21A2E76
S11319A0AA1BBB1BFD010DC0AA1FBB1FEE1FFF1FFF
S11319B0A217B307E407F50720F0A21BB30BE40B4F
S11319C0F50B661F771F881F991F1A9469F7609596
S11319D07095809590959B01AC01BD01CF01089550
S11319E0052E97FB1EF400940E94070D57FD07D0A7
S11319F00E94CE0C07FC03D04EF40C94070D5095B6
S1131A004095309521953F4F4F4F5F4F08959095E6
S1131A108095709561957F4F8F4F9F4F0895EE0F7E
S1131A20FF1F0590F491E02D0994A29FB001B39F8C
S1131A30C001A39F700D811D1124911DB29F700DD3
S1131A40811D1124911D08950E94150DA59F900DCF
S1131A50B49F900DA49F800D911D11240895B7FF8C
S1131A600C94240D0E94240D821B930B08952F9235
S1131A703F924F925F926F927F928F929F92AF921A
S1131A80BF92CF92DF92EF92FF920F931F93CF9367
S1131A90DF93CDB7DEB7CA1BDB0B0FB6F894DEBFFE
S1131AA00FBECDBF09942A88398848885F846E8424
S1131AB07D848C849B84AA84B984C884DF80EE806E
S1131AC0FD800C811B81AA81B981CE0FD11D0FB677
S1131AD0F894DEBF0FBECDBFED0108950F931F93A1
S1131AE0CF93DF938230910510F482E090E0E0918F
S1131AF0A601F091A70120E030E0A0E0B0E030972B
S1131B0019F1408151810281138148175907C8F0A6
S1131B108417950769F4109731F012960C93129775
S1131B2013961C9327C00093A6011093A70122C00B
S1131B302115310519F04217530718F49A01BD0114
S1131B40EF01DF01F801DBCF21153105F9F0281B86
S1131B50390B2430310580F48A819B81611571052C
S1131B6021F0FB019383828304C09093A7018093A7
S1131B70A601FE01329644C0FE01E20FF31F8193D9
S1131B80919322503109398328833AC02091A401CA
S1131B903091A501232B41F42091060130910701D6
S1131BA03093A5012093A4012091040130910501F3
S1131BB02115310541F42DB73EB7409108015091EC
S1131BC00901241B350BE091A401F091A501E21752
S1131BD0F307A0F42E1B3F0B2817390778F0AC014C
S1131BE04E5F5F4F2417350748F04E0F5F1F509329
S1131BF0A5014093A4018193919302C0E0E0F0E039
S1131C00CF01DF91CF911F910F910895CF93DF936F
S1131C10009709F481C0FC01329713821282A091CB
S1131C20A601B091A701109781F420813181820F20
S1131C30931F2091A4013091A5012817390751F56C
S1131C40F093A501E093A40167C0ED0120E030E02A
S1131C50CE17DF0740F44A815B819E01411551058F
S1131C60F1F0EA01F5CFD383C28340815181840F1F
S1131C70951FC817D90759F488819981840F951F36
S1131C800296918380838A819B8193838283211529
S1131C90310529F4F093A701E093A6013DC0E901C1
S1131CA0FB83EA8349915991C40FD51FEC17FD07B3
S1131CB061F480819181840F951F0296E9019983D3
S1131CC08883828193819B838A83E0E0F0E012968B
S1131CD08D919C911397009719F0FD01DC01F7CFCA
S1131CE08D919C9111979D012E5F3F4F820F931F01
S1131CF02091A4013091A5012817390769F4309780
S1131D0029F41092A7011092A60102C01382128234
S1131D10B093A501A093A401DF91CF91089510E0A1
S1131D20C4E4D0E004C0FE010E940F0D2196C53426
S10B1D30D107C9F7F894FFCFB5
S1131D38881308020000A801200020000001020303
S1131D48040506FF0E0F10111262617220636F649E
S1131D5865004C0052005300456E64006D560050F7
S10B1D68726573732042000050
S9030000FC
