S01100003370695F61707031312E7372656305
S11300000C943E000C945B000C945B000C945B001D
S11300100C945B000C945B000C945B000C945B00F0
S11300200C945B000C941F050C945B000C945B0017
S11300300C945B000C945B000C945B000C945B00D0
S11300400C945B000C945B000C945B000C945B00C0
S11300500C945B000C945B000C945B000C945B00B0
S11300600C945B000C945B00A202A60204037C02C5
S11300708A0298027C027C027C02E30511241FBEE2
S1130080CFEFD8E0DEBFCDBF11E0A0E0B1E0E2ECFD
S1130090F9E102C005900D92AE30B107D9F721E025
S11300A0AEE0B1E001C01D92AF37B207E1F70E94A4
S11300B05D000C94D40C0C940000CF93DF93CDB767
S11300C0DEB764970FB6F894DEBF0FBECDBF0E94B3
S11300D0140480ED97E00E94DF050E948200CE01A7
S11300E001960E946C02CE0101960E94230480E0D6
S11300F090E064960FB6F894DEBF0FBECDBFDF91DB
S1130100CF910895CF93DF9380ED97E00E94DF05B0
S113011080E10E941C058823D9F380E10E94080530
S113012088EE93E00E946705C0E0D0E019C0CE01DC
S11301304497889738F068ED7FEF88E290E00E945A
S1130140D90406C068E270E088ED9FEF0E94D904EC
S113015081E00E94A30584E190E00E946705219656
S1130160C035D10520F360E070E080E090E00E94AB
S1130170D90480E10E941C058823D9F380E10E9400
S113018008050E941404DF91CF91089562E370E0A2
S113019082E390E00E94D90488EC90E00E94670515
S11301A060E070E080E090E00E94D9040895CF936D
S11301B0C82F61E080E791E00E94A905CE3439F4AC
S11301C060E070E080E090E00E94D904BAC0CC34D2
S11301D009F562E370E08EEC9FEF0E94D90405C03C
S11301E061E080E791E00E94A905809174019091FB
S11301F07501843F9140A0F705C061E080E791E07C
S11302000E94A9058091740190917501853F9140E8
S1130210A0F397C0C23509F56EEC7FEF82E390E05E
S11302200E94D90405C061E080E791E00E94A9051D
S11302308091740190917501843F9140A0F705C0AD
S113024061E080E791E00E94A9058091740190919A
S11302507501853F9140A0F374C0C33589F562E30D
S113026070E082E390E00E94D9048091760190913D
S11302707701843F914068F08091780190917901F1
S11302808D32914030F46EE170E082E390E00E94A0
S1130290D9048091720190917301843F914008F4D4
S11302A050C080917001909171018D32914008F09D
S11302B048C062E370E08EE190E00E94D90441C03E
S11302C0C23409F56EEC7FEF8EEC9FEF0E94D904E7
S11302D080917601909177018039914030F069ECFA
S11302E07FEF8EEC9FEF0E94D90480917201909170
S11302F073018039914028F16EEC7FEF89EC9FEF18
S11303000E94D9041EC0C435A1F46BE470E085EBEF
S11303109FEF0E94D90405C061E080E791E00E944C
S1130320A9058091740190917501843F9140A0F7D3
S113033008C0C03531F460E070E080E090E00E94D5
S1130340D904CF91089561E080E791E00E94A90566
S11303508091720190917301843F21E09207C0F073
S11303602091760130917701243F314088F00E943A
S1130370C60061E080E791E00E94A90580917401C4
S113038090917501843F914008F490C088E00895ED
S1130390843F21E0920700F12091700130917101B6
S11303A0243F3140C8F00E94C60061E080E791E03C
S11303B00E94A9058091740190917501843F914038
S11303C008F076C08091760190917701843F914046
S11303D008F470C086E00895409176015091770149
S11303E0443F61E0560700F1209178013091790192
S11303F0243F3140C8F00E94C60061E080E791E0EC
S11304000E94A9058091740190917501843F9140E7
S113041008F052C08091720190917301843F914021
S113042008F44CC085E00895209174013091750161
S1130430293C310508F444C0243F61E0360708F440
S113044082CF243F61E03607E8F1453F5140E0F5B3
S11304504091780150917901443F5140B8F1409165
S1130460700150917101443F514090F1853F91409A
S113047088F5243F314050F480E0089561E080E73E
S113048091E00E94A90583E50E94D700809178013C
S1130490909179018039914088F780917001909111
S11304A071018039914050F782E0089587E0089502
S11304B086E0089583E0089585E0089584E0089532
S11304C081E0089580E0089580E0089580E0089533
S11304D080E0089580E00895CF93DF93EC010E94BB
S11304E0A3018093680190E089309105E0F5FC0157
S11304F0EC5CFF4F0C94440B8CE40E94D7008CE41A
S113050080937A0141E050E06AE771E0CE010E94F5
S1130510C40C29C082E50E94D70082E580937A0149
S113052041E050E06AE771E0CE010E94C40C1BC0B8
S113053083E580937A0141E050E06AE771E0CE01FF
S11305400E94C40C83E50E94D7000DC084E50E947C
S1130550D70084E580937A0141E050E06AE771E0D6
S1130560CE010E94C40CFE0132978081843509F0CB
S1130570B6CFFE0101900020E9F73197EC1BFD0B8B
S11305803397EC0FFD1F1082FE01339780818C346A
S113059041F4329690819C3421F483E580937A016E
S11305A02BC0833549F4FE01319790819C3421F4AA
S11305B082E580937A0120C0823549F4FE013197A7
S11305C090819C3421F484E580937A0115C08C34A5
S11305D049F4FE0131979081923521F484E58093AA
S11305E07A010AC08C3441F4FE013197808183354D
S11305F019F482E580937A0141E050E06AE771E002
S1130600CE010E94C40C6BCF60E070E080E090E00B
S11306100E94D90480E0DF91CF91089581E090E0B9
S11306206F9364E06A95F1F76F910197C9F70895A4
S11306300F931F93CF93DF931AB157985A98289A20
S1130640C0E0D0E00E940E035C9A0E940E0309B140
S11306505C980E940E035C9A0E940E035C98249698
S113066007FF10C0AE0160E070E080910E01909130
S11306700F01A0911001B0911101481759076A07A1
S11306807B0700F31AB9DF91CF911F910F91089561
S113069095B1282F217030E0220F331F482F467068
S11306A068E0469FA0011124242B9D7C292B25B9A9
S11306B09BB188708295807F9F77892B8BB95C9AD8
S11306C00E940E035C980E940E030895A0E0B0E01F
S11306D0ECE6F3E00C94770BC82FD62EE42E809131
S11306E06901811105C081E0809369010E94AC0316
S11306F00E94180314B1D5B1FAB00BB12898DD20CB
S113070011F05A9A01C05A9894B1926394B9579AC5
S113071081E0E81629F08C2F82958F700E9448039F
S11307208C2F8F700E944803FAB80BB914B9D5B94D
S1130730CDB7DEB7E7E00C94930B42E060E00E9493
S11307406603089542E061E00E946603089541E073
S113075060E00E946603089580E197E2A0E0B0E0C3
S113076080930E0190930F01A0931001B093110197
S1130770529A209A549A8EE190E00E94670583E091
S11307800E94A70386E090E00E94670583E00E9430
S1130790A70382E090E00E94670583E00E94A7031C
S11307A082E090E00E94670582E00E94A70382E055
S11307B090E00E94670588E20E949D0388E00E9401
S11307C09D0381E00E949D0386E00E949D038CE0CE
S11307D00E949D03089581E00E949D03809114016D
S11307E090911501892BF9F060E0A0E2262F30E00A
S11307F0709100018091010190E00197789FA00120
S1130800799F500D1124241735074CF4E0911401FD
S1130810F0911501E20FF31FA0836F5FE7CF1092F1
S113082012011092130108950E94EB030895CF93CF
S1130830DF93EC018991882319F00E94A203FACF77
S1130840DF91CF9108950E9417040895883058F4D9
S113085091E001C0990F8A95EAF7892FAAE2B0E0E6
S1130860EBE2F0E021C08E3060F498EF980F81E065
S113087001C0880F9A95EAF7A4E2B0E0E5E2F0E05F
S113088013C0853160F492EF980F81E001C0880FA6
S11308909A95EAF7A7E2B0E0E8E2F0E005C080E06C
S11308A0A0E0B0E0E0E0F0E06F3F19F49081982719
S11308B009C0662319F09081982B04C02081982FD9
S11308C09095922390839C91982B9C93089583EF09
S11308D08093B00084BD82E08093B10085BD109206
S11308E0B4001092B30018BC17BC60E086E00E940C
S11308F0260460E085E00E94260460E08BE00E940C
S1130900260460E083E00E942604089580916A0131
S1130910811105C081E080936A010E9467040895F3
S1130920CF93DF93EC010E948604D7FF05C0D195D5
S1130930C195D10981E001C080E0CF3FD10519F014
S113094014F0CFEFD0E0882319F018BCC7BD02C063
S1130950C8BD17BCDF91CF910895CF93DF93EC010D
S11309600E948604D7FF05C0D195C195D10981E0C5
S113097001C080E0CF3FD10519F014F0CFEFD0E0F3
S1130980882329F01092B400C093B30004C0C0932C
S1130990B4001092B300DF91CF910895CF93DF9309
S11309A0EB010E949004CE010E94AD04DF91CF912F
S11309B008950E94CE04089584B18D7C84B985B1D4
S11309C0826385B985E090E06F9364E06A95F1F7FE
S11309D06F910197C9F7089580916B01811105C04A
S11309E081E080936B010E94DC040895CF93C82FAB
S11309F00E94EC0483B18C23E9F38AE090E00E9426
S1130A00670583B18C23B1F383B18C23CF9108950F
S1130A100E94F6040895A1E0B0E0E1E1F5E00C9451
S1130A207C0B89830E94EC0493B19095898189237E
S1130A302196E2E00C94980B0E940B0508952F92E6
S1130A408F939F932FB680911D0190911E01019663
S1130A5080931D0190931E0190E080911F01891FD6
S1130A6080931F01909117019C5F909317018091CF
S1130A70160180519742C0F090931701809316019C
S1130A808091180190911901019680931801909317
S1130A90190190E080911A01891F80931A018091B5
S1130AA01B01891F80931B012FBE9F918F912F9053
S1130AB0189528EE33E0019748F0F9016F9364E04C
S1130AC06A95F1F76F913197C9F7F5CF08950E94B0
S1130AD059050895E0E7F0E080818E7F8083A0EBE4
S1130AE0B0E08C9183608C93A1EBB0E08C91807F1B
S1130AF08C938C9182608C93B89A8081816080837E
S1130B007894089580916C01811105C081E08093EF
S1130B106C010E946A0508950E948205E0E7F0E0F6
S1130B2080818E7F80831092180110921901109297
S1130B301A0110921B011092170110921601808164
S1130B40816080830895682F80E291E00E948B0980
S1130B500895462F20E0BC0180E291E00E945C0AE7
S1130B6008950F93CF93DF9300D000D01F92CDB799
S1130B70DEB79C0185E0E8E0F1E0DE01119601902A
S1130B800D928A95E1F7662311F00FEF01C003E19E
S1130B9045E0BE016F5F7F4F80E291E00E948306D3
S1130BA080E291E00E945A060E948C050F900F90FB
S1130BB00F900F900F90DF91CF910F91089560E007
S1130BC00E94B105089580E291E00E94D10A08953F
S1130BD06F9364E06A95F1F76F910197C9F70895EF
S1130BE0FC011182108213821282158214821682F1
S1130BF0683068F489E290E0918380838BE290E02E
S1130C00938382838AE290E0958384831FC06E304D
S1130C1070F483E290E09183808385E290E0938393
S1130C20828384E290E09583848368500FC06531A9
S1130C3098F486E290E09183808388E290E0938345
S1130C40828387E290E0958384836E5081E001C0C3
S1130C50880F6A95EAF786830895A7E0B0E0E3E396
S1130C60F6E00C947A0B8C01FC0111821082138241
S1130C7012821582148217821682613118F080E183
S1130C80808702C0FC016087F801208B642FCE01AD
S1130C9001960E94F0058F81F80181878B819C81E8
S1130CA0938782878D819E81958784872796E4E048
S1130CB00C94960BFC01A485B585109779F08C9162
S1130CC09185892B8C93A285B3859C918185809590
S1130CD089238C9388EC90E00E94E8050895FC0138
S1130CE0A485B585109771F08C919185892B8C938F
S1130CF0A285B3858C919185892B8C9388EC90E0A7
S1130D000E94E8050895A7E0B0E0E9E8F6E00C9455
S1130D106F0B7C014B01642F3901402F20E00E94AE
S1130D202D0687010F5B1F4FF80110826701F2E463
S1130D30CF0ED11CF60110825701F3E4AF0EB11CA3
S1130D40F5011082F70177866686512CF7018085BC
S1130D50581650F5652C712CF401E60DF71D6081D1
S1130D60CE0101960E94F0052F81F701E60DF71DD3
S1130D70218B89819A81F301EE0FFF1FEE0DFF1D78
S1130D8092A381A38332910511F4F80108C086323D
S1130D90910511F4F60103C0899721F4F5018081CE
S1130DA0822B80835394D2CF2796EFE00C948B0B45
S1130DB0A0E0B0E0EEEDF6E00C94710BEC015B0109
S1130DC06C0181E4C80ED11CF60180807E01F2E43E
S1130DD0EF0EF11CF70170808E010D5B1F4FF801BF
S1130DE0908080E09885891748F4F501E80FF11D9B
S1130DF0E80FF11D118210828F5FF4CF84B1F601E8
S1130E009081892B84B987B1F7019081892B87B9A7
S1130E108AB1F8019081892B8AB985B1F601908154
S1130E20892B85B988B1F7019081892B88B98BB159
S1130E30F8019081892B8BB98AE090E00E94E80543
S1130E4094B1F60180818095892384B997B1F70123
S1130E5080818095892387B99AB1F8018081809532
S1130E6089238AB995B1F60180818095892385B952
S1130E7098B1F70180818095892388B99BB1F801E5
S1130E808081809589238BB9E090B000D090B10027
S1130E908091B00083608093B00082E08093B100C1
S1130EA04091B20080E090E02E853F858217930741
S1130EB020F5C090B2002C2D241B820F911D03B18C
S1130EC0081132C0F6B0F7102FC029B129112CC077
S1130ED010C0212F30E0A901440F551FF501E40F84
S1130EE0F51F60817181672B21F11F5F288512171F
S1130EF080F37F2C802E4C2DD7CFE092B000D0927F
S1130F00B10020E08885281730F5F501E20FF11DC6
S1130F10E20FF11D80819181892B21F48E859F85BB
S1130F20918380832F5FEECF03B1F6B099B010E0C8
S1130F30DDCFDE01A40FB51F91960D90BC91A02DBD
S1130F404C91DE01A20FB31F51962C91422369F6F6
S1130F5091838083CACFCDB7DEB7EDE00C948D0BBF
S1130F60EF92FF920F931F93CF93DF93FC019B01AA
S1130F70F0907C0000917A0047B118B180917A001A
S1130F8086FDFCCF80E09085891748F4D901A80F2D
S1130F90B11DA80FB11D1D921C928F5FF4CF97B1A4
S1130FA082A18095892387B998B182A180958923EC
S1130FB088B987E880937A00E12C81A1E81610F0C3
S1130FC0E12C29C050E08085581718F5A52FB0E012
S1130FD0EF01CA0FDB1F8989806480937C008091B4
S1130FE07A00806480937A0080917A0086FDFCCF39
S1130FF06091780070917900AA0FBB1FA20FB31FF4
S11310008D919C911197860F971F8D939C935F5F91
S1131010DACFE394D2CF8085E816A0F4E901CE0DAF
S1131020D11DCE0DD11D61A170E0CB0195958795A1
S1131030A881B9818A0F9B1F0E94EF0A7983688374
S1131040E394E9CFF0927C0000937A0018B947B991
S1131050CDB7DEB7E6E00C94940BA0E2B0E0E3E396
S1131060F8E00C94770B8C017B01D42E8FEF840F66
S1131070823018F4C8010E946F06D80150968C91F2
S1131080B701811110C0C8010E94D806C8010E948E
S11310905A06B2E0DB123AC0BE016F5F7F4FC8014F
S11310A00E94D8060FC0C8010E94B007C8010E9460
S11310B05A06E2E0DE122AC0BE016F5F7F4FC8010C
S11310C00E94B00740E0F80180854817F8F4842FA7
S11310D090E0880F991FF701E80FF91F21E030E035
S11310E02C0F3D1F820F931FD8011E962D913C910A
S11310F01F97DC018D919C91281B390B8081918174
S1131100820F931F918380834F5FDDCFA096E7E02A
S11311100C94930B2F923F925F926F927F928F92D7
S11311209F92AF92BF92CF92DF92EF92FF920F9372
S11311301F93CF93DF93CDB7DEB7C056D1090FB657
S1131140F894DEBF0FBECDBF8C014B015A01522E65
S1131150DA018D919C91892B31F0F4018081918188
S1131160892BF1F424C0D80118968C9190E0880F53
S1131170991F0E94A30BF50191838083009709F4C2
S1131180B1C0FC0120E030E0D80118968C9190E0C9
S11311902817390714F7119211922F5F3F4FF4CF9C
S11311A0E12CF12C6E01B1E2CB0ED11C21C0F8016F
S11311B0808590E0880F991F0E94A30BD4018D9322
S11311C09C93009709F48EC0FC0120E030E0D80124
S11311D018968C9190E02817390714F7D8011E96B9
S11311E08D919C911F97819391932F5F3F4FEFCFE8
S11311F0452DBE016F5B7F4FC8010E942D08F80189
S11312006084712CFE01EF5BFF4FC6019E012F5FCE
S11312103F4F190120E030E0261537054CF5E11465
S1131220F10489F0DC016D917C9140815181641756
S1131230750748F0D1016D917C9140815181461729
S1131240570748F00DC040815181DC014D935C93F8
S1131250E114F10479F740815181D1014D935C93FC
S11312602F5F3F4FB2E02B0E311C32960296D4CF43
S1131270EFEFEE1AFE0AFAE0EF16F10409F0B8CF28
S11312809E012F5F3F4F7901360180E090E0F80125
S1131290208530E0821793072CF5D7012D913D91DD
S11312A07D01B3016C197D09D501ED91FC91E60F27
S11312B0F71F408151814217530710F43183208373
S11312C0F301219131913F01D401ED91FC91E60F9D
S11312D0F71F408151812417350710F4318320838F
S11312E00196D5CFC05ADF4F0FB6F894DEBF0FBEBC
S11312F0CDBFDF91CF911F910F91FF90EF90DF90C1
S1131300CF90BF90AF909F908F907F906F905F90A1
S11313103F902F9008951F93CF93DF93EC01162FE6
S11313208FEF860F823018F0662359F014C021E045
S1131330AE014E5F5F4FBE01CE010E948A0812309B
S113134051F4AE014A5F5F4FBE016C5F7F4F20E0F6
S1131350CE010E948A08DF91CF911F910895A0E0E9
S1131360B0E0E5EBF9E00C94750BEC018B01B42EC5
S1131370842F8D7F51F48C819D81892B09F497C032
S11313808E819F81892B09F492C08FEF8B0D82305F
S113139050F488819981892B09F489C08A819B81C1
S11313A0892B09F484C04B2DB801CE010E942D086D
S11313B0780100E010E0C12CD12C888590E0C8169B
S11313C0D9060CF074C081E0B8120AC0EA81FB812E
S11313D0E00FF11F0190F081E02DA881B9810DC0CB
S11313E08C819D812E813F81B1100CC0F901E00FE9
S11313F0F11F0190F081E02DDC01A00FB11F8D9150
S11314009C9128C0FC01E00FF11F40815181E881CB
S1131410F981E00FF11F80819181EE85FF854817E6
S1131420590710F4CF0104C08E0F9F1F841B950B26
S1131430D901A00FB11F2D913C91AA81BB81A00FAE
S1131440B11F4D915C912417350720F0E40FF51F6F
S1131450E21BF30BE81BF90BA9F0D7012D913C918A
S113146040E050E0281B390B41095109A8EEB3E0D4
S11314700E94590B9F0140E050E00E94250B37FD6C
S11314800AC002C020E030E0293EB3E03B072CF064
S113149028EE33E002C020E030E0F70121933193DD
S11314A07F01FFEFCF1ADF0A0E5F1F4F86CFCDB744
S11314B0DEB7E9E00C94910BA0E0B0E0E2E6FAE0DC
S11314C00C946C0BEC018B01822E0E94AF092884D2
S11314D0E801412C512C320100E010E0C12CD12C48
S11314E07601312C912C58EEA52E53E0B52E921492
S11314F021F1E991F991882021F0C5018E1B9F0B00
S1131500FC01E93CF10524F4E333F10574F002C075
S113151033243394DF01A30192010E94640BC60EAD
S1131520D71EE81EF91E0E0F1F1F939498EE490E46
S113153093E0591E611C711CDACF31101EC0492D75
S113154050E04150510924EF31E0429FC001439FD4
S1131550900D529F900D11242091640130916501EA
S113156028173907B4F088EE93E0489F9001499F0B
S1131570300D589F300D11240EC0980140E050E00A
S1131580C701B6010E94030B3093650120936401E7
S113159002C020E030E0C901CDB7DEB7E2E10C942F
S11315A0880BCF93DF93EC018A819B81009711F024
S11315B00E943B0C8E819F81009711F00E943B0C8E
S11315C088819981009711F00E943B0C8C819D8148
S11315D0009711F00E943B0CDF91CF910895AA1B54
S11315E0BB1B51E107C0AA1FBB1FA617B70710F00A
S11315F0A61BB70B881F991F5A95A9F7809590953C
S1131600BC01CD010895A1E21A2EAA1BBB1BFD014A
S11316100DC0AA1FBB1FEE1FFF1FA217B307E407CD
S1131620F50720F0A21BB30BE40BF50B661F771F25
S1131630881F991F1A9469F7609570958095909505
S11316409B01AC01BD01CF010895052E97FB1EF44B
S113165000940E943C0B57FD07D00E94030B07FC2B
S113166003D04EF40C943C0B509540953095219545
S11316703F4F4F4F5F4F08959095809570956195BA
S11316807F4F8F4F9F4F0895EE0FFF1F0590F491EA
S1131690E02D0994A29FB001B39FC001A39F700DD8
S11316A0811D1124911DB29F700D811D1124911D66
S11316B008950E944A0BA59F900DB49F900DA49F7E
S11316C0800D911D11240895B7FF0C94590B0E94AD
S11316D0590B821B930B08952F923F924F925F9266
S11316E06F927F928F929F92AF92BF92CF92DF922E
S11316F0EF92FF920F931F93CF93DF93CDB7DEB793
S1131700CA1BDB0B0FB6F894DEBF0FBECDBF099426
S11317102A88398848885F846E847D848C849B847D
S1131720AA84B984C884DF80EE80FD800C811B818B
S1131730AA81B981CE0FD11D0FB6F894DEBF0FBEBA
S1131740CDBFED0108950F931F93CF93DF938230A4
S1131750910510F482E090E0E0917D01F0917E012A
S113176020E030E0A0E0B0E0309719F140815181F1
S11317700281138148175907C8F08417950769F443
S1131780109731F012960C93129713961C9327C05E
S113179000937D0110937E0122C02115310519F0BB
S11317A04217530718F49A01BD01EF01DF01F80154
S11317B0DBCF21153105F9F0281B390B2430310515
S11317C080F48A819B816115710521F0FB0193836B
S11317D0828304C090937E0180937D01FE01329642
S11317E044C0FE01E20FF31F81939193225031090B
S11317F0398328833AC020917B0130917C01232BCB
S113180041F4209104013091050130937C0120932F
S11318107B0120910201309103012115310541F42E
S11318202DB73EB74091060150910701241B350B9B
S1131830E0917B01F0917C01E217F307A0F42E1BE9
S11318403F0B2817390778F0AC014E5F5F4F241720
S1131850350748F04E0F5F1F50937C0140937B0186
S11318608193919302C0E0E0F0E0CF01DF91CF914A
S11318701F910F910895CF93DF93009709F481C0CE
S1131880FC01329713821282A0917D01B0917E01F6
S1131890109781F420813181820F931F20917B0165
S11318A030917C012817390751F5F0937C01E093BE
S11318B07B0167C0ED0120E030E0CE17DF0740F484
S11318C04A815B819E0141155105F1F0EA01F5CF92
S11318D0D383C28340815181840F951FC817D907D0
S11318E059F488819981840F951F0296918380838E
S11318F08A819B81938382832115310529F4F09396
S11319007E01E0937D013DC0E901FB83EA834991B7
S11319105991C40FD51FEC17FD0761F480819181A3
S1131920840F951F0296E9019983888382819381AC
S11319309B838A83E0E0F0E012968D919C9113974B
S1131940009719F0FD01DC01F7CF8D919C9111975F
S11319509D012E5F3F4F820F931F20917B01309199
S11319607C012817390769F4309729F410927E0115
S113197010927D0102C013821282B0937C01A09365
S11319807B01DF91CF910895FB01DC010D900020D4
S1131990E9F711974150504028F0019000200D9232
S11319A0C9F708951C92089510E0CDE3D0E004C077
S11319B0FE010E94440B2196CE33D107C9F7F89457
S10519C0FFCF53
S11119C2080200007F0120000E0F1011120019
S9030000FC
