S01100003370695F61707031312E7372656305
S11300000C9435000C9452000C9452000C94520041
S11300100C9452000C9452000C9452000C94520014
S11300200C9452000C943C080C9452000C94520012
S11300300C9452000C9452000C9452000C945200F4
S11300400C9452000C9452000C9452000C945200E4
S11300500C9452000C9452000C9452000C945200D4
S11300600C9452000C945200000911241FBECFEFCF
S1130070D8E0DEBFCDBF11E0A0E0B1E0E4E0F0E203
S113008002C005900D92AA33B107D9F721E0AAE383
S1130090B1E001C01D92A93AB207E1F70E94B50090
S11300A00C94F50F0C9400000E94B00562E370E01C
S11300B00E94200ECB010895EF92FF920F931F939D
S11300C0CF937C018B01C42F0E94B90660E080E0CD
S11300D00E94400783E291E00E94C806B701FF0C2A
S11300E0880B990B0E941D0789E291E00E94C806C3
S11300F061E080E00E9440078BE291E00E94C80624
S1130100B801110F880B990B0E941D0789E291E039
S11301100E94C806C230A9F028F4CC2341F0C130B3
S113012059F01DC0C33091F0C430A9F018C080E369
S113013091E00E94C80613C082E391E00E94C806C1
S11301400EC084E391E00E94C80609C086E391E0F2
S11301500E94C80604C088E391E00E94C806CF91BB
S11301601F910F91FF90EF9008950E94B90680EDC2
S113017097E00E94FC080E94C2000E94510480E0A3
S113018090E00895CF93DF9380ED97E00E94FC0800
S113019080E10E9439088823D9F380E10E94250870
S11301A088EE93E00E948408C0E0D0E019C0CE013C
S11301B04497889738F068ED7FEF88E290E00E94DA
S11301C0F60706C068E270E088ED9FEF0E94F6072C
S11301D081E00E94C00884E190E00E948408219696
S11301E0C035D10520F360E070E080E090E00E942B
S11301F0F60780E10E9439088823D9F380E10E9440
S113020025080E94B906DF91CF91089562E370E05A
S113021082E390E00E94F60788EC90E00E94840854
S113022060E070E080E090E00E94F6070895CF93CC
S1130230C82F61E08BE991E00E94C608CE3439F4FE
S113024060E070E080E090E00E94F607B1C0CC343A
S113025009F562E370E08EEC9FEF0E94F60705C09B
S113026061E08BE991E00E94C60880919F01909122
S1130270A001843F9140A0F705C061E08BE991E0C3
S11302800E94C60880919F019091A001853F9140F2
S1130290A0F38EC0C23509F56EEC7FEF82E390E0E7
S11302A00E94F60705C061E08BE991E00E94C60850
S11302B080919F019091A001843F9140A0F705C0D7
S11302C061E08BE991E00E94C60880919F019091C2
S11302D0A001853F9140A0F36BC0C33589F562E36B
S11302E070E082E390E00E94F6078091A101909172
S11302F0A2018039914068F08091A3019091A401FA
S11303008139914030F468E270E084E690E00E9424
S1130310F60780919D0190919E018039914008F4E7
S113032047C080919B0190919C018139914008F0D4
S11303303FC064E670E088E290E00E94F60738C0AF
S1130340C23409F56EEC7FEF8EEC9FEF0E94F60746
S11303508091A1019091A2018039914030F069EC23
S11303607FEF8EEC9FEF0E94F60780919D019091A4
S11303709E0180399140E0F06EEC7FEF89EC9FEFB5
S11303800E94F60715C0C43599F46BE470E085EB60
S11303909FEF0E94F60705C061E08BE991E00E949F
S11303A0C60880919F019091A001843F9140A0F7DD
S11303B0CF91089561E08BE991E00E94C608809195
S11303C09D0190919E01843F21E09207C0F020910D
S11303D0A1013091A201243F314088F00E9406011E
S11303E061E08BE991E00E94C60880919F019091A1
S11303F0A001843F914008F490C088E00895843FB0
S113040021E0920700F120919B0130919C01243F4F
S11304103140C8F00E94060161E08BE991E00E943E
S1130420C60880919F019091A001843F914008F0FB
S113043076C08091A1019091A201843F914008F47B
S113044070C086E008954091A1015091A201443FFB
S113045061E0560700F12091A3013091A401243FEB
S11304603140C8F00E94060161E08BE991E00E94EE
S1130470C60880919F019091A001843F914008F0AB
S113048052C080919D0190919E01843F914008F457
S11304904CC085E0089520919F013091A001293C32
S11304A0310508F444C0243F61E0360708F482CFE4
S11304B0243F61E03607E8F1453F5140E0F54091C3
S11304C0A3015091A401443F5140B8F140919B01D4
S11304D050919C01443F514090F1853F914088F5F3
S11304E0243F314050F480E0089561E08BE991E0CD
S11304F00E94C60883E50E9417018091A301909190
S1130500A4018039914088F780919B0190919C01CE
S11305108039914050F782E0089587E0089586E09D
S1130520089583E0089585E0089584E0089581E0C6
S1130530089580E0089580E0089580E0089580E0C3
S1130540089580E00895FC0120813181FB01408100
S11305505181FC0151834083FB0131832083089541
S11305606F927F928F929F92AF92BF92CF92DF92BF
S1130570EF92FF920F931F93CF93DF936C013B0194
S11305804A01A12CB12C30C07E01EE0CFF1CF601F7
S1130590EE0DFF1D208131818E010F5F1F4F000F73
S11305A0111FD601A00FB11F8D919C911197821735
S11305B0930764F4BD01CF010E94A302B301600F4D
S11305C0711FC3018E0D9F1D0E94A302219602C0BC
S11305D0C0E0D0E0C4018A199B090197C817D90764
S11305E09CF28FEFA81AB80AC4010197A816B9069D
S11305F07CF3DF91CF911F910F91FF90EF90DF90EB
S1130600CF90BF90AF909F908F907F906F90089500
S11306100F931F93CF93DF9383E50E94170101E0AB
S113062010E01BC00E94DA01EC010E94B906CE0161
S113063099278230910539F01CF4892B41F00DC0C3
S113064009974CF00AC08EE40E94170106C083E5A6
S11306500E94170102C000E010E00115110511F716
S1130660DF91CF911F910F910895CF9382E390E092
S11306700E94840803C00E94DA01C82FC111FBCF75
S11306808EE40E941701CF910895EF92FF920F9389
S11306901F93CF93C82F8B01EE24E394F12C9AC0BF
S11306A0F80184818E3459F018F4853451F18CC0EA
S11306B0833509F448C0873509F466C085C0C5345C
S11306C049F482E50E9417010E94350385E4F8018C
S11306D084837AC0C73549F48CE40E9417010E94D0
S11306E0350387E5F80184836FC0C33509F06CC016
S11306F084E50E9417010E94350383E5F801848391
S113070063C0C33549F482E50E9417010E94350392
S113071083E5F801848358C0C73549F48CE40E940A
S113072017010E94350387E5F80184834DC0C33562
S113073009F04AC084E50E9417010E94350383E54D
S1130740F801848341C0C73549F482E50E9417014A
S11307500E94350387E5F801848336C0C53449F423
S11307608CE40E9417010E94350385E4F801848318
S11307702BC0CE3449F584E50E9417010E9435034D
S11307808EE4F801848320C0CE3449F482E50E94CB
S113079017010E9435038EE4F801848315C0C33524
S11307A049F48CE40E9417010E94350383E5F801A3
S11307B084830AC0C53441F484E50E9417010E9471
S11307C0350385E4F8018483F8018481C81302C0E9
S11307D0E12CF12CF1E0EF16F10409F461CFCF9193
S11307E01F910F91FF90EF9008950F931F93CF9354
S11307F0DF93FB012081318128173907F9F0EB01E0
S11308008C012817390744F487E50E944503888141
S11308109981081B190B09C085E40E9445032881AE
S11308203981C901801B910B8C01C0E0D0E003C069
S11308300E9408032196C017D107D4F3DF91CF910A
S11308401F910F9108950F931F93CF93DF93FB0193
S11308502281338128173907F9F0EB018C0128171D
S1130860390744F48EE40E9445038A819B81081B66
S1130870190B09C083E50E9445032A813B81C90104
S1130880801B910B8C01C0E0D0E003C00E940803E0
S11308902196C017D107D4F3DF91CF911F910F9107
S11308A00895EF92FF920F931F93CF93DF93CDB7E9
S11308B0DEB769970FB6F894DEBF0FBECDBF87E5EC
S11308C08D838FEF9FEF9A8389831C821B828AE03A
S11308D0EAE0F1E0DE01169601900D928A95E1F7C7
S11308E08AE0E4E1F1E0DE01509601900D928A95F0
S11308F0E1F745E050E0BE01605F7F4FCE01069610
S11309000E94B002E12CF12C3BC08701000F111FA3
S113091081E090E08C0F9D1F080F191FBC01F801A6
S1130920858196810E94F503F801858196819A83D9
S11309308983BE016F5F7F4F878590890E9423045E
S1130940F801878590899C838B8388EE93E00E94CD
S113095084080E9454009C01C70165E070E00E9475
S1130960200ECB0142E0B90124E6FC012E9FC00118
S11309702F9F900D11240E945C00FFEFEF1AFF0AD5
S113098085E0E816F1040CF2BE016F5F7F4F80E052
S113099090E00E942304BE016F5F7F4F80E090E0EF
S11309A00E94F50369960FB6F894DEBF0FBECDBF63
S11309B0DF91CF911F910F91FF90EF900895ECE795
S11309C0F0E080818F7D80830895811103C00E94AF
S11309D0DF04089580917C00806280937C000895F8
S11309E080917C0085FB882780F908950E94F0049B
S11309F0882321F08091790090E008958091780017
S1130A009091790008958032A0F497E890937A0049
S1130A1090917C00662311F0906C02C09F779064E3
S1130A20907E982B90937C0080917A0080648093D0
S1130A307A000895A0E0B0E0E0E2F5E00C94A70E9F
S1130A40EB0160E00E94030580917A0086FDFCCFF3
S1130A508E01C12CD12C760180917A008064809320
S1130A607A0080917A0086FDFCCF0E94F604C80EBD
S1130A70D91EE11CF11C015011090115110561F782
S1130A80CE0196958795C034D10538F48C0D9D1D03
S1130A90BE010E940C0ECB010EC0A7019601280FC7
S1130AA0391F411D511DCA01B9019E0140E050E0AA
S1130AB00E94340EC901CDB7DEB7E8E00C94C30E32
S1130AC0CF92DF92EF92FF92A0910001B0910101C9
S1130AD09C010E947B0E6B017C010E94F004882320
S1130AE059F0C701B60161587F4F8F4F9F4F2FEFC9
S1130AF030E040E050E00AC0C701B60161507E4FCB
S1130B008F4F9F4F2FEF33E040E050E00E94340EB0
S1130B10C901FF90EF90DF90CF9008950E941A05CD
S1130B200E94600508951F93CF93DF930E94F00401
S1130B30182F0E94DF046AE070E086E00E948E05B0
S1130B40EC01812F0E94E504CE01880F991F8C0FC0
S1130B509D1F019696958795DF91CF911F910895DA
S1130B600E949305089581E090E06F9364E06A9594
S1130B70F1F76F910197C9F708950F931F93CF93DE
S1130B80DF931AB157985A98289AC0E0D0E00E948F
S1130B90B3055C9A0E94B30509B15C980E94B30541
S1130BA05C9A0E94B3055C98249607FF10C0AE01BE
S1130BB060E070E080913A0190913B01A0913C018A
S1130BC0B0913D01481759076A077B0700F31AB92A
S1130BD0DF91CF911F910F91089595B1282F217026
S1130BE030E0220F331F482F467068E0469FA00173
S1130BF01124242B9D7C292B25B99BB188708295C7
S1130C00807F9F77892B8BB95C9A0E94B3055C988F
S1130C100E94B3050895A0E0B0E0E1E1F6E00C9491
S1130C20A80EC82FD62EE42E80919401811105C000
S1130C3081E0809394010E9451060E94BD0514B185
S1130C40D5B1FAB00BB12898DD2011F05A9A01C041
S1130C505A9894B1926394B9579A81E0E81629F0AE
S1130C608C2F82958F700E94ED058C2F8F700E94BF
S1130C70ED05FAB80BB914B9D5B9CDB7DEB7E7E0CD
S1130C800C94C40E42E060E00E940B06089542E01A
S1130C9061E00E940B06089541E060E00E940B06AB
S1130CA0089580E197E2A0E0B0E080933A01909348
S1130CB03B01A0933C01B0933D01529A209A549A6F
S1130CC08EE190E00E94840883E00E944C0686E056
S1130CD090E00E94840883E00E944C0682E090E049
S1130CE00E94840883E00E944C0682E090E00E9407
S1130CF0840882E00E944C0682E090E00E9484080E
S1130D0088E20E94420688E00E94420681E00E9436
S1130D10420686E00E9442068CE00E944206089544
S1130D2081E00E9442068091400190914101892B0B
S1130D30F9F060E0A0E2262F30E07091020180918A
S1130D40030190E00197789FA001799F500D112431
S1130D50241735074CF4E0914001F0914101E20F72
S1130D60F31FA0836F5FE7CF10923E0110923F0103
S1130D7008950E9490060895CF93DF93EC01899122
S1130D80882319F00E944706FACFDF91CF91089586
S1130D900E94BC060895AAE0B0E0E1EDF6E00C94F0
S1130DA0A70E1AE05AE0C52ED12CE12CF12C062F07
S1130DB0A70196010E94340ECA01B9011150E1E065
S1130DC0F0E0EC0FFD1FE10FF11D005D2AE0629FD2
S1130DD0001911240083611571058105910539F706
S1130DE01A3058F4E1E0F0E0EC0FFD1FE10FF11DC3
S1130DF080810E9447061F5FF3CF2A96E8E00C9497
S1130E00C30ECF92DF92EF92FF926B017C0197FFAA
S1130E100BC0F094E094D094C094C11CD11CE11C8C
S1130E20F11C8DE20E944706C701B6010E94CB0661
S1130E30FF90EF90DF90CF9008950E9401070895EE
S1130E40A5E0B0E0E6E2F7E00C94AC0E182F80E8E1
S1130E50898380EC8A8384E98B8384ED8C83FE010F
S1130E60E60FF11D8181810F6D830E94420610936C
S1130E703E016D8160933F012596E3E00C94C80E1A
S1130E800E9420070895883058F491E001C0990F1A
S1130E908A95EAF7892FAAE2B0E0EBE2F0E021C0FC
S1130EA08E3060F498EF980F81E001C0880F9A9516
S1130EB0EAF7A4E2B0E0E5E2F0E013C0853160F4C3
S1130EC092EF980F81E001C0880F9A95EAF7A7E2A4
S1130ED0B0E0E8E2F0E005C080E0A0E0B0E0E0E0EF
S1130EE0F0E06F3F19F49081982709C0662319F048
S1130EF09081982B04C02081982F90959223908301
S1130F009C91982B9C93089583EF8093B00084BDAB
S1130F1082E08093B10085BD1092B4001092B300BA
S1130F2018BC17BC60E086E00E94430760E085E0DF
S1130F300E94430760E08BE00E94430760E083E087
S1130F400E944307089580919501811105C081E0B5
S1130F50809395010E9484070895CF93DF93EC0159
S1130F600E94A307D7FF05C0D195C195D10981E09F
S1130F7001C080E0CF3FD10519F014F0CFEFD0E0ED
S1130F80882319F018BCC7BD02C0C8BD17BCDF91C7
S1130F90CF910895CF93DF93EC010E94A307D7FF6D
S1130FA005C0D195C195D10981E001C080E0CF3F52
S1130FB0D10519F014F0CFEFD0E0882329F0109276
S1130FC0B400C093B30004C0C093B4001092B30043
S1130FD0DF91CF910895CF93DF93EB010E94AD078A
S1130FE0CE010E94CA07DF91CF9108950E94EB07BA
S1130FF0089584B18D7C84B985B1826385B985E017
S113100090E06F9364E06A95F1F76F910197C9F7E7
S1131010089580919601811105C081E08093960125
S11310200E94F9070895CF93C82F0E94090883B13D
S11310308C23E9F38AE090E00E94840883B18C2336
S1131040B1F383B18C23CF9108950E9413080895BE
S1131050A1E0B0E0EEE2F8E00C94AD0E89830E94CA
S1131060090893B19095898189232196E2E00C9433
S1131070C90E0E94280808952F928F939F932FB62C
S11310808091490190914A0101968093490190937E
S11310904A0190E080914B01891F80934B0190910C
S11310A043019C5F90934301809142018051974298
S11310B0C0F0909343018093420180914401909148
S11310C045010196809344019093450190E08091FD
S11310D04601891F8093460180914701891F8093AF
S11310E047012FBE9F918F912F90189528EE33E0E2
S11310F0019748F0F9016F9364E06A95F1F76F91F5
S11311003197C9F7F5CF08950E9476080895E0E76E
S1131110F0E080818E7F8083A0EBB0E08C918360CF
S11311208C93A1EBB0E08C91807F8C938C91826046
S11311308C93B89A8081816080837894089580919B
S11311409701811105C081E0809397010E9487086F
S113115008950E949F08E0E7F0E080818E7F8083FD
S113116010924401109245011092460110924701D9
S1131170109243011092420180818160808308951E
S1131180682F8CE491E00E94A80C0895462F20E07B
S1131190BC018CE491E00E94790D08950F93CF93E4
S11311A0DF9300D000D01F92CDB7DEB79C0185E05D
S11311B0EEE1F1E0DE01119601900D928A95E1F7DE
S11311C0662311F00FEF01C003E145E0BE016F5F3C
S11311D07F4F8CE491E00E94A0098CE491E00E948E
S11311E077090E94A9080F900F900F900F900F900D
S11311F0DF91CF910F91089560E00E94CE08089589
S11312008CE491E00E94EE0D08956F9364E06A957A
S1131210F1F76F910197C9F70895FC0111821082CB
S113122013821282158214821682683068F489E26D
S113123090E0918380838BE290E0938382838AE2BF
S113124090E0958384831FC06E3070F483E290E055
S11312509183808385E290E09383828384E290E0AB
S11312609583848368500FC0653198F486E290E0DA
S11312709183808388E290E09383828387E290E085
S1131280958384836E5081E001C0880F6A95EAF7E4
S113129086830895A7E0B0E0E0E5F9E00C94AB0E96
S11312A08C01FC0111821082138212821582148235
S11312B017821682613118F080E1808702C0FC0138
S11312C06087F801208B642FCE0101960E940D09DE
S11312D08F81F80181878B819C81938782878D819F
S11312E09E81958784872796E4E00C94C70EFC01C1
S11312F0A485B585109779F08C919185892B8C9371
S1131300A285B3859C918185809589238C9388ECF3
S113131090E00E9405090895FC01A485B585109705
S113132071F08C919185892B8C93A285B3858C91D6
S11313309185892B8C9388EC90E00E94050908958F
S1131340A7E0B0E0E6EAF9E00C94A00E7C014B01C2
S1131350642F3901402F20E00E944A0987010F5B66
S11313601F4FF80110826701F2E4CF0ED11CF60181
S113137010825701F3E4AF0EB11CF5011082F7019E
S113138077866686512CF7018085581650F5652CB2
S1131390712CF401E60DF71D6081CE0101960E94C7
S11313A00D092F81F701E60DF71D218B89819A81A3
S11313B0F301EE0FFF1FEE0DFF1D92A381A38332F5
S11313C0910511F4F80108C08632910511F4F60173
S11313D003C0899721F4F5018081822B8083539483
S11313E0D2CF2796EFE00C94BC0EA0E0B0E0EBEF78
S11313F0F9E00C94A20EEC015B016C0181E4C80ECF
S1131400D11CF60180807E01F2E4EF0EF11CF7019D
S113141070808E010D5B1F4FF801908080E09885ED
S1131420891748F4F501E80FF11DE80FF11D118249
S113143010828F5FF4CF84B1F6019081892B84B937
S113144087B1F7019081892B87B98AB1F80190811E
S1131450892B8AB985B1F6019081892B85B988B128
S1131460F7019081892B88B98BB1F8019081892B80
S11314708BB98AE090E00E94050994B1F60180815D
S11314808095892384B997B1F70180818095892358
S113149087B99AB1F8018081809589238AB995B179
S11314A0F60180818095892385B998B1F7018081FF
S11314B08095892388B99BB1F8018081809589231F
S11314C08BB9E090B000D090B1008091B0008360FF
S11314D08093B00082E08093B1004091B20080E03C
S11314E090E02E853F858217930720F5C090B200C7
S11314F02C2D241B820F911D03B1081132C0F6B0AC
S1131500F7102FC029B129112CC010C0212F30E0B1
S1131510A901440F551FF501E40FF51F6081718186
S1131520672B21F11F5F2885121780F37F2C802EF3
S11315304C2DD7CFE092B000D092B10020E0888546
S1131540281730F5F501E20FF11DE20FF11D80813E
S11315509181892B21F48E859F85918380832F5FD0
S1131560EECF03B1F6B099B010E0DDCFDE01A40FE9
S1131570B51F91960D90BC91A02D4C91DE01A20F48
S1131580B31F51962C91422369F691838083CACF6D
S1131590CDB7DEB7EDE00C94BE0EEF92FF920F9341
S11315A01F93CF93DF93FC019B01F0907C0000918B
S11315B07A0047B118B180917A0086FDFCCF80E0B3
S11315C09085891748F4D901A80FB11DA80FB11D42
S11315D01D921C928F5FF4CF97B182A180958923CD
S11315E087B998B182A18095892388B987E88093C7
S11315F07A00E12C81A1E81610F0E12C29C050E01A
S11316008085581718F5A52FB0E0EF01CA0FDB1F2E
S11316108989806480937C0080917A0080648093BF
S11316207A0080917A0086FDFCCF609178007091F9
S11316307900AA0FBB1FA20FB31F8D919C91119724
S1131640860F971F8D939C935F5FDACFE394D2CF7D
S11316508085E816A0F4E901CE0DD11DCE0DD11D73
S113166061A170E0CB0195958795A881B9818A0F16
S11316709B1F0E940C0E79836883E394E9CFF09258
S11316807C0000937A0018B947B9CDB7DEB7E6E01D
S11316900C94C50EA0E2B0E0E0E5FBE00C94A80ECB
S11316A08C017B01D42E8FEF840F823018F4C80193
S11316B00E948C09D80150968C91B701811110C0F9
S11316C0C8010E94F509C8010E947709B2E0DB1243
S11316D03AC0BE016F5F7F4FC8010E94F5090FC079
S11316E0C8010E94CD0AC8010E947709E2E0DE1217
S11316F02AC0BE016F5F7F4FC8010E94CD0A40E03F
S1131700F80180854817F8F4842F90E0880F991F1A
S1131710F701E80FF91F21E030E02C0F3D1F820F85
S1131720931FD8011E962D913C911F97DC018D913A
S11317309C91281B390B80819181820F931F918387
S113174080834F5FDDCFA096E7E00C94C40E2F9208
S11317503F925F926F927F928F929F92AF92BF92CD
S1131760CF92DF92EF92FF920F931F93CF93DF9369
S1131770CDB7DEB7C056D1090FB6F894DEBF0FBEA1
S1131780CDBF8C014B015A01522EDA018D919C91EF
S1131790892B31F0F40180819181892BF1F424C0EB
S11317A0D80118968C9190E0880F991F0E94D40E4E
S11317B0F50191838083009709F4B1C0FC0120E016
S11317C030E0D80118968C9190E02817390714F767
S11317D0119211922F5F3F4FF4CFE12CF12C6E0147
S11317E0B1E2CB0ED11C21C0F801808590E0880FB6
S11317F0991F0E94D40ED4018D939C93009709F4F1
S11318008EC0FC0120E030E0D80118968C9190E065
S11318102817390714F7D8011E968D919C911F97AC
S1131820819391932F5F3F4FEFCF452DBE016F5BA7
S11318307F4FC8010E944A0BF8016084712CFE019D
S1131840EF5BFF4FC6019E012F5F3F4F190120E060
S113185030E0261537054CF5E114F10489F0DC017C
S11318606D917C91408151816417750748F0D101D5
S11318706D917C91408151814617570748F00DC006
S113188040815181DC014D935C93E114F10479F7BB
S113189040815181D1014D935C932F5F3F4FB2E062
S11318A02B0E311C32960296D4CFEFEFEE1AFE0ABD
S11318B0FAE0EF16F10409F0B8CF9E012F5F3F4F15
S11318C07901360180E090E0F801208530E082174C
S11318D093072CF5D7012D913D917D01B3016C192E
S11318E07D09D501ED91FC91E60FF71F40815181EF
S11318F04217530710F431832083F301219131916E
S11319003F01D401ED91FC91E60FF71F4081518115
S11319102417350710F4318320830196D5CFC05A9C
S1131920DF4F0FB6F894DEBF0FBECDBFDF91CF916E
S11319301F910F91FF90EF90DF90CF90BF90AF90E9
S11319409F908F907F906F905F903F902F9008951D
S11319501F93CF93DF93EC01162F8FEF860F823006
S113196018F0662359F014C021E0AE014E5F5F4FBA
S1131970BE01CE010E94A70B123051F4AE014A5FA2
S11319805F4FBE016C5F7F4F20E0CE010E94A70B2A
S1131990DF91CF911F910895A0E0B0E0E2EDFCE06B
S11319A00C94A60EEC018B01B42E842F8D7F51F480
S11319B08C819D81892B09F497C08E819F81892B0D
S11319C009F492C08FEF8B0D823050F48881998195
S11319D0892B09F489C08A819B81892B09F484C0ED
S11319E04B2DB801CE010E944A0B780100E010E0B3
S11319F0C12CD12C888590E0C816D9060CF074C08F
S1131A0081E0B8120AC0EA81FB81E00FF11F019066
S1131A10F081E02DA881B9810DC08C819D812E813A
S1131A203F81B1100CC0F901E00FF11F0190F0816A
S1131A30E02DDC01A00FB11F8D919C9128C0FC0109
S1131A40E00FF11F40815181E881F981E00FF11F1E
S1131A5080819181EE85FF854817590710F4CF01E5
S1131A6004C08E0F9F1F841B950BD901A00FB11FBB
S1131A702D913C91AA81BB81A00FB11F4D915C9126
S1131A802417350720F0E40FF51FE21BF30BE81BC6
S1131A90F90BA9F0D7012D913C9140E050E0281BAF
S1131AA0390B41095109A8EEB3E00E948A0E9F0147
S1131AB040E050E00E94560E37FD0AC002C020E00C
S1131AC030E0293EB3E03B072CF028EE33E002C0BF
S1131AD020E030E0F701219331937F01FFEFCF1A2B
S1131AE0DF0A0E5F1F4F86CFCDB7DEB7E9E00C9457
S1131AF0C20EA0E0B0E0EFE7FDE00C949D0EEC0117
S1131B008B01822E0E94CC0C2884E801412C512C9C
S1131B10320100E010E0C12CD12C7601312C912C43
S1131B2058EEA52E53E0B52E921421F1E991F991C6
S1131B30882021F0C5018E1B9F0BFC01E93CF105B7
S1131B4024F4E333F10574F002C033243394DF0149
S1131B50A30192010E94950EC60ED71EE81EF91E1F
S1131B600E0F1F1F939498EE490E93E0591E611CAB
S1131B70711CDACF31101EC0492D50E0415051097B
S1131B8024EF31E0429FC001439F900D529F900D7E
S1131B901124209190013091910128173907B4F054
S1131BA088EE93E0489F9001499F300D589F300D77
S1131BB011240EC0980140E050E0C701B6010E9414
S1131BC0340E309391012093900102C020E030E064
S1131BD0C901CDB7DEB7E2E10C94B90ECF93DF9320
S1131BE0EC018A819B81009711F00E946C0F8E8119
S1131BF09F81009711F00E946C0F88819981009752
S1131C0011F00E946C0F8C819D81009711F00E944D
S1131C106C0FDF91CF910895AA1BBB1B51E107C044
S1131C20AA1FBB1FA617B70710F0A61BB70B881F68
S1131C30991F5A95A9F780959095BC01CD010895F7
S1131C4097FB072E16F4009407D077FD09D00E9465
S1131C500C0E07FC05D03EF4909581959F4F089596
S1131C60709561957F4F0895A1E21A2EAA1BBB1BA4
S1131C70FD010DC0AA1FBB1FEE1FFF1FA217B30754
S1131C80E407F50720F0A21BB30BE40BF50B661F6A
S1131C90771F881F991F1A9469F76095709580952E
S1131CA090959B01AC01BD01CF010895052E97FBD2
S1131CB01EF400940E946D0E57FD07D00E94340E4E
S1131CC007FC03D04EF40C946D0E5095409530955E
S1131CD021953F4F4F4F5F4F089590958095709594
S1131CE061957F4F8F4F9F4F0895EE0FFF1F059013
S1131CF0F491E02D0994A29FB001B39FC001A39F6A
S1131D00700D811D1124911DB29F700D811D112430
S1131D10911D08950E947B0EA59F900DB49F900D78
S1131D20A49F800D911D11240895B7FF0C948A0E71
S1131D300E948A0E821B930B08952F923F924F921A
S1131D405F926F927F928F929F92AF92BF92CF9247
S1131D50DF92EF92FF920F931F93CF93DF93CDB750
S1131D60DEB7CA1BDB0B0FB6F894DEBF0FBECDBFC8
S1131D7009942A88398848885F846E847D848C8499
S1131D809B84AA84B984C884DF80EE80FD800C81A2
S1131D901B81AA81B981CE0FD11D0FB6F894DEBF85
S1131DA00FBECDBFED0108950F931F93CF93DF9323
S1131DB08230910510F482E090E0E091A701F09167
S1131DC0A80120E030E0A0E0B0E0309719F14081B4
S1131DD051810281138148175907C8F08417950768
S1131DE069F4109731F012960C93129713961C9382
S1131DF027C00093A7011093A80122C02115310523
S1131E0019F04217530718F49A01BD01EF01DF01DD
S1131E10F801DBCF21153105F9F0281B390B2430EB
S1131E20310580F48A819B816115710521F0FB01E4
S1131E309383828304C09093A8018093A701FE0139
S1131E40329644C0FE01E20FF31F81939193225016
S1131E503109398328833AC02091A5013091A60124
S1131E60232B41F420910601309107013093A60100
S1131E702093A5012091040130910501211531051C
S1131E8041F42DB73EB74091080150910901241B3C
S1131E90350BE091A501F091A601E217F307A0F438
S1131EA02E1B3F0B2817390778F0AC014E5F5F4FAC
S1131EB02417350748F04E0F5F1F5093A601409337
S1131EC0A5018193919302C0E0E0F0E0CF01DF919E
S1131ED0CF911F910F910895CF93DF93009709F449
S1131EE081C0FC01329713821282A091A701B091A4
S1131EF0A801109781F420813181820F931F2091D2
S1131F00A5013091A6012817390751F5F093A601D0
S1131F10E093A50167C0ED0120E030E0CE17DF07B4
S1131F2040F44A815B819E0141155105F1F0EA01BB
S1131F30F5CFD383C28340815181840F951FC81785
S1131F40D90759F488819981840F951F029691834A
S1131F5080838A819B81938382832115310529F4AF
S1131F60F093A801E093A7013DC0E901FB83EA8354
S1131F7049915991C40FD51FEC17FD0761F4808175
S1131F809181840F951F0296E90199838883828148
S1131F9093819B838A83E0E0F0E012968D919C917B
S1131FA01397009719F0FD01DC01F7CF8D919C91F7
S1131FB011979D012E5F3F4F820F931F2091A50122
S1131FC03091A6012817390769F4309729F4109243
S1131FD0A8011092A70102C013821282B093A60135
S1131FE0A093A501DF91CF91089510E0C4E3D0E060
S1131FF004C0FE010E94750E2196C533D107C9F7AE
S1072000F894FFCF7E
S1132004881308020000A901200000000300010055
S113201402000400010002000300030004000E0F88
S11320241011125461736B3A0025004261743A0032
S10D20344D0050004F004300480027
S9030000FC
