:100000000C9443000C9460000C9460000C9460000D
:100010000C9460000C9460000C9460000C946000E0
:100020000C9460000C94F80B0C9460000C9460002D
:100030000C9460000C9419090C9460000C946000FE
:100040000C9460000C9460000C9460000C946000B0
:100050000C9460000C9460000C9460000C946000A0
:100060000C9460000C946000F1021F038A03F502F7
:1000700004031303F502F502F5023E6733323E3EF8
:1000800063333200C30C11241FBECFEFD8E0DEBFB4
:10009000CDBF11E0A0E0B1E0E2ECF7E202C00590D4
:1000A0000D92A634B107D9F721E0A6E4B1E001C072
:1000B0001D92AF3BB207E1F70E9494000C94D41359
:1000C0000C94000003C083E50E9402010E940E020E
:1000D0008230C9F7089503C083E50E9402010E949F
:1000E0000E028130C9F780E090E008950E9462001E
:1000F00084E50E94DD0303C083E50E9402010E94A3
:100100000E028823C9F38CE40E94020182E40E945B
:10011000DD0383E50E9402010E946B0080E50E94DE
:10012000020180E090E008958AE790E00E9478095B
:100130000E949F000E94760080E090E00895CF9397
:10014000DF9380ED97E00E94BF0C0DC00E94840AEF
:1001500060E080E00E94FC0A0E945F06BC0180E033
:1001600090E00E94D90A80E10E94F50B882371F388
:1001700080E10E94E10B88EE93E00E94400CC0E019
:10018000D0E019C0CE014497889738F068ED7FEF32
:1001900088E290E00E94B20B06C068E270E088ED51
:1001A0009FEF0E94B20B81E00E947C0C84E190E002
:1001B0000E94400C2196C035D10520F360E070E02C
:1001C00080E090E00E94B20B80E10E94F50B882352
:1001D000D9F380E10E94E10B0E94840ADF91CF9164
:1001E000089562E370E082E390E00E94B20B88EC35
:1001F00090E00E94400C60E070E080E090E00E949F
:10020000B20B0895CF92DF92EF92FF920F931F935C
:10021000CF93DF93C82F61E081EB91E00E94890CBE
:100220008C0161E081EB91E00E94820CCE3439F4C4
:1002300060E070E080E090E00E94B20BDAC0CC3465
:1002400009F56CE370E084EC9FEF0E94B20B05C0EF
:1002500061E081EB91E00E94820C8091B501909168
:10026000B60180399140A0F705C061E081EB91E0D3
:100270000E94820C8091B5019091B6018139914024
:10028000A0F3B7C0C23509F564EC7FEF8CE390E0D2
:100290000E94B20B05C061E081EB91E00E94820CEC
:1002A0008091B5019091B60180399140A0F705C0C9
:1002B00061E081EB91E00E94820C8091B501909108
:1002C000B60181399140A0F394C0C33509F047C00D
:1002D000005D1740C80164E670E00E94EF11EB0179
:1002E000C8016CE271E00E94EF11C60FD71FB80180
:1002F000110F880B990B0E9495042DEC3CEC4CECF3
:100300005DE30E9421056B017C01BE01DD0F880BBE
:10031000990B0E949504A70196010E94F1030E9487
:100320005D04CB016734710514F086E490E08A3BEC
:100330002FEF920714F48AEB9FEF99233CF466E4C5
:1003400070E08A5B9F4F0E94B20B53C066E470E07E
:10035000681B790B86E490E00E94B20B4AC0C2345D
:1003600009F56EEC7FEF8EEC9FEF0E94B20B80914F
:10037000B7019091B8018039914030F069EC7FEF7E
:100380008EEC9FEF0E94B20B8091B3019091B4016B
:100390008039914070F16EEC7FEF89EC9FEF0E9405
:1003A000B20B27C0C435A1F46CE370E084EC9FEF7E
:1003B0000E94B20B05C061E081EB91E00E94820CCB
:1003C0008091B5019091B60181399140A0F311C09F
:1003D000C03579F40AC0BE01CE010E94B20B85E09F
:1003E00090E00E94400C229702C0C2E3D0E0DD23DF
:1003F00094F7DF91CF911F910F91FF90EF90DF90D5
:10040000CF9008958EE40E94020180E10E94F50BD6
:100410008823D9F380E10E94E10B089561E081EB2C
:1004200091E00E94820C2091B1013091B2012039FB
:1004300041E0340738F18091B3019091B4018039E3
:10044000914000F18091B9019091BA0181399140B8
:10045000C8F40E94F10061E081EB91E00E94820CFF
:100460008091B5019091B6018039914008F094C017
:100470008091B7019091B8018039914008F48EC005
:1004800086E008958091B7019091B801803961E0CC
:10049000960720F14091B9015091BA01403951407D
:1004A000E8F0213941E03407C8F40E94F10061E02E
:1004B00081EB91E00E94820C8091B5019091B60190
:1004C0008039914008F06CC08091B3019091B401E3
:1004D0008039914008F466C085E008954091B301E9
:1004E0005091B401403961E05607A8F08039E1E04D
:1004F0009E0788F00E94F10061E081EB91E00E948C
:10050000820C8091B5019091B6018039914008F438
:100510004BC088E008956091B5017091B601693CC7
:10052000710530F4493C510518F4893C9105F0F10E
:10053000813961E0960758F46091B9017091BA0170
:100540006039714020F0413961E0560798F0203958
:10055000314070F14139514068F58139914050F096
:1005600080E0089561E081EB91E00E94820C83E5D8
:100570000E9402018091B9019091BA0180399140A5
:1005800088F78091B1019091B2018039914050F784
:100590000E94020282E0089586E0089583E00895B3
:1005A00085E0089584E0089587E0089581E0089546
:1005B00080E0089580E008950F931F93CF93DF9319
:1005C00000D0CDB7DEB70E940E028093A90190E063
:1005D0008930910508F041C0FC01EC5CFF4F0C94A0
:1005E000441283E50E94020138C08CE40E9402019B
:1005F0008CE4898341E050E0BE016F5F7F4F84E16E
:1006000091E00E94C41329C082E50E94020182E5A4
:10061000898341E050E0BE016F5F7F4F84E191E04C
:100620000E94C4131AC083E5898341E050E0BE01F3
:100630006F5F7F4F84E191E00E94C4130EC084E598
:100640000E94020184E5898341E050E0BE016F5FB2
:100650007F4F84E191E00E94C4130E94840A60E00D
:1006600080E00E94FC0A00E010E008C0F801EC5EA7
:10067000FE4F80810E94140A0F5F1F4FE4E1F1E0FA
:1006800001900020E9F73197E451F140E017F107BC
:1006900068F7DF01AE5EBE4F8C91843509F093CFD1
:1006A000DF01AF5EBE4F8C91ED5EFE4F90818C34CA
:1006B00029F49C3419F483E58A831BC0833529F41B
:1006C0009C3419F482E58A8314C0823529F49C3461
:1006D00019F484E58A830DC08C3429F4923519F419
:1006E00084E58A8306C08C3421F4933511F482E5C5
:1006F0008A83E4E1F1E001900020E9F73497108269
:1007000041E050E0BE016E5F7F4F84E191E00E94C6
:10071000C41359CF80E50E94020180E090E00F9061
:100720000F90DF91CF911F910F910895EF92FF925B
:100730001F93CF93DF93182FC0E0D0E02AC083E54A
:100740000E9402010E940E028823C9F3143539F475
:10075000FE01EC5EFE4F80810E94020119C012343E
:10076000B9F4E4E1F1E001900020E9F73197E451B8
:10077000F140EE19FF09EC5EFE4F80818C3419F0D8
:10078000823519F003C082E501C08CE40E940201A9
:100790002196E4E1F1E001900020E9F73197E4517E
:1007A000F1407E01CE17DF0768F280E090E0DF9134
:1007B000CF911F91FF90EF900895909114019F3574
:1007C00051F484E1E4E1F1E0DF011D928A95E9F75B
:1007D0000E94DC0202C00E94960380E090E008952F
:1007E0005058BB27AA270E9408040C94E7040E94D3
:1007F000D90438F00E94E00420F039F49F3F19F446
:1008000026F40C94D6040EF4E095E7FB0C94D00487
:10081000E92F0E94F80458F3BA1762077307840798
:10082000950720F079F4A6F50C941A050EF4E095DE
:100830000B2EBA2FA02D0B01B90190010C01CA019A
:10084000A0011124FF27591B99F0593F50F4503E45
:1008500068F11A16F040A22F232F342F4427585F37
:10086000F3CF469537952795A795F0405395C9F74F
:100870007EF41F16BA0B620B730B840BBAF0915007
:10088000A1F0FF0FBB1F661F771F881FC2F70EC0A6
:10089000BA0F621F731F841F48F487957795679579
:1008A000B795F7959E3F08F0B0CF9395880F08F065
:1008B0009927EE0F9795879508950E946404689490
:1008C000B1110C941B0508950E94000588F09F57F4
:1008D00098F0B92F9927B751B0F0E1F0660F771F64
:1008E000881F991F1AF0BA95C9F714C0B13091F05A
:1008F0000E941A05B1E008950C941A05672F782F0D
:100900008827B85F39F0B93FCCF38695779567951E
:10091000B395D9F73EF490958095709561957F4F8A
:100920008F4F9F4F0895E89409C097FB3EF4909530
:100930008095709561957F4F8F4F9F4F9923A9F0B8
:10094000F92F96E9BB279395F69587957795679547
:10095000B795F111F8CFFAF4BB0F11F460FF1BC08B
:100960006F5F7F4F8F4F9F4F16C0882311F096E91E
:1009700011C0772321F09EE8872F762F05C06623CC
:1009800071F096E8862F70E060E02AF09A95660F85
:10099000771F881FDAF7880F9695879597F908953E
:1009A00097F99F6780E870E060E008959FEF80EC22
:1009B000089500240A9416161706180609060895C5
:1009C00000240A9412161306140605060895092E2B
:1009D0000394000C11F4882352F0BB0F40F4BF2B9A
:1009E00011F460FF04C06F5F7F4F8F4F9F4F0895DA
:1009F00057FD9058440F551F59F05F3F71F04795D0
:100A0000880F97FB991F61F09F3F79F087950895B4
:100A1000121613061406551FF2CF4695F1DF08C0D3
:100A2000161617061806991FF1CF869571056105F0
:100A300008940895E894BB2766277727CB0197F998
:100A400008950E9434050C94E7040E94D90438F0FC
:100A50000E94E00420F0952311F00C94D0040C9433
:100A6000D60411240C941B050E94F80470F3959F82
:100A7000C1F3950F50E0551F629FF001729FBB2795
:100A8000F00DB11D639FAA27F00DB11DAA1F649F31
:100A90006627B00DA11D661F829F2227B00DA11DE4
:100AA000621F739FB00DA11D621F839FA00D611D6A
:100AB000221F749F3327A00D611D231F849F600D8B
:100AC000211D822F762F6A2F11249F5750409AF0B4
:100AD000F1F088234AF0EE0FFF1FBB1F661F771F40
:100AE000881F91505040A9F79E3F510580F00C940B
:100AF000D0040C941B055F3FE4F3983ED4F3869535
:100B000077956795B795F795E7959F5FC1F7FE2BAA
:100B1000880F911D9695879597F90895ECE7F0E079
:100B200080818F7D80830895811103C00E948E058E
:100B3000089580917C00806280937C00089580916C
:100B40007C0085FB882780F908950E949F058823F3
:100B500021F08091790090E0089580917800909143
:100B6000790008958032A0F497E890937A009091EC
:100B70007C00662311F0906C02C09F779064907E99
:100B8000982B90937C0080917A00806480937A0007
:100B90000895A0E0B0E0EFECF5E00C947612EB01E4
:100BA00060E00E94B20580917A0086FDFCCF8E0144
:100BB000C12CD12C760180917A00806480937A00D8
:100BC00080917A0086FDFCCF0E94A505C80ED91E33
:100BD000E11CF11C015011090115110561F7CE014D
:100BE00096958795C034D10538F48C0D9D1DBE01B6
:100BF0000E94DB11CB010EC0A7019601280F391FFF
:100C0000411D511DCA01B9019E0140E050E00E9402
:100C10000312C901CDB7DEB7E8E00C949212CF926F
:100C2000DF92EF92FF92A0910001B09101019C012F
:100C30000E944A126B017C010E949F05882359F093
:100C4000C701B60161587F4F8F4F9F4F2FEF30E0A4
:100C500040E050E00AC0C701B60161507E4F8F4F9F
:100C60009F4F2FEF33E040E050E00E940312C90194
:100C7000FF90EF90DF90CF9008950E94C9050E94E9
:100C80000F0608951F93CF93DF930E949F05182F9F
:100C90000E948E056AE070E086E00E943D06EC014D
:100CA000812F0E949405CE01880F991F8C0F9D1FE4
:100CB000019696958795DF91CF911F9108950E9497
:100CC0004206089590914B01E0914601F091470151
:100CD000992311F0849101C080812FEB280F2A31D4
:100CE00010F4805E0895803249F49F012F5F3F4FDA
:100CF0003093470120934601EF2B31F708951F935E
:100D0000CF93DF930E946206C0E0D0E01AE090ED3E
:100D1000980F9A30B8F49E01129FE001139FD00DF6
:100D20001124C80FD11D87FDDA95E0978091460107
:100D300090914701019690934701809346010E944C
:100D40006206E5CFCE01DF91CF911F9108951092F9
:100D50006F0083E28093800081E180938100109294
:100D6000820080E197E2909389008093880010923E
:100D70008B0010928A00229A789408958F929F9205
:100D8000AF92BF92DF92EF92FF920F931F93CF9398
:100D9000DF935C018B01D42E80914801811105C045
:100DA00081E0809348010E94A70610920B01B7FED4
:100DB00005C0E894B7F82AE0F22E02C0FF24F394AD
:100DC000E09081002E2D287FE22E48ECF49EC00199
:100DD00011248A159B05E0F4E50151E1A51657E2BF
:100DE000B50610F0C0E1D7E2BE017695679580E0C8
:100DF00090E06058794687469F4F4E01A12CB12C58
:100E0000A50194010E94031259018E2D816024C016
:100E1000C8E2FC9EC02D1124D0E0CA15DB0508F401
:100E2000E501BE01769567959E0140E050E08AE0BD
:100E3000F81207C080E090E0605E734481449F4FE9
:100E400006C080E090E060537D4E8C4E9F4F0E9424
:100E5000031259018E2D8260882E2AE0F21207C0FB
:100E6000CE0105966AE070E00E94DB11EB01C83EFE
:100E700043E0D40759F09801DE010E944A1228EE9F
:100E800033E040E050E00E942512890110926F008B
:100E900080928100B0928900A09288002091880001
:100EA000309189004D2D403108F04FE080E190E015
:100EB000841B9109A90102C0569547958A95E2F7CE
:100EC00050938B0040938A0010934E0100934D0184
:100ED00086B38FEF86BB81E080936F00DF91CF9167
:100EE0001F910F91FF90EF90DF90BF90AF909F9078
:100EF0008F900895CF93DF93EB018F3F11F0411155
:100F000005C040E0BE0188EE93E043C0813130F07F
:100F100050EF580F503618F05FE501C050E0852FB4
:100F20006CE00E94CF11682F74EF760390011124BA
:100F3000250F311D2C30310540F4F901EE0FFF1F54
:100F4000E85DFE4F2081318102C020E030E0873033
:100F500081F0082E02C0220F331F0A94E2F782307C
:100F600028F0C90105966AE070E00CC0C9019058EC
:100F70000CC0C90136E0880F991F3A95E1F7029637
:100F800065E070E00E94DB11CB01403108F04FE0DA
:100F9000BE010E94BE06DF91CF910895A2E0B0E0AD
:100FA000E4EDF7E00C946E1290900A0180914A01F2
:100FB000882321F060914901611117C0772473944F
:100FC000B0ECAB2EBDE5BB2E1AE0612E04E0802E06
:100FD00080EDC82E87E0D82E94E0E92EF12C04EFA6
:100FE00011E02FE0422E512C15C070E040E088EE59
:100FF00093E00E94BE061092490117C18636D4F5CF
:10100000813609F4A9C07CF58C3309F460C08E33B5
:1010100081F493940E946206209146013091470129
:101020002F5F3F4F3093470120934601853631F7BC
:1010300052C0813209F08BC080920A01D09209011E
:10104000C0920801F0920701E09206011093050199
:1010500000930401509203014092020110924A0150
:10106000A4E09A2ED7CF8336A1F10CF478C010E01B
:1010700082E077C08D36C1F194F4873691F174F136
:101080008C3609F064C00E947F06BC019093070172
:1010900080930601809108019091090151C0823727
:1010A000C9F14CF48F3609F052C00E947F06982E89
:1010B00080930A01AFCF843781F1863709F047C0AA
:1010C0000E947F069093030180930201A3CF9A941C
:1010D000A1CF10E020C010E084E043C010E085E024
:1010E00040C010E087E03DC00E9462068C3619F4D3
:1010F00010924A0104C070924A0110924901209155
:101100004601309147012F5F3F4F309347012093B5
:10111000460180CF11E080E024C00E947F06BC0120
:10112000C5010E94DB11669EC001679E900D1124CF
:101130009093090180930801609106017091070165
:101140000E94DB11709305016093040163CF10923C
:1011500047011092460169C010E089E002C010E02A
:101160008BE0082F9CE0999E000D11240E946206DE
:10117000982F977F933261F4209146013091470177
:101180002F5F3F4F30934701209346010F5FEECF13
:101190008D3271F420914601309147012F5F3F4F0E
:1011A000309347012093460101500E946206F0CF20
:1011B00060910401709105018153883050F4E090F2
:1011C0000801F09009010E947F06BC01C7010E943E
:1011D000DB117B01F694E79469837A830E946206AF
:1011E00069817A818E3269F42091460130914701FC
:1011F0002F5F3F4F30934701209346016E0D7F1DB7
:10120000E9CF80914A01882339F09B0136952795D3
:1012100020934901621B710940910201112311F0D1
:101220008FEF01C0802F0E947A072296E0E10C9494
:101230008A121F920F920FB60F9211242F933F9391
:101240004F935F936F937F938F939F93AF93BF93CE
:10125000EF93FF9380914D0190914E019C0121509D
:10126000310930934E0120934D01892B11F51092D5
:101270006F00789480918100887F816080938100E5
:1012800080E197E2909389008093880010928B0010
:1012900010928A0081E080930B0180914601909129
:1012A0004701892B31F080914C01811102C00E94CD
:1012B000CE07FF91EF91BF91AF919F918F917F9159
:1012C0006F915F914F913F912F910F900FBE0F90B3
:1012D0001F90189510926F009093470180934601DC
:1012E00081E080934B01109249010E94CE0708953E
:1012F0000E946A09089581E090E06F9364E06A9526
:10130000F1F76F910197C9F708950F931F93CF934A
:10131000DF931AB157985A98289AC0E0D0E00E94FB
:101320007B095C9A0E947B0909B15C980E947B0949
:101330005C9A0E947B095C98249607FF10C0AE015E
:1013400060E070E080914F0190915001A0915101B7
:10135000B0915201481759076A077B0700F31AB981
:10136000DF91CF911F910F91089595B1282F217092
:1013700030E0220F331F482F467068E0469FA001DF
:101380001124242B9D7C292B25B99BB18870829533
:10139000807F9F77892B8BB95C9A0E947B095C9830
:1013A0000E947B090895A0E0B0E0E9EDF9E00C941B
:1013B0007712C82FD62EE42E8091AA01811105C084
:1013C00081E08093AA010E941C0A0E94850914B141
:1013D000D5B1FAB00BB12898DD2011F05A9A01C0AE
:1013E0005A9894B1926394B9579A81E0E81629F01B
:1013F0008C2F82958F700E94B5098C2F8F700E9460
:10140000B509FAB80BB914B9D5B9CDB7DEB7E7E06D
:101410000C94931242E060E00E94D309089542E0E8
:1014200061E00E94D30908950E940F0A089541E0E7
:1014300060E00E94D309089580E197E2A0E0B0E067
:1014400080934F0190935001A0935101B0935201AA
:10145000529A209A549A8EE190E00E94400C83E0C8
:101460000E94170A86E090E00E94400C83E00E94F0
:10147000170A82E090E00E94400C83E00E94170A65
:1014800082E090E00E94400C82E00E94170A82E015
:1014900090E00E94400C88E20E940A0A88E00E94C4
:1014A0000A0A81E00E940A0A86E00E940A0A8CE089
:1014B0000E940A0A089581E00E940A0A809155015B
:1014C00090915601892BF9F060E0A0E2262F30E0E0
:1014D00070910C0180910D0190E00197789FA0011F
:1014E000799F500D1124241735074CF4E0915501D4
:1014F000F0915601E20FF31FA0836F5FE7CF1092C8
:1015000053011092540108950E945B0A0895AAE0C5
:10151000B0E0EDE8FAE00C9476121AE05AE0C52E3D
:10152000D12CE12CF12C062FA70196010E94031269
:10153000CA01B9011150E1E0F0E0EC0FFD1FE10F2D
:10154000F11D005D2AE0629F0019112400836115DE
:1015500071058105910539F71A3058F4E1E0F0E0A2
:10156000EC0FFD1FE10FF11D80810E940F0A1F5F2C
:10157000F3CF2A96E8E00C949212CF92DF92EF928A
:10158000FF926B017C0197FF0BC0F094E094D09424
:10159000C094C11CD11CE11CF11C8DE20E940F0AF9
:1015A000C701B6010E94870AFF90EF90DF90CF90AD
:1015B00008950E94BD0A0895A5E0B0E0E2EEFAE0C9
:1015C0000C947B12182F80E8898380EC8A8384E94D
:1015D0008B8384ED8C83FE01E60FF11D8181810FE9
:1015E0006D830E940A0A109353016D816093540128
:1015F0002596E3E00C9497120E94DC0A0895883047
:1016000058F491E001C0990F8A95EAF7892FAAE270
:10161000B0E0EBE2F0E021C08E3060F498EF980F7C
:1016200081E001C0880F9A95EAF7A4E2B0E0E5E214
:10163000F0E013C0853160F492EF980F81E001C0B3
:10164000880F9A95EAF7A7E2B0E0E8E2F0E005C07B
:1016500080E0A0E0B0E0E0E0F0E06F3F19F49081BE
:10166000982709C0662319F09081982B04C0208127
:10167000982F9095922390839C91982B9C930895FA
:1016800083EF8093B00084BD82E08093B10085BD7C
:101690001092B4001092B30018BC17BC60E086E052
:1016A0000E94FF0A60E085E00E94FF0A60E08BE094
:1016B0000E94FF0A60E083E00E94FF0A0895809183
:1016C000AB01811105C081E08093AB010E94400B0A
:1016D0000895CF93DF93EC010E945F0BD7FF05C005
:1016E000D195C195D10981E001C080E0CF3FD105FE
:1016F00019F014F0CFEFD0E0882319F018BCC7BD63
:1017000002C0C8BD17BCDF91CF910895CF93DF937E
:10171000EC010E945F0BD7FF05C0D195C195D1099F
:1017200081E001C080E0CF3FD10519F014F0CFEF88
:10173000D0E0882329F01092B400C093B30004C015
:10174000C093B4001092B300DF91CF910895CF936E
:10175000DF93EB010E94690BCE010E94860BDF91A3
:10176000CF9108950E94A70B089584B18D7C84B910
:1017700085B1826385B985E090E06F9364E06A95F6
:10178000F1F76F910197C9F708958091AC0181112C
:1017900005C081E08093AC010E94B50B0895CF9302
:1017A000C82F0E94C50B83B18C23E9F38AE090E037
:1017B0000E94400C83B18C23B1F383B18C23CF9171
:1017C00008950E94CF0B0895A1E0B0E0EAEEFBE09F
:1017D0000C947C1289830E94C50B93B190958981EA
:1017E00089232196E2E00C9498120E94E40B08955C
:1017F0002F928F939F932FB680915E0190915F01FE
:10180000019680935E0190935F0190E0809160016A
:10181000891F80936001909158019C5F90935801BB
:101820008091570180519742C0F090935801809366
:1018300057018091590190915A0101968093590165
:1018400090935A0190E080915B01891F80935B0126
:1018500080915C01891F80935C012FBE9F918F91C5
:101860002F90189528EE33E0019748F0F9016F9317
:1018700064E06A95F1F76F913197C9F7F5CF089554
:101880000E94320C0895E0E7F0E080818E7F808333
:10189000A0EBB0E08C9183608C93A1EBB0E08C91D5
:1018A000807F8C938C9182608C93B89A80818160C8
:1018B0008083789408958091AD01811105C081E005
:1018C0008093AD010E94430C08950E945B0CE0E7F9
:1018D000F0E080818E7F80831092590110925A012E
:1018E00010925B0110925C01109258011092570106
:1018F0008081816080830895682F81E691E00E9455
:101900006B100895462FBC0181E691E00E948F1074
:101910000895462F20E0BC0181E691E00E943C1131
:1019200008950F93CF93DF9300D000D01F92CDB7CF
:10193000DEB79C0185E0E0E4F1E0DE011196019064
:101940000D928A95E1F7662311F00FEF01C003E1D4
:1019500045E0BE016F5F7F4F81E691E00E94630D1D
:1019600081E691E00E943A0D0E94650C0F900F9065
:101970000F900F900F90DF91CF910F91089560E03D
:101980000E94910C089581E691E00E94B1110895A2
:101990006F9364E06A95F1F76F910197C9F7089525
:1019A000FC01118210821382128215821482168227
:1019B000683068F489E290E0918380838BE290E064
:1019C000938382838AE290E0958384831FC06E3084
:1019D00070F483E290E09183808385E290E09383CA
:1019E000828384E290E09583848368500FC06531E0
:1019F00098F486E290E09183808388E290E093837C
:101A0000828387E290E0958384836E5081E001C0F9
:101A1000880F6A95EAF786830895A7E0B0E0E3E1CE
:101A2000FDE00C947A128C01FC0111821082138269
:101A300012821582148217821682613118F080E1B9
:101A4000808702C0FC016087F801208B642FCE01E3
:101A500001960E94D00C8F81F80181878B819C8137
:101A6000938782878D819E81958784872796E4E07E
:101A70000C949612FC01A485B585109779F08C9191
:101A80009185892B8C93A285B3859C9181858095C6
:101A900089238C9388EC90E00E94C80C0895FC0187
:101AA000A485B585109771F08C919185892B8C93C5
:101AB000A285B3858C919185892B8C9388EC90E0DD
:101AC0000E94C80C0895A7E0B0E0E9E6FDE00C94A0
:101AD0006F127C014B01642F3901402F20E00E94DE
:101AE0000D0D87010F5B1F4FF80110826701F2E4B3
:101AF000CF0ED11CF60110825701F3E4AF0EB11CDA
:101B0000F5011082F70177866686512CF7018085F2
:101B1000581650F5652C712CF401E60DF71D608107
:101B2000CE0101960E94D00C2F81F701E60DF71D22
:101B3000218B89819A81F301EE0FFF1FEE0DFF1DAE
:101B400092A381A38332910511F4F80108C0863273
:101B5000910511F4F60103C0899721F4F501808104
:101B6000822B80835394D2CF2796EFE00C948B1274
:101B7000A0E0B0E0EEEBFDE00C947112EC015B0133
:101B80006C0181E4C80ED11CF60180807E01F2E474
:101B9000EF0EF11CF70170808E010D5B1F4FF801F5
:101BA000908080E09885891748F4F501E80FF11DD1
:101BB000E80FF11D118210828F5FF4CF84B1F6011E
:101BC0009081892B84B987B1F7019081892B87B9DE
:101BD0008AB1F8019081892B8AB985B1F60190818B
:101BE000892B85B988B1F7019081892B88B98BB190
:101BF000F8019081892B8BB98AE090E00E94C80C93
:101C000094B1F60180818095892384B997B1F70159
:101C100080818095892387B99AB1F8018081809568
:101C200089238AB995B1F60180818095892385B988
:101C300098B1F70180818095892388B99BB1F8011B
:101C40008081809589238BB9E090B000D090B1005D
:101C50008091B00083608093B00082E08093B100F7
:101C60004091B20080E090E02E853F858217930777
:101C700020F5C090B2002C2D241B820F911D03B1C2
:101C8000081132C0F6B0F7102FC029B129112CC0AD
:101C900010C0212F30E0A901440F551FF501E40FBA
:101CA000F51F60817181672B21F11F5F2885121755
:101CB00080F37F2C802E4C2DD7CFE092B000D092B5
:101CC000B10020E08885281730F5F501E20FF11DFD
:101CD000E20FF11D80819181892B21F48E859F85F2
:101CE000918380832F5FEECF03B1F6B099B010E0FF
:101CF000DDCFDE01A40FB51F91960D90BC91A02DF4
:101D00004C91DE01A20FB31F51962C91422369F62C
:101D100091838083CACFCDB7DEB7EDE00C948D12EE
:101D2000EF92FF920F931F93CF93DF93FC019B01E0
:101D3000F0907C0000917A0047B118B180917A0050
:101D400086FDFCCF80E09085891748F4D901A80F63
:101D5000B11DA80FB11D1D921C928F5FF4CF97B1DA
:101D600082A18095892387B998B182A18095892322
:101D700088B987E880937A00E12C81A1E81610F0F9
:101D8000E12C29C050E08085581718F5A52FB0E048
:101D9000EF01CA0FDB1F8989806480937C008091EA
:101DA0007A00806480937A0080917A0086FDFCCF6F
:101DB0006091780070917900AA0FBB1FA20FB31F2A
:101DC0008D919C911197860F971F8D939C935F5FC8
:101DD000DACFE394D2CF8085E816A0F4E901CE0DE6
:101DE000D11DCE0DD11D61A170E0CB0195958795D8
:101DF000A881B9818A0F9B1F0E94DB1179836883B8
:101E0000E394E9CFF0927C0000937A0018B947B9C7
:101E1000CDB7DEB7E6E00C949412A0E2B0E0E3E1C7
:101E2000FFE00C9477128C017B01D42E8FEF840F8E
:101E3000823018F4C8010E944F0DD80150968C9141
:101E4000B701811110C0C8010E94B80DC8010E94DD
:101E50003A0DB2E0DB123AC0BE016F5F7F4FC8019E
:101E60000E94B80D0FC0C8010E94900EC8010E94C8
:101E70003A0DE2E0DE122AC0BE016F5F7F4FC8015B
:101E80000E94900E40E0F80180854817F8F4842FF6
:101E900090E0880F991FF701E80FF91F21E030E06B
:101EA0002C0F3D1F820F931FD8011E962D913C9140
:101EB0001F97DC018D919C91281B390B80819181AA
:101EC000820F931F918380834F5FDDCFA096E7E061
:101ED0000C9493122F923F925F926F927F928F9207
:101EE0009F92AF92BF92CF92DF92EF92FF920F93A9
:101EF0001F93CF93DF93CDB7DEB7C056D1090FB68E
:101F0000F894DEBF0FBECDBF8C014B015A01522E9B
:101F1000DA018D919C91892B31F0F40180819181BE
:101F2000892BF1F424C0D80118968C9190E0880F89
:101F3000991F0E94A312F50191838083009709F4F1
:101F4000B1C0FC0120E030E0D80118968C9190E0FF
:101F50002817390714F7119211922F5F3F4FF4CFD2
:101F6000E12CF12C6E01B1E2CB0ED11C21C0F801A5
:101F7000808590E0880F991F0E94A312D4018D9351
:101F80009C93009709F48EC0FC0120E030E0D8015A
:101F900018968C9190E02817390714F7D8011E96EF
:101FA0008D919C911F97819391932F5F3F4FEFCF1E
:101FB000452DBE016F5B7F4FC8010E940D0FF801D8
:101FC0006084712CFE01EF5BFF4FC6019E012F5F05
:101FD0003F4F190120E030E0261537054CF5E1149C
:101FE000F10489F0DC016D917C914081518164178D
:101FF000750748F0D1016D917C9140815181461760
:10200000570748F00DC040815181DC014D935C932E
:10201000E114F10479F740815181D1014D935C9332
:102020002F5F3F4FB2E02B0E311C32960296D4CF79
:10203000EFEFEE1AFE0AFAE0EF16F10409F0B8CF5E
:102040009E012F5F3F4F7901360180E090E0F8015B
:10205000208530E0821793072CF5D7012D913D9113
:102060007D01B3016C197D09D501ED91FC91E60F5D
:10207000F71F408151814217530710F431832083A9
:10208000F301219131913F01D401ED91FC91E60FD3
:10209000F71F408151812417350710F431832083C5
:1020A0000196D5CFC05ADF4F0FB6F894DEBF0FBEF2
:1020B000CDBFDF91CF911F910F91FF90EF90DF90F7
:1020C000CF90BF90AF909F908F907F906F905F90D8
:1020D0003F902F9008951F93CF93DF93EC01162F1D
:1020E0008FEF860F823018F0662359F014C021E07C
:1020F000AE014E5F5F4FBE01CE010E946A0F1230EB
:1021000051F4AE014A5F5F4FBE016C5F7F4F20E02C
:10211000CE010E946A0FDF91CF911F910895A0E038
:10212000B0E0E5E9F0E10C947512EC018B01B42EFE
:10213000842F8D7F51F48C819D81892B09F497C068
:102140008E819F81892B09F492C08FEF8B0D823095
:1021500050F488819981892B09F489C08A819B81F7
:10216000892B09F484C04B2DB801CE010E940D0FBC
:10217000780100E010E0C12CD12C888590E0C816D1
:10218000D9060CF074C081E0B8120AC0EA81FB8164
:10219000E00FF11F0190F081E02DA881B9810DC001
:1021A0008C819D812E813F81B1100CC0F901E00F1F
:1021B000F11F0190F081E02DDC01A00FB11F8D9186
:1021C0009C9128C0FC01E00FF11F40815181E88102
:1021D000F981E00FF11F80819181EE85FF8548171D
:1021E000590710F4CF0104C08E0F9F1F841B950B5D
:1021F000D901A00FB11F2D913C91AA81BB81A00FE5
:10220000B11F4D915C912417350720F0E40FF51FA5
:10221000E21BF30BE81BF90BA9F0D7012D913C91C0
:1022200040E050E0281B390B41095109A8EEB3E00A
:102230000E9459129F0140E050E00E94251237FD94
:102240000AC002C020E030E0293EB3E03B072CF09A
:1022500028EE33E002C020E030E0F7012193319313
:102260007F01FFEFCF1ADF0A0E5F1F4F86CFCDB77A
:10227000DEB7E9E00C949112A0E0B0E0E2E4F1E115
:102280000C946C12EC018B01822E0E948F1028841A
:10229000E801412C512C320100E010E0C12CD12C7E
:1022A0007601312C912C58EEA52E53E0B52E9214C8
:1022B00021F1E991F991882021F0C5018E1B9F0B36
:1022C000FC01E93CF10524F4E333F10574F002C0AC
:1022D00033243394DF01A30192010E946412C60EDD
:1022E000D71EE81EF91E0E0F1F1F939498EE490E7D
:1022F00093E0591E611C711CDACF31101EC0492DAC
:1023000050E04150510924EF31E0429FC001439F0A
:10231000900D529F900D11242091A5013091A6019E
:1023200028173907B4F088EE93E0489F9001499F41
:10233000300D589F300D11240EC0980140E050E040
:10234000C701B6010E9403123093A6012093A50194
:1023500002C020E030E0C901CDB7DEB7E2E10C9465
:102360008812CF93DF93EC018A819B81009711F053
:102370000E943B138E819F81009711F00E943B13B6
:1023800088819981009711F00E943B138C819D8177
:10239000009711F00E943B13DF91CF910895991B94
:1023A00079E004C0991F961708F0961B881F7A954C
:1023B000C9F780950895AA1BBB1B51E107C0AA1F4E
:1023C000BB1FA617B70710F0A61BB70B881F991FD6
:1023D0005A95A9F780959095BC01CD01089597FB7A
:1023E000072E16F4009407D077FD09D00E94DB1168
:1023F00007FC05D03EF4909581959F4F0895709508
:1024000061957F4F0895A1E21A2EAA1BBB1BFD0107
:102410000DC0AA1FBB1FEE1FFF1FA217B307E407C3
:10242000F50720F0A21BB30BE40BF50B661F771F1B
:10243000881F991F1A9469F76095709580959095FB
:102440009B01AC01BD01CF010895052E97FB1EF441
:1024500000940E943C1257FD07D00E94031207FC13
:1024600003D04EF40C943C12509540953095219534
:102470003F4F4F4F5F4F08959095809570956195B0
:102480007F4F8F4F9F4F0895EE0FFF1F0590F491E0
:10249000E02D0994A29FB001B39FC001A39F700DCE
:1024A000811D1124911DB29F700D811D1124911D5C
:1024B00008950E944A12A59F900DB49F900DA49F6D
:1024C000800D911D11240895B7FF0C9459120E949C
:1024D0005912821B930B08952F923F924F925F9255
:1024E0006F927F928F929F92AF92BF92CF92DF9224
:1024F000EF92FF920F931F93CF93DF93CDB7DEB789
:10250000CA1BDB0B0FB6F894DEBF0FBECDBF09941C
:102510002A88398848885F846E847D848C849B8473
:10252000AA84B984C884DF80EE80FD800C811B8181
:10253000AA81B981CE0FD11D0FB6F894DEBF0FBEB0
:10254000CDBFED0108950F931F93CF93DF9382309A
:10255000910510F482E090E0E091BD01F091BE01A0
:1025600020E030E0A0E0B0E0309719F140815181E7
:102570000281138148175907C8F08417950769F439
:10258000109731F012960C93129713961C9327C054
:102590000093BD011093BE0122C02115310519F031
:1025A0004217530718F49A01BD01EF01DF01F8014A
:1025B000DBCF21153105F9F0281B390B243031050B
:1025C00080F48A819B816115710521F0FB01938361
:1025D000828304C09093BE018093BD01FE013296B8
:1025E00044C0FE01E20FF31F819391932250310901
:1025F000398328833AC02091BB013091BC01232B41
:1026000041F420911001309111013093BC012093CD
:10261000BB0120910E0130910F012115310541F4CC
:102620002DB73EB74091120150911301241B350B79
:10263000E091BB01F091BC01E217F307A0F42E1B5F
:102640003F0B2817390778F0AC014E5F5F4F241716
:10265000350748F04E0F5F1F5093BC014093BB01FC
:102660008193919302C0E0E0F0E0CF01DF91CF9140
:102670001F910F910895CF93DF93009709F481C0C4
:10268000FC01329713821282A091BD01B091BE016C
:10269000109781F420813181820F931F2091BB011B
:1026A0003091BC012817390751F5F093BC01E09334
:1026B000BB0167C0ED0120E030E0CE17DF0740F43A
:1026C0004A815B819E0141155105F1F0EA01F5CF88
:1026D000D383C28340815181840F951FC817D907C6
:1026E00059F488819981840F951F02969183808384
:1026F0008A819B81938382832115310529F4F0938C
:10270000BE01E093BD013DC0E901FB83EA8349912D
:102710005991C40FD51FEC17FD0761F48081918199
:10272000840F951F0296E9019983888382819381A2
:102730009B838A83E0E0F0E012968D919C91139741
:10274000009719F0FD01DC01F7CF8D919C91119755
:102750009D012E5F3F4F820F931F2091BB0130914F
:10276000BC012817390769F4309729F41092BE018B
:102770001092BD0102C013821282B093BC01A093DB
:10278000BB01DF91CF910895FB01DC010D9000208A
:10279000E9F711974150504028F0019000200D9228
:1027A000C9F708951C92089510E0C2E4D0E004C077
:1027B000FE010E9444122196C334D107C9F7F89450
:0227C000FFCF49
:1027C20088130F00F4010400D0070401080200007E
:1027D200BF0120005F0000000000000000000000B8
:1027E20000000000000000009C01B501CF01EA01D9
:1027F20007022602470269028E02B502DE020A03BE
:062802000E0F1011120080
:00000001FF
