:100000000C943E000C945B000C945B000C945B0021
:100010000C945B000C945B000C945B000C945B00F4
:100020000C945B000C94470B0C945B000C945B00ED
:100030000C945B000C945B000C945B000C945B00D4
:100040000C945B000C945B000C945B000C945B00C4
:100050000C945B000C945B000C945B000C945B00B4
:100060000C945B000C945B00130317036D030203F5
:10007000090310030203020302030B0C11241FBE29
:10008000CFEFD8E0DEBFCDBF11E0A0E0B1E0E2E10C
:10009000F6E202C005900D92AA33B107D9F721E02C
:1000A000AAE3B1E001C01D92AB3AB207E1F70E94AA
:1000B000D8000C94FC120C940000CF92DF92EF92C7
:1000C000FF920E94BB08BC0180E090E00E94EF0616
:1000D0006B017C019B01AC010E947D079B01AC017F
:1000E000C701B6010E947D072CE039EB4DE250E3D9
:1000F0000E947D07FF90EF90DF90CF900895EF92E0
:10010000FF920F931F93CF937C018B01C42F0E940A
:10011000C40960E080E00E944B0A83E291E00E9403
:10012000D309B701FF0C880B990B0E94280A88E2BB
:1001300091E00E94D30961E080E00E944B0A8AE2CC
:1001400091E00E94D309B801110F880B990B0E940E
:10015000280A88E291E00E94D309C230A9F028F46D
:10016000CC2341F0C13059F01DC0C33091F0C430F0
:10017000A9F018C08FE291E00E94D30913C081E377
:1001800091E00E94D3090EC083E391E00E94D3095D
:1001900009C085E391E00E94D30904C087E391E0A0
:1001A0000E94D309CF911F910F91FF90EF90089576
:1001B000CF93DF93CDB7DEB764970FB6F894DEBF69
:1001C0000FBECDBF0E94C40980ED97E00E94070CCE
:1001D0000E94FD00CE0101960E94F202CE0101961E
:1001E0000E94D30980E090E064960FB6F894DEBFD9
:1001F0000FBECDBFDF91CF910895CF93DF9380EDF8
:1002000097E00E94070C80E10E94440B8823D9F3F9
:1002100080E10E94300B88EE93E00E948F0BC0E0DB
:10022000D0E019C0CE014497889738F068ED7FEF91
:1002300088E290E00E94010B06C068E270E088ED61
:100240009FEF0E94010B81E00E94CB0B84E190E0C4
:100250000E948F0B2196C035D10520F360E070E03D
:1002600080E090E00E94010B80E10E94440B882313
:10027000D9F380E10E94300B0E94C409DF91CF9135
:10028000089562E370E082E390E00E94010B88EC45
:1002900090E00E948F0B60E070E080E090E00E94B0
:1002A000010B0895CF93DF93C82F61E08CE991E0B3
:1002B0000E94D10BCE3439F460E070E080E090E031
:1002C0000E94010BC3C0CC3409F562E370E08EECF0
:1002D0009FEF0E94010B05C061E08CE991E00E9454
:1002E000D10B8091A0019091A101843F9140A0F792
:1002F00005C061E08CE991E00E94D10B8091A001E2
:100300009091A101853F9140A0F3A0C0C23509F5AD
:100310006EEC7FEF82E390E00E94010B05C061E08C
:100320008CE991E00E94D10B8091A0019091A101F4
:10033000843F9140A0F705C061E08CE991E00E9404
:10034000D10B8091A0019091A101853F9140A0F334
:100350007DC0C33589F562E370E082E390E00E94DE
:10036000010B8091A2019091A301843F914068F01C
:100370008091A4019091A5018D32914030F46EE1FD
:1003800070E082E390E00E94010B80919E019091C9
:100390009F01843F914008F459C080919C01909145
:1003A0009D018D32914008F051C062E370E08EE112
:1003B00090E00E94010B4AC0C23409F56EEC7FEF59
:1003C0008EEC9FEF0E94010B8091A2019091A301FE
:1003D0008039914030F069EC7FEF8EEC9FEF0E9406
:1003E000010B80919E0190919F018039914070F1A5
:1003F0006EEC7FEF89EC9FEF0E94010B27C0C435A4
:10040000A1F46BE470E085EB9FEF0E94010B05C047
:1004100061E08CE991E00E94D10B8091A001909164
:10042000A101843F9140A0F711C0C03579F40AC002
:10043000BE01CE010E94010B85E090E00E948F0B6F
:10044000229702C0C2E3D0E0DD2394F7DF91CF9181
:10045000089561E08CE991E00E94D10B80919E01AA
:1004600090919F01843F21E09207C0F02091A2016A
:100470003091A301243F314088F00E94410161E0A6
:100480008CE991E00E94D10B8091A0019091A10193
:10049000843F914008F490C088E00895843F21E0B3
:1004A000920700F120919C0130919D01243F314041
:1004B000C8F00E94410161E08CE991E00E94D10BFB
:1004C0008091A0019091A101843F914008F076C0F5
:1004D0008091A2019091A301843F914008F470C0E3
:1004E00086E008954091A2015091A301443F61E04C
:1004F000560700F12091A4013091A501243F31401D
:10050000C8F00E94410161E08CE991E00E94D10BAA
:100510008091A0019091A101843F914008F052C0C8
:1005200080919E0190919F01843F914008F44CC0BE
:1005300085E008952091A0013091A101293C310569
:1005400008F444C0243F61E0360708F482CF243F1A
:1005500061E03607E8F1453F5140E0F54091A401E4
:100560005091A501443F5140B8F140919C015091F8
:100570009D01443F514090F1853F914088F5243FD3
:10058000314050F480E0089561E08CE991E00E94F0
:10059000D10B83E50E9452018091A4019091A501A5
:1005A0008039914088F780919C0190919D0180391C
:1005B000914050F782E0089587E0089586E008951D
:1005C00083E0089585E0089584E0089581E008952A
:1005D00080E0089580E0089580E0089580E0089527
:1005E00080E00895CF93DF93EC010E94290280936D
:1005F000940190E08930910500F5FC01EC5CFF4F1F
:100600000C946C118CE40E9452018CE48093A6013E
:1006100014C082E50E94520182E58093A6010DC0BC
:1006200083E58093A60183E50E94520106C084E51C
:100630000E94520184E58093A601FE0132978081D9
:10064000843599F6FE0101900020E9F73197EC1B03
:10065000FD0B3397EC0FFD1F1082FE013397808155
:100660008C3441F4329690819C3421F483E580935C
:10067000A6012BC0833549F4FE01319790819C344B
:1006800021F482E58093A60120C0823549F4FE0161
:10069000319790819C3421F484E58093A60115C0A4
:1006A0008C3449F4FE0131979081923521F484E530
:1006B0008093A6010AC08C3441F4FE0131978081F9
:1006C000833519F482E58093A60141E050E066EAA3
:1006D00071E0CE010E94EC1288CF0E941C0580E0E0
:1006E000DF91CF910895FC0120813181FB01408190
:1006F0005181FC0151834083FB01318320830895A4
:100700006F927F928F929F92AF92BF92CF92DF9221
:10071000EF92FF920F931F93CF93DF936C013B01F6
:100720004A01A12CB12C30C07E01EE0CFF1CF60159
:10073000EE0DFF1D208131818E010F5F1F4F000FD5
:10074000111FD601A00FB11F8D919C911197821797
:10075000930764F4BD01CF010E947303B301600FDE
:10076000711FC3018E0D9F1D0E947303219602C04D
:10077000C0E0D0E0C4018A199B090197C817D907C6
:100780009CF28FEFA81AB80AC4010197A816B906FF
:100790007CF3DF91CF911F910F91FF90EF90DF904D
:1007A000CF90BF90AF909F908F907F906F90089563
:1007B000EF92FF920F931F93CF93DF937C0183E51A
:1007C0000E94520100E010E0C1E0D0E01AC00E9497
:1007D00029029927009721F00397069728F011C066
:1007E00083E50E9452010DC00F5F1F4F83E50E94F9
:1007F00052010E151F0529F48EE40E945201C0E03B
:10080000D0E0209721F7DF91CF911F910F91FF90BA
:10081000EF900895CF938FE090E00E948F0B03C07C
:100820000E942902C82FC111FBCF8EE40E94520101
:10083000CF910895EF92FF920F931F93CF93C82FFC
:100840008B01EE24E394F12C9AC0F80184818E345C
:1008500059F018F4853451F18CC0833509F448C03F
:10086000873509F466C085C0C53449F482E50E9425
:1008700052010E940A0485E4F80184837AC0C735D6
:1008800049F48CE40E9452010E940A0487E5F801B1
:1008900084836FC0C33509F06CC084E50E945201A7
:1008A0000E940A0483E5F801848363C0C33549F4D8
:1008B00082E50E9452010E940A0483E5F8018483C4
:1008C00058C0C73549F48CE40E9452010E940A04C2
:1008D00087E5F80184834DC0C33509F04AC084E53B
:1008E0000E9452010E940A0483E5F801848341C0FA
:1008F000C73549F482E50E9452010E940A0487E547
:10090000F801848336C0C53449F48CE40E94520156
:100910000E940A0485E4F80184832BC0CE3449F593
:1009200084E50E9452010E940A048EE4F801848347
:1009300020C0CE3449F482E50E9452010E940A048C
:100940008EE4F801848315C0C33549F48CE40E9419
:1009500052010E940A0483E5F80184830AC0C53469
:1009600041F484E50E9452010E940A0485E4F801E2
:100970008483F8018481C81302C0E12CF12CF1E0DA
:10098000EF16F10409F461CFCF911F910F91FF9001
:10099000EF9008950F931F93CF93DF93FB01208176
:1009A000318128173907D1F08B01EC01281739075D
:1009B0005CF487E50E941A04F801808191819E0110
:1009C000281B390BC90108C085E40E941A04F801EC
:1009D000808191818C1B9D0B0E94D803DF91CF9168
:1009E0001F910F9108950F931F93CF93DF93FB01F6
:1009F0002281338128173907D1F08B01EC012817A8
:100A000039075CF48EE40E941A04F8018281938114
:100A10009E01281B390BC90108C083E50E941A04F6
:100A2000F801828193818C1B9D0B0E94D803DF917A
:100A3000CF911F910F9108954F925F926F927F9285
:100A40008F929F92AF92BF92EF92FF920F931F935C
:100A5000CF93DF93CDB7DEB769970FB6F894DEBFBB
:100A60000FBECDBF87E58D838FEF9FEF9A8389837C
:100A70001C821B828AE0EAE0F1E0DE01169601901A
:100A80000D928A95E1F78AE0E4E1F1E0DE0150960B
:100A900001900D928A95E1F745E050E0BE01605F5C
:100AA0007F4FCE0106960E948003E12CF12C5AC0A4
:100AB000B7010F2C000C880B990B0E94F1062B013B
:100AC0003C018701000F111F81E090E08C0F9D1FFA
:100AD000080F191FBC01F801858196810E94CA0484
:100AE000F801858196819A838983BE016F5F7F4F6C
:100AF000878590890E94F304F801878590899C83FB
:100B00008B8388EE93E00E948F0B0E945D004B0167
:100B10005C0120E030E040E85FE3C301B2010E94E5
:100B2000DB0520E030E040EA50E40E94470620E088
:100B300030E048EC52E40E947D072B013C01C501E6
:100B4000B4010E94B9064B015C01C301B2010E94CD
:100B5000B906DC01CB0142E0B4010E947F00FFEF47
:100B6000EF1AFF0A85E0E816F1040CF4A1CFBE01EC
:100B70006F5F7F4F80E090E00E94F304BE016F5FE3
:100B80007F4F80E090E00E94CA0469960FB6F89407
:100B9000DEBF0FBECDBFDF91CF911F910F91FF90B0
:100BA000EF90BF90AF909F908F907F906F905F90ED
:100BB0004F9008955058BB27AA270E94F2050C9425
:100BC00043070E94350738F00E943C0720F039F4B3
:100BD0009F3F19F426F40C9432070EF4E095E7FBDE
:100BE0000C942C07E92F0E94540758F3BA17620798
:100BF00073078407950720F079F4A6F50C9476071F
:100C00000EF4E0950B2EBA2FA02D0B01B901900127
:100C10000C01CA01A0011124FF27591B99F0593F6B
:100C200050F4503E68F11A16F040A22F232F342FB3
:100C30004427585FF3CF469537952795A795F04001
:100C40005395C9F77EF41F16BA0B620B730B840B16
:100C5000BAF09150A1F0FF0FBB1F661F771F881FCE
:100C6000C2F70EC0BA0F621F731F841F48F4879526
:100C700077956795B795F7959E3F08F0B0CF939518
:100C8000880F08F09927EE0F9795879508950E9491
:100C90005B060C9443070E943C0758F00E943507FE
:100CA00040F029F45F3F29F00C942C0751110C946B
:100CB00077070C9432070E94540768F39923B1F325
:100CC000552391F3951B550BBB27AA276217730772
:100CD000840738F09F5F5F4F220F331F441FAA1F06
:100CE000A9F335D00E2E3AF0E0E832D091505040C2
:100CF000E695001CCAF72BD0FE2F29D0660F771F70
:100D0000881FBB1F261737074807AB07B0E809F055
:100D1000BB0B802DBF01FF2793585F4F3AF09E3FDA
:100D2000510578F00C942C070C9477075F3FE4F39F
:100D3000983ED4F3869577956795B795F7959F5F1D
:100D4000C9F7880F911D9695879597F90895E1E069
:100D5000660F771F881FBB1F621773078407BA07C8
:100D600020F0621B730B840BBA0BEE1F88F7E09523
:100D700008950E94C0066894B1110C9477070895F5
:100D80000E945C0788F09F5798F0B92F9927B751B8
:100D9000B0F0E1F0660F771F881F991F1AF0BA951F
:100DA000C9F714C0B13091F00E947607B1E0089500
:100DB0000C947607672F782F8827B85F39F0B93FF2
:100DC000CCF3869577956795B395D9F73EF49095D2
:100DD0008095709561957F4F8F4F9F4F0895E89450
:100DE00009C097FB3EF490958095709561957F4F73
:100DF0008F4F9F4F9923A9F0F92F96E9BB27939521
:100E0000F695879577956795B795F111F8CFFAF430
:100E1000BB0F11F460FF1BC06F5F7F4F8F4F9F4F61
:100E200016C0882311F096E911C0772321F09EE8BF
:100E3000872F762F05C0662371F096E8862F70E025
:100E400060E02AF09A95660F771F881FDAF7880FFF
:100E50009695879597F9089597F99F6780E870E0D0
:100E600060E008959FEF80EC089500240A94161620
:100E7000170618060906089500240A941216130688
:100E8000140605060895092E0394000C11F4882316
:100E900052F0BB0F40F4BF2B11F460FF04C06F5F32
:100EA0007F4F8F4F9F4F089557FD9058440F551F08
:100EB00059F05F3F71F04795880F97FB991F61F0DC
:100EC0009F3F79F087950895121613061406551F53
:100ED000F2CF4695F1DF08C0161617061806991FBF
:100EE000F1CF86957105610508940895E894BB27B4
:100EF00066277727CB0197F908950E9490070C94F5
:100F000043070E94350738F00E943C0720F09523E4
:100F100011F00C942C070C94320711240C947707D1
:100F20000E94540770F3959FC1F3950F50E0551F31
:100F3000629FF001729FBB27F00DB11D639FAA272E
:100F4000F00DB11DAA1F649F6627B00DA11D661F7D
:100F5000829F2227B00DA11D621F739FB00DA11D9E
:100F6000621F839FA00D611D221F749F3327A00D58
:100F7000611D231F849F600D211D822F762F6A2FF4
:100F800011249F5750409AF0F1F088234AF0EE0F59
:100F9000FF1FBB1F661F771F881F91505040A9F786
:100FA0009E3F510580F00C942C070C9477075F3F0F
:100FB000E4F3983ED4F3869577956795B795F795C2
:100FC000E7959F5FC1F7FE2B880F911D969587953A
:100FD00097F90895ECE7F0E080818F7D8083089594
:100FE000811103C00E94EA07089580917C0080620D
:100FF00080937C00089580917C0085FB882780F990
:1010000008950E94FB07882321F08091790090E0E9
:101010000895809178009091790008958032A0F42D
:1010200097E890937A0090917C00662311F0906C81
:1010300002C09F779064907E982B90937C00809163
:101040007A00806480937A000895A0E0B0E0EBE23B
:10105000F8E00C949E11EB0160E00E940E08809174
:101060007A0086FDFCCF8E01C12CD12C76018091B7
:101070007A00806480937A0080917A0086FDFCCFAC
:101080000E940108C80ED91EE11CF11C0150110973
:101090000115110561F7CE0196958795C034D105EC
:1010A00038F48C0D9D1DBE010E941711CB010EC09E
:1010B000A7019601280F391F411D511DCA01B90111
:1010C0009E0140E050E00E942B11C901CDB7DEB770
:1010D000E8E00C94BA11CF92DF92EF92FF92A091C8
:1010E0000001B09101019C010E9472116B017C0111
:1010F0000E94FB07882359F0C701B60161587F4F52
:101100008F4F9F4F2FEF30E040E050E00AC0C70103
:10111000B60161507E4F8F4F9F4F2FEF33E040E07D
:1011200050E00E942B11C901FF90EF90DF90CF900B
:1011300008950E9425080E946B0808951F93CF937D
:10114000DF930E94FB07182F0E94EA076AE070E015
:1011500086E00E949908EC01812F0E94F007CE01E1
:10116000880F991F8C0F9D1F019696958795DF918B
:10117000CF911F9108950E949E08089581E090E00C
:101180006F9364E06A95F1F76F910197C9F708953D
:101190000F931F93CF93DF931AB157985A98289AB9
:1011A000C0E0D0E00E94BE085C9A0E94BE0809B16F
:1011B0005C980E94BE085C9A0E94BE085C982496C7
:1011C00007FF10C0AE0160E070E080913A0190919D
:1011D0003B01A0913C01B0913D01481759076A07B6
:1011E0007B0700F31AB9DF91CF911F910F910895FA
:1011F00095B1282F217030E0220F331F482F467001
:1012000068E0469FA0011124242B9D7C292B25B941
:101210009BB188708295807F9F77892B8BB95C9A70
:101220000E94BE085C980E94BE080895A0E0B0E04D
:10123000ECE1F9E00C949F11C82FD62EE42E80919A
:101240009501811105C081E0809395010E945C09A0
:101250000E94C80814B1D5B1FAB00BB12898DD20AE
:1012600011F05A9A01C05A9894B1926394B9579A5E
:1012700081E0E81629F08C2F82958F700E94F80883
:101280008C2F8F700E94F808FAB80BB914B9D5B931
:10129000CDB7DEB7E7E00C94BB1142E060E00E94FE
:1012A0001609089542E061E00E941609089541E0A0
:1012B00060E00E941609089580E197E2A0E0B0E0A6
:1012C00080933A0190933B01A0933C01B0933D0180
:1012D000529A209A549A8EE190E00E948F0B83E0FC
:1012E0000E94570986E090E00E948F0B83E00E94E5
:1012F000570982E090E00E948F0B83E00E9457091B
:1013000082E090E00E948F0B82E00E94570982E009
:1013100090E00E948F0B88E20E944D0988E00E94B5
:101320004D0981E00E944D0986E00E944D098CE044
:101330000E944D09089581E00E944D09809140016D
:1013400090914101892BF9F060E0A0E2262F30E076
:10135000709102018091030190E00197789FA001B4
:10136000799F500D1124241735074CF4E09140016A
:10137000F0914101E20FF31FA0836F5FE7CF10925E
:101380003E0110923F0108950E949B090895CF935A
:10139000DF93EC018991882319F00E945209FACF5A
:1013A000DF91CF9108950E94C7090895AAE0B0E0A7
:1013B000ECEDF9E00C949E111AE05AE0C52ED12C08
:1013C000E12CF12C062FA70196010E942B11CA01D6
:1013D000B9011150E1E0F0E0EC0FFD1FE10FF11D4C
:1013E000005D2AE0629F00191124008361157105D8
:1013F0008105910539F71A3058F4E1E0F0E0EC0F7F
:10140000FD1FE10FF11D80810E9452091F5FF3CF84
:101410002A96E8E00C94BA11CF92DF92EF92FF92F5
:101420006B017C0197FF0BC0F094E094D094C094C2
:10143000C11CD11CE11CF11C8DE20E945209C701A4
:10144000B6010E94D609FF90EF90DF90CF900895EB
:101450000E940C0A0895A5E0B0E0E1E3FAE00C94E4
:10146000A311182F80E8898380EC8A8384E98B8319
:1014700084ED8C83FE01E60FF11D8181810F6D8368
:101480000E944D0910933E016D8160933F012596A6
:10149000E3E00C94BF110E942B0A0895883058F4A1
:1014A00091E001C0990F8A95EAF7892FAAE2B0E08E
:1014B000EBE2F0E021C08E3060F498EF980F81E00D
:1014C00001C0880F9A95EAF7A4E2B0E0E5E2F0E007
:1014D00013C0853160F492EF980F81E001C0880F4E
:1014E0009A95EAF7A7E2B0E0E8E2F0E005C080E014
:1014F000A0E0B0E0E0E0F0E06F3F19F490819827C1
:1015000009C0662319F09081982B04C02081982F80
:101510009095922390839C91982B9C93089583EFB0
:101520008093B00084BD82E08093B10085BD1092AD
:10153000B4001092B30018BC17BC60E086E00E94B3
:101540004E0A60E085E00E944E0A60E08BE00E9457
:101550004E0A60E083E00E944E0A08958091960151
:10156000811105C081E0809396010E948F0A089541
:10157000CF93DF93EC010E94AE0AD7FF05C0D1954F
:10158000C195D10981E001C080E0CF3FD10519F0BC
:1015900014F0CFEFD0E0882319F018BCC7BD02C00B
:1015A000C8BD17BCDF91CF910895CF93DF93EC01B5
:1015B0000E94AE0AD7FF05C0D195C195D10981E03F
:1015C00001C080E0CF3FD10519F014F0CFEFD0E09B
:1015D000882329F01092B400C093B30004C0C093D4
:1015E000B4001092B300DF91CF910895CF93DF93B1
:1015F000EB010E94B80ACE010E94D50ADF91CF917B
:1016000008950E94F60A089584B18D7C84B985B14D
:10161000826385B985E090E06F9364E06A95F1F7A5
:101620006F910197C9F7089580919701811105C0C5
:1016300081E0809397010E94040B0895CF93C82FF7
:101640000E94140B83B18C23E9F38AE090E00E949E
:101650008F0B83B18C23B1F383B18C23CF91089589
:101660000E941E0B0895A1E0B0E0E9E3FBE00C94BA
:10167000A41189830E94140B93B1909589818923C9
:101680002196E2E00C94C0110E94330B08952F9232
:101690008F939F932FB68091490190914A010196B3
:1016A0008093490190934A0190E080914B01891FFA
:1016B00080934B01909143019C5F909343018091F3
:1016C000420180519742C0F09093430180934201C0
:1016D000809144019091450101968093440190933B
:1016E000450190E080914601891F809346018091D9
:1016F0004701891F809347012FBE9F918F912F90A3
:10170000189528EE33E0019748F0F9016F9364E0F3
:101710006A95F1F76F913197C9F7F5CF08950E9457
:10172000810B0895E0E7F0E080818E7F8083A0EB5D
:10173000B0E08C9183608C93A1EBB0E08C91807FC2
:101740008C938C9182608C93B89A80818160808325
:101750007894089580919801811105C081E080936B
:1017600098010E94920B08950E94AA0BE0E7F0E016
:1017700080818E7F808310924401109245011092E7
:10178000460110924701109243011092420180815C
:10179000816080830895682F8CE491E00E94B30FEC
:1017A0000895462F20E0BC018CE491E00E94841053
:1017B00008950F93CF93DF9300D000D01F92CDB741
:1017C000DEB79C0185E0EEE1F1E0DE0111960190CB
:1017D0000D928A95E1F7662311F00FEF01C003E146
:1017E00045E0BE016F5F7F4F8CE491E00E94AB0C3F
:1017F0008CE491E00E94820C0E94B40B0F900F9039
:101800000F900F900F90DF91CF910F91089560E0AE
:101810000E94D90B08958CE491E00E94F91008957C
:101820006F9364E06A95F1F76F910197C9F7089596
:10183000FC01118210821382128215821482168298
:10184000683068F489E290E0918380838BE290E0D5
:10185000938382838AE290E0958384831FC06E30F5
:1018600070F483E290E09183808385E290E093833B
:10187000828384E290E09583848368500FC0653151
:1018800098F486E290E09183808388E290E09383ED
:10189000828387E290E0958384836E5081E001C06B
:1018A000880F6A95EAF786830895A7E0B0E0EBE534
:1018B000FCE00C94A2118C01FC01118210821382B5
:1018C00012821582148217821682613118F080E12B
:1018D000808702C0FC016087F801208B642FCE0155
:1018E00001960E94180C8F81F80181878B819C8161
:1018F000938782878D819E81958784872796E4E0F0
:101900000C94BE11FC01A485B585109779F08C91DB
:101910009185892B8C93A285B3859C918185809537
:1019200089238C9388EC90E00E94100C0895FC01B0
:10193000A485B585109771F08C919185892B8C9336
:10194000A285B3858C919185892B8C9388EC90E04E
:101950000E94100C0895A7E0B0E0E1EBFCE00C94CD
:1019600097117C014B01642F3901402F20E00E9428
:10197000550C87010F5B1F4FF80110826701F2E4DD
:10198000CF0ED11CF60110825701F3E4AF0EB11C4B
:10199000F5011082F70177866686512CF701808564
:1019A000581650F5652C712CF401E60DF71D608179
:1019B000CE0101960E94180C2F81F701E60DF71D4C
:1019C000218B89819A81F301EE0FFF1FEE0DFF1D20
:1019D00092A381A38332910511F4F80108C08632E5
:1019E000910511F4F60103C0899721F4F501808176
:1019F000822B80835394D2CF2796EFE00C94B311BF
:101A0000A0E0B0E0E6E0FDE00C949911EC015B0190
:101A10006C0181E4C80ED11CF60180807E01F2E4E5
:101A2000EF0EF11CF70170808E010D5B1F4FF80166
:101A3000908080E09885891748F4F501E80FF11D42
:101A4000E80FF11D118210828F5FF4CF84B1F6018F
:101A50009081892B84B987B1F7019081892B87B94F
:101A60008AB1F8019081892B8AB985B1F6019081FC
:101A7000892B85B988B1F7019081892B88B98BB101
:101A8000F8019081892B8BB98AE090E00E94100CBC
:101A900094B1F60180818095892384B997B1F701CB
:101AA00080818095892387B99AB1F80180818095DA
:101AB00089238AB995B1F60180818095892385B9FA
:101AC00098B1F70180818095892388B99BB1F8018D
:101AD0008081809589238BB9E090B000D090B100CF
:101AE0008091B00083608093B00082E08093B10069
:101AF0004091B20080E090E02E853F8582179307E9
:101B000020F5C090B2002C2D241B820F911D03B133
:101B1000081132C0F6B0F7102FC029B129112CC01E
:101B200010C0212F30E0A901440F551FF501E40F2B
:101B3000F51F60817181672B21F11F5F28851217C6
:101B400080F37F2C802E4C2DD7CFE092B000D09226
:101B5000B10020E08885281730F5F501E20FF11D6E
:101B6000E20FF11D80819181892B21F48E859F8563
:101B7000918380832F5FEECF03B1F6B099B010E070
:101B8000DDCFDE01A40FB51F91960D90BC91A02D65
:101B90004C91DE01A20FB31F51962C91422369F69E
:101BA00091838083CACFCDB7DEB7EDE00C94B51139
:101BB000EF92FF920F931F93CF93DF93FC019B0152
:101BC000F0907C0000917A0047B118B180917A00C2
:101BD00086FDFCCF80E09085891748F4D901A80FD5
:101BE000B11DA80FB11D1D921C928F5FF4CF97B14C
:101BF00082A18095892387B998B182A18095892394
:101C000088B987E880937A00E12C81A1E81610F06A
:101C1000E12C29C050E08085581718F5A52FB0E0B9
:101C2000EF01CA0FDB1F8989806480937C0080915B
:101C30007A00806480937A0080917A0086FDFCCFE0
:101C40006091780070917900AA0FBB1FA20FB31F9B
:101C50008D919C911197860F971F8D939C935F5F39
:101C6000DACFE394D2CF8085E816A0F4E901CE0D57
:101C7000D11DCE0DD11D61A170E0CB019595879549
:101C8000A881B9818A0F9B1F0E94171179836883ED
:101C9000E394E9CFF0927C0000937A0018B947B939
:101CA000CDB7DEB7E6E00C94BC11A0E2B0E0EBE506
:101CB000FEE00C949F118C017B01D42E8FEF840FDA
:101CC000823018F4C8010E94970CD80150968C916C
:101CD000B701811110C0C8010E94000DC8010E9407
:101CE000820CB2E0DB123AC0BE016F5F7F4FC801C9
:101CF0000E94000D0FC0C8010E94D80DC8010E94AB
:101D0000820CE2E0DE122AC0BE016F5F7F4FC80185
:101D10000E94D80D40E0F80180854817F8F4842F20
:101D200090E0880F991FF701E80FF91F21E030E0DC
:101D30002C0F3D1F820F931FD8011E962D913C91B1
:101D40001F97DC018D919C91281B390B808191811B
:101D5000820F931F918380834F5FDDCFA096E7E0D2
:101D60000C94BB112F923F925F926F927F928F9251
:101D70009F92AF92BF92CF92DF92EF92FF920F931A
:101D80001F93CF93DF93CDB7DEB7C056D1090FB6FF
:101D9000F894DEBF0FBECDBF8C014B015A01522E0D
:101DA000DA018D919C91892B31F0F4018081918130
:101DB000892BF1F424C0D80118968C9190E0880FFB
:101DC000991F0E94CB11F50191838083009709F43C
:101DD000B1C0FC0120E030E0D80118968C9190E071
:101DE0002817390714F7119211922F5F3F4FF4CF44
:101DF000E12CF12C6E01B1E2CB0ED11C21C0F80117
:101E0000808590E0880F991F0E94CB11D4018D939B
:101E10009C93009709F48EC0FC0120E030E0D801CB
:101E200018968C9190E02817390714F7D8011E9660
:101E30008D919C911F97819391932F5F3F4FEFCF8F
:101E4000452DBE016F5B7F4FC8010E94550EF80102
:101E50006084712CFE01EF5BFF4FC6019E012F5F76
:101E60003F4F190120E030E0261537054CF5E1140D
:101E7000F10489F0DC016D917C91408151816417FE
:101E8000750748F0D1016D917C91408151814617D1
:101E9000570748F00DC040815181DC014D935C93A0
:101EA000E114F10479F740815181D1014D935C93A4
:101EB0002F5F3F4FB2E02B0E311C32960296D4CFEB
:101EC000EFEFEE1AFE0AFAE0EF16F10409F0B8CFD0
:101ED0009E012F5F3F4F7901360180E090E0F801CD
:101EE000208530E0821793072CF5D7012D913D9185
:101EF0007D01B3016C197D09D501ED91FC91E60FCF
:101F0000F71F408151814217530710F4318320831A
:101F1000F301219131913F01D401ED91FC91E60F44
:101F2000F71F408151812417350710F43183208336
:101F30000196D5CFC05ADF4F0FB6F894DEBF0FBE63
:101F4000CDBFDF91CF911F910F91FF90EF90DF9068
:101F5000CF90BF90AF909F908F907F906F905F9049
:101F60003F902F9008951F93CF93DF93EC01162F8E
:101F70008FEF860F823018F0662359F014C021E0ED
:101F8000AE014E5F5F4FBE01CE010E94B20E123015
:101F900051F4AE014A5F5F4FBE016C5F7F4F20E09E
:101FA000CE010E94B20EDF91CF911F910895A0E063
:101FB000B0E0EDEDFFE00C949D11EC018B01B42E2F
:101FC000842F8D7F51F48C819D81892B09F497C0DA
:101FD0008E819F81892B09F492C08FEF8B0D823007
:101FE00050F488819981892B09F489C08A819B8169
:101FF000892B09F484C04B2DB801CE010E94550EE7
:10200000780100E010E0C12CD12C888590E0C81642
:10201000D9060CF074C081E0B8120AC0EA81FB81D5
:10202000E00FF11F0190F081E02DA881B9810DC072
:102030008C819D812E813F81B1100CC0F901E00F90
:10204000F11F0190F081E02DDC01A00FB11F8D91F7
:102050009C9128C0FC01E00FF11F40815181E88173
:10206000F981E00FF11F80819181EE85FF8548178E
:10207000590710F4CF0104C08E0F9F1F841B950BCE
:10208000D901A00FB11F2D913C91AA81BB81A00F56
:10209000B11F4D915C912417350720F0E40FF51F17
:1020A000E21BF30BE81BF90BA9F0D7012D913C9132
:1020B00040E050E0281B390B41095109A8EEB3E07C
:1020C0000E9481119F0140E050E00E944D1137FDB8
:1020D0000AC002C020E030E0293EB3E03B072CF00C
:1020E00028EE33E002C020E030E0F7012193319385
:1020F0007F01FFEFCF1ADF0A0E5F1F4F86CFCDB7EC
:10210000DEB7E9E00C94B911A0E0B0E0EAE8F0E154
:102110000C949411EC018B01822E0E94D70F28841D
:10212000E801412C512C320100E010E0C12CD12CEF
:102130007601312C912C58EEA52E53E0B52E921439
:1021400021F1E991F991882021F0C5018E1B9F0BA7
:10215000FC01E93CF10524F4E333F10574F002C01D
:1021600033243394DF01A30192010E948C11C60E27
:10217000D71EE81EF91E0E0F1F1F939498EE490EEE
:1021800093E0591E611C711CDACF31101EC0492D1D
:1021900050E04150510924EF31E0429FC001439F7C
:1021A000900D529F900D112420919001309191013A
:1021B00028173907B4F088EE93E0489F9001499FB3
:1021C000300D589F300D11240EC0980140E050E0B2
:1021D000C701B6010E942B11309391012093900109
:1021E00002C020E030E0C901CDB7DEB7E2E10C94D7
:1021F000B011CF93DF93EC018A819B81009711F09E
:102200000E9463128E819F81009711F00E946312D9
:1022100088819981009711F00E9463128C819D81C1
:10222000009711F00E946312DF91CF910895AA1BCD
:10223000BB1B51E107C0AA1FBB1FA617B70710F0B1
:10224000A61BB70B881F991F5A95A9F780959095E3
:10225000BC01CD010895A1E21A2EAA1BBB1BFD01F2
:102260000DC0AA1FBB1FEE1FFF1FA217B307E40775
:10227000F50720F0A21BB30BE40BF50B661F771FCD
:10228000881F991F1A9469F76095709580959095AD
:102290009B01AC01BD01CF010895052E97FB1EF4F3
:1022A00000940E94641157FD07D00E942B1107FC77
:1022B00003D04EF40C9464115095409530952195BF
:1022C0003F4F4F4F5F4F0895909580957095619562
:1022D0007F4F8F4F9F4F0895EE0FFF1F0590F49192
:1022E000E02D0994A29FB001B39FC001A39F700D80
:1022F000811D1124911DB29F700D811D1124911D0E
:1023000008950E947211A59F900DB49F900DA49FF7
:10231000800D911D11240895B7FF0C9481110E9426
:102320008111821B930B08952F923F924F925F92DF
:102330006F927F928F929F92AF92BF92CF92DF92D5
:10234000EF92FF920F931F93CF93DF93CDB7DEB73A
:10235000CA1BDB0B0FB6F894DEBF0FBECDBF0994CE
:102360002A88398848885F846E847D848C849B8425
:10237000AA84B984C884DF80EE80FD800C811B8133
:10238000AA81B981CE0FD11D0FB6F894DEBF0FBE62
:10239000CDBFED0108950F931F93CF93DF9382304C
:1023A000910510F482E090E0E091A901F091AA017A
:1023B00020E030E0A0E0B0E0309719F14081518199
:1023C0000281138148175907C8F08417950769F4EB
:1023D000109731F012960C93129713961C9327C006
:1023E0000093A9011093AA0122C02115310519F00B
:1023F0004217530718F49A01BD01EF01DF01F801FC
:10240000DBCF21153105F9F0281B390B24303105BC
:1024100080F48A819B816115710521F0FB01938312
:10242000828304C09093AA018093A901FE01329691
:1024300044C0FE01E20FF31F8193919322503109B2
:10244000398328833AC02091A7013091A801232B1A
:1024500041F420910601309107013093A8012093A7
:10246000A70120910401309105012115310541F4A6
:102470002DB73EB74091080150910901241B350B3F
:10248000E091A701F091A801E217F307A0F42E1B39
:102490003F0B2817390778F0AC014E5F5F4F2417C8
:1024A000350748F04E0F5F1F5093A8014093A701D6
:1024B0008193919302C0E0E0F0E0CF01DF91CF91F2
:1024C0001F910F910895CF93DF93009709F481C076
:1024D000FC01329713821282A091A901B091AA0146
:1024E000109781F420813181820F931F2091A701E1
:1024F0003091A8012817390751F5F093A801E0930E
:10250000A70167C0ED0120E030E0CE17DF0740F4FF
:102510004A815B819E0141155105F1F0EA01F5CF39
:10252000D383C28340815181840F951FC817D90777
:1025300059F488819981840F951F02969183808335
:102540008A819B81938382832115310529F4F0933D
:10255000AA01E093A9013DC0E901FB83EA83499107
:102560005991C40FD51FEC17FD0761F4808191814B
:10257000840F951F0296E901998388838281938154
:102580009B838A83E0E0F0E012968D919C911397F3
:10259000009719F0FD01DC01F7CF8D919C91119707
:1025A0009D012E5F3F4F820F931F2091A701309115
:1025B000A8012817390769F4309729F41092AA0165
:1025C0001092A90102C013821282B093A801A093B5
:1025D000A701DF91CF910895FB01DC010D90002050
:1025E000E9F711974150504028F0019000200D92DA
:1025F000C9F708951C92089510E0CDE3D0E004C01F
:10260000FE010E946C112196CE33D107C9F7F894D0
:02261000FFCFFA
:10261200881308020000AB01200000000300010043
:1026220002000400010002000300030004000E0F78
:102632001011124A6F623A0025004261743A004D4D
:0A2642000050004F00430048000064
:00000001FF
