:100000000C9435000C9452000C9452000C94520045
:100010000C9452000C9452000C9452000C94520018
:100020000C9452000C940B080C9452000C94520047
:100030000C9452000C9452000C9452000C945200F8
:100040000C9452000C9452000C9452000C945200E8
:100050000C9452000C9452000C9452000C945200D8
:100060000C9452000C945200CF0811241FBECFEF05
:10007000D8E0DEBFCDBF11E0A0E0B1E0E2EAFFE1F1
:1000800002C005900D92A234B107D9F721E0A2E495
:10009000B1E001C01D92A13BB207E1F70E94B5009B
:1000A0000C94C40F0C9400000E947F0562E370E082
:1000B0000E94EF0DCB010895EF92FF920F931F93D3
:1000C000CF937C018B01C42F0E94880660E080E002
:1000D0000E940F078BE291E00E949706B701FF0C88
:1000E000880B990B0E94EC0681E391E00E94970631
:1000F00061E080E00E940F0783E391E00E94970691
:10010000B801110F880B990B0E94EC0681E391E076
:100110000E949706C230A9F028F4CC2341F0C130E8
:1001200059F01DC0C33091F0C430A9F018C088E365
:1001300091E00E94970613C08AE391E00E9497061F
:100140000EC08CE391E00E94970609C08EE391E017
:100150000E94970604C080E491E00E949706CF9128
:100160001F910F91FF90EF9008950E94BC000E9494
:100170003D0480E090E00895CF93DF9380ED97E019
:100180000E94CB0880E10E9408088823D9F380E10F
:100190000E94F40788EE93E00E945308C0E0D0E08C
:1001A00019C0CE014497889738F068ED7FEF88E258
:1001B00090E00E94C50706C068E270E088ED9FEFFE
:1001C0000E94C50781E00E948F0884E190E00E94B0
:1001D00053082196C035D10520F360E070E080E03F
:1001E00090E00E94C50780E10E9408088823D9F3A7
:1001F00080E10E94F4070E948806DF91CF91089564
:1002000062E370E082E390E00E94C50788EC90E032
:100210000E94530860E070E080E090E00E94C50713
:100220000895CF93C82F61E083EA91E00E9495087A
:10023000CE3439F460E070E080E090E00E94C507C1
:10024000B1C0CC3409F562E370E08EEC9FEF0E9400
:10025000C50705C061E083EA91E00E94950880919E
:10026000A7019091A801843F9140A0F705C061E0EB
:1002700083EA91E00E9495088091A7019091A801DE
:10028000853F9140A0F38EC0C23509F56EEC7FEF3B
:1002900082E390E00E94C50705C061E083EA91E037
:1002A0000E9495088091A7019091A801843F9140F8
:1002B000A0F705C061E083EA91E00E949508809173
:1002C000A7019091A801853F9140A0F36BC0C33571
:1002D00089F562E370E082E390E00E94C5078091B7
:1002E000A9019091AA018039914068F08091AB01F9
:1002F0009091AC018139914030F468E270E084E67D
:1003000090E00E94C5078091A5019091A6018039D7
:10031000914008F447C08091A3019091A4018139D4
:10032000914008F03FC064E670E088E290E00E94EF
:10033000C50738C0C23409F56EEC7FEF8EEC9FEF35
:100340000E94C5078091A9019091AA01803991402E
:1003500030F069EC7FEF8EEC9FEF0E94C507809133
:10036000A5019091A60180399140E0F06EEC7FEFFD
:1003700089EC9FEF0E94C50715C0C43599F46BE462
:1003800070E085EB9FEF0E94C50705C061E083EA3E
:1003900091E00E9495088091A7019091A801843F67
:1003A0009140A0F7CF91089561E083EA91E00E9427
:1003B00095088091A5019091A601843F21E09207C4
:1003C000C0F02091A9013091AA01243F314088F06A
:1003D0000E94000161E083EA91E00E94950880910B
:1003E000A7019091A801843F914008F490C088E053
:1003F0000895843F21E0920700F12091A3013091FC
:10040000A401243F3140C8F00E94000161E083EA6A
:1004100091E00E9495088091A7019091A801843FE6
:10042000914008F076C08091A9019091AA01843F83
:10043000914008F470C086E008954091A901509160
:10044000AA01443F61E0560700F12091AB013091D1
:10045000AC01243F3140C8F00E94000161E083EA12
:1004600091E00E9495088091A7019091A801843F96
:10047000914008F052C08091A5019091A601843F5F
:10048000914008F44CC085E008952091A701309177
:10049000A801293C310508F444C0243F61E0360737
:1004A00008F482CF243F61E03607E8F1453F514030
:1004B000E0F54091AB015091AC01443F5140B8F19F
:1004C0004091A3015091A401443F514090F1853FD8
:1004D000914088F5243F314050F480E0089561E078
:1004E00083EA91E00E94950883E50E9411018091C2
:1004F000AB019091AC018039914088F78091A301C4
:100500009091A4018039914050F782E0089587E0EE
:10051000089586E0089583E0089585E0089584E0D5
:10052000089581E0089580E0089580E0089580E0D6
:10053000089580E0089580E00895FC0120813181D4
:10054000FB0140815181FC0151834083FB013183D8
:10055000208308956F927F928F929F92AF92BF9265
:10056000CF92DF92EF92FF920F931F93CF93DF937F
:100570006C013B014A01A12CB12C30C07E01EE0C74
:10058000FF1CF601EE0DFF1D208131818E010F5FF2
:100590001F4F000F111FD601A00FB11F8D919C910D
:1005A00011978217930764F4BD01CF010E949D0249
:1005B000B301600F711FC3018E0D9F1D0E949D022C
:1005C000219602C0C0E0D0E0C4018A199B090197BE
:1005D000C817D9079CF28FEFA81AB80AC40101976F
:1005E000A816B9067CF3DF91CF911F910F91FF9070
:1005F000EF90DF90CF90BF90AF909F908F907F90C3
:100600006F900895EF92FF920F931F93CF93C82F8F
:100610008B01EE24E394F12C80C0F80184818E34A8
:1006200051F018F4853419F172C08335D9F187354A
:1006300009F453C06CC0C53439F482E50E9411013D
:1006400085E4F801848363C0C73539F48CE40E94E3
:10065000110187E5F80184835AC0C33509F057C0FA
:1006600084E50E94110183E5F801848350C0C335FD
:1006700039F482E50E94110183E5F801848347C0C3
:10068000C73539F48CE40E94110187E5F8018483B1
:100690003EC0C335E1F584E50E94110183E5F80110
:1006A000848335C0C73539F482E50E94110187E59E
:1006B000F80184832CC0C53439F48CE40E94110104
:1006C00085E4F801848323C0CE3409F584E50E94D3
:1006D00011018EE4F80184831AC0CE3439F482E526
:1006E0000E9411018EE4F801848311C0C33539F4EE
:1006F0008CE40E94110183E5F801848308C0C534AD
:1007000031F484E50E94110185E4F8018483F80145
:100710008481C81302C0E12CF12CE114F10409F02A
:100720007CCFCF911F910F91FF90EF900895CF92C2
:10073000DF92EF92FF920F931F93CF93DF9300D03E
:1007400000D01F92CDB7DEB729813A81281739072B
:1007500099F16C01281739075CF4BE016F5F7F4F78
:1007600087E50E94020389819A81C81AD90A0CC0C0
:10077000BE016F5F7F4F85E40E94020329813A81A9
:10078000C9018C199D096C01E12CF12C12C083E583
:100790000E9411010E94D401882329F000E010E09A
:1007A00002C001E010E00115110589F79FEFE91A79
:1007B000F90AEC14FD04ACF30F900F900F900F901A
:1007C0000F90DF91CF911F910F91FF90EF90DF90ED
:1007D000CF900895CF92DF92EF92FF920F931F93E5
:1007E000CF93DF9300D000D01F92CDB7DEB72B811F
:1007F0003C812817390799F16C01281739075CF4F7
:10080000BE016F5F7F4F8EE40E9402038B819C814B
:10081000C81AD90A0CC0BE016F5F7F4F83E50E94E2
:1008200002032B813C81C9018C199D096C01E12CCB
:10083000F12C12C083E50E9411010E94D40188238B
:1008400029F000E010E002C001E010E00115110500
:1008500089F79FEFE91AF90AEC14FD04ACF30F9045
:100860000F900F900F900F90DF91CF911F910F91EC
:10087000FF90EF90DF90CF900895EF92FF920F934B
:100880001F93CF93DF93CDB7DEB76C970FB6F89475
:10089000DEBF0FBECDBF8EE0EAE0F1E0DE011196D3
:1008A00001900D928A95E1F78EE0E8E1F1E0DE013A
:1008B0001F9601900D928A95E1F747E050E0BE0146
:1008C000615F7F4FCE0101960E94AA0200E010E016
:1008D0002DC07801EE0CFF1C81E090E08C0F9D1F75
:1008E000E80EF91EF701808191810E949703F701BC
:1008F000868597850E94EA0388EE93E00E9453085C
:100900000E9454009C01C80167E070E00E94EF0D56
:10091000CB0142E0B90124E6FC012E9FC0012F9FCC
:10092000900D11240E945C000F5F1F4F07301105CE
:1009300084F280E090E00E94EA0380E090E00E9470
:1009400097036C960FB6F894DEBF0FBECDBFDF9154
:10095000CF911F910F91FF90EF900895ECE7F0E099
:1009600080818F7D80830895811103C00E94AE0431
:10097000089580917C00806280937C00089580912E
:100980007C0085FB882780F908950E94BF04882396
:1009900021F08091790090E0089580917800909105
:1009A000790008958032A0F497E890937A009091AE
:1009B0007C00662311F0906C02C09F779064907E5B
:1009C000982B90937C0080917A00806480937A00C9
:1009D0000895A0E0B0E0EFEEF4E00C94760EEB01A9
:1009E00060E00E94D20480917A0086FDFCCF8E01E7
:1009F000C12CD12C760180917A00806480937A009A
:100A000080917A0086FDFCCF0E94C504C80ED91ED5
:100A1000E11CF11C015011090115110561F7CE010E
:100A200096958795C034D10538F48C0D9D1DBE0177
:100A30000E94DB0DCB010EC0A7019601280F391FC4
:100A4000411D511DCA01B9019E0140E050E00E94C4
:100A5000030EC901CDB7DEB7E8E00C94920ECF9239
:100A6000DF92EF92FF92A0910001B09101019C01F1
:100A70000E944A0E6B017C010E94BF04882359F03A
:100A8000C701B60161587F4F8F4F9F4F2FEF30E066
:100A900040E050E00AC0C701B60161507E4F8F4F61
:100AA0009F4F2FEF33E040E050E00E94030EC9015A
:100AB000FF90EF90DF90CF9008950E94E9040E948C
:100AC0002F0508951F93CF93DF930E94BF04182F23
:100AD0000E94AE046AE070E086E00E945D05EC01D1
:100AE000812F0E94B404CE01880F991F8C0F9D1F87
:100AF000019696958795DF91CF911F9108950E9459
:100B00006205089581E090E06F9364E06A95F1F7E3
:100B10006F910197C9F708950F931F93CF93DF93B8
:100B20001AB157985A98289AC0E0D0E00E948205DE
:100B30005C9A0E94820509B15C980E9482055C9AC9
:100B40000E9482055C98249607FF10C0AE0160E009
:100B500070E08091420190914301A0914401B091D5
:100B60004501481759076A077B0700F31AB9DF9157
:100B7000CF911F910F91089595B1282F217030E0EA
:100B8000220F331F482F467068E0469FA0011124B2
:100B9000242B9D7C292B25B99BB188708295807F61
:100BA0009F77892B8BB95C9A0E9482055C980E9482
:100BB00082050895A0E0B0E0E0EEF5E00C94770E39
:100BC000C82FD62EE42E80919C01811105C081E0B2
:100BD00080939C010E9420060E948C0514B1D5B11F
:100BE000FAB00BB12898DD2011F05A9A01C05A983A
:100BF00094B1926394B9579A81E0E81629F08C2F4A
:100C000082958F700E94BC058C2F8F700E94BC054E
:100C1000FAB80BB914B9D5B9CDB7DEB7E7E00C9483
:100C2000930E42E060E00E94DA05089542E061E040
:100C30000E94DA05089541E060E00E94DA05089517
:100C400080E197E2A0E0B0E08093420190934301FD
:100C5000A0934401B0934501529A209A549A8EE190
:100C600090E00E94530883E00E941B0686E090E01B
:100C70000E94530883E00E941B0682E090E00E94DD
:100C8000530883E00E941B0682E090E00E94530814
:100C900082E00E941B0682E090E00E94530888E2F6
:100CA0000E94110688E00E94110681E00E94110650
:100CB00086E00E9411068CE00E941106089581E0F2
:100CC0000E9411068091480190914901892BF9F009
:100CD00060E0A0E2262F30E07091020180910301D4
:100CE00090E00197789FA001799F500D112424175F
:100CF00035074CF4E0914801F0914901E20FF31FF0
:100D0000A0836F5FE7CF10924601109247010895CC
:100D10000E945F060895CF93DF93EC0189918823A9
:100D200019F00E941606FACFDF91CF9108950E9424
:100D30008B060895AAE0B0E0E0EAF6E00C94760EA7
:100D40001AE05AE0C52ED12CE12CF12C062FA70178
:100D500096010E94030ECA01B9011150E1E0F0E0D2
:100D6000EC0FFD1FE10FF11D005D2AE0629F0019ED
:100D700011240083611571058105910539F71A3039
:100D800058F4E1E0F0E0EC0FFD1FE10FF11D808170
:100D90000E9416061F5FF3CF2A96E8E00C94920E8D
:100DA000CF92DF92EF92FF926B017C0197FF0BC015
:100DB000F094E094D094C094C11CD11CE11CF11CAF
:100DC0008DE20E941606C701B6010E949A06FF90A6
:100DD000EF90DF90CF9008950E94D0060895A5E08F
:100DE000B0E0E5EFF6E00C947B0E182F80E88983E5
:100DF00080EC8A8384E98B8384ED8C83FE01E60F8B
:100E0000F11D8181810F6D830E94110610934601AF
:100E10006D81609347012596E3E00C94970E0E9444
:100E2000EF060895883058F491E001C0990F8A9533
:100E3000EAF7892FAAE2B0E0EBE2F0E021C08E30C1
:100E400060F498EF980F81E001C0880F9A95EAF757
:100E5000A4E2B0E0E5E2F0E013C0853160F492EF87
:100E6000980F81E001C0880F9A95EAF7A7E2B0E0F9
:100E7000E8E2F0E005C080E0A0E0B0E0E0E0F0E013
:100E80006F3F19F49081982709C0662319F090816B
:100E9000982B04C02081982F9095922390839C9149
:100EA000982B9C93089583EF8093B00084BD82E0DB
:100EB0008093B10085BD1092B4001092B30018BCAD
:100EC00017BC60E086E00E94120760E085E00E94A7
:100ED000120760E08BE00E94120760E083E00E944E
:100EE0001207089580919D01811105C081E08093D2
:100EF0009D010E9453070895CF93DF93EC010E9458
:100F00007207D7FF05C0D195C195D10981E001C015
:100F100080E0CF3FD10519F014F0CFEFD0E0882367
:100F200019F018BCC7BD02C0C8BD17BCDF91CF9176
:100F30000895CF93DF93EC010E947207D7FF05C09D
:100F4000D195C195D10981E001C080E0CF3FD105A5
:100F500019F014F0CFEFD0E0882329F01092B400FC
:100F6000C093B30004C0C093B4001092B300DF91EB
:100F7000CF910895CF93DF93EB010E947C07CE01C0
:100F80000E949907DF91CF9108950E94BA070895B2
:100F900084B18D7C84B985B1826385B985E090E0A8
:100FA0006F9364E06A95F1F76F910197C9F708951F
:100FB00080919E01811105C081E080939E010E9475
:100FC000C8070895CF93C82F0E94D80783B18C23F8
:100FD000E9F38AE090E00E94530883B18C23B1F3D7
:100FE00083B18C23CF9108950E94E2070895A1E078
:100FF000B0E0EDEFF7E00C947C0E89830E94D807F7
:1010000093B19095898189232196E2E00C94980E02
:101010000E94F70708952F928F939F932FB6809188
:101020005101909152010196809351019093520188
:1010300090E080915301891F8093530190914B015F
:101040009C5F90934B0180914A0180519742C0F080
:1010500090934B0180934A0180914C0190914D01F6
:10106000019680934C0190934D0190E080914E0148
:10107000891F80934E0180914F01891F80934F01FA
:101080002FBE9F918F912F90189528EE33E00197F6
:1010900048F0F9016F9364E06A95F1F76F91319729
:1010A000C9F7F5CF08950E9445080895E0E7F0E0FC
:1010B00080818E7F8083A0EBB0E08C9183608C93E5
:1010C000A1EBB0E08C91807F8C938C9182608C93AB
:1010D000B89A8081816080837894089580919F017F
:1010E000811105C081E080939F010E9456080895F8
:1010F0000E946E08E0E7F0E080818E7F808310928E
:101100004C0110924D0110924E0110924F0110921D
:101110004B0110924A018081816080830895682F7D
:1011200084E591E00E94770C0895462F20E0BC01F1
:1011300084E591E00E94480D08950F93CF93DF93CB
:1011400000D000D01F92CDB7DEB79C0185E0E6E26B
:10115000F1E0DE01119601900D928A95E1F7662388
:1011600011F00FEF01C003E145E0BE016F5F7F4F5B
:1011700084E591E00E946F0984E591E00E944609B0
:101180000E9478080F900F900F900F900F90DF91B2
:10119000CF910F91089560E00E949D08089584E525
:1011A00091E00E94BD0D08956F9364E06A95F1F798
:1011B0006F910197C9F70895FC0111821082138283
:1011C0001282158214821682683068F489E290E0F7
:1011D000918380838BE290E0938382838AE290E024
:1011E000958384831FC06E3070F483E290E0918316
:1011F000808385E290E09383828384E290E095830C
:10120000848368500FC0653198F486E290E0918342
:10121000808388E290E09383828387E290E09583E5
:1012200084836E5081E001C0880F6A95EAF7868357
:101230000895A7E0B0E0EFE1F9E00C947A0E8C019C
:10124000FC0111821082138212821582148217828D
:101250001682613118F080E1808702C0FC0160874E
:10126000F801208B642FCE0101960E94DC088F814B
:10127000F80181878B819C81938782878D819E81F4
:10128000958784872796E4E00C94960EFC01A4854C
:10129000B585109779F08C919185892B8C93A285D7
:1012A000B3859C918185809589238C9388EC90E00F
:1012B0000E94D4080895FC01A485B585109771F0AB
:1012C0008C919185892B8C93A285B3858C91918586
:1012D000892B8C9388EC90E00E94D4080895A7E0B5
:1012E000B0E0E5E7F9E00C946F0E7C014B01642F50
:1012F0003901402F20E00E94190987010F5B1F4F21
:10130000F80110826701F2E4CF0ED11CF6011082C1
:101310005701F3E4AF0EB11CF5011082F701778697
:101320006686512CF7018085581650F5652C712C76
:10133000F401E60DF71D6081CE0101960E94DC08E4
:101340002F81F701E60DF71D218B89819A81F30129
:10135000EE0FFF1FEE0DFF1D92A381A383329105B7
:1013600011F4F80108C08632910511F4F60103C0AA
:10137000899721F4F5018081822B80835394D2CF09
:101380002796EFE00C948B0EA0E0B0E0EAECF9E0D9
:101390000C94710EEC015B016C0181E4C80ED11C50
:1013A000F60180807E01F2E4EF0EF11CF7017080FF
:1013B0008E010D5B1F4FF801908080E098858917A2
:1013C00048F4F501E80FF11DE80FF11D11821082BC
:1013D0008F5FF4CF84B1F6019081892B84B987B1F6
:1013E000F7019081892B87B98AB1F8019081892B07
:1013F0008AB985B1F6019081892B85B988B1F70149
:101400009081892B88B98BB1F8019081892B8BB998
:101410008AE090E00E94D40894B1F6018081809522
:10142000892384B997B1F70180818095892387B991
:101430009AB1F8018081809589238AB995B1F60126
:1014400080818095892385B998B1F7018081809545
:10145000892388B99BB1F8018081809589238BB954
:10146000E090B000D090B1008091B0008360809394
:10147000B00082E08093B1004091B20080E090E043
:101480002E853F858217930720F5C090B2002C2D42
:10149000241B820F911D03B1081132C0F6B0F71062
:1014A0002FC029B129112CC010C0212F30E0A90173
:1014B000440F551FF501E40FF51F60817181672B03
:1014C00021F11F5F2885121780F37F2C802E4C2D71
:1014D000D7CFE092B000D092B10020E088852817E5
:1014E00030F5F501E20FF11DE20FF11D80819181D0
:1014F000892B21F48E859F85918380832F5FEECF8A
:1015000003B1F6B099B010E0DDCFDE01A40FB51F36
:1015100091960D90BC91A02D4C91DE01A20FB31FAE
:1015200051962C91422369F691838083CACFCDB71F
:10153000DEB7EDE00C948D0EEF92FF920F931F93A8
:10154000CF93DF93FC019B01F0907C0000917A0027
:1015500047B118B180917A0086FDFCCF80E090857C
:10156000891748F4D901A80FB11DA80FB11D1D920C
:101570001C928F5FF4CF97B182A18095892387B9A0
:1015800098B182A18095892388B987E880937A00F1
:10159000E12C81A1E81610F0E12C29C050E08085F3
:1015A000581718F5A52FB0E0EF01CA0FDB1F898986
:1015B000806480937C0080917A00806480937A00BC
:1015C00080917A0086FDFCCF60917800709179005F
:1015D000AA0FBB1FA20FB31F8D919C911197860F6D
:1015E000971F8D939C935F5FDACFE394D2CF808572
:1015F000E816A0F4E901CE0DD11DCE0DD11D61A1DB
:1016000070E0CB0195958795A881B9818A0F9B1FC2
:101610000E94DB0D79836883E394E9CFF0927C002C
:1016200000937A0018B947B9CDB7DEB7E6E00C945D
:10163000940EA0E2B0E0EFE1FBE00C94770E8C0199
:101640007B01D42E8FEF840F823018F4C8010E94E2
:101650005B09D80150968C91B701811110C0C80167
:101660000E94C409C8010E944609B2E0DB123AC0D8
:10167000BE016F5F7F4FC8010E94C4090FC0C8013F
:101680000E949C0AC8010E944609E2E0DE122AC0BC
:10169000BE016F5F7F4FC8010E949C0A40E0F801C5
:1016A00080854817F8F4842F90E0880F991FF70180
:1016B000E80FF91F21E030E02C0F3D1F820F931F30
:1016C000D8011E962D913C911F97DC018D919C9124
:1016D000281B390B80819181820F931F9183808316
:1016E0004F5FDDCFA096E7E00C94930E2F923F92D0
:1016F0005F926F927F928F929F92AF92BF92CF92A2
:10170000DF92EF92FF920F931F93CF93DF93CDB7AA
:10171000DEB7C056D1090FB6F894DEBF0FBECDBFFD
:101720008C014B015A01522EDA018D919C91892B2B
:1017300031F0F40180819181892BF1F424C0D8012A
:1017400018968C9190E0880F991F0E94A30EF501C6
:1017500091838083009709F4B1C0FC0120E030E060
:10176000D80118968C9190E02817390714F7119238
:1017700011922F5F3F4FF4CFE12CF12C6E01B1E2BB
:10178000CB0ED11C21C0F801808590E0880F991FF5
:101790000E94A30ED4018D939C93009709F48EC0F0
:1017A000FC0120E030E0D80118968C9190E02817D9
:1017B000390714F7D8011E968D919C911F9781933C
:1017C00091932F5F3F4FEFCF452DBE016F5B7F4F52
:1017D000C8010E94190BF8016084712CFE01EF5BB7
:1017E000FF4FC6019E012F5F3F4F190120E030E0FF
:1017F000261537054CF5E114F10489F0DC016D91F3
:101800007C91408151816417750748F0D1016D9139
:101810007C91408151814617570748F00DC04081A7
:101820005181DC014D935C93E114F10479F740811F
:101830005181D1014D935C932F5F3F4FB2E02B0E4E
:10184000311C32960296D4CFEFEFEE1AFE0AFAE080
:10185000EF16F10409F0B8CF9E012F5F3F4F7901D9
:10186000360180E090E0F801208530E08217930790
:101870002CF5D7012D913D917D01B3016C197D09A6
:10188000D501ED91FC91E60FF71F40815181421780
:10189000530710F431832083F301219131913F01EB
:1018A000D401ED91FC91E60FF71F4081518124177F
:1018B000350710F4318320830196D5CFC05ADF4F0E
:1018C0000FB6F894DEBF0FBECDBFDF91CF911F9151
:1018D0000F91FF90EF90DF90CF90BF90AF909F90CF
:1018E0008F907F906F905F903F902F9008951F93FF
:1018F000CF93DF93EC01162F8FEF860F823018F015
:10190000662359F014C021E0AE014E5F5F4FBE0167
:10191000CE010E94760B123051F4AE014A5F5F4F48
:10192000BE016C5F7F4F20E0CE010E94760BDF91FD
:10193000CF911F910895A0E0B0E0E1EAFCE00C94A3
:10194000750EEC018B01B42E842F8D7F51F48C81A8
:101950009D81892B09F497C08E819F81892B09F481
:1019600092C08FEF8B0D823050F488819981892B42
:1019700009F489C08A819B81892B09F484C04B2D8D
:10198000B801CE010E94190B780100E010E0C12CD3
:10199000D12C888590E0C816D9060CF074C081E07F
:1019A000B8120AC0EA81FB81E00FF11F0190F081BB
:1019B000E02DA881B9810DC08C819D812E813F8150
:1019C000B1100CC0F901E00FF11F0190F081E02D82
:1019D000DC01A00FB11F8D919C9128C0FC01E00F8C
:1019E000F11F40815181E881F981E00FF11F808171
:1019F0009181EE85FF854817590710F4CF0104C087
:101A00008E0F9F1F841B950BD901A00FB11F2D9125
:101A10003C91AA81BB81A00FB11F4D915C9124170D
:101A2000350720F0E40FF51FE21BF30BE81BF90B61
:101A3000A9F0D7012D913C9140E050E0281B390BD3
:101A400041095109A8EEB3E00E94590E9F0140E000
:101A500050E00E94250E37FD0AC002C020E030E0B1
:101A6000293EB3E03B072CF028EE33E002C020E033
:101A700030E0F701219331937F01FFEFCF1ADF0AA6
:101A80000E5F1F4F86CFCDB7DEB7E9E00C94910E05
:101A9000A0E0B0E0EEE4FDE00C946C0EEC018B01F4
:101AA000822E0E949B0C2884E801412C512C32018B
:101AB00000E010E0C12CD12C7601312C912C58EE95
:101AC000A52E53E0B52E921421F1E991F9918820C9
:101AD00021F0C5018E1B9F0BFC01E93CF10524F4AC
:101AE000E333F10574F002C033243394DF01A30122
:101AF00092010E94640EC60ED71EE81EF91E0E0F3C
:101B00001F1F939498EE490E93E0591E611C711C9F
:101B1000DACF31101EC0492D50E04150510924EF59
:101B200031E0429FC001439F900D529F900D1124C0
:101B3000209198013091990128173907B4F088EE67
:101B400093E0489F9001499F300D589F300D11241C
:101B50000EC0980140E050E0C701B6010E94030E9C
:101B6000309399012093980102C020E030E0C90130
:101B7000CDB7DEB7E2E10C94880ECF93DF93EC0192
:101B80008A819B81009711F00E943B0F8E819F817B
:101B9000009711F00E943B0F88819981009711F006
:101BA0000E943B0F8C819D81009711F00E943B0F9A
:101BB000DF91CF910895AA1BBB1B51E107C0AA1F5B
:101BC000BB1FA617B70710F0A61BB70B881F991FDE
:101BD0005A95A9F780959095BC01CD01089597FB82
:101BE000072E16F4009407D077FD09D00E94DB0D74
:101BF00007FC05D03EF4909581959F4F0895709510
:101C000061957F4F0895A1E21A2EAA1BBB1BFD010F
:101C10000DC0AA1FBB1FEE1FFF1FA217B307E407CB
:101C2000F50720F0A21BB30BE40BF50B661F771F23
:101C3000881F991F1A9469F7609570958095909503
:101C40009B01AC01BD01CF010895052E97FB1EF449
:101C500000940E943C0E57FD07D00E94030E07FC23
:101C600003D04EF40C943C0E509540953095219540
:101C70003F4F4F4F5F4F08959095809570956195B8
:101C80007F4F8F4F9F4F0895EE0FFF1F0590F491E8
:101C9000E02D0994A29FB001B39FC001A39F700DD6
:101CA000811D1124911DB29F700D811D1124911D64
:101CB00008950E944A0EA59F900DB49F900DA49F79
:101CC000800D911D11240895B7FF0C94590E0E94A8
:101CD000590E821B930B08952F923F924F925F9261
:101CE0006F927F928F929F92AF92BF92CF92DF922C
:101CF000EF92FF920F931F93CF93DF93CDB7DEB791
:101D0000CA1BDB0B0FB6F894DEBF0FBECDBF099424
:101D10002A88398848885F846E847D848C849B847B
:101D2000AA84B984C884DF80EE80FD800C811B8189
:101D3000AA81B981CE0FD11D0FB6F894DEBF0FBEB8
:101D4000CDBFED0108950F931F93CF93DF938230A2
:101D5000910510F482E090E0E091AF01F091B001C4
:101D600020E030E0A0E0B0E0309719F140815181EF
:101D70000281138148175907C8F08417950769F441
:101D8000109731F012960C93129713961C9327C05C
:101D90000093AF011093B00122C02115310519F055
:101DA0004217530718F49A01BD01EF01DF01F80152
:101DB000DBCF21153105F9F0281B390B2430310513
:101DC00080F48A819B816115710521F0FB01938369
:101DD000828304C09093B0018093AF01FE013296DC
:101DE00044C0FE01E20FF31F819391932250310909
:101DF000398328833AC02091AD013091AE01232B65
:101E000041F420910601309107013093AE012093F7
:101E1000AD0120910401309105012115310541F4F6
:101E20002DB73EB74091080150910901241B350B95
:101E3000E091AD01F091AE01E217F307A0F42E1B83
:101E40003F0B2817390778F0AC014E5F5F4F24171E
:101E5000350748F04E0F5F1F5093AE014093AD0120
:101E60008193919302C0E0E0F0E0CF01DF91CF9148
:101E70001F910F910895CF93DF93009709F481C0CC
:101E8000FC01329713821282A091AF01B091B00190
:101E9000109781F420813181820F931F2091AD0131
:101EA0003091AE012817390751F5F093AE01E09358
:101EB000AD0167C0ED0120E030E0CE17DF0740F450
:101EC0004A815B819E0141155105F1F0EA01F5CF90
:101ED000D383C28340815181840F951FC817D907CE
:101EE00059F488819981840F951F0296918380838C
:101EF0008A819B81938382832115310529F4F09394
:101F0000B001E093AF013DC0E901FB83EA83499151
:101F10005991C40FD51FEC17FD0761F480819181A1
:101F2000840F951F0296E9019983888382819381AA
:101F30009B838A83E0E0F0E012968D919C91139749
:101F4000009719F0FD01DC01F7CF8D919C9111975D
:101F50009D012E5F3F4F820F931F2091AD01309165
:101F6000AE012817390769F4309729F41092B001AF
:101F70001092AF0102C013821282B093AE01A093FF
:101F8000AD01DF91CF91089510E0C4E3D0E004C02B
:101F9000FE010E94440E2196C533D107C9F7F8947B
:021FA000FFCF71
:101FA200881308020000B1012000080005000200A9
:101FB20009000700010003000800060003000500F5
:101FC2000200000008000E0F1011125461736B3AE8
:101FD2000025004261743A004D0050004F0043005A
:021FE2004800B5
:00000001FF
